{
  "address": "0x8799B6FfcBF661bAD5F4249B74ba185d0deb6383",
  "abi": [
    {
      "inputs": [
        {
          "internalType": "string",
          "name": "_gameDescription",
          "type": "string"
        },
        {
          "internalType": "string",
          "name": "_option1Name",
          "type": "string"
        },
        {
          "internalType": "string",
          "name": "_option2Name",
          "type": "string"
        },
        {
          "internalType": "string",
          "name": "_option1LeagueName",
          "type": "string"
        },
        {
          "internalType": "string",
          "name": "_option2LeagueName",
          "type": "string"
        },
        {
          "internalType": "uint256",
          "name": "_matchDateTimestamp",
          "type": "uint256"
        },
        {
          "internalType": "uint256",
          "name": "entranceFee",
          "type": "uint256"
        }
      ],
      "stateMutability": "nonpayable",
      "type": "constructor"
    },
    {
      "inputs": [
        {
          "internalType": "uint256",
          "name": "currentBalance",
          "type": "uint256"
        },
        {
          "internalType": "uint256",
          "name": "numPlayers",
          "type": "uint256"
        },
        {
          "internalType": "bool",
          "name": "gameFinished",
          "type": "bool"
        }
      ],
      "name": "Betting__ExecuteNotNeeded",
      "type": "error"
    },
    {
      "anonymous": false,
      "inputs": [
        {
          "indexed": true,
          "internalType": "address",
          "name": "player",
          "type": "address"
        }
      ],
      "name": "BettingEnter",
      "type": "event"
    },
    {
      "inputs": [],
      "name": "AmountOne",
      "outputs": [
        {
          "internalType": "uint256",
          "name": "",
          "type": "uint256"
        }
      ],
      "stateMutability": "view",
      "type": "function"
    },
    {
      "inputs": [],
      "name": "AmountTwo",
      "outputs": [
        {
          "internalType": "uint256",
          "name": "",
          "type": "uint256"
        }
      ],
      "stateMutability": "view",
      "type": "function"
    },
    {
      "inputs": [],
      "name": "betOnOption1",
      "outputs": [],
      "stateMutability": "payable",
      "type": "function"
    },
    {
      "inputs": [],
      "name": "betOnOption2",
      "outputs": [],
      "stateMutability": "payable",
      "type": "function"
    },
    {
      "inputs": [],
      "name": "checkExecuteReady",
      "outputs": [
        {
          "internalType": "bool",
          "name": "readyToExecute",
          "type": "bool"
        },
        {
          "internalType": "bytes",
          "name": "",
          "type": "bytes"
        }
      ],
      "stateMutability": "view",
      "type": "function"
    },
    {
      "inputs": [
        {
          "internalType": "address",
          "name": "player",
          "type": "address"
        }
      ],
      "name": "checkPlayerExists",
      "outputs": [
        {
          "internalType": "bool",
          "name": "",
          "type": "bool"
        }
      ],
      "stateMutability": "view",
      "type": "function"
    },
    {
      "inputs": [],
      "name": "gameDescription",
      "outputs": [
        {
          "internalType": "string",
          "name": "",
          "type": "string"
        }
      ],
      "stateMutability": "view",
      "type": "function"
    },
    {
      "inputs": [],
      "name": "gameFinished",
      "outputs": [
        {
          "internalType": "bool",
          "name": "",
          "type": "bool"
        }
      ],
      "stateMutability": "view",
      "type": "function"
    },
    {
      "inputs": [],
      "name": "getAdmin",
      "outputs": [
        {
          "internalType": "address",
          "name": "",
          "type": "address"
        }
      ],
      "stateMutability": "view",
      "type": "function"
    },
    {
      "inputs": [],
      "name": "getCommissionRatio",
      "outputs": [
        {
          "internalType": "uint256",
          "name": "",
          "type": "uint256"
        }
      ],
      "stateMutability": "view",
      "type": "function"
    },
    {
      "inputs": [],
      "name": "getEntranceFee",
      "outputs": [
        {
          "internalType": "uint256",
          "name": "",
          "type": "uint256"
        }
      ],
      "stateMutability": "view",
      "type": "function"
    },
    {
      "inputs": [],
      "name": "getGameFinished",
      "outputs": [
        {
          "internalType": "bool",
          "name": "",
          "type": "bool"
        }
      ],
      "stateMutability": "view",
      "type": "function"
    },
    {
      "inputs": [],
      "name": "getMatchDateTimestamp",
      "outputs": [
        {
          "internalType": "uint256",
          "name": "",
          "type": "uint256"
        }
      ],
      "stateMutability": "view",
      "type": "function"
    },
    {
      "inputs": [],
      "name": "getNumberOfPlayers",
      "outputs": [
        {
          "internalType": "uint256",
          "name": "",
          "type": "uint256"
        }
      ],
      "stateMutability": "view",
      "type": "function"
    },
    {
      "inputs": [],
      "name": "getOption1LeagueName",
      "outputs": [
        {
          "internalType": "string",
          "name": "",
          "type": "string"
        }
      ],
      "stateMutability": "view",
      "type": "function"
    },
    {
      "inputs": [],
      "name": "getOption1Name",
      "outputs": [
        {
          "internalType": "string",
          "name": "",
          "type": "string"
        }
      ],
      "stateMutability": "view",
      "type": "function"
    },
    {
      "inputs": [],
      "name": "getOption2LeagueName",
      "outputs": [
        {
          "internalType": "string",
          "name": "",
          "type": "string"
        }
      ],
      "stateMutability": "view",
      "type": "function"
    },
    {
      "inputs": [],
      "name": "getOption2Name",
      "outputs": [
        {
          "internalType": "string",
          "name": "",
          "type": "string"
        }
      ],
      "stateMutability": "view",
      "type": "function"
    },
    {
      "inputs": [
        {
          "internalType": "uint256",
          "name": "index",
          "type": "uint256"
        }
      ],
      "name": "getPlayerInfo",
      "outputs": [
        {
          "internalType": "address",
          "name": "",
          "type": "address"
        }
      ],
      "stateMutability": "view",
      "type": "function"
    },
    {
      "inputs": [],
      "name": "getStartTimestamp",
      "outputs": [
        {
          "internalType": "uint256",
          "name": "",
          "type": "uint256"
        }
      ],
      "stateMutability": "view",
      "type": "function"
    },
    {
      "inputs": [
        {
          "internalType": "uint16",
          "name": "oraclemsg",
          "type": "uint16"
        }
      ],
      "name": "performExecute",
      "outputs": [],
      "stateMutability": "nonpayable",
      "type": "function"
    },
    {
      "inputs": [
        {
          "internalType": "address",
          "name": "",
          "type": "address"
        }
      ],
      "name": "playerInfo",
      "outputs": [
        {
          "internalType": "uint256",
          "name": "amountBet",
          "type": "uint256"
        },
        {
          "internalType": "uint16",
          "name": "teamSelected",
          "type": "uint16"
        }
      ],
      "stateMutability": "view",
      "type": "function"
    },
    {
      "inputs": [
        {
          "internalType": "uint256",
          "name": "",
          "type": "uint256"
        }
      ],
      "name": "players",
      "outputs": [
        {
          "internalType": "address payable",
          "name": "",
          "type": "address"
        }
      ],
      "stateMutability": "view",
      "type": "function"
    },
    {
      "inputs": [
        {
          "internalType": "string",
          "name": "_gameDescription",
          "type": "string"
        },
        {
          "internalType": "string",
          "name": "_option1Name",
          "type": "string"
        },
        {
          "internalType": "string",
          "name": "_option2Name",
          "type": "string"
        },
        {
          "internalType": "uint256",
          "name": "_matchDateTimestamp",
          "type": "uint256"
        }
      ],
      "name": "reopenGame",
      "outputs": [],
      "stateMutability": "nonpayable",
      "type": "function"
    }
  ],
  "transactionHash": "0x4fdeddcfea595987e00f824b9c135ac5dce1f4a20c88e73fb0ae9ec9e2f60b5c",
  "args": [
    "Bet the winner Group Stage A, MSI 2023, 2023-05-02",
    "SKT",
    "KT",
    "LCK",
    "LCK",
    "1683032400",
    "10000000000000000"
  ],
  "numDeployments": 2,
  "solcInputHash": "32cebd42cd76532cd2b501cac9a94575",
  "bytecode": "0x60806040526005600f553480156200001657600080fd5b50604051620026a0380380620026a083398181016040528101906200003c9190620002df565b806000819055506000600660146101000a81548160ff021916908315150217905550426003819055508160048190555033600660006101000a81548173ffffffffffffffffffffffffffffffffffffffff021916908373ffffffffffffffffffffffffffffffffffffffff1602179055508660079080519060200190620000c59291906200019a565b508560089080519060200190620000de9291906200019a565b508460099080519060200190620000f79291906200019a565b5083600a9080519060200190620001109291906200019a565b5082600b9080519060200190620001299291906200019a565b50600660009054906101000a900473ffffffffffffffffffffffffffffffffffffffff16600560006101000a81548173ffffffffffffffffffffffffffffffffffffffff021916908373ffffffffffffffffffffffffffffffffffffffff16021790555050505050505050620005d5565b828054620001a890620004cc565b90600052602060002090601f016020900481019282620001cc576000855562000218565b82601f10620001e757805160ff191683800117855562000218565b8280016001018555821562000218579182015b8281111562000217578251825591602001919060010190620001fa565b5b5090506200022791906200022b565b5090565b5b80821115620002465760008160009055506001016200022c565b5090565b6000620002616200025b8462000456565b6200042d565b90508281526020810184848401111562000280576200027f6200059b565b5b6200028d84828562000496565b509392505050565b600082601f830112620002ad57620002ac62000596565b5b8151620002bf8482602086016200024a565b91505092915050565b600081519050620002d981620005bb565b92915050565b600080600080600080600060e0888a031215620003015762000300620005a5565b5b600088015167ffffffffffffffff811115620003225762000321620005a0565b5b620003308a828b0162000295565b975050602088015167ffffffffffffffff811115620003545762000353620005a0565b5b620003628a828b0162000295565b965050604088015167ffffffffffffffff811115620003865762000385620005a0565b5b620003948a828b0162000295565b955050606088015167ffffffffffffffff811115620003b857620003b7620005a0565b5b620003c68a828b0162000295565b945050608088015167ffffffffffffffff811115620003ea57620003e9620005a0565b5b620003f88a828b0162000295565b93505060a06200040b8a828b01620002c8565b92505060c06200041e8a828b01620002c8565b91505092959891949750929550565b6000620004396200044c565b905062000447828262000502565b919050565b6000604051905090565b600067ffffffffffffffff82111562000474576200047362000567565b5b6200047f82620005aa565b9050602081019050919050565b6000819050919050565b60005b83811015620004b657808201518184015260208101905062000499565b83811115620004c6576000848401525b50505050565b60006002820490506001821680620004e557607f821691505b60208210811415620004fc57620004fb62000538565b5b50919050565b6200050d82620005aa565b810181811067ffffffffffffffff821117156200052f576200052e62000567565b5b80604052505050565b7f4e487b7100000000000000000000000000000000000000000000000000000000600052602260045260246000fd5b7f4e487b7100000000000000000000000000000000000000000000000000000000600052604160045260246000fd5b600080fd5b600080fd5b600080fd5b600080fd5b6000601f19601f8301169050919050565b620005c6816200048c565b8114620005d257600080fd5b50565b6120bb80620005e56000396000f3fe60806040526004361061014b5760003560e01c806365733592116100b6578063d4dbdc321161006f578063d4dbdc3214610438578063ea17532e14610461578063f0f324971461049e578063f71d96cb146104c9578063fd6673f514610506578063fdbe6667146105315761014b565b80636573359214610356578063676f6474146103815780636e9960c3146103ad5780637dc6e841146103d85780638b5d691c14610403578063c85398081461042e5761014b565b80632b74e9bd116101085780632b74e9bd146102315780632f9f65f61461025c5780633ca53bba146102875780634081d916146102b05780634996d51d146102ed5780634b114691146103185761014b565b806309bc33a7146101505780630ca740401461017b5780631385f1a9146101855780631f89f25e146101b057806327f0cbc0146101db5780632aae363014610206575b600080fd5b34801561015c57600080fd5b5061016561055c565b6040516101729190611b44565b60405180910390f35b610183610565565b005b34801561019157600080fd5b5061019a610762565b6040516101a79190611ae2565b60405180910390f35b3480156101bc57600080fd5b506101c56107f4565b6040516101d29190611b44565b60405180910390f35b3480156101e757600080fd5b506101f06107fe565b6040516101fd9190611a97565b60405180910390f35b34801561021257600080fd5b5061021b610815565b6040516102289190611ae2565b60405180910390f35b34801561023d57600080fd5b506102466108a7565b6040516102539190611b44565b60405180910390f35b34801561026857600080fd5b506102716108b1565b60405161027e9190611ae2565b60405180910390f35b34801561029357600080fd5b506102ae60048036038101906102a99190611904565b610943565b005b3480156102bc57600080fd5b506102d760048036038101906102d2919061181c565b610a47565b6040516102e49190611a97565b60405180910390f35b3480156102f957600080fd5b50610302610af9565b60405161030f9190611b44565b60405180910390f35b34801561032457600080fd5b5061033f600480360381019061033a919061181c565b610b03565b60405161034d929190611b5f565b60405180910390f35b34801561036257600080fd5b5061036b610b35565b6040516103789190611b44565b60405180910390f35b34801561038d57600080fd5b50610396610b3f565b6040516103a4929190611ab2565b60405180910390f35b3480156103b957600080fd5b506103c2610be5565b6040516103cf9190611a61565b60405180910390f35b3480156103e457600080fd5b506103ed610c0f565b6040516103fa9190611ae2565b60405180910390f35b34801561040f57600080fd5b50610418610ca1565b6040516104259190611ae2565b60405180910390f35b610436610d2f565b005b34801561044457600080fd5b5061045f600480360381019061045a9190611849565b610f2c565b005b34801561046d57600080fd5b5061048860048036038101906104839190611931565b611090565b6040516104959190611a61565b60405180910390f35b3480156104aa57600080fd5b506104b36110d8565b6040516104c09190611a97565b60405180910390f35b3480156104d557600080fd5b506104f060048036038101906104eb9190611931565b6110eb565b6040516104fd9190611a7c565b60405180910390f35b34801561051257600080fd5b5061051b61112a565b6040516105289190611b44565b60405180910390f35b34801561053d57600080fd5b50610546611137565b6040516105539190611b44565b60405180910390f35b60008054905090565b61056e33610a47565b1561057857600080fd5b600660149054906101000a900460ff161561059257600080fd5b6000543410156105d7576040517f08c379a00000000000000000000000000000000000000000000000000000000081526004016105ce90611b04565b60405180910390fd5b34600c60003373ffffffffffffffffffffffffffffffffffffffff1673ffffffffffffffffffffffffffffffffffffffff168152602001908152602001600020600001819055506001600c60003373ffffffffffffffffffffffffffffffffffffffff1673ffffffffffffffffffffffffffffffffffffffff16815260200190815260200160002060010160006101000a81548161ffff021916908361ffff160217905550600d339080600181540180825580915050600190039060005260206000200160009091909190916101000a81548173ffffffffffffffffffffffffffffffffffffffff021916908373ffffffffffffffffffffffffffffffffffffffff1602179055506064600f5460646106f09190611d2e565b346106fb9190611cd4565b6107059190611ca3565b600160008282546107169190611c4d565b925050819055503373ffffffffffffffffffffffffffffffffffffffff167f7f47e4b864ee52d8ca461d379020be7e99ae801a152dde71193bdc651da8a7c060405160405180910390a2565b6060600a805461077190611e0c565b80601f016020809104026020016040519081016040528092919081815260200182805461079d90611e0c565b80156107ea5780601f106107bf576101008083540402835291602001916107ea565b820191906000526020600020905b8154815290600101906020018083116107cd57829003601f168201915b5050505050905090565b6000600354905090565b6000600660149054906101000a900460ff16905090565b60606008805461082490611e0c565b80601f016020809104026020016040519081016040528092919081815260200182805461085090611e0c565b801561089d5780601f106108725761010080835404028352916020019161089d565b820191906000526020600020905b81548152906001019060200180831161088057829003601f168201915b5050505050905090565b6000600454905090565b6060600b80546108c090611e0c565b80601f01602080910402602001604051908101604052809291908181526020018280546108ec90611e0c565b80156109395780601f1061090e57610100808354040283529160200191610939565b820191906000526020600020905b81548152906001019060200180831161091c57829003601f168201915b5050505050905090565b600660009054906101000a900473ffffffffffffffffffffffffffffffffffffffff1673ffffffffffffffffffffffffffffffffffffffff163373ffffffffffffffffffffffffffffffffffffffff16146109d3576040517f08c379a00000000000000000000000000000000000000000000000000000000081526004016109ca90611b24565b60405180910390fd5b60006109dd610b3f565b50905080610a3a5747600d80549050600660149054906101000a900460ff166040517f0f724954000000000000000000000000000000000000000000000000000000008152600401610a3193929190611b88565b60405180910390fd5b610a4382611141565b5050565b600080600d80549050905060005b81811015610aed578373ffffffffffffffffffffffffffffffffffffffff16600d8281548110610a8857610a87611f45565b5b9060005260206000200160009054906101000a900473ffffffffffffffffffffffffffffffffffffffff1673ffffffffffffffffffffffffffffffffffffffff161415610ada57600192505050610af4565b8080610ae590611e6f565b915050610a55565b5060009150505b919050565b6000600154905090565b600c6020528060005260406000206000915090508060000154908060010160009054906101000a900461ffff16905082565b6000600254905090565b600060606000801515600660149054906101000a900460ff16151514905060008060045442610b6e9190611d2e565b119050600080600d8054905011905060008047119050828015610b8e5750835b8015610b975750805b8015610ba05750815b9550856040518060400160405280600381526020017f307830000000000000000000000000000000000000000000000000000000000081525095509550505050509091565b6000600660009054906101000a900473ffffffffffffffffffffffffffffffffffffffff16905090565b606060098054610c1e90611e0c565b80601f0160208091040260200160405190810160405280929190818152602001828054610c4a90611e0c565b8015610c975780601f10610c6c57610100808354040283529160200191610c97565b820191906000526020600020905b815481529060010190602001808311610c7a57829003601f168201915b5050505050905090565b60078054610cae90611e0c565b80601f0160208091040260200160405190810160405280929190818152602001828054610cda90611e0c565b8015610d275780601f10610cfc57610100808354040283529160200191610d27565b820191906000526020600020905b815481529060010190602001808311610d0a57829003601f168201915b505050505081565b610d3833610a47565b15610d4257600080fd5b600660149054906101000a900460ff1615610d5c57600080fd5b600054341015610da1576040517f08c379a0000000000000000000000000000000000000000000000000000000008152600401610d9890611b04565b60405180910390fd5b34600c60003373ffffffffffffffffffffffffffffffffffffffff1673ffffffffffffffffffffffffffffffffffffffff168152602001908152602001600020600001819055506002600c60003373ffffffffffffffffffffffffffffffffffffffff1673ffffffffffffffffffffffffffffffffffffffff16815260200190815260200160002060010160006101000a81548161ffff021916908361ffff160217905550600d339080600181540180825580915050600190039060005260206000200160009091909190916101000a81548173ffffffffffffffffffffffffffffffffffffffff021916908373ffffffffffffffffffffffffffffffffffffffff1602179055506064600f546064610eba9190611d2e565b34610ec59190611cd4565b610ecf9190611ca3565b60026000828254610ee09190611c4d565b925050819055503373ffffffffffffffffffffffffffffffffffffffff167f7f47e4b864ee52d8ca461d379020be7e99ae801a152dde71193bdc651da8a7c060405160405180910390a2565b600660009054906101000a900473ffffffffffffffffffffffffffffffffffffffff1673ffffffffffffffffffffffffffffffffffffffff163373ffffffffffffffffffffffffffffffffffffffff1614610fbc576040517f08c379a0000000000000000000000000000000000000000000000000000000008152600401610fb390611b24565b60405180910390fd5b6000600660146101000a81548160ff0219169083151502179055508360079080519060200190610fed92919061161f565b50826008908051906020019061100492919061161f565b50816009908051906020019061101b92919061161f565b5080600481905550600067ffffffffffffffff81111561103e5761103d611f74565b5b60405190808252806020026020018201604052801561106c5781602001602082028036833780820191505090505b50600d90805190602001906110829291906116a5565b504260038190555050505050565b6000600d82815481106110a6576110a5611f45565b5b9060005260206000200160009054906101000a900473ffffffffffffffffffffffffffffffffffffffff169050919050565b600660149054906101000a900460ff1681565b600d81815481106110fb57600080fd5b906000526020600020016000915054906101000a900473ffffffffffffffffffffffffffffffffffffffff1681565b6000600d80549050905090565b6000600f54905090565b600660009054906101000a900473ffffffffffffffffffffffffffffffffffffffff1673ffffffffffffffffffffffffffffffffffffffff163373ffffffffffffffffffffffffffffffffffffffff16146111d1576040517f08c379a00000000000000000000000000000000000000000000000000000000081526004016111c890611b24565b60405180910390fd5b600080600080600080600090505b600d8054905081101561130457600d8181548110611200576111ff611f45565b5b9060005260206000200160009054906101000a900473ffffffffffffffffffffffffffffffffffffffff1691508661ffff16600c60008473ffffffffffffffffffffffffffffffffffffffff1673ffffffffffffffffffffffffffffffffffffffff16815260200190815260200160002060010160009054906101000a900461ffff1661ffff1614156112f157600e829080600181540180825580915050600190039060005260206000200160009091909190916101000a81548173ffffffffffffffffffffffffffffffffffffffff021916908373ffffffffffffffffffffffffffffffffffffffff1602179055505b80806112fc90611e6f565b9150506111df565b5060018661ffff161415611321576002549450600154935061132c565b600154945060025493505b60005b600e8054905081101561149d57600e81815481106113505761134f611f45565b5b9060005260206000200160009054906101000a900473ffffffffffffffffffffffffffffffffffffffff169350600c60008573ffffffffffffffffffffffffffffffffffffffff1673ffffffffffffffffffffffffffffffffffffffff168152602001908152602001600020600001549250600061271086612710896113d69190611cd4565b6113e09190611ca3565b6127106113ed9190611c4d565b856113f89190611cd4565b6114029190611ca3565b9050600e828154811061141857611417611f45565b5b9060005260206000200160009054906101000a900473ffffffffffffffffffffffffffffffffffffffff1673ffffffffffffffffffffffffffffffffffffffff166108fc829081150290604051600060405180830381858888f19350505050158015611488573d6000803e3d6000fd5b5050808061149590611e6f565b91505061132f565b50600560009054906101000a900473ffffffffffffffffffffffffffffffffffffffff1673ffffffffffffffffffffffffffffffffffffffff166108fc479081150290604051600060405180830381858888f19350505050158015611506573d6000803e3d6000fd5b506001600660146101000a81548160ff02191690831515021790555060005b600d805490508110156115e257600c6000600d838154811061154a57611549611f45565b5b9060005260206000200160009054906101000a900473ffffffffffffffffffffffffffffffffffffffff1673ffffffffffffffffffffffffffffffffffffffff1673ffffffffffffffffffffffffffffffffffffffff1681526020019081526020016000206000808201600090556001820160006101000a81549061ffff0219169055505080806115da90611e6f565b915050611525565b50600d60006115f1919061172f565b600e60006115ff919061172f565b600094506000935060006001819055506000600281905550505050505050565b82805461162b90611e0c565b90600052602060002090601f01602090048101928261164d5760008555611694565b82601f1061166657805160ff1916838001178555611694565b82800160010185558215611694579182015b82811115611693578251825591602001919060010190611678565b5b5090506116a19190611750565b5090565b82805482825590600052602060002090810192821561171e579160200282015b8281111561171d5782518260006101000a81548173ffffffffffffffffffffffffffffffffffffffff021916908373ffffffffffffffffffffffffffffffffffffffff160217905550916020019190600101906116c5565b5b50905061172b9190611750565b5090565b508054600082559060005260206000209081019061174d9190611750565b50565b5b80821115611769576000816000905550600101611751565b5090565b600061178061177b84611be4565b611bbf565b90508281526020810184848401111561179c5761179b611fa8565b5b6117a7848285611dca565b509392505050565b6000813590506117be81612040565b92915050565b600082601f8301126117d9576117d8611fa3565b5b81356117e984826020860161176d565b91505092915050565b60008135905061180181612057565b92915050565b6000813590506118168161206e565b92915050565b60006020828403121561183257611831611fb2565b5b6000611840848285016117af565b91505092915050565b6000806000806080858703121561186357611862611fb2565b5b600085013567ffffffffffffffff81111561188157611880611fad565b5b61188d878288016117c4565b945050602085013567ffffffffffffffff8111156118ae576118ad611fad565b5b6118ba878288016117c4565b935050604085013567ffffffffffffffff8111156118db576118da611fad565b5b6118e7878288016117c4565b92505060606118f887828801611807565b91505092959194509250565b60006020828403121561191a57611919611fb2565b5b6000611928848285016117f2565b91505092915050565b60006020828403121561194757611946611fb2565b5b600061195584828501611807565b91505092915050565b61196781611d74565b82525050565b61197681611d62565b82525050565b61198581611d86565b82525050565b600061199682611c15565b6119a08185611c2b565b93506119b0818560208601611dd9565b6119b981611fb7565b840191505092915050565b60006119cf82611c20565b6119d98185611c3c565b93506119e9818560208601611dd9565b6119f281611fb7565b840191505092915050565b6000611a0a601783611c3c565b9150611a1582611fc8565b602082019050919050565b6000611a2d602183611c3c565b9150611a3882611ff1565b604082019050919050565b611a4c81611d92565b82525050565b611a5b81611dc0565b82525050565b6000602082019050611a76600083018461196d565b92915050565b6000602082019050611a91600083018461195e565b92915050565b6000602082019050611aac600083018461197c565b92915050565b6000604082019050611ac7600083018561197c565b8181036020830152611ad9818461198b565b90509392505050565b60006020820190508181036000830152611afc81846119c4565b905092915050565b60006020820190508181036000830152611b1d816119fd565b9050919050565b60006020820190508181036000830152611b3d81611a20565b9050919050565b6000602082019050611b596000830184611a52565b92915050565b6000604082019050611b746000830185611a52565b611b816020830184611a43565b9392505050565b6000606082019050611b9d6000830186611a52565b611baa6020830185611a52565b611bb7604083018461197c565b949350505050565b6000611bc9611bda565b9050611bd58282611e3e565b919050565b6000604051905090565b600067ffffffffffffffff821115611bff57611bfe611f74565b5b611c0882611fb7565b9050602081019050919050565b600081519050919050565b600081519050919050565b600082825260208201905092915050565b600082825260208201905092915050565b6000611c5882611dc0565b9150611c6383611dc0565b9250827fffffffffffffffffffffffffffffffffffffffffffffffffffffffffffffffff03821115611c9857611c97611eb8565b5b828201905092915050565b6000611cae82611dc0565b9150611cb983611dc0565b925082611cc957611cc8611ee7565b5b828204905092915050565b6000611cdf82611dc0565b9150611cea83611dc0565b9250817fffffffffffffffffffffffffffffffffffffffffffffffffffffffffffffffff0483118215151615611d2357611d22611eb8565b5b828202905092915050565b6000611d3982611dc0565b9150611d4483611dc0565b925082821015611d5757611d56611eb8565b5b828203905092915050565b6000611d6d82611da0565b9050919050565b6000611d7f82611da0565b9050919050565b60008115159050919050565b600061ffff82169050919050565b600073ffffffffffffffffffffffffffffffffffffffff82169050919050565b6000819050919050565b82818337600083830152505050565b60005b83811015611df7578082015181840152602081019050611ddc565b83811115611e06576000848401525b50505050565b60006002820490506001821680611e2457607f821691505b60208210811415611e3857611e37611f16565b5b50919050565b611e4782611fb7565b810181811067ffffffffffffffff82111715611e6657611e65611f74565b5b80604052505050565b6000611e7a82611dc0565b91507fffffffffffffffffffffffffffffffffffffffffffffffffffffffffffffffff821415611ead57611eac611eb8565b5b600182019050919050565b7f4e487b7100000000000000000000000000000000000000000000000000000000600052601160045260246000fd5b7f4e487b7100000000000000000000000000000000000000000000000000000000600052601260045260246000fd5b7f4e487b7100000000000000000000000000000000000000000000000000000000600052602260045260246000fd5b7f4e487b7100000000000000000000000000000000000000000000000000000000600052603260045260246000fd5b7f4e487b7100000000000000000000000000000000000000000000000000000000600052604160045260246000fd5b600080fd5b600080fd5b600080fd5b600080fd5b6000601f19601f8301169050919050565b7f496e73756666696369656e742062657420616d6f756e74000000000000000000600082015250565b7f4f6e6c792061646d696e2063616e2063616c6c20746869732066756e6374696f60008201527f6e00000000000000000000000000000000000000000000000000000000000000602082015250565b61204981611d62565b811461205457600080fd5b50565b61206081611d92565b811461206b57600080fd5b50565b61207781611dc0565b811461208257600080fd5b5056fea2646970667358221220c526586f16ac3398c763e1a3c6d79b2516c0a7ca87a8cdd00fa60a5c9a1287fa64736f6c63430008070033",
  "devdoc": {
    "author": "Yakou Hikoichi",
    "kind": "dev",
    "methods": {
      "checkExecuteReady()": {
        "details": "This is the function whether the execution of betting is ready or not they look for `readyToExecute` to return True. the following should be true for this to return true: 1. The time interval has passed between betting runs. 2. The Game is open. 3. The contract has ETH."
      },
      "performExecute(uint16)": {
        "details": "Once `checkExecuteReady` is returning `true`, this function is called and it kicks off the winner."
      }
    },
    "title": "A sample Betting Contract",
    "version": 1
  },
  "userdoc": {
    "kind": "user",
    "methods": {
      "getAdmin()": {
        "notice": "Getter Functions "
      }
    },
    "notice": "This contract is for creating a sample betting contract",
    "version": 1
  },
  "storageLayout": {
    "storage": [
      {
        "astId": 330,
        "contract": "contracts/BinaryBet.sol:Betting",
        "label": "minimumBet",
        "offset": 0,
        "slot": "0",
        "type": "t_uint256"
      },
      {
        "astId": 332,
        "contract": "contracts/BinaryBet.sol:Betting",
        "label": "totalBetOne",
        "offset": 0,
        "slot": "1",
        "type": "t_uint256"
      },
      {
        "astId": 334,
        "contract": "contracts/BinaryBet.sol:Betting",
        "label": "totalBetTwo",
        "offset": 0,
        "slot": "2",
        "type": "t_uint256"
      },
      {
        "astId": 336,
        "contract": "contracts/BinaryBet.sol:Betting",
        "label": "startTimestamp",
        "offset": 0,
        "slot": "3",
        "type": "t_uint256"
      },
      {
        "astId": 338,
        "contract": "contracts/BinaryBet.sol:Betting",
        "label": "matchDateTimestamp",
        "offset": 0,
        "slot": "4",
        "type": "t_uint256"
      },
      {
        "astId": 340,
        "contract": "contracts/BinaryBet.sol:Betting",
        "label": "owner",
        "offset": 0,
        "slot": "5",
        "type": "t_address_payable"
      },
      {
        "astId": 342,
        "contract": "contracts/BinaryBet.sol:Betting",
        "label": "admin",
        "offset": 0,
        "slot": "6",
        "type": "t_address"
      },
      {
        "astId": 344,
        "contract": "contracts/BinaryBet.sol:Betting",
        "label": "gameFinished",
        "offset": 20,
        "slot": "6",
        "type": "t_bool"
      },
      {
        "astId": 346,
        "contract": "contracts/BinaryBet.sol:Betting",
        "label": "gameDescription",
        "offset": 0,
        "slot": "7",
        "type": "t_string_storage"
      },
      {
        "astId": 348,
        "contract": "contracts/BinaryBet.sol:Betting",
        "label": "option1Name",
        "offset": 0,
        "slot": "8",
        "type": "t_string_storage"
      },
      {
        "astId": 350,
        "contract": "contracts/BinaryBet.sol:Betting",
        "label": "option2Name",
        "offset": 0,
        "slot": "9",
        "type": "t_string_storage"
      },
      {
        "astId": 352,
        "contract": "contracts/BinaryBet.sol:Betting",
        "label": "option1LeagueName",
        "offset": 0,
        "slot": "10",
        "type": "t_string_storage"
      },
      {
        "astId": 354,
        "contract": "contracts/BinaryBet.sol:Betting",
        "label": "option2LeagueName",
        "offset": 0,
        "slot": "11",
        "type": "t_string_storage"
      },
      {
        "astId": 364,
        "contract": "contracts/BinaryBet.sol:Betting",
        "label": "playerInfo",
        "offset": 0,
        "slot": "12",
        "type": "t_mapping(t_address,t_struct(Player)359_storage)"
      },
      {
        "astId": 367,
        "contract": "contracts/BinaryBet.sol:Betting",
        "label": "players",
        "offset": 0,
        "slot": "13",
        "type": "t_array(t_address_payable)dyn_storage"
      },
      {
        "astId": 370,
        "contract": "contracts/BinaryBet.sol:Betting",
        "label": "winners",
        "offset": 0,
        "slot": "14",
        "type": "t_array(t_address_payable)dyn_storage"
      },
      {
        "astId": 373,
        "contract": "contracts/BinaryBet.sol:Betting",
        "label": "commission",
        "offset": 0,
        "slot": "15",
        "type": "t_uint256"
      }
    ],
    "types": {
      "t_address": {
        "encoding": "inplace",
        "label": "address",
        "numberOfBytes": "20"
      },
      "t_address_payable": {
        "encoding": "inplace",
        "label": "address payable",
        "numberOfBytes": "20"
      },
      "t_array(t_address_payable)dyn_storage": {
        "base": "t_address_payable",
        "encoding": "dynamic_array",
        "label": "address payable[]",
        "numberOfBytes": "32"
      },
      "t_bool": {
        "encoding": "inplace",
        "label": "bool",
        "numberOfBytes": "1"
      },
      "t_mapping(t_address,t_struct(Player)359_storage)": {
        "encoding": "mapping",
        "key": "t_address",
        "label": "mapping(address => struct Betting.Player)",
        "numberOfBytes": "32",
        "value": "t_struct(Player)359_storage"
      },
      "t_string_storage": {
        "encoding": "bytes",
        "label": "string",
        "numberOfBytes": "32"
      },
      "t_struct(Player)359_storage": {
        "encoding": "inplace",
        "label": "struct Betting.Player",
        "members": [
          {
            "astId": 356,
            "contract": "contracts/BinaryBet.sol:Betting",
            "label": "amountBet",
            "offset": 0,
            "slot": "0",
            "type": "t_uint256"
          },
          {
            "astId": 358,
            "contract": "contracts/BinaryBet.sol:Betting",
            "label": "teamSelected",
            "offset": 0,
            "slot": "1",
            "type": "t_uint16"
          }
        ],
        "numberOfBytes": "64"
      },
      "t_uint16": {
        "encoding": "inplace",
        "label": "uint16",
        "numberOfBytes": "2"
      },
      "t_uint256": {
        "encoding": "inplace",
        "label": "uint256",
        "numberOfBytes": "32"
      }
    }
  }
}