{
  "address": "0x5A712D1b0bdb378B1434d10BB2B07D7a7d4a3D97",
  "abi": [
    {
      "inputs": [
        {
          "internalType": "string",
          "name": "_gameDescription",
          "type": "string"
        },
        {
          "internalType": "string",
          "name": "_option1Name",
          "type": "string"
        },
        {
          "internalType": "string",
          "name": "_option2Name",
          "type": "string"
        },
        {
          "internalType": "string",
          "name": "_option1LeagueName",
          "type": "string"
        },
        {
          "internalType": "string",
          "name": "_option2LeagueName",
          "type": "string"
        },
        {
          "internalType": "uint256",
          "name": "_matchDateTimestamp",
          "type": "uint256"
        },
        {
          "internalType": "uint256",
          "name": "entranceFee",
          "type": "uint256"
        }
      ],
      "stateMutability": "nonpayable",
      "type": "constructor"
    },
    {
      "inputs": [
        {
          "internalType": "uint256",
          "name": "currentBalance",
          "type": "uint256"
        },
        {
          "internalType": "uint256",
          "name": "numPlayers",
          "type": "uint256"
        },
        {
          "internalType": "bool",
          "name": "gameFinished",
          "type": "bool"
        }
      ],
      "name": "Betting__ExecuteNotNeeded",
      "type": "error"
    },
    {
      "anonymous": false,
      "inputs": [
        {
          "indexed": true,
          "internalType": "address",
          "name": "player",
          "type": "address"
        }
      ],
      "name": "BettingEnter",
      "type": "event"
    },
    {
      "inputs": [],
      "name": "AmountOne",
      "outputs": [
        {
          "internalType": "uint256",
          "name": "",
          "type": "uint256"
        }
      ],
      "stateMutability": "view",
      "type": "function"
    },
    {
      "inputs": [],
      "name": "AmountTwo",
      "outputs": [
        {
          "internalType": "uint256",
          "name": "",
          "type": "uint256"
        }
      ],
      "stateMutability": "view",
      "type": "function"
    },
    {
      "inputs": [],
      "name": "betOnOption1",
      "outputs": [],
      "stateMutability": "payable",
      "type": "function"
    },
    {
      "inputs": [],
      "name": "betOnOption2",
      "outputs": [],
      "stateMutability": "payable",
      "type": "function"
    },
    {
      "inputs": [],
      "name": "checkExecuteReady",
      "outputs": [
        {
          "internalType": "bool",
          "name": "readyToExecute",
          "type": "bool"
        },
        {
          "internalType": "bytes",
          "name": "",
          "type": "bytes"
        }
      ],
      "stateMutability": "view",
      "type": "function"
    },
    {
      "inputs": [
        {
          "internalType": "address",
          "name": "player",
          "type": "address"
        }
      ],
      "name": "checkPlayerExists",
      "outputs": [
        {
          "internalType": "bool",
          "name": "",
          "type": "bool"
        }
      ],
      "stateMutability": "view",
      "type": "function"
    },
    {
      "inputs": [],
      "name": "getAdmin",
      "outputs": [
        {
          "internalType": "address",
          "name": "",
          "type": "address"
        }
      ],
      "stateMutability": "view",
      "type": "function"
    },
    {
      "inputs": [],
      "name": "getCommissionRatio",
      "outputs": [
        {
          "internalType": "uint256",
          "name": "",
          "type": "uint256"
        }
      ],
      "stateMutability": "view",
      "type": "function"
    },
    {
      "inputs": [],
      "name": "getEntranceFee",
      "outputs": [
        {
          "internalType": "uint256",
          "name": "",
          "type": "uint256"
        }
      ],
      "stateMutability": "view",
      "type": "function"
    },
    {
      "inputs": [],
      "name": "getGameFinished",
      "outputs": [
        {
          "internalType": "bool",
          "name": "",
          "type": "bool"
        }
      ],
      "stateMutability": "view",
      "type": "function"
    },
    {
      "inputs": [],
      "name": "getMatchDateTimestamp",
      "outputs": [
        {
          "internalType": "uint256",
          "name": "",
          "type": "uint256"
        }
      ],
      "stateMutability": "view",
      "type": "function"
    },
    {
      "inputs": [],
      "name": "getNumberOfPlayers",
      "outputs": [
        {
          "internalType": "uint256",
          "name": "",
          "type": "uint256"
        }
      ],
      "stateMutability": "view",
      "type": "function"
    },
    {
      "inputs": [],
      "name": "getOption1LeagueName",
      "outputs": [
        {
          "internalType": "string",
          "name": "",
          "type": "string"
        }
      ],
      "stateMutability": "view",
      "type": "function"
    },
    {
      "inputs": [],
      "name": "getOption1Name",
      "outputs": [
        {
          "internalType": "string",
          "name": "",
          "type": "string"
        }
      ],
      "stateMutability": "view",
      "type": "function"
    },
    {
      "inputs": [],
      "name": "getOption2LeagueName",
      "outputs": [
        {
          "internalType": "string",
          "name": "",
          "type": "string"
        }
      ],
      "stateMutability": "view",
      "type": "function"
    },
    {
      "inputs": [],
      "name": "getOption2Name",
      "outputs": [
        {
          "internalType": "string",
          "name": "",
          "type": "string"
        }
      ],
      "stateMutability": "view",
      "type": "function"
    },
    {
      "inputs": [
        {
          "internalType": "uint256",
          "name": "index",
          "type": "uint256"
        }
      ],
      "name": "getPlayerInfo",
      "outputs": [
        {
          "internalType": "address",
          "name": "",
          "type": "address"
        }
      ],
      "stateMutability": "view",
      "type": "function"
    },
    {
      "inputs": [],
      "name": "getStartTimestamp",
      "outputs": [
        {
          "internalType": "uint256",
          "name": "",
          "type": "uint256"
        }
      ],
      "stateMutability": "view",
      "type": "function"
    },
    {
      "inputs": [
        {
          "internalType": "uint16",
          "name": "oraclemsg",
          "type": "uint16"
        }
      ],
      "name": "performExecute",
      "outputs": [],
      "stateMutability": "nonpayable",
      "type": "function"
    },
    {
      "inputs": [
        {
          "internalType": "address",
          "name": "",
          "type": "address"
        }
      ],
      "name": "playerInfo",
      "outputs": [
        {
          "internalType": "uint256",
          "name": "amountBet",
          "type": "uint256"
        },
        {
          "internalType": "uint16",
          "name": "teamSelected",
          "type": "uint16"
        }
      ],
      "stateMutability": "view",
      "type": "function"
    },
    {
      "inputs": [
        {
          "internalType": "string",
          "name": "_gameDescription",
          "type": "string"
        },
        {
          "internalType": "string",
          "name": "_option1Name",
          "type": "string"
        },
        {
          "internalType": "string",
          "name": "_option1LeagueName",
          "type": "string"
        },
        {
          "internalType": "string",
          "name": "_option2Name",
          "type": "string"
        },
        {
          "internalType": "string",
          "name": "_option2LeagueName",
          "type": "string"
        },
        {
          "internalType": "uint256",
          "name": "_matchDateTimestamp",
          "type": "uint256"
        }
      ],
      "name": "reopenGame",
      "outputs": [],
      "stateMutability": "nonpayable",
      "type": "function"
    }
  ],
  "transactionHash": "0xab832d940a6ef6d147227937b2b5fc0bc0775094a0d4188325b2af6c39291118",
  "args": [
    "Bet the winner, MSI 2023, May 14, 2023 11:00:00 AM",
    "BLG",
    "JDG",
    "LPL",
    "LPL",
    "1684062000",
    "1000000000000000"
  ],
  "numDeployments": 14,
  "solcInputHash": "6ca0250e8fd87d28314cfe4e8f6a896c",
  "bytecode": "0x60806040526005600f553480156200001657600080fd5b5060405162002b3438038062002b3483398181016040528101906200003c919062000345565b806000819055506000600660146101000a81548160ff021916908315150217905550426003819055508160048190555033600660006101000a81548173ffffffffffffffffffffffffffffffffffffffff021916908373ffffffffffffffffffffffffffffffffffffffff1602179055508660079081620000be9190620006d4565b508560089081620000d09190620006d4565b508460099081620000e29190620006d4565b5083600a9081620000f49190620006d4565b5082600b9081620001069190620006d4565b50600660009054906101000a900473ffffffffffffffffffffffffffffffffffffffff16600560006101000a81548173ffffffffffffffffffffffffffffffffffffffff021916908373ffffffffffffffffffffffffffffffffffffffff16021790555050505050505050620007bb565b6000604051905090565b600080fd5b600080fd5b600080fd5b600080fd5b6000601f19601f8301169050919050565b7f4e487b7100000000000000000000000000000000000000000000000000000000600052604160045260246000fd5b620001e08262000195565b810181811067ffffffffffffffff82111715620002025762000201620001a6565b5b80604052505050565b60006200021762000177565b9050620002258282620001d5565b919050565b600067ffffffffffffffff821115620002485762000247620001a6565b5b620002538262000195565b9050602081019050919050565b60005b838110156200028057808201518184015260208101905062000263565b60008484015250505050565b6000620002a36200029d846200022a565b6200020b565b905082815260208101848484011115620002c257620002c162000190565b5b620002cf84828562000260565b509392505050565b600082601f830112620002ef57620002ee6200018b565b5b8151620003018482602086016200028c565b91505092915050565b6000819050919050565b6200031f816200030a565b81146200032b57600080fd5b50565b6000815190506200033f8162000314565b92915050565b600080600080600080600060e0888a03121562000367576200036662000181565b5b600088015167ffffffffffffffff81111562000388576200038762000186565b5b620003968a828b01620002d7565b975050602088015167ffffffffffffffff811115620003ba57620003b962000186565b5b620003c88a828b01620002d7565b965050604088015167ffffffffffffffff811115620003ec57620003eb62000186565b5b620003fa8a828b01620002d7565b955050606088015167ffffffffffffffff8111156200041e576200041d62000186565b5b6200042c8a828b01620002d7565b945050608088015167ffffffffffffffff81111562000450576200044f62000186565b5b6200045e8a828b01620002d7565b93505060a0620004718a828b016200032e565b92505060c0620004848a828b016200032e565b91505092959891949750929550565b600081519050919050565b7f4e487b7100000000000000000000000000000000000000000000000000000000600052602260045260246000fd5b60006002820490506001821680620004e657607f821691505b602082108103620004fc57620004fb6200049e565b5b50919050565b60008190508160005260206000209050919050565b60006020601f8301049050919050565b600082821b905092915050565b600060088302620005667fffffffffffffffffffffffffffffffffffffffffffffffffffffffffffffffff8262000527565b62000572868362000527565b95508019841693508086168417925050509392505050565b6000819050919050565b6000620005b5620005af620005a9846200030a565b6200058a565b6200030a565b9050919050565b6000819050919050565b620005d18362000594565b620005e9620005e082620005bc565b84845462000534565b825550505050565b600090565b62000600620005f1565b6200060d818484620005c6565b505050565b5b81811015620006355762000629600082620005f6565b60018101905062000613565b5050565b601f82111562000684576200064e8162000502565b620006598462000517565b8101602085101562000669578190505b62000681620006788562000517565b83018262000612565b50505b505050565b600082821c905092915050565b6000620006a96000198460080262000689565b1980831691505092915050565b6000620006c4838362000696565b9150826002028217905092915050565b620006df8262000493565b67ffffffffffffffff811115620006fb57620006fa620001a6565b5b620007078254620004cd565b6200071482828562000639565b600060209050601f8311600181146200074c576000841562000737578287015190505b620007438582620006b6565b865550620007b3565b601f1984166200075c8662000502565b60005b8281101562000786578489015182556001820191506020850194506020810190506200075f565b86831015620007a65784890151620007a2601f89168262000696565b8355505b6001600288020188555050505b505050505050565b61236980620007cb6000396000f3fe60806040526004361061012a5760003560e01c80634996d51d116100ab578063777cd2471161006f578063777cd247146103b75780637dc6e841146103e0578063c85398081461040b578063ea17532e14610415578063fd6673f514610452578063fdbe66671461047d5761012a565b80634996d51d146102cc5780634b114691146102f75780636573359214610335578063676f6474146103605780636e9960c31461038c5761012a565b80632aae3630116100f25780632aae3630146101e55780632b74e9bd146102105780632f9f65f61461023b5780633ca53bba146102665780634081d9161461028f5761012a565b806309bc33a71461012f5780630ca740401461015a5780631385f1a9146101645780631f89f25e1461018f57806327f0cbc0146101ba575b600080fd5b34801561013b57600080fd5b506101446104a8565b6040516101519190611695565b60405180910390f35b6101626104b1565b005b34801561017057600080fd5b506101796106f8565b6040516101869190611740565b60405180910390f35b34801561019b57600080fd5b506101a461078a565b6040516101b19190611695565b60405180910390f35b3480156101c657600080fd5b506101cf610794565b6040516101dc919061177d565b60405180910390f35b3480156101f157600080fd5b506101fa6107ab565b6040516102079190611740565b60405180910390f35b34801561021c57600080fd5b5061022561083d565b6040516102329190611695565b60405180910390f35b34801561024757600080fd5b50610250610847565b60405161025d9190611740565b60405180910390f35b34801561027257600080fd5b5061028d600480360381019061028891906117e6565b6108d9565b005b34801561029b57600080fd5b506102b660048036038101906102b19190611871565b610a21565b6040516102c3919061177d565b60405180910390f35b3480156102d857600080fd5b506102e1610ad2565b6040516102ee9190611695565b60405180910390f35b34801561030357600080fd5b5061031e60048036038101906103199190611871565b610adc565b60405161032c9291906118ad565b60405180910390f35b34801561034157600080fd5b5061034a610b0e565b6040516103579190611695565b60405180910390f35b34801561036c57600080fd5b50610375610b18565b60405161038392919061192b565b60405180910390f35b34801561039857600080fd5b506103a1610bbe565b6040516103ae919061196a565b60405180910390f35b3480156103c357600080fd5b506103de60048036038101906103d99190611ae6565b610be8565b005b3480156103ec57600080fd5b506103f5610e95565b6040516104029190611740565b60405180910390f35b610413610f27565b005b34801561042157600080fd5b5061043c60048036038101906104379190611bff565b61116e565b604051610449919061196a565b60405180910390f35b34801561045e57600080fd5b506104676111b6565b6040516104749190611695565b60405180910390f35b34801561048957600080fd5b506104926111c3565b60405161049f9190611695565b60405180910390f35b60008054905090565b60045442106104f5576040517f08c379a00000000000000000000000000000000000000000000000000000000081526004016104ec90611c78565b60405180910390fd5b600660149054906101000a900460ff161561050f57600080fd5b600054341015610554576040517f08c379a000000000000000000000000000000000000000000000000000000000815260040161054b90611ce4565b60405180910390fd5b61055d33610a21565b1561056757600080fd5b60006064600f54606461057a9190611d33565b346105859190611d67565b61058f9190611dd8565b905080600c60003373ffffffffffffffffffffffffffffffffffffffff1673ffffffffffffffffffffffffffffffffffffffff168152602001908152602001600020600001819055506001600c60003373ffffffffffffffffffffffffffffffffffffffff1673ffffffffffffffffffffffffffffffffffffffff16815260200190815260200160002060010160006101000a81548161ffff021916908361ffff160217905550600d339080600181540180825580915050600190039060005260206000200160009091909190916101000a81548173ffffffffffffffffffffffffffffffffffffffff021916908373ffffffffffffffffffffffffffffffffffffffff16021790555080600160008282546106ab9190611e09565b925050819055503373ffffffffffffffffffffffffffffffffffffffff167f7f47e4b864ee52d8ca461d379020be7e99ae801a152dde71193bdc651da8a7c060405160405180910390a250565b6060600a805461070790611e6c565b80601f016020809104026020016040519081016040528092919081815260200182805461073390611e6c565b80156107805780601f1061075557610100808354040283529160200191610780565b820191906000526020600020905b81548152906001019060200180831161076357829003601f168201915b5050505050905090565b6000600354905090565b6000600660149054906101000a900460ff16905090565b6060600880546107ba90611e6c565b80601f01602080910402602001604051908101604052809291908181526020018280546107e690611e6c565b80156108335780601f1061080857610100808354040283529160200191610833565b820191906000526020600020905b81548152906001019060200180831161081657829003601f168201915b5050505050905090565b6000600454905090565b6060600b805461085690611e6c565b80601f016020809104026020016040519081016040528092919081815260200182805461088290611e6c565b80156108cf5780601f106108a4576101008083540402835291602001916108cf565b820191906000526020600020905b8154815290600101906020018083116108b257829003601f168201915b5050505050905090565b600660009054906101000a900473ffffffffffffffffffffffffffffffffffffffff1673ffffffffffffffffffffffffffffffffffffffff163373ffffffffffffffffffffffffffffffffffffffff1614610969576040517f08c379a000000000000000000000000000000000000000000000000000000000815260040161096090611f0f565b60405180910390fd5b60045442116109ad576040517f08c379a00000000000000000000000000000000000000000000000000000000081526004016109a490611f7b565b60405180910390fd5b60006109b7610b18565b50905080610a145747600d80549050600660149054906101000a900460ff166040517f0f724954000000000000000000000000000000000000000000000000000000008152600401610a0b93929190611f9b565b60405180910390fd5b610a1d826111cd565b5050565b600080600d80549050905060005b81811015610ac6578373ffffffffffffffffffffffffffffffffffffffff16600d8281548110610a6257610a61611fd2565b5b9060005260206000200160009054906101000a900473ffffffffffffffffffffffffffffffffffffffff1673ffffffffffffffffffffffffffffffffffffffff1603610ab357600192505050610acd565b8080610abe90612001565b915050610a2f565b5060009150505b919050565b6000600154905090565b600c6020528060005260406000206000915090508060000154908060010160009054906101000a900461ffff16905082565b6000600254905090565b600060606000801515600660149054906101000a900460ff16151514905060008060045442610b479190611d33565b119050600080600d8054905011905060008047119050828015610b675750835b8015610b705750805b8015610b795750815b9550856040518060400160405280600381526020017f307830000000000000000000000000000000000000000000000000000000000081525095509550505050509091565b6000600660009054906101000a900473ffffffffffffffffffffffffffffffffffffffff16905090565b600660009054906101000a900473ffffffffffffffffffffffffffffffffffffffff1673ffffffffffffffffffffffffffffffffffffffff163373ffffffffffffffffffffffffffffffffffffffff1614610c78576040517f08c379a0000000000000000000000000000000000000000000000000000000008152600401610c6f90611f0f565b60405180910390fd5b600660149054906101000a900460ff16610cc7576040517f08c379a0000000000000000000000000000000000000000000000000000000008152600401610cbe90612095565b60405180910390fd5b60005b600d80549050811015610d8757600c6000600d8381548110610cef57610cee611fd2565b5b9060005260206000200160009054906101000a900473ffffffffffffffffffffffffffffffffffffffff1673ffffffffffffffffffffffffffffffffffffffff1673ffffffffffffffffffffffffffffffffffffffff1681526020019081526020016000206000808201600090556001820160006101000a81549061ffff021916905550508080610d7f90612001565b915050610cca565b50600d6000610d9691906115b4565b600e6000610da491906115b4565b600060018190555060006002819055506000600660146101000a81548160ff0219169083151502179055508560079081610dde9190612261565b508460089081610dee9190612261565b5083600a9081610dfe9190612261565b508260099081610e0e9190612261565b5081600b9081610e1e9190612261565b5080600481905550600067ffffffffffffffff811115610e4157610e4061198f565b5b604051908082528060200260200182016040528015610e6f5781602001602082028036833780820191505090505b50600d9080519060200190610e859291906115d5565b5042600381905550505050505050565b606060098054610ea490611e6c565b80601f0160208091040260200160405190810160405280929190818152602001828054610ed090611e6c565b8015610f1d5780601f10610ef257610100808354040283529160200191610f1d565b820191906000526020600020905b815481529060010190602001808311610f0057829003601f168201915b5050505050905090565b6004544210610f6b576040517f08c379a0000000000000000000000000000000000000000000000000000000008152600401610f6290611c78565b60405180910390fd5b600660149054906101000a900460ff1615610f8557600080fd5b600054341015610fca576040517f08c379a0000000000000000000000000000000000000000000000000000000008152600401610fc190611ce4565b60405180910390fd5b610fd333610a21565b15610fdd57600080fd5b60006064600f546064610ff09190611d33565b34610ffb9190611d67565b6110059190611dd8565b905080600c60003373ffffffffffffffffffffffffffffffffffffffff1673ffffffffffffffffffffffffffffffffffffffff168152602001908152602001600020600001819055506002600c60003373ffffffffffffffffffffffffffffffffffffffff1673ffffffffffffffffffffffffffffffffffffffff16815260200190815260200160002060010160006101000a81548161ffff021916908361ffff160217905550600d339080600181540180825580915050600190039060005260206000200160009091909190916101000a81548173ffffffffffffffffffffffffffffffffffffffff021916908373ffffffffffffffffffffffffffffffffffffffff16021790555080600160008282546111219190611e09565b925050819055503373ffffffffffffffffffffffffffffffffffffffff167f7f47e4b864ee52d8ca461d379020be7e99ae801a152dde71193bdc651da8a7c060405160405180910390a250565b6000600d828154811061118457611183611fd2565b5b9060005260206000200160009054906101000a900473ffffffffffffffffffffffffffffffffffffffff169050919050565b6000600d80549050905090565b6000600f54905090565b600660009054906101000a900473ffffffffffffffffffffffffffffffffffffffff1673ffffffffffffffffffffffffffffffffffffffff163373ffffffffffffffffffffffffffffffffffffffff161461125d576040517f08c379a000000000000000000000000000000000000000000000000000000000815260040161125490611f0f565b60405180910390fd5b600080600080600080600090505b600d8054905081101561138f57600d818154811061128c5761128b611fd2565b5b9060005260206000200160009054906101000a900473ffffffffffffffffffffffffffffffffffffffff1691508661ffff16600c60008473ffffffffffffffffffffffffffffffffffffffff1673ffffffffffffffffffffffffffffffffffffffff16815260200190815260200160002060010160009054906101000a900461ffff1661ffff160361137c57600e829080600181540180825580915050600190039060005260206000200160009091909190916101000a81548173ffffffffffffffffffffffffffffffffffffffff021916908373ffffffffffffffffffffffffffffffffffffffff1602179055505b808061138790612001565b91505061126b565b5060018661ffff16036113ab57600254945060015493506113b6565b600154945060025493505b60005b600e8054905081101561152757600e81815481106113da576113d9611fd2565b5b9060005260206000200160009054906101000a900473ffffffffffffffffffffffffffffffffffffffff169350600c60008573ffffffffffffffffffffffffffffffffffffffff1673ffffffffffffffffffffffffffffffffffffffff168152602001908152602001600020600001549250600061271086612710896114609190611d67565b61146a9190611dd8565b6127106114779190611e09565b856114829190611d67565b61148c9190611dd8565b9050600e82815481106114a2576114a1611fd2565b5b9060005260206000200160009054906101000a900473ffffffffffffffffffffffffffffffffffffffff1673ffffffffffffffffffffffffffffffffffffffff166108fc829081150290604051600060405180830381858888f19350505050158015611512573d6000803e3d6000fd5b5050808061151f90612001565b9150506113b9565b50600560009054906101000a900473ffffffffffffffffffffffffffffffffffffffff1673ffffffffffffffffffffffffffffffffffffffff166108fc479081150290604051600060405180830381858888f19350505050158015611590573d6000803e3d6000fd5b506001600660146101000a81548160ff021916908315150217905550505050505050565b50805460008255906000526020600020908101906115d2919061165f565b50565b82805482825590600052602060002090810192821561164e579160200282015b8281111561164d5782518260006101000a81548173ffffffffffffffffffffffffffffffffffffffff021916908373ffffffffffffffffffffffffffffffffffffffff160217905550916020019190600101906115f5565b5b50905061165b919061165f565b5090565b5b80821115611678576000816000905550600101611660565b5090565b6000819050919050565b61168f8161167c565b82525050565b60006020820190506116aa6000830184611686565b92915050565b600081519050919050565b600082825260208201905092915050565b60005b838110156116ea5780820151818401526020810190506116cf565b60008484015250505050565b6000601f19601f8301169050919050565b6000611712826116b0565b61171c81856116bb565b935061172c8185602086016116cc565b611735816116f6565b840191505092915050565b6000602082019050818103600083015261175a8184611707565b905092915050565b60008115159050919050565b61177781611762565b82525050565b6000602082019050611792600083018461176e565b92915050565b6000604051905090565b600080fd5b600080fd5b600061ffff82169050919050565b6117c3816117ac565b81146117ce57600080fd5b50565b6000813590506117e0816117ba565b92915050565b6000602082840312156117fc576117fb6117a2565b5b600061180a848285016117d1565b91505092915050565b600073ffffffffffffffffffffffffffffffffffffffff82169050919050565b600061183e82611813565b9050919050565b61184e81611833565b811461185957600080fd5b50565b60008135905061186b81611845565b92915050565b600060208284031215611887576118866117a2565b5b60006118958482850161185c565b91505092915050565b6118a7816117ac565b82525050565b60006040820190506118c26000830185611686565b6118cf602083018461189e565b9392505050565b600081519050919050565b600082825260208201905092915050565b60006118fd826118d6565b61190781856118e1565b93506119178185602086016116cc565b611920816116f6565b840191505092915050565b6000604082019050611940600083018561176e565b818103602083015261195281846118f2565b90509392505050565b61196481611833565b82525050565b600060208201905061197f600083018461195b565b92915050565b600080fd5b600080fd5b7f4e487b7100000000000000000000000000000000000000000000000000000000600052604160045260246000fd5b6119c7826116f6565b810181811067ffffffffffffffff821117156119e6576119e561198f565b5b80604052505050565b60006119f9611798565b9050611a0582826119be565b919050565b600067ffffffffffffffff821115611a2557611a2461198f565b5b611a2e826116f6565b9050602081019050919050565b82818337600083830152505050565b6000611a5d611a5884611a0a565b6119ef565b905082815260208101848484011115611a7957611a7861198a565b5b611a84848285611a3b565b509392505050565b600082601f830112611aa157611aa0611985565b5b8135611ab1848260208601611a4a565b91505092915050565b611ac38161167c565b8114611ace57600080fd5b50565b600081359050611ae081611aba565b92915050565b60008060008060008060c08789031215611b0357611b026117a2565b5b600087013567ffffffffffffffff811115611b2157611b206117a7565b5b611b2d89828a01611a8c565b965050602087013567ffffffffffffffff811115611b4e57611b4d6117a7565b5b611b5a89828a01611a8c565b955050604087013567ffffffffffffffff811115611b7b57611b7a6117a7565b5b611b8789828a01611a8c565b945050606087013567ffffffffffffffff811115611ba857611ba76117a7565b5b611bb489828a01611a8c565b935050608087013567ffffffffffffffff811115611bd557611bd46117a7565b5b611be189828a01611a8c565b92505060a0611bf289828a01611ad1565b9150509295509295509295565b600060208284031215611c1557611c146117a2565b5b6000611c2384828501611ad1565b91505092915050565b7f54686520646561646c696e652068617320706173736564000000000000000000600082015250565b6000611c626017836116bb565b9150611c6d82611c2c565b602082019050919050565b60006020820190508181036000830152611c9181611c55565b9050919050565b7f496e73756666696369656e742062657420616d6f756e74000000000000000000600082015250565b6000611cce6017836116bb565b9150611cd982611c98565b602082019050919050565b60006020820190508181036000830152611cfd81611cc1565b9050919050565b7f4e487b7100000000000000000000000000000000000000000000000000000000600052601160045260246000fd5b6000611d3e8261167c565b9150611d498361167c565b9250828203905081811115611d6157611d60611d04565b5b92915050565b6000611d728261167c565b9150611d7d8361167c565b9250828202611d8b8161167c565b91508282048414831517611da257611da1611d04565b5b5092915050565b7f4e487b7100000000000000000000000000000000000000000000000000000000600052601260045260246000fd5b6000611de38261167c565b9150611dee8361167c565b925082611dfe57611dfd611da9565b5b828204905092915050565b6000611e148261167c565b9150611e1f8361167c565b9250828201905080821115611e3757611e36611d04565b5b92915050565b7f4e487b7100000000000000000000000000000000000000000000000000000000600052602260045260246000fd5b60006002820490506001821680611e8457607f821691505b602082108103611e9757611e96611e3d565b5b50919050565b7f4f6e6c792061646d696e2063616e2063616c6c20746869732066756e6374696f60008201527f6e00000000000000000000000000000000000000000000000000000000000000602082015250565b6000611ef96021836116bb565b9150611f0482611e9d565b604082019050919050565b60006020820190508181036000830152611f2881611eec565b9050919050565b7f54686520646561646c696e6520686173206e6f74207965742070617373656400600082015250565b6000611f65601f836116bb565b9150611f7082611f2f565b602082019050919050565b60006020820190508181036000830152611f9481611f58565b9050919050565b6000606082019050611fb06000830186611686565b611fbd6020830185611686565b611fca604083018461176e565b949350505050565b7f4e487b7100000000000000000000000000000000000000000000000000000000600052603260045260246000fd5b600061200c8261167c565b91507fffffffffffffffffffffffffffffffffffffffffffffffffffffffffffffffff820361203e5761203d611d04565b5b600182019050919050565b7f54686520756e66696e69736865642067616d652072656d61696e656400000000600082015250565b600061207f601c836116bb565b915061208a82612049565b602082019050919050565b600060208201905081810360008301526120ae81612072565b9050919050565b60008190508160005260206000209050919050565b60006020601f8301049050919050565b600082821b905092915050565b6000600883026121177fffffffffffffffffffffffffffffffffffffffffffffffffffffffffffffffff826120da565b61212186836120da565b95508019841693508086168417925050509392505050565b6000819050919050565b600061215e6121596121548461167c565b612139565b61167c565b9050919050565b6000819050919050565b61217883612143565b61218c61218482612165565b8484546120e7565b825550505050565b600090565b6121a1612194565b6121ac81848461216f565b505050565b5b818110156121d0576121c5600082612199565b6001810190506121b2565b5050565b601f821115612215576121e6816120b5565b6121ef846120ca565b810160208510156121fe578190505b61221261220a856120ca565b8301826121b1565b50505b505050565b600082821c905092915050565b60006122386000198460080261221a565b1980831691505092915050565b60006122518383612227565b9150826002028217905092915050565b61226a826116b0565b67ffffffffffffffff8111156122835761228261198f565b5b61228d8254611e6c565b6122988282856121d4565b600060209050601f8311600181146122cb57600084156122b9578287015190505b6122c38582612245565b86555061232b565b601f1984166122d9866120b5565b60005b82811015612301578489015182556001820191506020850194506020810190506122dc565b8683101561231e578489015161231a601f891682612227565b8355505b6001600288020188555050505b50505050505056fea2646970667358221220e32578cc4bba0ff6e1d638df5d5bbecf9b88aef6894f6cd51c4511f6eb2ed50b64736f6c63430008110033",
  "devdoc": {
    "author": "Yakou Hikoichi",
    "kind": "dev",
    "methods": {
      "checkExecuteReady()": {
        "details": "This is the function whether the execution of betting is ready or not they look for `readyToExecute` to return True. the following should be true for this to return true: 1. The time interval has passed between betting runs. 2. The Game is open. 3. The contract has ETH."
      },
      "performExecute(uint16)": {
        "details": "Once `checkExecuteReady` is returning `true`, this function is called and it kicks off the winner."
      }
    },
    "title": "A sample Betting Contract",
    "version": 1
  },
  "userdoc": {
    "kind": "user",
    "methods": {
      "getAdmin()": {
        "notice": "Getter Functions "
      }
    },
    "notice": "This contract is for creating a sample betting contract",
    "version": 1
  },
  "storageLayout": {
    "storage": [
      {
        "astId": 16,
        "contract": "contracts/BinaryBet.sol:Betting",
        "label": "minimumBet",
        "offset": 0,
        "slot": "0",
        "type": "t_uint256"
      },
      {
        "astId": 18,
        "contract": "contracts/BinaryBet.sol:Betting",
        "label": "totalBetOne",
        "offset": 0,
        "slot": "1",
        "type": "t_uint256"
      },
      {
        "astId": 20,
        "contract": "contracts/BinaryBet.sol:Betting",
        "label": "totalBetTwo",
        "offset": 0,
        "slot": "2",
        "type": "t_uint256"
      },
      {
        "astId": 22,
        "contract": "contracts/BinaryBet.sol:Betting",
        "label": "startTimestamp",
        "offset": 0,
        "slot": "3",
        "type": "t_uint256"
      },
      {
        "astId": 24,
        "contract": "contracts/BinaryBet.sol:Betting",
        "label": "matchDateTimestamp",
        "offset": 0,
        "slot": "4",
        "type": "t_uint256"
      },
      {
        "astId": 26,
        "contract": "contracts/BinaryBet.sol:Betting",
        "label": "owner",
        "offset": 0,
        "slot": "5",
        "type": "t_address_payable"
      },
      {
        "astId": 28,
        "contract": "contracts/BinaryBet.sol:Betting",
        "label": "admin",
        "offset": 0,
        "slot": "6",
        "type": "t_address"
      },
      {
        "astId": 30,
        "contract": "contracts/BinaryBet.sol:Betting",
        "label": "gameFinished",
        "offset": 20,
        "slot": "6",
        "type": "t_bool"
      },
      {
        "astId": 32,
        "contract": "contracts/BinaryBet.sol:Betting",
        "label": "gameDescription",
        "offset": 0,
        "slot": "7",
        "type": "t_string_storage"
      },
      {
        "astId": 34,
        "contract": "contracts/BinaryBet.sol:Betting",
        "label": "option1Name",
        "offset": 0,
        "slot": "8",
        "type": "t_string_storage"
      },
      {
        "astId": 36,
        "contract": "contracts/BinaryBet.sol:Betting",
        "label": "option2Name",
        "offset": 0,
        "slot": "9",
        "type": "t_string_storage"
      },
      {
        "astId": 38,
        "contract": "contracts/BinaryBet.sol:Betting",
        "label": "option1LeagueName",
        "offset": 0,
        "slot": "10",
        "type": "t_string_storage"
      },
      {
        "astId": 40,
        "contract": "contracts/BinaryBet.sol:Betting",
        "label": "option2LeagueName",
        "offset": 0,
        "slot": "11",
        "type": "t_string_storage"
      },
      {
        "astId": 50,
        "contract": "contracts/BinaryBet.sol:Betting",
        "label": "playerInfo",
        "offset": 0,
        "slot": "12",
        "type": "t_mapping(t_address,t_struct(Player)45_storage)"
      },
      {
        "astId": 53,
        "contract": "contracts/BinaryBet.sol:Betting",
        "label": "players",
        "offset": 0,
        "slot": "13",
        "type": "t_array(t_address_payable)dyn_storage"
      },
      {
        "astId": 56,
        "contract": "contracts/BinaryBet.sol:Betting",
        "label": "winners",
        "offset": 0,
        "slot": "14",
        "type": "t_array(t_address_payable)dyn_storage"
      },
      {
        "astId": 59,
        "contract": "contracts/BinaryBet.sol:Betting",
        "label": "commission",
        "offset": 0,
        "slot": "15",
        "type": "t_uint256"
      }
    ],
    "types": {
      "t_address": {
        "encoding": "inplace",
        "label": "address",
        "numberOfBytes": "20"
      },
      "t_address_payable": {
        "encoding": "inplace",
        "label": "address payable",
        "numberOfBytes": "20"
      },
      "t_array(t_address_payable)dyn_storage": {
        "base": "t_address_payable",
        "encoding": "dynamic_array",
        "label": "address payable[]",
        "numberOfBytes": "32"
      },
      "t_bool": {
        "encoding": "inplace",
        "label": "bool",
        "numberOfBytes": "1"
      },
      "t_mapping(t_address,t_struct(Player)45_storage)": {
        "encoding": "mapping",
        "key": "t_address",
        "label": "mapping(address => struct Betting.Player)",
        "numberOfBytes": "32",
        "value": "t_struct(Player)45_storage"
      },
      "t_string_storage": {
        "encoding": "bytes",
        "label": "string",
        "numberOfBytes": "32"
      },
      "t_struct(Player)45_storage": {
        "encoding": "inplace",
        "label": "struct Betting.Player",
        "members": [
          {
            "astId": 42,
            "contract": "contracts/BinaryBet.sol:Betting",
            "label": "amountBet",
            "offset": 0,
            "slot": "0",
            "type": "t_uint256"
          },
          {
            "astId": 44,
            "contract": "contracts/BinaryBet.sol:Betting",
            "label": "teamSelected",
            "offset": 0,
            "slot": "1",
            "type": "t_uint16"
          }
        ],
        "numberOfBytes": "64"
      },
      "t_uint16": {
        "encoding": "inplace",
        "label": "uint16",
        "numberOfBytes": "2"
      },
      "t_uint256": {
        "encoding": "inplace",
        "label": "uint256",
        "numberOfBytes": "32"
      }
    }
  }
}