{"contracts/BinaryBet.sol":{"Betting":{"abi":[{"inputs":[{"internalType":"uint256","name":"interval","type":"uint256"},{"internalType":"uint256","name":"entranceFee","type":"uint256"},{"internalType":"uint32","name":"callbackGasLimit","type":"uint32"}],"stateMutability":"nonpayable","type":"constructor"},{"inputs":[],"name":"Betting__BettingNotOpen","type":"error"},{"inputs":[{"internalType":"uint256","name":"currentBalance","type":"uint256"},{"internalType":"uint256","name":"numPlayers","type":"uint256"},{"internalType":"uint256","name":"bettingState","type":"uint256"}],"name":"Betting__ExecuteNotNeeded","type":"error"},{"inputs":[],"name":"Betting__SendMoreToEnterBetting","type":"error"},{"anonymous":false,"inputs":[{"indexed":true,"internalType":"address","name":"player","type":"address"}],"name":"BettingEnter","type":"event"},{"inputs":[],"name":"AmountOne","outputs":[{"internalType":"uint256","name":"","type":"uint256"}],"stateMutability":"view","type":"function"},{"inputs":[],"name":"AmountTwo","outputs":[{"internalType":"uint256","name":"","type":"uint256"}],"stateMutability":"view","type":"function"},{"inputs":[{"internalType":"uint16","name":"_teamSelected","type":"uint16"}],"name":"betting","outputs":[],"stateMutability":"payable","type":"function"},{"inputs":[],"name":"checkExecuteReady","outputs":[{"internalType":"bool","name":"readyToExecute","type":"bool"},{"internalType":"bytes","name":"","type":"bytes"}],"stateMutability":"view","type":"function"},{"inputs":[{"internalType":"address","name":"player","type":"address"}],"name":"checkPlayerExists","outputs":[{"internalType":"bool","name":"","type":"bool"}],"stateMutability":"view","type":"function"},{"inputs":[{"internalType":"uint16","name":"teamWinner","type":"uint16"}],"name":"distributePrizes","outputs":[],"stateMutability":"nonpayable","type":"function"},{"inputs":[],"name":"getAdmin","outputs":[{"internalType":"address","name":"","type":"address"}],"stateMutability":"view","type":"function"},{"inputs":[],"name":"getBettingState","outputs":[{"internalType":"enum Betting.BettingState","name":"","type":"uint8"}],"stateMutability":"view","type":"function"},{"inputs":[],"name":"getEntranceFee","outputs":[{"internalType":"uint256","name":"","type":"uint256"}],"stateMutability":"view","type":"function"},{"inputs":[],"name":"getInterval","outputs":[{"internalType":"uint256","name":"","type":"uint256"}],"stateMutability":"view","type":"function"},{"inputs":[],"name":"getLastTimeStamp","outputs":[{"internalType":"uint256","name":"","type":"uint256"}],"stateMutability":"view","type":"function"},{"inputs":[],"name":"getNumberOfPlayers","outputs":[{"internalType":"uint256","name":"","type":"uint256"}],"stateMutability":"view","type":"function"},{"inputs":[{"internalType":"uint256","name":"index","type":"uint256"}],"name":"getPlayer","outputs":[{"internalType":"address","name":"","type":"address"}],"stateMutability":"view","type":"function"},{"inputs":[{"internalType":"uint16","name":"oraclemsg","type":"uint16"}],"name":"performExecute","outputs":[],"stateMutability":"nonpayable","type":"function"},{"inputs":[{"internalType":"address","name":"","type":"address"}],"name":"playerInfo","outputs":[{"internalType":"uint256","name":"amountBet","type":"uint256"},{"internalType":"uint16","name":"teamSelected","type":"uint16"}],"stateMutability":"view","type":"function"},{"inputs":[],"name":"reopenGame","outputs":[],"stateMutability":"nonpayable","type":"function"}],"devdoc":{"author":"Yakou Hikoichi","kind":"dev","methods":{"checkExecuteReady()":{"details":"This is the function whether the execution of betting is ready or not they look for `readyToExecute` to return True. the following should be true for this to return true: 1. The time interval has passed between betting runs. 2. The Game is open. 3. The contract has ETH."},"performExecute(uint16)":{"details":"Once `checkExecuteReady` is returning `true`, this function is called and it kicks off the winner."}},"title":"A sample Betting Contract","version":1},"evm":{"bytecode":{"linkReferences":{},"object":"60c06040523480156200001157600080fd5b50604051620018a4380380620018a483398181016040528101906200003791906200010a565b8260808181525050816000819055506000600660006101000a81548160ff021916908360028111156200006f576200006e62000180565b5b0217905550426003819055508063ffffffff1660a08163ffffffff1660e01b8152505033600460006101000a81548173ffffffffffffffffffffffffffffffffffffffff021916908373ffffffffffffffffffffffffffffffffffffffff160217905550505050620001e8565b600081519050620000ed81620001b4565b92915050565b6000815190506200010481620001ce565b92915050565b600080600060608486031215620001265762000125620001af565b5b60006200013686828701620000dc565b93505060206200014986828701620000dc565b92505060406200015c86828701620000f3565b9150509250925092565b6000819050919050565b600063ffffffff82169050919050565b7f4e487b7100000000000000000000000000000000000000000000000000000000600052602160045260246000fd5b600080fd5b620001bf8162000166565b8114620001cb57600080fd5b50565b620001d98162000170565b8114620001e557600080fd5b50565b60805160a05160e01c61168f6200021560003960005050600081816108040152610c55015261168f6000f3fe6080604052600436106100f35760003560e01c8063676f64741161008a578063c1c244e811610059578063c1c244e81461030a578063e55ae4e814610335578063f08846d414610372578063fd6673f51461038e576100f3565b8063676f64741461025f5780636e9960c31461028b5780637904f688146102b657806391ad27b4146102df576100f3565b80634b114691116100c65780634b114691146101b45780635428ec85146101f257806357899342146102095780636573359214610234576100f3565b806309bc33a7146100f85780633ca53bba146101235780634081d9161461014c5780634996d51d14610189575b600080fd5b34801561010457600080fd5b5061010d6103b9565b60405161011a91906111fc565b60405180910390f35b34801561012f57600080fd5b5061014a6004803603810190610145919061105a565b6103c2565b005b34801561015857600080fd5b50610173600480360381019061016e919061102d565b61058e565b6040516101809190611176565b60405180910390f35b34801561019557600080fd5b5061019e610640565b6040516101ab91906111fc565b60405180910390f35b3480156101c057600080fd5b506101db60048036038101906101d6919061102d565b61064a565b6040516101e9929190611217565b60405180910390f35b3480156101fe57600080fd5b5061020761067c565b005b34801561021557600080fd5b5061021e6107a0565b60405161022b91906111c1565b60405180910390f35b34801561024057600080fd5b506102496107b7565b60405161025691906111fc565b60405180910390f35b34801561026b57600080fd5b506102746107c1565b604051610282929190611191565b60405180910390f35b34801561029757600080fd5b506102a06108a8565b6040516102ad919061115b565b60405180910390f35b3480156102c257600080fd5b506102dd60048036038101906102d8919061105a565b6108d2565b005b3480156102eb57600080fd5b506102f4610c51565b60405161030191906111fc565b60405180910390f35b34801561031657600080fd5b5061031f610c79565b60405161032c91906111fc565b60405180910390f35b34801561034157600080fd5b5061035c60048036038101906103579190611087565b610c83565b604051610369919061115b565b60405180910390f35b61038c6004803603810190610387919061105a565b610ccb565b005b34801561039a57600080fd5b506103a3610f19565b6040516103b091906111fc565b60405180910390f35b60008054905090565b600460009054906101000a900473ffffffffffffffffffffffffffffffffffffffff1673ffffffffffffffffffffffffffffffffffffffff163373ffffffffffffffffffffffffffffffffffffffff1614610452576040517f08c379a0000000000000000000000000000000000000000000000000000000008152600401610449906111dc565b60405180910390fd5b600061045c6107c1565b509050806104cb5747600580549050600660009054906101000a900460ff16600281111561048d5761048c61150e565b5b6040517fb8cbb54c0000000000000000000000000000000000000000000000000000000081526004016104c293929190611240565b60405180910390fd5b6001600660006101000a81548160ff021916908360028111156104f1576104f061150e565b5b02179055506104ff826108d2565b600067ffffffffffffffff81111561051a5761051961156c565b5b6040519080825280602002602001820160405280156105485781602001602082028036833780820191505090505b506005908051906020019061055e929190610f26565b506002600660006101000a81548160ff021916908360028111156105855761058461150e565b5b02179055505050565b600080600580549050905060005b81811015610634578373ffffffffffffffffffffffffffffffffffffffff16600582815481106105cf576105ce61153d565b5b9060005260206000200160009054906101000a900473ffffffffffffffffffffffffffffffffffffffff1673ffffffffffffffffffffffffffffffffffffffff1614156106215760019250505061063b565b808061062c90611467565b91505061059c565b5060009150505b919050565b6000600154905090565b60076020528060005260406000206000915090508060000154908060010160009054906101000a900461ffff16905082565b600460009054906101000a900473ffffffffffffffffffffffffffffffffffffffff1673ffffffffffffffffffffffffffffffffffffffff163373ffffffffffffffffffffffffffffffffffffffff161461070c576040517f08c379a0000000000000000000000000000000000000000000000000000000008152600401610703906111dc565b60405180910390fd5b6000600660006101000a81548160ff021916908360028111156107325761073161150e565b5b0217905550600067ffffffffffffffff8111156107525761075161156c565b5b6040519080825280602002602001820160405280156107805781602001602082028036833780820191505090505b5060059080519060200190610796929190610f26565b5042600381905550565b6000600660009054906101000a900460ff16905090565b6000600254905090565b600060606000600660009054906101000a900460ff1660028111156107e9576107e861150e565b5b600060028111156107fd576107fc61150e565b5b14905060007f0000000000000000000000000000000000000000000000000000000000000000600354426108319190611385565b119050600080600580549050119050600080471190508280156108515750835b801561085a5750805b80156108635750815b9550856040518060400160405280600381526020017f307830000000000000000000000000000000000000000000000000000000000081525095509550505050509091565b6000600460009054906101000a900473ffffffffffffffffffffffffffffffffffffffff16905090565b606060008060008080600080600090505b600580549050811015610a0157600581815481106109045761090361153d565b5b9060005260206000200160009054906101000a900473ffffffffffffffffffffffffffffffffffffffff1691508861ffff16600760008473ffffffffffffffffffffffffffffffffffffffff1673ffffffffffffffffffffffffffffffffffffffff16815260200190815260200160002060010160009054906101000a900461ffff1661ffff1614156109ee57818888815181106109a5576109a461153d565b5b602002602001019073ffffffffffffffffffffffffffffffffffffffff16908173ffffffffffffffffffffffffffffffffffffffff168152505086806109ea90611467565b9750505b80806109f990611467565b9150506108e3565b5060018861ffff161415610a1e5760025494506001549350610a29565b600154945060025493505b60005b86811015610b9657600073ffffffffffffffffffffffffffffffffffffffff16888281518110610a5f57610a5e61153d565b5b602002602001015173ffffffffffffffffffffffffffffffffffffffff1614610b8357878181518110610a9557610a9461153d565b5b60200260200101519350600760008573ffffffffffffffffffffffffffffffffffffffff1673ffffffffffffffffffffffffffffffffffffffff168152602001908152602001600020600001549250878181518110610af757610af661153d565b5b602002602001015173ffffffffffffffffffffffffffffffffffffffff166108fc612710876127108a610b2a919061132b565b610b3491906112fa565b612710610b4191906112a4565b86610b4c919061132b565b610b5691906112fa565b9081150290604051600060405180830381858888f19350505050158015610b81573d6000803e3d6000fd5b505b8080610b8e90611467565b915050610a2c565b506002600660006101000a81548160ff02191690836002811115610bbd57610bbc61150e565b5b0217905550600760008273ffffffffffffffffffffffffffffffffffffffff1673ffffffffffffffffffffffffffffffffffffffff1681526020019081526020016000206000808201600090556001820160006101000a81549061ffff0219169055505060056000610c2f9190610fb0565b6000945060009350600060018190555060006002819055505050505050505050565b60007f0000000000000000000000000000000000000000000000000000000000000000905090565b6000600354905090565b600060058281548110610c9957610c9861153d565b5b9060005260206000200160009054906101000a900473ffffffffffffffffffffffffffffffffffffffff169050919050565b610cd43361058e565b15610cde57600080fd5b600054341015610d1a576040517f30a16e2e00000000000000000000000000000000000000000000000000000000815260040160405180910390fd5b60006002811115610d2e57610d2d61150e565b5b600660009054906101000a900460ff166002811115610d5057610d4f61150e565b5b14610d87576040517ff3b8fa1b00000000000000000000000000000000000000000000000000000000815260040160405180910390fd5b34600760003373ffffffffffffffffffffffffffffffffffffffff1673ffffffffffffffffffffffffffffffffffffffff1681526020019081526020016000206000018190555080600760003373ffffffffffffffffffffffffffffffffffffffff1673ffffffffffffffffffffffffffffffffffffffff16815260200190815260200160002060010160006101000a81548161ffff021916908361ffff1602179055506005339080600181540180825580915050600190039060005260206000200160009091909190916101000a81548173ffffffffffffffffffffffffffffffffffffffff021916908373ffffffffffffffffffffffffffffffffffffffff16021790555060018161ffff161415610eb9573460016000828254610ead91906112a4565b92505081905550610ed3565b3460026000828254610ecb91906112a4565b925050819055505b3373ffffffffffffffffffffffffffffffffffffffff167f7f47e4b864ee52d8ca461d379020be7e99ae801a152dde71193bdc651da8a7c060405160405180910390a250565b6000600580549050905090565b828054828255906000526020600020908101928215610f9f579160200282015b82811115610f9e5782518260006101000a81548173ffffffffffffffffffffffffffffffffffffffff021916908373ffffffffffffffffffffffffffffffffffffffff16021790555091602001919060010190610f46565b5b509050610fac9190610fd1565b5090565b5080546000825590600052602060002090810190610fce9190610fd1565b50565b5b80821115610fea576000816000905550600101610fd2565b5090565b600081359050610ffd81611614565b92915050565b6000813590506110128161162b565b92915050565b60008135905061102781611642565b92915050565b6000602082840312156110435761104261159b565b5b600061105184828501610fee565b91505092915050565b6000602082840312156110705761106f61159b565b5b600061107e84828501611003565b91505092915050565b60006020828403121561109d5761109c61159b565b5b60006110ab84828501611018565b91505092915050565b6110bd816113b9565b82525050565b6110cc816113cb565b82525050565b60006110dd82611277565b6110e78185611282565b93506110f7818560208601611434565b611100816115a0565b840191505092915050565b61111481611422565b82525050565b6000611127602183611293565b9150611132826115b1565b604082019050919050565b611146816113ea565b82525050565b61115581611418565b82525050565b600060208201905061117060008301846110b4565b92915050565b600060208201905061118b60008301846110c3565b92915050565b60006040820190506111a660008301856110c3565b81810360208301526111b881846110d2565b90509392505050565b60006020820190506111d6600083018461110b565b92915050565b600060208201905081810360008301526111f58161111a565b9050919050565b6000602082019050611211600083018461114c565b92915050565b600060408201905061122c600083018561114c565b611239602083018461113d565b9392505050565b6000606082019050611255600083018661114c565b611262602083018561114c565b61126f604083018461114c565b949350505050565b600081519050919050565b600082825260208201905092915050565b600082825260208201905092915050565b60006112af82611418565b91506112ba83611418565b9250827fffffffffffffffffffffffffffffffffffffffffffffffffffffffffffffffff038211156112ef576112ee6114b0565b5b828201905092915050565b600061130582611418565b915061131083611418565b9250826113205761131f6114df565b5b828204905092915050565b600061133682611418565b915061134183611418565b9250817fffffffffffffffffffffffffffffffffffffffffffffffffffffffffffffffff048311821515161561137a576113796114b0565b5b828202905092915050565b600061139082611418565b915061139b83611418565b9250828210156113ae576113ad6114b0565b5b828203905092915050565b60006113c4826113f8565b9050919050565b60008115159050919050565b60008190506113e582611600565b919050565b600061ffff82169050919050565b600073ffffffffffffffffffffffffffffffffffffffff82169050919050565b6000819050919050565b600061142d826113d7565b9050919050565b60005b83811015611452578082015181840152602081019050611437565b83811115611461576000848401525b50505050565b600061147282611418565b91507fffffffffffffffffffffffffffffffffffffffffffffffffffffffffffffffff8214156114a5576114a46114b0565b5b600182019050919050565b7f4e487b7100000000000000000000000000000000000000000000000000000000600052601160045260246000fd5b7f4e487b7100000000000000000000000000000000000000000000000000000000600052601260045260246000fd5b7f4e487b7100000000000000000000000000000000000000000000000000000000600052602160045260246000fd5b7f4e487b7100000000000000000000000000000000000000000000000000000000600052603260045260246000fd5b7f4e487b7100000000000000000000000000000000000000000000000000000000600052604160045260246000fd5b600080fd5b6000601f19601f8301169050919050565b7f4f6e6c792061646d696e2063616e2063616c6c20746869732066756e6374696f60008201527f6e00000000000000000000000000000000000000000000000000000000000000602082015250565b600381106116115761161061150e565b5b50565b61161d816113b9565b811461162857600080fd5b50565b611634816113ea565b811461163f57600080fd5b50565b61164b81611418565b811461165657600080fd5b5056fea2646970667358221220d14153fbd28ab022041830d9d6651763520faeb109bc0331fb60e93144b0b95164736f6c63430008070033","opcodes":"PUSH1 0xC0 PUSH1 0x40 MSTORE CALLVALUE DUP1 ISZERO PUSH3 0x11 JUMPI PUSH1 0x0 DUP1 REVERT JUMPDEST POP PUSH1 0x40 MLOAD PUSH3 0x18A4 CODESIZE SUB DUP1 PUSH3 0x18A4 DUP4 CODECOPY DUP2 DUP2 ADD PUSH1 0x40 MSTORE DUP2 ADD SWAP1 PUSH3 0x37 SWAP2 SWAP1 PUSH3 0x10A JUMP JUMPDEST DUP3 PUSH1 0x80 DUP2 DUP2 MSTORE POP POP DUP2 PUSH1 0x0 DUP2 SWAP1 SSTORE POP PUSH1 0x0 PUSH1 0x6 PUSH1 0x0 PUSH2 0x100 EXP DUP2 SLOAD DUP2 PUSH1 0xFF MUL NOT AND SWAP1 DUP4 PUSH1 0x2 DUP2 GT ISZERO PUSH3 0x6F JUMPI PUSH3 0x6E PUSH3 0x180 JUMP JUMPDEST JUMPDEST MUL OR SWAP1 SSTORE POP TIMESTAMP PUSH1 0x3 DUP2 SWAP1 SSTORE POP DUP1 PUSH4 0xFFFFFFFF AND PUSH1 0xA0 DUP2 PUSH4 0xFFFFFFFF AND PUSH1 0xE0 SHL DUP2 MSTORE POP POP CALLER PUSH1 0x4 PUSH1 0x0 PUSH2 0x100 EXP DUP2 SLOAD DUP2 PUSH20 0xFFFFFFFFFFFFFFFFFFFFFFFFFFFFFFFFFFFFFFFF MUL NOT AND SWAP1 DUP4 PUSH20 0xFFFFFFFFFFFFFFFFFFFFFFFFFFFFFFFFFFFFFFFF AND MUL OR SWAP1 SSTORE POP POP POP POP PUSH3 0x1E8 JUMP JUMPDEST PUSH1 0x0 DUP2 MLOAD SWAP1 POP PUSH3 0xED DUP2 PUSH3 0x1B4 JUMP JUMPDEST SWAP3 SWAP2 POP POP JUMP JUMPDEST PUSH1 0x0 DUP2 MLOAD SWAP1 POP PUSH3 0x104 DUP2 PUSH3 0x1CE JUMP JUMPDEST SWAP3 SWAP2 POP POP JUMP JUMPDEST PUSH1 0x0 DUP1 PUSH1 0x0 PUSH1 0x60 DUP5 DUP7 SUB SLT ISZERO PUSH3 0x126 JUMPI PUSH3 0x125 PUSH3 0x1AF JUMP JUMPDEST JUMPDEST PUSH1 0x0 PUSH3 0x136 DUP7 DUP3 DUP8 ADD PUSH3 0xDC JUMP JUMPDEST SWAP4 POP POP PUSH1 0x20 PUSH3 0x149 DUP7 DUP3 DUP8 ADD PUSH3 0xDC JUMP JUMPDEST SWAP3 POP POP PUSH1 0x40 PUSH3 0x15C DUP7 DUP3 DUP8 ADD PUSH3 0xF3 JUMP JUMPDEST SWAP2 POP POP SWAP3 POP SWAP3 POP SWAP3 JUMP JUMPDEST PUSH1 0x0 DUP2 SWAP1 POP SWAP2 SWAP1 POP JUMP JUMPDEST PUSH1 0x0 PUSH4 0xFFFFFFFF DUP3 AND SWAP1 POP SWAP2 SWAP1 POP JUMP JUMPDEST PUSH32 0x4E487B7100000000000000000000000000000000000000000000000000000000 PUSH1 0x0 MSTORE PUSH1 0x21 PUSH1 0x4 MSTORE PUSH1 0x24 PUSH1 0x0 REVERT JUMPDEST PUSH1 0x0 DUP1 REVERT JUMPDEST PUSH3 0x1BF DUP2 PUSH3 0x166 JUMP JUMPDEST DUP2 EQ PUSH3 0x1CB JUMPI PUSH1 0x0 DUP1 REVERT JUMPDEST POP JUMP JUMPDEST PUSH3 0x1D9 DUP2 PUSH3 0x170 JUMP JUMPDEST DUP2 EQ PUSH3 0x1E5 JUMPI PUSH1 0x0 DUP1 REVERT JUMPDEST POP JUMP JUMPDEST PUSH1 0x80 MLOAD PUSH1 0xA0 MLOAD PUSH1 0xE0 SHR PUSH2 0x168F PUSH3 0x215 PUSH1 0x0 CODECOPY PUSH1 0x0 POP POP PUSH1 0x0 DUP2 DUP2 PUSH2 0x804 ADD MSTORE PUSH2 0xC55 ADD MSTORE PUSH2 0x168F PUSH1 0x0 RETURN INVALID PUSH1 0x80 PUSH1 0x40 MSTORE PUSH1 0x4 CALLDATASIZE LT PUSH2 0xF3 JUMPI PUSH1 0x0 CALLDATALOAD PUSH1 0xE0 SHR DUP1 PUSH4 0x676F6474 GT PUSH2 0x8A JUMPI DUP1 PUSH4 0xC1C244E8 GT PUSH2 0x59 JUMPI DUP1 PUSH4 0xC1C244E8 EQ PUSH2 0x30A JUMPI DUP1 PUSH4 0xE55AE4E8 EQ PUSH2 0x335 JUMPI DUP1 PUSH4 0xF08846D4 EQ PUSH2 0x372 JUMPI DUP1 PUSH4 0xFD6673F5 EQ PUSH2 0x38E JUMPI PUSH2 0xF3 JUMP JUMPDEST DUP1 PUSH4 0x676F6474 EQ PUSH2 0x25F JUMPI DUP1 PUSH4 0x6E9960C3 EQ PUSH2 0x28B JUMPI DUP1 PUSH4 0x7904F688 EQ PUSH2 0x2B6 JUMPI DUP1 PUSH4 0x91AD27B4 EQ PUSH2 0x2DF JUMPI PUSH2 0xF3 JUMP JUMPDEST DUP1 PUSH4 0x4B114691 GT PUSH2 0xC6 JUMPI DUP1 PUSH4 0x4B114691 EQ PUSH2 0x1B4 JUMPI DUP1 PUSH4 0x5428EC85 EQ PUSH2 0x1F2 JUMPI DUP1 PUSH4 0x57899342 EQ PUSH2 0x209 JUMPI DUP1 PUSH4 0x65733592 EQ PUSH2 0x234 JUMPI PUSH2 0xF3 JUMP JUMPDEST DUP1 PUSH4 0x9BC33A7 EQ PUSH2 0xF8 JUMPI DUP1 PUSH4 0x3CA53BBA EQ PUSH2 0x123 JUMPI DUP1 PUSH4 0x4081D916 EQ PUSH2 0x14C JUMPI DUP1 PUSH4 0x4996D51D EQ PUSH2 0x189 JUMPI JUMPDEST PUSH1 0x0 DUP1 REVERT JUMPDEST CALLVALUE DUP1 ISZERO PUSH2 0x104 JUMPI PUSH1 0x0 DUP1 REVERT JUMPDEST POP PUSH2 0x10D PUSH2 0x3B9 JUMP JUMPDEST PUSH1 0x40 MLOAD PUSH2 0x11A SWAP2 SWAP1 PUSH2 0x11FC JUMP JUMPDEST PUSH1 0x40 MLOAD DUP1 SWAP2 SUB SWAP1 RETURN JUMPDEST CALLVALUE DUP1 ISZERO PUSH2 0x12F JUMPI PUSH1 0x0 DUP1 REVERT JUMPDEST POP PUSH2 0x14A PUSH1 0x4 DUP1 CALLDATASIZE SUB DUP2 ADD SWAP1 PUSH2 0x145 SWAP2 SWAP1 PUSH2 0x105A JUMP JUMPDEST PUSH2 0x3C2 JUMP JUMPDEST STOP JUMPDEST CALLVALUE DUP1 ISZERO PUSH2 0x158 JUMPI PUSH1 0x0 DUP1 REVERT JUMPDEST POP PUSH2 0x173 PUSH1 0x4 DUP1 CALLDATASIZE SUB DUP2 ADD SWAP1 PUSH2 0x16E SWAP2 SWAP1 PUSH2 0x102D JUMP JUMPDEST PUSH2 0x58E JUMP JUMPDEST PUSH1 0x40 MLOAD PUSH2 0x180 SWAP2 SWAP1 PUSH2 0x1176 JUMP JUMPDEST PUSH1 0x40 MLOAD DUP1 SWAP2 SUB SWAP1 RETURN JUMPDEST CALLVALUE DUP1 ISZERO PUSH2 0x195 JUMPI PUSH1 0x0 DUP1 REVERT JUMPDEST POP PUSH2 0x19E PUSH2 0x640 JUMP JUMPDEST PUSH1 0x40 MLOAD PUSH2 0x1AB SWAP2 SWAP1 PUSH2 0x11FC JUMP JUMPDEST PUSH1 0x40 MLOAD DUP1 SWAP2 SUB SWAP1 RETURN JUMPDEST CALLVALUE DUP1 ISZERO PUSH2 0x1C0 JUMPI PUSH1 0x0 DUP1 REVERT JUMPDEST POP PUSH2 0x1DB PUSH1 0x4 DUP1 CALLDATASIZE SUB DUP2 ADD SWAP1 PUSH2 0x1D6 SWAP2 SWAP1 PUSH2 0x102D JUMP JUMPDEST PUSH2 0x64A JUMP JUMPDEST PUSH1 0x40 MLOAD PUSH2 0x1E9 SWAP3 SWAP2 SWAP1 PUSH2 0x1217 JUMP JUMPDEST PUSH1 0x40 MLOAD DUP1 SWAP2 SUB SWAP1 RETURN JUMPDEST CALLVALUE DUP1 ISZERO PUSH2 0x1FE JUMPI PUSH1 0x0 DUP1 REVERT JUMPDEST POP PUSH2 0x207 PUSH2 0x67C JUMP JUMPDEST STOP JUMPDEST CALLVALUE DUP1 ISZERO PUSH2 0x215 JUMPI PUSH1 0x0 DUP1 REVERT JUMPDEST POP PUSH2 0x21E PUSH2 0x7A0 JUMP JUMPDEST PUSH1 0x40 MLOAD PUSH2 0x22B SWAP2 SWAP1 PUSH2 0x11C1 JUMP JUMPDEST PUSH1 0x40 MLOAD DUP1 SWAP2 SUB SWAP1 RETURN JUMPDEST CALLVALUE DUP1 ISZERO PUSH2 0x240 JUMPI PUSH1 0x0 DUP1 REVERT JUMPDEST POP PUSH2 0x249 PUSH2 0x7B7 JUMP JUMPDEST PUSH1 0x40 MLOAD PUSH2 0x256 SWAP2 SWAP1 PUSH2 0x11FC JUMP JUMPDEST PUSH1 0x40 MLOAD DUP1 SWAP2 SUB SWAP1 RETURN JUMPDEST CALLVALUE DUP1 ISZERO PUSH2 0x26B JUMPI PUSH1 0x0 DUP1 REVERT JUMPDEST POP PUSH2 0x274 PUSH2 0x7C1 JUMP JUMPDEST PUSH1 0x40 MLOAD PUSH2 0x282 SWAP3 SWAP2 SWAP1 PUSH2 0x1191 JUMP JUMPDEST PUSH1 0x40 MLOAD DUP1 SWAP2 SUB SWAP1 RETURN JUMPDEST CALLVALUE DUP1 ISZERO PUSH2 0x297 JUMPI PUSH1 0x0 DUP1 REVERT JUMPDEST POP PUSH2 0x2A0 PUSH2 0x8A8 JUMP JUMPDEST PUSH1 0x40 MLOAD PUSH2 0x2AD SWAP2 SWAP1 PUSH2 0x115B JUMP JUMPDEST PUSH1 0x40 MLOAD DUP1 SWAP2 SUB SWAP1 RETURN JUMPDEST CALLVALUE DUP1 ISZERO PUSH2 0x2C2 JUMPI PUSH1 0x0 DUP1 REVERT JUMPDEST POP PUSH2 0x2DD PUSH1 0x4 DUP1 CALLDATASIZE SUB DUP2 ADD SWAP1 PUSH2 0x2D8 SWAP2 SWAP1 PUSH2 0x105A JUMP JUMPDEST PUSH2 0x8D2 JUMP JUMPDEST STOP JUMPDEST CALLVALUE DUP1 ISZERO PUSH2 0x2EB JUMPI PUSH1 0x0 DUP1 REVERT JUMPDEST POP PUSH2 0x2F4 PUSH2 0xC51 JUMP JUMPDEST PUSH1 0x40 MLOAD PUSH2 0x301 SWAP2 SWAP1 PUSH2 0x11FC JUMP JUMPDEST PUSH1 0x40 MLOAD DUP1 SWAP2 SUB SWAP1 RETURN JUMPDEST CALLVALUE DUP1 ISZERO PUSH2 0x316 JUMPI PUSH1 0x0 DUP1 REVERT JUMPDEST POP PUSH2 0x31F PUSH2 0xC79 JUMP JUMPDEST PUSH1 0x40 MLOAD PUSH2 0x32C SWAP2 SWAP1 PUSH2 0x11FC JUMP JUMPDEST PUSH1 0x40 MLOAD DUP1 SWAP2 SUB SWAP1 RETURN JUMPDEST CALLVALUE DUP1 ISZERO PUSH2 0x341 JUMPI PUSH1 0x0 DUP1 REVERT JUMPDEST POP PUSH2 0x35C PUSH1 0x4 DUP1 CALLDATASIZE SUB DUP2 ADD SWAP1 PUSH2 0x357 SWAP2 SWAP1 PUSH2 0x1087 JUMP JUMPDEST PUSH2 0xC83 JUMP JUMPDEST PUSH1 0x40 MLOAD PUSH2 0x369 SWAP2 SWAP1 PUSH2 0x115B JUMP JUMPDEST PUSH1 0x40 MLOAD DUP1 SWAP2 SUB SWAP1 RETURN JUMPDEST PUSH2 0x38C PUSH1 0x4 DUP1 CALLDATASIZE SUB DUP2 ADD SWAP1 PUSH2 0x387 SWAP2 SWAP1 PUSH2 0x105A JUMP JUMPDEST PUSH2 0xCCB JUMP JUMPDEST STOP JUMPDEST CALLVALUE DUP1 ISZERO PUSH2 0x39A JUMPI PUSH1 0x0 DUP1 REVERT JUMPDEST POP PUSH2 0x3A3 PUSH2 0xF19 JUMP JUMPDEST PUSH1 0x40 MLOAD PUSH2 0x3B0 SWAP2 SWAP1 PUSH2 0x11FC JUMP JUMPDEST PUSH1 0x40 MLOAD DUP1 SWAP2 SUB SWAP1 RETURN JUMPDEST PUSH1 0x0 DUP1 SLOAD SWAP1 POP SWAP1 JUMP JUMPDEST PUSH1 0x4 PUSH1 0x0 SWAP1 SLOAD SWAP1 PUSH2 0x100 EXP SWAP1 DIV PUSH20 0xFFFFFFFFFFFFFFFFFFFFFFFFFFFFFFFFFFFFFFFF AND PUSH20 0xFFFFFFFFFFFFFFFFFFFFFFFFFFFFFFFFFFFFFFFF AND CALLER PUSH20 0xFFFFFFFFFFFFFFFFFFFFFFFFFFFFFFFFFFFFFFFF AND EQ PUSH2 0x452 JUMPI PUSH1 0x40 MLOAD PUSH32 0x8C379A000000000000000000000000000000000000000000000000000000000 DUP2 MSTORE PUSH1 0x4 ADD PUSH2 0x449 SWAP1 PUSH2 0x11DC JUMP JUMPDEST PUSH1 0x40 MLOAD DUP1 SWAP2 SUB SWAP1 REVERT JUMPDEST PUSH1 0x0 PUSH2 0x45C PUSH2 0x7C1 JUMP JUMPDEST POP SWAP1 POP DUP1 PUSH2 0x4CB JUMPI SELFBALANCE PUSH1 0x5 DUP1 SLOAD SWAP1 POP PUSH1 0x6 PUSH1 0x0 SWAP1 SLOAD SWAP1 PUSH2 0x100 EXP SWAP1 DIV PUSH1 0xFF AND PUSH1 0x2 DUP2 GT ISZERO PUSH2 0x48D JUMPI PUSH2 0x48C PUSH2 0x150E JUMP JUMPDEST JUMPDEST PUSH1 0x40 MLOAD PUSH32 0xB8CBB54C00000000000000000000000000000000000000000000000000000000 DUP2 MSTORE PUSH1 0x4 ADD PUSH2 0x4C2 SWAP4 SWAP3 SWAP2 SWAP1 PUSH2 0x1240 JUMP JUMPDEST PUSH1 0x40 MLOAD DUP1 SWAP2 SUB SWAP1 REVERT JUMPDEST PUSH1 0x1 PUSH1 0x6 PUSH1 0x0 PUSH2 0x100 EXP DUP2 SLOAD DUP2 PUSH1 0xFF MUL NOT AND SWAP1 DUP4 PUSH1 0x2 DUP2 GT ISZERO PUSH2 0x4F1 JUMPI PUSH2 0x4F0 PUSH2 0x150E JUMP JUMPDEST JUMPDEST MUL OR SWAP1 SSTORE POP PUSH2 0x4FF DUP3 PUSH2 0x8D2 JUMP JUMPDEST PUSH1 0x0 PUSH8 0xFFFFFFFFFFFFFFFF DUP2 GT ISZERO PUSH2 0x51A JUMPI PUSH2 0x519 PUSH2 0x156C JUMP JUMPDEST JUMPDEST PUSH1 0x40 MLOAD SWAP1 DUP1 DUP3 MSTORE DUP1 PUSH1 0x20 MUL PUSH1 0x20 ADD DUP3 ADD PUSH1 0x40 MSTORE DUP1 ISZERO PUSH2 0x548 JUMPI DUP2 PUSH1 0x20 ADD PUSH1 0x20 DUP3 MUL DUP1 CALLDATASIZE DUP4 CALLDATACOPY DUP1 DUP3 ADD SWAP2 POP POP SWAP1 POP JUMPDEST POP PUSH1 0x5 SWAP1 DUP1 MLOAD SWAP1 PUSH1 0x20 ADD SWAP1 PUSH2 0x55E SWAP3 SWAP2 SWAP1 PUSH2 0xF26 JUMP JUMPDEST POP PUSH1 0x2 PUSH1 0x6 PUSH1 0x0 PUSH2 0x100 EXP DUP2 SLOAD DUP2 PUSH1 0xFF MUL NOT AND SWAP1 DUP4 PUSH1 0x2 DUP2 GT ISZERO PUSH2 0x585 JUMPI PUSH2 0x584 PUSH2 0x150E JUMP JUMPDEST JUMPDEST MUL OR SWAP1 SSTORE POP POP POP JUMP JUMPDEST PUSH1 0x0 DUP1 PUSH1 0x5 DUP1 SLOAD SWAP1 POP SWAP1 POP PUSH1 0x0 JUMPDEST DUP2 DUP2 LT ISZERO PUSH2 0x634 JUMPI DUP4 PUSH20 0xFFFFFFFFFFFFFFFFFFFFFFFFFFFFFFFFFFFFFFFF AND PUSH1 0x5 DUP3 DUP2 SLOAD DUP2 LT PUSH2 0x5CF JUMPI PUSH2 0x5CE PUSH2 0x153D JUMP JUMPDEST JUMPDEST SWAP1 PUSH1 0x0 MSTORE PUSH1 0x20 PUSH1 0x0 KECCAK256 ADD PUSH1 0x0 SWAP1 SLOAD SWAP1 PUSH2 0x100 EXP SWAP1 DIV PUSH20 0xFFFFFFFFFFFFFFFFFFFFFFFFFFFFFFFFFFFFFFFF AND PUSH20 0xFFFFFFFFFFFFFFFFFFFFFFFFFFFFFFFFFFFFFFFF AND EQ ISZERO PUSH2 0x621 JUMPI PUSH1 0x1 SWAP3 POP POP POP PUSH2 0x63B JUMP JUMPDEST DUP1 DUP1 PUSH2 0x62C SWAP1 PUSH2 0x1467 JUMP JUMPDEST SWAP2 POP POP PUSH2 0x59C JUMP JUMPDEST POP PUSH1 0x0 SWAP2 POP POP JUMPDEST SWAP2 SWAP1 POP JUMP JUMPDEST PUSH1 0x0 PUSH1 0x1 SLOAD SWAP1 POP SWAP1 JUMP JUMPDEST PUSH1 0x7 PUSH1 0x20 MSTORE DUP1 PUSH1 0x0 MSTORE PUSH1 0x40 PUSH1 0x0 KECCAK256 PUSH1 0x0 SWAP2 POP SWAP1 POP DUP1 PUSH1 0x0 ADD SLOAD SWAP1 DUP1 PUSH1 0x1 ADD PUSH1 0x0 SWAP1 SLOAD SWAP1 PUSH2 0x100 EXP SWAP1 DIV PUSH2 0xFFFF AND SWAP1 POP DUP3 JUMP JUMPDEST PUSH1 0x4 PUSH1 0x0 SWAP1 SLOAD SWAP1 PUSH2 0x100 EXP SWAP1 DIV PUSH20 0xFFFFFFFFFFFFFFFFFFFFFFFFFFFFFFFFFFFFFFFF AND PUSH20 0xFFFFFFFFFFFFFFFFFFFFFFFFFFFFFFFFFFFFFFFF AND CALLER PUSH20 0xFFFFFFFFFFFFFFFFFFFFFFFFFFFFFFFFFFFFFFFF AND EQ PUSH2 0x70C JUMPI PUSH1 0x40 MLOAD PUSH32 0x8C379A000000000000000000000000000000000000000000000000000000000 DUP2 MSTORE PUSH1 0x4 ADD PUSH2 0x703 SWAP1 PUSH2 0x11DC JUMP JUMPDEST PUSH1 0x40 MLOAD DUP1 SWAP2 SUB SWAP1 REVERT JUMPDEST PUSH1 0x0 PUSH1 0x6 PUSH1 0x0 PUSH2 0x100 EXP DUP2 SLOAD DUP2 PUSH1 0xFF MUL NOT AND SWAP1 DUP4 PUSH1 0x2 DUP2 GT ISZERO PUSH2 0x732 JUMPI PUSH2 0x731 PUSH2 0x150E JUMP JUMPDEST JUMPDEST MUL OR SWAP1 SSTORE POP PUSH1 0x0 PUSH8 0xFFFFFFFFFFFFFFFF DUP2 GT ISZERO PUSH2 0x752 JUMPI PUSH2 0x751 PUSH2 0x156C JUMP JUMPDEST JUMPDEST PUSH1 0x40 MLOAD SWAP1 DUP1 DUP3 MSTORE DUP1 PUSH1 0x20 MUL PUSH1 0x20 ADD DUP3 ADD PUSH1 0x40 MSTORE DUP1 ISZERO PUSH2 0x780 JUMPI DUP2 PUSH1 0x20 ADD PUSH1 0x20 DUP3 MUL DUP1 CALLDATASIZE DUP4 CALLDATACOPY DUP1 DUP3 ADD SWAP2 POP POP SWAP1 POP JUMPDEST POP PUSH1 0x5 SWAP1 DUP1 MLOAD SWAP1 PUSH1 0x20 ADD SWAP1 PUSH2 0x796 SWAP3 SWAP2 SWAP1 PUSH2 0xF26 JUMP JUMPDEST POP TIMESTAMP PUSH1 0x3 DUP2 SWAP1 SSTORE POP JUMP JUMPDEST PUSH1 0x0 PUSH1 0x6 PUSH1 0x0 SWAP1 SLOAD SWAP1 PUSH2 0x100 EXP SWAP1 DIV PUSH1 0xFF AND SWAP1 POP SWAP1 JUMP JUMPDEST PUSH1 0x0 PUSH1 0x2 SLOAD SWAP1 POP SWAP1 JUMP JUMPDEST PUSH1 0x0 PUSH1 0x60 PUSH1 0x0 PUSH1 0x6 PUSH1 0x0 SWAP1 SLOAD SWAP1 PUSH2 0x100 EXP SWAP1 DIV PUSH1 0xFF AND PUSH1 0x2 DUP2 GT ISZERO PUSH2 0x7E9 JUMPI PUSH2 0x7E8 PUSH2 0x150E JUMP JUMPDEST JUMPDEST PUSH1 0x0 PUSH1 0x2 DUP2 GT ISZERO PUSH2 0x7FD JUMPI PUSH2 0x7FC PUSH2 0x150E JUMP JUMPDEST JUMPDEST EQ SWAP1 POP PUSH1 0x0 PUSH32 0x0 PUSH1 0x3 SLOAD TIMESTAMP PUSH2 0x831 SWAP2 SWAP1 PUSH2 0x1385 JUMP JUMPDEST GT SWAP1 POP PUSH1 0x0 DUP1 PUSH1 0x5 DUP1 SLOAD SWAP1 POP GT SWAP1 POP PUSH1 0x0 DUP1 SELFBALANCE GT SWAP1 POP DUP3 DUP1 ISZERO PUSH2 0x851 JUMPI POP DUP4 JUMPDEST DUP1 ISZERO PUSH2 0x85A JUMPI POP DUP1 JUMPDEST DUP1 ISZERO PUSH2 0x863 JUMPI POP DUP2 JUMPDEST SWAP6 POP DUP6 PUSH1 0x40 MLOAD DUP1 PUSH1 0x40 ADD PUSH1 0x40 MSTORE DUP1 PUSH1 0x3 DUP2 MSTORE PUSH1 0x20 ADD PUSH32 0x3078300000000000000000000000000000000000000000000000000000000000 DUP2 MSTORE POP SWAP6 POP SWAP6 POP POP POP POP POP SWAP1 SWAP2 JUMP JUMPDEST PUSH1 0x0 PUSH1 0x4 PUSH1 0x0 SWAP1 SLOAD SWAP1 PUSH2 0x100 EXP SWAP1 DIV PUSH20 0xFFFFFFFFFFFFFFFFFFFFFFFFFFFFFFFFFFFFFFFF AND SWAP1 POP SWAP1 JUMP JUMPDEST PUSH1 0x60 PUSH1 0x0 DUP1 PUSH1 0x0 DUP1 DUP1 PUSH1 0x0 DUP1 PUSH1 0x0 SWAP1 POP JUMPDEST PUSH1 0x5 DUP1 SLOAD SWAP1 POP DUP2 LT ISZERO PUSH2 0xA01 JUMPI PUSH1 0x5 DUP2 DUP2 SLOAD DUP2 LT PUSH2 0x904 JUMPI PUSH2 0x903 PUSH2 0x153D JUMP JUMPDEST JUMPDEST SWAP1 PUSH1 0x0 MSTORE PUSH1 0x20 PUSH1 0x0 KECCAK256 ADD PUSH1 0x0 SWAP1 SLOAD SWAP1 PUSH2 0x100 EXP SWAP1 DIV PUSH20 0xFFFFFFFFFFFFFFFFFFFFFFFFFFFFFFFFFFFFFFFF AND SWAP2 POP DUP9 PUSH2 0xFFFF AND PUSH1 0x7 PUSH1 0x0 DUP5 PUSH20 0xFFFFFFFFFFFFFFFFFFFFFFFFFFFFFFFFFFFFFFFF AND PUSH20 0xFFFFFFFFFFFFFFFFFFFFFFFFFFFFFFFFFFFFFFFF AND DUP2 MSTORE PUSH1 0x20 ADD SWAP1 DUP2 MSTORE PUSH1 0x20 ADD PUSH1 0x0 KECCAK256 PUSH1 0x1 ADD PUSH1 0x0 SWAP1 SLOAD SWAP1 PUSH2 0x100 EXP SWAP1 DIV PUSH2 0xFFFF AND PUSH2 0xFFFF AND EQ ISZERO PUSH2 0x9EE JUMPI DUP2 DUP9 DUP9 DUP2 MLOAD DUP2 LT PUSH2 0x9A5 JUMPI PUSH2 0x9A4 PUSH2 0x153D JUMP JUMPDEST JUMPDEST PUSH1 0x20 MUL PUSH1 0x20 ADD ADD SWAP1 PUSH20 0xFFFFFFFFFFFFFFFFFFFFFFFFFFFFFFFFFFFFFFFF AND SWAP1 DUP2 PUSH20 0xFFFFFFFFFFFFFFFFFFFFFFFFFFFFFFFFFFFFFFFF AND DUP2 MSTORE POP POP DUP7 DUP1 PUSH2 0x9EA SWAP1 PUSH2 0x1467 JUMP JUMPDEST SWAP8 POP POP JUMPDEST DUP1 DUP1 PUSH2 0x9F9 SWAP1 PUSH2 0x1467 JUMP JUMPDEST SWAP2 POP POP PUSH2 0x8E3 JUMP JUMPDEST POP PUSH1 0x1 DUP9 PUSH2 0xFFFF AND EQ ISZERO PUSH2 0xA1E JUMPI PUSH1 0x2 SLOAD SWAP5 POP PUSH1 0x1 SLOAD SWAP4 POP PUSH2 0xA29 JUMP JUMPDEST PUSH1 0x1 SLOAD SWAP5 POP PUSH1 0x2 SLOAD SWAP4 POP JUMPDEST PUSH1 0x0 JUMPDEST DUP7 DUP2 LT ISZERO PUSH2 0xB96 JUMPI PUSH1 0x0 PUSH20 0xFFFFFFFFFFFFFFFFFFFFFFFFFFFFFFFFFFFFFFFF AND DUP9 DUP3 DUP2 MLOAD DUP2 LT PUSH2 0xA5F JUMPI PUSH2 0xA5E PUSH2 0x153D JUMP JUMPDEST JUMPDEST PUSH1 0x20 MUL PUSH1 0x20 ADD ADD MLOAD PUSH20 0xFFFFFFFFFFFFFFFFFFFFFFFFFFFFFFFFFFFFFFFF AND EQ PUSH2 0xB83 JUMPI DUP8 DUP2 DUP2 MLOAD DUP2 LT PUSH2 0xA95 JUMPI PUSH2 0xA94 PUSH2 0x153D JUMP JUMPDEST JUMPDEST PUSH1 0x20 MUL PUSH1 0x20 ADD ADD MLOAD SWAP4 POP PUSH1 0x7 PUSH1 0x0 DUP6 PUSH20 0xFFFFFFFFFFFFFFFFFFFFFFFFFFFFFFFFFFFFFFFF AND PUSH20 0xFFFFFFFFFFFFFFFFFFFFFFFFFFFFFFFFFFFFFFFF AND DUP2 MSTORE PUSH1 0x20 ADD SWAP1 DUP2 MSTORE PUSH1 0x20 ADD PUSH1 0x0 KECCAK256 PUSH1 0x0 ADD SLOAD SWAP3 POP DUP8 DUP2 DUP2 MLOAD DUP2 LT PUSH2 0xAF7 JUMPI PUSH2 0xAF6 PUSH2 0x153D JUMP JUMPDEST JUMPDEST PUSH1 0x20 MUL PUSH1 0x20 ADD ADD MLOAD PUSH20 0xFFFFFFFFFFFFFFFFFFFFFFFFFFFFFFFFFFFFFFFF AND PUSH2 0x8FC PUSH2 0x2710 DUP8 PUSH2 0x2710 DUP11 PUSH2 0xB2A SWAP2 SWAP1 PUSH2 0x132B JUMP JUMPDEST PUSH2 0xB34 SWAP2 SWAP1 PUSH2 0x12FA JUMP JUMPDEST PUSH2 0x2710 PUSH2 0xB41 SWAP2 SWAP1 PUSH2 0x12A4 JUMP JUMPDEST DUP7 PUSH2 0xB4C SWAP2 SWAP1 PUSH2 0x132B JUMP JUMPDEST PUSH2 0xB56 SWAP2 SWAP1 PUSH2 0x12FA JUMP JUMPDEST SWAP1 DUP2 ISZERO MUL SWAP1 PUSH1 0x40 MLOAD PUSH1 0x0 PUSH1 0x40 MLOAD DUP1 DUP4 SUB DUP2 DUP6 DUP9 DUP9 CALL SWAP4 POP POP POP POP ISZERO DUP1 ISZERO PUSH2 0xB81 JUMPI RETURNDATASIZE PUSH1 0x0 DUP1 RETURNDATACOPY RETURNDATASIZE PUSH1 0x0 REVERT JUMPDEST POP JUMPDEST DUP1 DUP1 PUSH2 0xB8E SWAP1 PUSH2 0x1467 JUMP JUMPDEST SWAP2 POP POP PUSH2 0xA2C JUMP JUMPDEST POP PUSH1 0x2 PUSH1 0x6 PUSH1 0x0 PUSH2 0x100 EXP DUP2 SLOAD DUP2 PUSH1 0xFF MUL NOT AND SWAP1 DUP4 PUSH1 0x2 DUP2 GT ISZERO PUSH2 0xBBD JUMPI PUSH2 0xBBC PUSH2 0x150E JUMP JUMPDEST JUMPDEST MUL OR SWAP1 SSTORE POP PUSH1 0x7 PUSH1 0x0 DUP3 PUSH20 0xFFFFFFFFFFFFFFFFFFFFFFFFFFFFFFFFFFFFFFFF AND PUSH20 0xFFFFFFFFFFFFFFFFFFFFFFFFFFFFFFFFFFFFFFFF AND DUP2 MSTORE PUSH1 0x20 ADD SWAP1 DUP2 MSTORE PUSH1 0x20 ADD PUSH1 0x0 KECCAK256 PUSH1 0x0 DUP1 DUP3 ADD PUSH1 0x0 SWAP1 SSTORE PUSH1 0x1 DUP3 ADD PUSH1 0x0 PUSH2 0x100 EXP DUP2 SLOAD SWAP1 PUSH2 0xFFFF MUL NOT AND SWAP1 SSTORE POP POP PUSH1 0x5 PUSH1 0x0 PUSH2 0xC2F SWAP2 SWAP1 PUSH2 0xFB0 JUMP JUMPDEST PUSH1 0x0 SWAP5 POP PUSH1 0x0 SWAP4 POP PUSH1 0x0 PUSH1 0x1 DUP2 SWAP1 SSTORE POP PUSH1 0x0 PUSH1 0x2 DUP2 SWAP1 SSTORE POP POP POP POP POP POP POP POP POP JUMP JUMPDEST PUSH1 0x0 PUSH32 0x0 SWAP1 POP SWAP1 JUMP JUMPDEST PUSH1 0x0 PUSH1 0x3 SLOAD SWAP1 POP SWAP1 JUMP JUMPDEST PUSH1 0x0 PUSH1 0x5 DUP3 DUP2 SLOAD DUP2 LT PUSH2 0xC99 JUMPI PUSH2 0xC98 PUSH2 0x153D JUMP JUMPDEST JUMPDEST SWAP1 PUSH1 0x0 MSTORE PUSH1 0x20 PUSH1 0x0 KECCAK256 ADD PUSH1 0x0 SWAP1 SLOAD SWAP1 PUSH2 0x100 EXP SWAP1 DIV PUSH20 0xFFFFFFFFFFFFFFFFFFFFFFFFFFFFFFFFFFFFFFFF AND SWAP1 POP SWAP2 SWAP1 POP JUMP JUMPDEST PUSH2 0xCD4 CALLER PUSH2 0x58E JUMP JUMPDEST ISZERO PUSH2 0xCDE JUMPI PUSH1 0x0 DUP1 REVERT JUMPDEST PUSH1 0x0 SLOAD CALLVALUE LT ISZERO PUSH2 0xD1A JUMPI PUSH1 0x40 MLOAD PUSH32 0x30A16E2E00000000000000000000000000000000000000000000000000000000 DUP2 MSTORE PUSH1 0x4 ADD PUSH1 0x40 MLOAD DUP1 SWAP2 SUB SWAP1 REVERT JUMPDEST PUSH1 0x0 PUSH1 0x2 DUP2 GT ISZERO PUSH2 0xD2E JUMPI PUSH2 0xD2D PUSH2 0x150E JUMP JUMPDEST JUMPDEST PUSH1 0x6 PUSH1 0x0 SWAP1 SLOAD SWAP1 PUSH2 0x100 EXP SWAP1 DIV PUSH1 0xFF AND PUSH1 0x2 DUP2 GT ISZERO PUSH2 0xD50 JUMPI PUSH2 0xD4F PUSH2 0x150E JUMP JUMPDEST JUMPDEST EQ PUSH2 0xD87 JUMPI PUSH1 0x40 MLOAD PUSH32 0xF3B8FA1B00000000000000000000000000000000000000000000000000000000 DUP2 MSTORE PUSH1 0x4 ADD PUSH1 0x40 MLOAD DUP1 SWAP2 SUB SWAP1 REVERT JUMPDEST CALLVALUE PUSH1 0x7 PUSH1 0x0 CALLER PUSH20 0xFFFFFFFFFFFFFFFFFFFFFFFFFFFFFFFFFFFFFFFF AND PUSH20 0xFFFFFFFFFFFFFFFFFFFFFFFFFFFFFFFFFFFFFFFF AND DUP2 MSTORE PUSH1 0x20 ADD SWAP1 DUP2 MSTORE PUSH1 0x20 ADD PUSH1 0x0 KECCAK256 PUSH1 0x0 ADD DUP2 SWAP1 SSTORE POP DUP1 PUSH1 0x7 PUSH1 0x0 CALLER PUSH20 0xFFFFFFFFFFFFFFFFFFFFFFFFFFFFFFFFFFFFFFFF AND PUSH20 0xFFFFFFFFFFFFFFFFFFFFFFFFFFFFFFFFFFFFFFFF AND DUP2 MSTORE PUSH1 0x20 ADD SWAP1 DUP2 MSTORE PUSH1 0x20 ADD PUSH1 0x0 KECCAK256 PUSH1 0x1 ADD PUSH1 0x0 PUSH2 0x100 EXP DUP2 SLOAD DUP2 PUSH2 0xFFFF MUL NOT AND SWAP1 DUP4 PUSH2 0xFFFF AND MUL OR SWAP1 SSTORE POP PUSH1 0x5 CALLER SWAP1 DUP1 PUSH1 0x1 DUP2 SLOAD ADD DUP1 DUP3 SSTORE DUP1 SWAP2 POP POP PUSH1 0x1 SWAP1 SUB SWAP1 PUSH1 0x0 MSTORE PUSH1 0x20 PUSH1 0x0 KECCAK256 ADD PUSH1 0x0 SWAP1 SWAP2 SWAP1 SWAP2 SWAP1 SWAP2 PUSH2 0x100 EXP DUP2 SLOAD DUP2 PUSH20 0xFFFFFFFFFFFFFFFFFFFFFFFFFFFFFFFFFFFFFFFF MUL NOT AND SWAP1 DUP4 PUSH20 0xFFFFFFFFFFFFFFFFFFFFFFFFFFFFFFFFFFFFFFFF AND MUL OR SWAP1 SSTORE POP PUSH1 0x1 DUP2 PUSH2 0xFFFF AND EQ ISZERO PUSH2 0xEB9 JUMPI CALLVALUE PUSH1 0x1 PUSH1 0x0 DUP3 DUP3 SLOAD PUSH2 0xEAD SWAP2 SWAP1 PUSH2 0x12A4 JUMP JUMPDEST SWAP3 POP POP DUP2 SWAP1 SSTORE POP PUSH2 0xED3 JUMP JUMPDEST CALLVALUE PUSH1 0x2 PUSH1 0x0 DUP3 DUP3 SLOAD PUSH2 0xECB SWAP2 SWAP1 PUSH2 0x12A4 JUMP JUMPDEST SWAP3 POP POP DUP2 SWAP1 SSTORE POP JUMPDEST CALLER PUSH20 0xFFFFFFFFFFFFFFFFFFFFFFFFFFFFFFFFFFFFFFFF AND PUSH32 0x7F47E4B864EE52D8CA461D379020BE7E99AE801A152DDE71193BDC651DA8A7C0 PUSH1 0x40 MLOAD PUSH1 0x40 MLOAD DUP1 SWAP2 SUB SWAP1 LOG2 POP JUMP JUMPDEST PUSH1 0x0 PUSH1 0x5 DUP1 SLOAD SWAP1 POP SWAP1 POP SWAP1 JUMP JUMPDEST DUP3 DUP1 SLOAD DUP3 DUP3 SSTORE SWAP1 PUSH1 0x0 MSTORE PUSH1 0x20 PUSH1 0x0 KECCAK256 SWAP1 DUP2 ADD SWAP3 DUP3 ISZERO PUSH2 0xF9F JUMPI SWAP2 PUSH1 0x20 MUL DUP3 ADD JUMPDEST DUP3 DUP2 GT ISZERO PUSH2 0xF9E JUMPI DUP3 MLOAD DUP3 PUSH1 0x0 PUSH2 0x100 EXP DUP2 SLOAD DUP2 PUSH20 0xFFFFFFFFFFFFFFFFFFFFFFFFFFFFFFFFFFFFFFFF MUL NOT AND SWAP1 DUP4 PUSH20 0xFFFFFFFFFFFFFFFFFFFFFFFFFFFFFFFFFFFFFFFF AND MUL OR SWAP1 SSTORE POP SWAP2 PUSH1 0x20 ADD SWAP2 SWAP1 PUSH1 0x1 ADD SWAP1 PUSH2 0xF46 JUMP JUMPDEST JUMPDEST POP SWAP1 POP PUSH2 0xFAC SWAP2 SWAP1 PUSH2 0xFD1 JUMP JUMPDEST POP SWAP1 JUMP JUMPDEST POP DUP1 SLOAD PUSH1 0x0 DUP3 SSTORE SWAP1 PUSH1 0x0 MSTORE PUSH1 0x20 PUSH1 0x0 KECCAK256 SWAP1 DUP2 ADD SWAP1 PUSH2 0xFCE SWAP2 SWAP1 PUSH2 0xFD1 JUMP JUMPDEST POP JUMP JUMPDEST JUMPDEST DUP1 DUP3 GT ISZERO PUSH2 0xFEA JUMPI PUSH1 0x0 DUP2 PUSH1 0x0 SWAP1 SSTORE POP PUSH1 0x1 ADD PUSH2 0xFD2 JUMP JUMPDEST POP SWAP1 JUMP JUMPDEST PUSH1 0x0 DUP2 CALLDATALOAD SWAP1 POP PUSH2 0xFFD DUP2 PUSH2 0x1614 JUMP JUMPDEST SWAP3 SWAP2 POP POP JUMP JUMPDEST PUSH1 0x0 DUP2 CALLDATALOAD SWAP1 POP PUSH2 0x1012 DUP2 PUSH2 0x162B JUMP JUMPDEST SWAP3 SWAP2 POP POP JUMP JUMPDEST PUSH1 0x0 DUP2 CALLDATALOAD SWAP1 POP PUSH2 0x1027 DUP2 PUSH2 0x1642 JUMP JUMPDEST SWAP3 SWAP2 POP POP JUMP JUMPDEST PUSH1 0x0 PUSH1 0x20 DUP3 DUP5 SUB SLT ISZERO PUSH2 0x1043 JUMPI PUSH2 0x1042 PUSH2 0x159B JUMP JUMPDEST JUMPDEST PUSH1 0x0 PUSH2 0x1051 DUP5 DUP3 DUP6 ADD PUSH2 0xFEE JUMP JUMPDEST SWAP2 POP POP SWAP3 SWAP2 POP POP JUMP JUMPDEST PUSH1 0x0 PUSH1 0x20 DUP3 DUP5 SUB SLT ISZERO PUSH2 0x1070 JUMPI PUSH2 0x106F PUSH2 0x159B JUMP JUMPDEST JUMPDEST PUSH1 0x0 PUSH2 0x107E DUP5 DUP3 DUP6 ADD PUSH2 0x1003 JUMP JUMPDEST SWAP2 POP POP SWAP3 SWAP2 POP POP JUMP JUMPDEST PUSH1 0x0 PUSH1 0x20 DUP3 DUP5 SUB SLT ISZERO PUSH2 0x109D JUMPI PUSH2 0x109C PUSH2 0x159B JUMP JUMPDEST JUMPDEST PUSH1 0x0 PUSH2 0x10AB DUP5 DUP3 DUP6 ADD PUSH2 0x1018 JUMP JUMPDEST SWAP2 POP POP SWAP3 SWAP2 POP POP JUMP JUMPDEST PUSH2 0x10BD DUP2 PUSH2 0x13B9 JUMP JUMPDEST DUP3 MSTORE POP POP JUMP JUMPDEST PUSH2 0x10CC DUP2 PUSH2 0x13CB JUMP JUMPDEST DUP3 MSTORE POP POP JUMP JUMPDEST PUSH1 0x0 PUSH2 0x10DD DUP3 PUSH2 0x1277 JUMP JUMPDEST PUSH2 0x10E7 DUP2 DUP6 PUSH2 0x1282 JUMP JUMPDEST SWAP4 POP PUSH2 0x10F7 DUP2 DUP6 PUSH1 0x20 DUP7 ADD PUSH2 0x1434 JUMP JUMPDEST PUSH2 0x1100 DUP2 PUSH2 0x15A0 JUMP JUMPDEST DUP5 ADD SWAP2 POP POP SWAP3 SWAP2 POP POP JUMP JUMPDEST PUSH2 0x1114 DUP2 PUSH2 0x1422 JUMP JUMPDEST DUP3 MSTORE POP POP JUMP JUMPDEST PUSH1 0x0 PUSH2 0x1127 PUSH1 0x21 DUP4 PUSH2 0x1293 JUMP JUMPDEST SWAP2 POP PUSH2 0x1132 DUP3 PUSH2 0x15B1 JUMP JUMPDEST PUSH1 0x40 DUP3 ADD SWAP1 POP SWAP2 SWAP1 POP JUMP JUMPDEST PUSH2 0x1146 DUP2 PUSH2 0x13EA JUMP JUMPDEST DUP3 MSTORE POP POP JUMP JUMPDEST PUSH2 0x1155 DUP2 PUSH2 0x1418 JUMP JUMPDEST DUP3 MSTORE POP POP JUMP JUMPDEST PUSH1 0x0 PUSH1 0x20 DUP3 ADD SWAP1 POP PUSH2 0x1170 PUSH1 0x0 DUP4 ADD DUP5 PUSH2 0x10B4 JUMP JUMPDEST SWAP3 SWAP2 POP POP JUMP JUMPDEST PUSH1 0x0 PUSH1 0x20 DUP3 ADD SWAP1 POP PUSH2 0x118B PUSH1 0x0 DUP4 ADD DUP5 PUSH2 0x10C3 JUMP JUMPDEST SWAP3 SWAP2 POP POP JUMP JUMPDEST PUSH1 0x0 PUSH1 0x40 DUP3 ADD SWAP1 POP PUSH2 0x11A6 PUSH1 0x0 DUP4 ADD DUP6 PUSH2 0x10C3 JUMP JUMPDEST DUP2 DUP2 SUB PUSH1 0x20 DUP4 ADD MSTORE PUSH2 0x11B8 DUP2 DUP5 PUSH2 0x10D2 JUMP JUMPDEST SWAP1 POP SWAP4 SWAP3 POP POP POP JUMP JUMPDEST PUSH1 0x0 PUSH1 0x20 DUP3 ADD SWAP1 POP PUSH2 0x11D6 PUSH1 0x0 DUP4 ADD DUP5 PUSH2 0x110B JUMP JUMPDEST SWAP3 SWAP2 POP POP JUMP JUMPDEST PUSH1 0x0 PUSH1 0x20 DUP3 ADD SWAP1 POP DUP2 DUP2 SUB PUSH1 0x0 DUP4 ADD MSTORE PUSH2 0x11F5 DUP2 PUSH2 0x111A JUMP JUMPDEST SWAP1 POP SWAP2 SWAP1 POP JUMP JUMPDEST PUSH1 0x0 PUSH1 0x20 DUP3 ADD SWAP1 POP PUSH2 0x1211 PUSH1 0x0 DUP4 ADD DUP5 PUSH2 0x114C JUMP JUMPDEST SWAP3 SWAP2 POP POP JUMP JUMPDEST PUSH1 0x0 PUSH1 0x40 DUP3 ADD SWAP1 POP PUSH2 0x122C PUSH1 0x0 DUP4 ADD DUP6 PUSH2 0x114C JUMP JUMPDEST PUSH2 0x1239 PUSH1 0x20 DUP4 ADD DUP5 PUSH2 0x113D JUMP JUMPDEST SWAP4 SWAP3 POP POP POP JUMP JUMPDEST PUSH1 0x0 PUSH1 0x60 DUP3 ADD SWAP1 POP PUSH2 0x1255 PUSH1 0x0 DUP4 ADD DUP7 PUSH2 0x114C JUMP JUMPDEST PUSH2 0x1262 PUSH1 0x20 DUP4 ADD DUP6 PUSH2 0x114C JUMP JUMPDEST PUSH2 0x126F PUSH1 0x40 DUP4 ADD DUP5 PUSH2 0x114C JUMP JUMPDEST SWAP5 SWAP4 POP POP POP POP JUMP JUMPDEST PUSH1 0x0 DUP2 MLOAD SWAP1 POP SWAP2 SWAP1 POP JUMP JUMPDEST PUSH1 0x0 DUP3 DUP3 MSTORE PUSH1 0x20 DUP3 ADD SWAP1 POP SWAP3 SWAP2 POP POP JUMP JUMPDEST PUSH1 0x0 DUP3 DUP3 MSTORE PUSH1 0x20 DUP3 ADD SWAP1 POP SWAP3 SWAP2 POP POP JUMP JUMPDEST PUSH1 0x0 PUSH2 0x12AF DUP3 PUSH2 0x1418 JUMP JUMPDEST SWAP2 POP PUSH2 0x12BA DUP4 PUSH2 0x1418 JUMP JUMPDEST SWAP3 POP DUP3 PUSH32 0xFFFFFFFFFFFFFFFFFFFFFFFFFFFFFFFFFFFFFFFFFFFFFFFFFFFFFFFFFFFFFFFF SUB DUP3 GT ISZERO PUSH2 0x12EF JUMPI PUSH2 0x12EE PUSH2 0x14B0 JUMP JUMPDEST JUMPDEST DUP3 DUP3 ADD SWAP1 POP SWAP3 SWAP2 POP POP JUMP JUMPDEST PUSH1 0x0 PUSH2 0x1305 DUP3 PUSH2 0x1418 JUMP JUMPDEST SWAP2 POP PUSH2 0x1310 DUP4 PUSH2 0x1418 JUMP JUMPDEST SWAP3 POP DUP3 PUSH2 0x1320 JUMPI PUSH2 0x131F PUSH2 0x14DF JUMP JUMPDEST JUMPDEST DUP3 DUP3 DIV SWAP1 POP SWAP3 SWAP2 POP POP JUMP JUMPDEST PUSH1 0x0 PUSH2 0x1336 DUP3 PUSH2 0x1418 JUMP JUMPDEST SWAP2 POP PUSH2 0x1341 DUP4 PUSH2 0x1418 JUMP JUMPDEST SWAP3 POP DUP2 PUSH32 0xFFFFFFFFFFFFFFFFFFFFFFFFFFFFFFFFFFFFFFFFFFFFFFFFFFFFFFFFFFFFFFFF DIV DUP4 GT DUP3 ISZERO ISZERO AND ISZERO PUSH2 0x137A JUMPI PUSH2 0x1379 PUSH2 0x14B0 JUMP JUMPDEST JUMPDEST DUP3 DUP3 MUL SWAP1 POP SWAP3 SWAP2 POP POP JUMP JUMPDEST PUSH1 0x0 PUSH2 0x1390 DUP3 PUSH2 0x1418 JUMP JUMPDEST SWAP2 POP PUSH2 0x139B DUP4 PUSH2 0x1418 JUMP JUMPDEST SWAP3 POP DUP3 DUP3 LT ISZERO PUSH2 0x13AE JUMPI PUSH2 0x13AD PUSH2 0x14B0 JUMP JUMPDEST JUMPDEST DUP3 DUP3 SUB SWAP1 POP SWAP3 SWAP2 POP POP JUMP JUMPDEST PUSH1 0x0 PUSH2 0x13C4 DUP3 PUSH2 0x13F8 JUMP JUMPDEST SWAP1 POP SWAP2 SWAP1 POP JUMP JUMPDEST PUSH1 0x0 DUP2 ISZERO ISZERO SWAP1 POP SWAP2 SWAP1 POP JUMP JUMPDEST PUSH1 0x0 DUP2 SWAP1 POP PUSH2 0x13E5 DUP3 PUSH2 0x1600 JUMP JUMPDEST SWAP2 SWAP1 POP JUMP JUMPDEST PUSH1 0x0 PUSH2 0xFFFF DUP3 AND SWAP1 POP SWAP2 SWAP1 POP JUMP JUMPDEST PUSH1 0x0 PUSH20 0xFFFFFFFFFFFFFFFFFFFFFFFFFFFFFFFFFFFFFFFF DUP3 AND SWAP1 POP SWAP2 SWAP1 POP JUMP JUMPDEST PUSH1 0x0 DUP2 SWAP1 POP SWAP2 SWAP1 POP JUMP JUMPDEST PUSH1 0x0 PUSH2 0x142D DUP3 PUSH2 0x13D7 JUMP JUMPDEST SWAP1 POP SWAP2 SWAP1 POP JUMP JUMPDEST PUSH1 0x0 JUMPDEST DUP4 DUP2 LT ISZERO PUSH2 0x1452 JUMPI DUP1 DUP3 ADD MLOAD DUP2 DUP5 ADD MSTORE PUSH1 0x20 DUP2 ADD SWAP1 POP PUSH2 0x1437 JUMP JUMPDEST DUP4 DUP2 GT ISZERO PUSH2 0x1461 JUMPI PUSH1 0x0 DUP5 DUP5 ADD MSTORE JUMPDEST POP POP POP POP JUMP JUMPDEST PUSH1 0x0 PUSH2 0x1472 DUP3 PUSH2 0x1418 JUMP JUMPDEST SWAP2 POP PUSH32 0xFFFFFFFFFFFFFFFFFFFFFFFFFFFFFFFFFFFFFFFFFFFFFFFFFFFFFFFFFFFFFFFF DUP3 EQ ISZERO PUSH2 0x14A5 JUMPI PUSH2 0x14A4 PUSH2 0x14B0 JUMP JUMPDEST JUMPDEST PUSH1 0x1 DUP3 ADD SWAP1 POP SWAP2 SWAP1 POP JUMP JUMPDEST PUSH32 0x4E487B7100000000000000000000000000000000000000000000000000000000 PUSH1 0x0 MSTORE PUSH1 0x11 PUSH1 0x4 MSTORE PUSH1 0x24 PUSH1 0x0 REVERT JUMPDEST PUSH32 0x4E487B7100000000000000000000000000000000000000000000000000000000 PUSH1 0x0 MSTORE PUSH1 0x12 PUSH1 0x4 MSTORE PUSH1 0x24 PUSH1 0x0 REVERT JUMPDEST PUSH32 0x4E487B7100000000000000000000000000000000000000000000000000000000 PUSH1 0x0 MSTORE PUSH1 0x21 PUSH1 0x4 MSTORE PUSH1 0x24 PUSH1 0x0 REVERT JUMPDEST PUSH32 0x4E487B7100000000000000000000000000000000000000000000000000000000 PUSH1 0x0 MSTORE PUSH1 0x32 PUSH1 0x4 MSTORE PUSH1 0x24 PUSH1 0x0 REVERT JUMPDEST PUSH32 0x4E487B7100000000000000000000000000000000000000000000000000000000 PUSH1 0x0 MSTORE PUSH1 0x41 PUSH1 0x4 MSTORE PUSH1 0x24 PUSH1 0x0 REVERT JUMPDEST PUSH1 0x0 DUP1 REVERT JUMPDEST PUSH1 0x0 PUSH1 0x1F NOT PUSH1 0x1F DUP4 ADD AND SWAP1 POP SWAP2 SWAP1 POP JUMP JUMPDEST PUSH32 0x4F6E6C792061646D696E2063616E2063616C6C20746869732066756E6374696F PUSH1 0x0 DUP3 ADD MSTORE PUSH32 0x6E00000000000000000000000000000000000000000000000000000000000000 PUSH1 0x20 DUP3 ADD MSTORE POP JUMP JUMPDEST PUSH1 0x3 DUP2 LT PUSH2 0x1611 JUMPI PUSH2 0x1610 PUSH2 0x150E JUMP JUMPDEST JUMPDEST POP JUMP JUMPDEST PUSH2 0x161D DUP2 PUSH2 0x13B9 JUMP JUMPDEST DUP2 EQ PUSH2 0x1628 JUMPI PUSH1 0x0 DUP1 REVERT JUMPDEST POP JUMP JUMPDEST PUSH2 0x1634 DUP2 PUSH2 0x13EA JUMP JUMPDEST DUP2 EQ PUSH2 0x163F JUMPI PUSH1 0x0 DUP1 REVERT JUMPDEST POP JUMP JUMPDEST PUSH2 0x164B DUP2 PUSH2 0x1418 JUMP JUMPDEST DUP2 EQ PUSH2 0x1656 JUMPI PUSH1 0x0 DUP1 REVERT JUMPDEST POP JUMP INVALID LOG2 PUSH5 0x6970667358 0x22 SLT KECCAK256 0xD1 COINBASE MSTORE8 0xFB 0xD2 DUP11 0xB0 0x22 DIV XOR ADDRESS 0xD9 0xD6 PUSH6 0x1763520FAEB1 MULMOD 0xBC SUB BALANCE 0xFB PUSH1 0xE9 BALANCE DIFFICULTY 0xB0 0xB9 MLOAD PUSH5 0x736F6C6343 STOP ADDMOD SMOD STOP CALLER "},"gasEstimates":{"creation":{"codeDepositCost":"1155000","executionCost":"infinite","totalCost":"infinite"},"external":{"AmountOne()":"2527","AmountTwo()":"2526","betting(uint16)":"infinite","checkExecuteReady()":"infinite","checkPlayerExists(address)":"infinite","distributePrizes(uint16)":"infinite","getAdmin()":"2567","getBettingState()":"2635","getEntranceFee()":"2461","getInterval()":"infinite","getLastTimeStamp()":"2459","getNumberOfPlayers()":"2533","getPlayer(uint256)":"5011","performExecute(uint16)":"infinite","playerInfo(address)":"5105","reopenGame()":"infinite"}},"methodIdentifiers":{"AmountOne()":"4996d51d","AmountTwo()":"65733592","betting(uint16)":"f08846d4","checkExecuteReady()":"676f6474","checkPlayerExists(address)":"4081d916","distributePrizes(uint16)":"7904f688","getAdmin()":"6e9960c3","getBettingState()":"57899342","getEntranceFee()":"09bc33a7","getInterval()":"91ad27b4","getLastTimeStamp()":"c1c244e8","getNumberOfPlayers()":"fd6673f5","getPlayer(uint256)":"e55ae4e8","performExecute(uint16)":"3ca53bba","playerInfo(address)":"4b114691","reopenGame()":"5428ec85"}},"storageLayout":{"storage":[{"astId":415,"contract":"contracts/BinaryBet.sol:Betting","label":"minimumBet","offset":0,"slot":"0","type":"t_uint256"},{"astId":417,"contract":"contracts/BinaryBet.sol:Betting","label":"totalBetOne","offset":0,"slot":"1","type":"t_uint256"},{"astId":419,"contract":"contracts/BinaryBet.sol:Betting","label":"totalBetTwo","offset":0,"slot":"2","type":"t_uint256"},{"astId":421,"contract":"contracts/BinaryBet.sol:Betting","label":"s_lastTimeStamp","offset":0,"slot":"3","type":"t_uint256"},{"astId":423,"contract":"contracts/BinaryBet.sol:Betting","label":"admin","offset":0,"slot":"4","type":"t_address"},{"astId":426,"contract":"contracts/BinaryBet.sol:Betting","label":"players","offset":0,"slot":"5","type":"t_array(t_address_payable)dyn_storage"},{"astId":429,"contract":"contracts/BinaryBet.sol:Betting","label":"s_bettingState","offset":0,"slot":"6","type":"t_enum(BettingState)409"},{"astId":439,"contract":"contracts/BinaryBet.sol:Betting","label":"playerInfo","offset":0,"slot":"7","type":"t_mapping(t_address,t_struct(Player)434_storage)"}],"types":{"t_address":{"encoding":"inplace","label":"address","numberOfBytes":"20"},"t_address_payable":{"encoding":"inplace","label":"address payable","numberOfBytes":"20"},"t_array(t_address_payable)dyn_storage":{"base":"t_address_payable","encoding":"dynamic_array","label":"address payable[]","numberOfBytes":"32"},"t_enum(BettingState)409":{"encoding":"inplace","label":"enum Betting.BettingState","numberOfBytes":"1"},"t_mapping(t_address,t_struct(Player)434_storage)":{"encoding":"mapping","key":"t_address","label":"mapping(address => struct Betting.Player)","numberOfBytes":"32","value":"t_struct(Player)434_storage"},"t_struct(Player)434_storage":{"encoding":"inplace","label":"struct Betting.Player","members":[{"astId":431,"contract":"contracts/BinaryBet.sol:Betting","label":"amountBet","offset":0,"slot":"0","type":"t_uint256"},{"astId":433,"contract":"contracts/BinaryBet.sol:Betting","label":"teamSelected","offset":0,"slot":"1","type":"t_uint16"}],"numberOfBytes":"64"},"t_uint16":{"encoding":"inplace","label":"uint16","numberOfBytes":"2"},"t_uint256":{"encoding":"inplace","label":"uint256","numberOfBytes":"32"}}},"userdoc":{"kind":"user","methods":{"getAdmin()":{"notice":"Getter Functions "}},"notice":"This contract is for creating a sample betting contract","version":1}}}}