{"contracts/BinaryBet.sol":{"Betting":{"abi":[{"inputs":[{"internalType":"string","name":"_gameDescription","type":"string"},{"internalType":"string","name":"_option1Name","type":"string"},{"internalType":"string","name":"_option2Name","type":"string"},{"internalType":"string","name":"_option1LeagueName","type":"string"},{"internalType":"string","name":"_option2LeagueName","type":"string"},{"internalType":"uint256","name":"_matchDateTimestamp","type":"uint256"},{"internalType":"uint256","name":"entranceFee","type":"uint256"}],"stateMutability":"nonpayable","type":"constructor"},{"inputs":[{"internalType":"uint256","name":"currentBalance","type":"uint256"},{"internalType":"uint256","name":"numPlayers","type":"uint256"},{"internalType":"bool","name":"gameFinished","type":"bool"}],"name":"Betting__ExecuteNotNeeded","type":"error"},{"anonymous":false,"inputs":[{"indexed":true,"internalType":"address","name":"player","type":"address"}],"name":"BettingEnter","type":"event"},{"inputs":[],"name":"AmountOne","outputs":[{"internalType":"uint256","name":"","type":"uint256"}],"stateMutability":"view","type":"function"},{"inputs":[],"name":"AmountTwo","outputs":[{"internalType":"uint256","name":"","type":"uint256"}],"stateMutability":"view","type":"function"},{"inputs":[],"name":"betOnOption1","outputs":[],"stateMutability":"payable","type":"function"},{"inputs":[],"name":"betOnOption2","outputs":[],"stateMutability":"payable","type":"function"},{"inputs":[],"name":"checkExecuteReady","outputs":[{"internalType":"bool","name":"readyToExecute","type":"bool"},{"internalType":"bytes","name":"","type":"bytes"}],"stateMutability":"view","type":"function"},{"inputs":[{"internalType":"address","name":"player","type":"address"}],"name":"checkPlayerExists","outputs":[{"internalType":"bool","name":"","type":"bool"}],"stateMutability":"view","type":"function"},{"inputs":[],"name":"gameDescription","outputs":[{"internalType":"string","name":"","type":"string"}],"stateMutability":"view","type":"function"},{"inputs":[],"name":"gameFinished","outputs":[{"internalType":"bool","name":"","type":"bool"}],"stateMutability":"view","type":"function"},{"inputs":[],"name":"getAdmin","outputs":[{"internalType":"address","name":"","type":"address"}],"stateMutability":"view","type":"function"},{"inputs":[],"name":"getCommissionRatio","outputs":[{"internalType":"uint256","name":"","type":"uint256"}],"stateMutability":"view","type":"function"},{"inputs":[],"name":"getEntranceFee","outputs":[{"internalType":"uint256","name":"","type":"uint256"}],"stateMutability":"view","type":"function"},{"inputs":[],"name":"getGameFinished","outputs":[{"internalType":"bool","name":"","type":"bool"}],"stateMutability":"view","type":"function"},{"inputs":[],"name":"getMatchDateTimestamp","outputs":[{"internalType":"uint256","name":"","type":"uint256"}],"stateMutability":"view","type":"function"},{"inputs":[],"name":"getNumberOfPlayers","outputs":[{"internalType":"uint256","name":"","type":"uint256"}],"stateMutability":"view","type":"function"},{"inputs":[],"name":"getOption1LeagueName","outputs":[{"internalType":"string","name":"","type":"string"}],"stateMutability":"view","type":"function"},{"inputs":[],"name":"getOption1Name","outputs":[{"internalType":"string","name":"","type":"string"}],"stateMutability":"view","type":"function"},{"inputs":[],"name":"getOption2LeagueName","outputs":[{"internalType":"string","name":"","type":"string"}],"stateMutability":"view","type":"function"},{"inputs":[],"name":"getOption2Name","outputs":[{"internalType":"string","name":"","type":"string"}],"stateMutability":"view","type":"function"},{"inputs":[{"internalType":"uint256","name":"index","type":"uint256"}],"name":"getPlayerInfo","outputs":[{"internalType":"address","name":"","type":"address"}],"stateMutability":"view","type":"function"},{"inputs":[],"name":"getStartTimestamp","outputs":[{"internalType":"uint256","name":"","type":"uint256"}],"stateMutability":"view","type":"function"},{"inputs":[{"internalType":"uint16","name":"oraclemsg","type":"uint16"}],"name":"performExecute","outputs":[],"stateMutability":"nonpayable","type":"function"},{"inputs":[{"internalType":"address","name":"","type":"address"}],"name":"playerInfo","outputs":[{"internalType":"uint256","name":"amountBet","type":"uint256"},{"internalType":"uint16","name":"teamSelected","type":"uint16"}],"stateMutability":"view","type":"function"},{"inputs":[{"internalType":"uint256","name":"","type":"uint256"}],"name":"players","outputs":[{"internalType":"address payable","name":"","type":"address"}],"stateMutability":"view","type":"function"},{"inputs":[{"internalType":"string","name":"_gameDescription","type":"string"},{"internalType":"string","name":"_option1Name","type":"string"},{"internalType":"string","name":"_option2Name","type":"string"},{"internalType":"uint256","name":"_matchDateTimestamp","type":"uint256"}],"name":"reopenGame","outputs":[],"stateMutability":"nonpayable","type":"function"}],"devdoc":{"author":"Yakou Hikoichi","kind":"dev","methods":{"checkExecuteReady()":{"details":"This is the function whether the execution of betting is ready or not they look for `readyToExecute` to return True. the following should be true for this to return true: 1. The time interval has passed between betting runs. 2. The Game is open. 3. The contract has ETH."},"performExecute(uint16)":{"details":"Once `checkExecuteReady` is returning `true`, this function is called and it kicks off the winner."}},"title":"A sample Betting Contract","version":1},"evm":{"bytecode":{"linkReferences":{},"object":"60806040526005600f553480156200001657600080fd5b50604051620026a0380380620026a083398181016040528101906200003c9190620002df565b806000819055506000600660146101000a81548160ff021916908315150217905550426003819055508160048190555033600660006101000a81548173ffffffffffffffffffffffffffffffffffffffff021916908373ffffffffffffffffffffffffffffffffffffffff1602179055508660079080519060200190620000c59291906200019a565b508560089080519060200190620000de9291906200019a565b508460099080519060200190620000f79291906200019a565b5083600a9080519060200190620001109291906200019a565b5082600b9080519060200190620001299291906200019a565b50600660009054906101000a900473ffffffffffffffffffffffffffffffffffffffff16600560006101000a81548173ffffffffffffffffffffffffffffffffffffffff021916908373ffffffffffffffffffffffffffffffffffffffff16021790555050505050505050620005d5565b828054620001a890620004cc565b90600052602060002090601f016020900481019282620001cc576000855562000218565b82601f10620001e757805160ff191683800117855562000218565b8280016001018555821562000218579182015b8281111562000217578251825591602001919060010190620001fa565b5b5090506200022791906200022b565b5090565b5b80821115620002465760008160009055506001016200022c565b5090565b6000620002616200025b8462000456565b6200042d565b90508281526020810184848401111562000280576200027f6200059b565b5b6200028d84828562000496565b509392505050565b600082601f830112620002ad57620002ac62000596565b5b8151620002bf8482602086016200024a565b91505092915050565b600081519050620002d981620005bb565b92915050565b600080600080600080600060e0888a031215620003015762000300620005a5565b5b600088015167ffffffffffffffff811115620003225762000321620005a0565b5b620003308a828b0162000295565b975050602088015167ffffffffffffffff811115620003545762000353620005a0565b5b620003628a828b0162000295565b965050604088015167ffffffffffffffff811115620003865762000385620005a0565b5b620003948a828b0162000295565b955050606088015167ffffffffffffffff811115620003b857620003b7620005a0565b5b620003c68a828b0162000295565b945050608088015167ffffffffffffffff811115620003ea57620003e9620005a0565b5b620003f88a828b0162000295565b93505060a06200040b8a828b01620002c8565b92505060c06200041e8a828b01620002c8565b91505092959891949750929550565b6000620004396200044c565b905062000447828262000502565b919050565b6000604051905090565b600067ffffffffffffffff82111562000474576200047362000567565b5b6200047f82620005aa565b9050602081019050919050565b6000819050919050565b60005b83811015620004b657808201518184015260208101905062000499565b83811115620004c6576000848401525b50505050565b60006002820490506001821680620004e557607f821691505b60208210811415620004fc57620004fb62000538565b5b50919050565b6200050d82620005aa565b810181811067ffffffffffffffff821117156200052f576200052e62000567565b5b80604052505050565b7f4e487b7100000000000000000000000000000000000000000000000000000000600052602260045260246000fd5b7f4e487b7100000000000000000000000000000000000000000000000000000000600052604160045260246000fd5b600080fd5b600080fd5b600080fd5b600080fd5b6000601f19601f8301169050919050565b620005c6816200048c565b8114620005d257600080fd5b50565b6120bb80620005e56000396000f3fe60806040526004361061014b5760003560e01c806365733592116100b6578063d4dbdc321161006f578063d4dbdc3214610438578063ea17532e14610461578063f0f324971461049e578063f71d96cb146104c9578063fd6673f514610506578063fdbe6667146105315761014b565b80636573359214610356578063676f6474146103815780636e9960c3146103ad5780637dc6e841146103d85780638b5d691c14610403578063c85398081461042e5761014b565b80632b74e9bd116101085780632b74e9bd146102315780632f9f65f61461025c5780633ca53bba146102875780634081d916146102b05780634996d51d146102ed5780634b114691146103185761014b565b806309bc33a7146101505780630ca740401461017b5780631385f1a9146101855780631f89f25e146101b057806327f0cbc0146101db5780632aae363014610206575b600080fd5b34801561015c57600080fd5b5061016561055c565b6040516101729190611b44565b60405180910390f35b610183610565565b005b34801561019157600080fd5b5061019a610762565b6040516101a79190611ae2565b60405180910390f35b3480156101bc57600080fd5b506101c56107f4565b6040516101d29190611b44565b60405180910390f35b3480156101e757600080fd5b506101f06107fe565b6040516101fd9190611a97565b60405180910390f35b34801561021257600080fd5b5061021b610815565b6040516102289190611ae2565b60405180910390f35b34801561023d57600080fd5b506102466108a7565b6040516102539190611b44565b60405180910390f35b34801561026857600080fd5b506102716108b1565b60405161027e9190611ae2565b60405180910390f35b34801561029357600080fd5b506102ae60048036038101906102a99190611904565b610943565b005b3480156102bc57600080fd5b506102d760048036038101906102d2919061181c565b610a47565b6040516102e49190611a97565b60405180910390f35b3480156102f957600080fd5b50610302610af9565b60405161030f9190611b44565b60405180910390f35b34801561032457600080fd5b5061033f600480360381019061033a919061181c565b610b03565b60405161034d929190611b5f565b60405180910390f35b34801561036257600080fd5b5061036b610b35565b6040516103789190611b44565b60405180910390f35b34801561038d57600080fd5b50610396610b3f565b6040516103a4929190611ab2565b60405180910390f35b3480156103b957600080fd5b506103c2610be5565b6040516103cf9190611a61565b60405180910390f35b3480156103e457600080fd5b506103ed610c0f565b6040516103fa9190611ae2565b60405180910390f35b34801561040f57600080fd5b50610418610ca1565b6040516104259190611ae2565b60405180910390f35b610436610d2f565b005b34801561044457600080fd5b5061045f600480360381019061045a9190611849565b610f2c565b005b34801561046d57600080fd5b5061048860048036038101906104839190611931565b611090565b6040516104959190611a61565b60405180910390f35b3480156104aa57600080fd5b506104b36110d8565b6040516104c09190611a97565b60405180910390f35b3480156104d557600080fd5b506104f060048036038101906104eb9190611931565b6110eb565b6040516104fd9190611a7c565b60405180910390f35b34801561051257600080fd5b5061051b61112a565b6040516105289190611b44565b60405180910390f35b34801561053d57600080fd5b50610546611137565b6040516105539190611b44565b60405180910390f35b60008054905090565b61056e33610a47565b1561057857600080fd5b600660149054906101000a900460ff161561059257600080fd5b6000543410156105d7576040517f08c379a00000000000000000000000000000000000000000000000000000000081526004016105ce90611b04565b60405180910390fd5b34600c60003373ffffffffffffffffffffffffffffffffffffffff1673ffffffffffffffffffffffffffffffffffffffff168152602001908152602001600020600001819055506001600c60003373ffffffffffffffffffffffffffffffffffffffff1673ffffffffffffffffffffffffffffffffffffffff16815260200190815260200160002060010160006101000a81548161ffff021916908361ffff160217905550600d339080600181540180825580915050600190039060005260206000200160009091909190916101000a81548173ffffffffffffffffffffffffffffffffffffffff021916908373ffffffffffffffffffffffffffffffffffffffff1602179055506064600f5460646106f09190611d2e565b346106fb9190611cd4565b6107059190611ca3565b600160008282546107169190611c4d565b925050819055503373ffffffffffffffffffffffffffffffffffffffff167f7f47e4b864ee52d8ca461d379020be7e99ae801a152dde71193bdc651da8a7c060405160405180910390a2565b6060600a805461077190611e0c565b80601f016020809104026020016040519081016040528092919081815260200182805461079d90611e0c565b80156107ea5780601f106107bf576101008083540402835291602001916107ea565b820191906000526020600020905b8154815290600101906020018083116107cd57829003601f168201915b5050505050905090565b6000600354905090565b6000600660149054906101000a900460ff16905090565b60606008805461082490611e0c565b80601f016020809104026020016040519081016040528092919081815260200182805461085090611e0c565b801561089d5780601f106108725761010080835404028352916020019161089d565b820191906000526020600020905b81548152906001019060200180831161088057829003601f168201915b5050505050905090565b6000600454905090565b6060600b80546108c090611e0c565b80601f01602080910402602001604051908101604052809291908181526020018280546108ec90611e0c565b80156109395780601f1061090e57610100808354040283529160200191610939565b820191906000526020600020905b81548152906001019060200180831161091c57829003601f168201915b5050505050905090565b600660009054906101000a900473ffffffffffffffffffffffffffffffffffffffff1673ffffffffffffffffffffffffffffffffffffffff163373ffffffffffffffffffffffffffffffffffffffff16146109d3576040517f08c379a00000000000000000000000000000000000000000000000000000000081526004016109ca90611b24565b60405180910390fd5b60006109dd610b3f565b50905080610a3a5747600d80549050600660149054906101000a900460ff166040517f0f724954000000000000000000000000000000000000000000000000000000008152600401610a3193929190611b88565b60405180910390fd5b610a4382611141565b5050565b600080600d80549050905060005b81811015610aed578373ffffffffffffffffffffffffffffffffffffffff16600d8281548110610a8857610a87611f45565b5b9060005260206000200160009054906101000a900473ffffffffffffffffffffffffffffffffffffffff1673ffffffffffffffffffffffffffffffffffffffff161415610ada57600192505050610af4565b8080610ae590611e6f565b915050610a55565b5060009150505b919050565b6000600154905090565b600c6020528060005260406000206000915090508060000154908060010160009054906101000a900461ffff16905082565b6000600254905090565b600060606000801515600660149054906101000a900460ff16151514905060008060045442610b6e9190611d2e565b119050600080600d8054905011905060008047119050828015610b8e5750835b8015610b975750805b8015610ba05750815b9550856040518060400160405280600381526020017f307830000000000000000000000000000000000000000000000000000000000081525095509550505050509091565b6000600660009054906101000a900473ffffffffffffffffffffffffffffffffffffffff16905090565b606060098054610c1e90611e0c565b80601f0160208091040260200160405190810160405280929190818152602001828054610c4a90611e0c565b8015610c975780601f10610c6c57610100808354040283529160200191610c97565b820191906000526020600020905b815481529060010190602001808311610c7a57829003601f168201915b5050505050905090565b60078054610cae90611e0c565b80601f0160208091040260200160405190810160405280929190818152602001828054610cda90611e0c565b8015610d275780601f10610cfc57610100808354040283529160200191610d27565b820191906000526020600020905b815481529060010190602001808311610d0a57829003601f168201915b505050505081565b610d3833610a47565b15610d4257600080fd5b600660149054906101000a900460ff1615610d5c57600080fd5b600054341015610da1576040517f08c379a0000000000000000000000000000000000000000000000000000000008152600401610d9890611b04565b60405180910390fd5b34600c60003373ffffffffffffffffffffffffffffffffffffffff1673ffffffffffffffffffffffffffffffffffffffff168152602001908152602001600020600001819055506002600c60003373ffffffffffffffffffffffffffffffffffffffff1673ffffffffffffffffffffffffffffffffffffffff16815260200190815260200160002060010160006101000a81548161ffff021916908361ffff160217905550600d339080600181540180825580915050600190039060005260206000200160009091909190916101000a81548173ffffffffffffffffffffffffffffffffffffffff021916908373ffffffffffffffffffffffffffffffffffffffff1602179055506064600f546064610eba9190611d2e565b34610ec59190611cd4565b610ecf9190611ca3565b60026000828254610ee09190611c4d565b925050819055503373ffffffffffffffffffffffffffffffffffffffff167f7f47e4b864ee52d8ca461d379020be7e99ae801a152dde71193bdc651da8a7c060405160405180910390a2565b600660009054906101000a900473ffffffffffffffffffffffffffffffffffffffff1673ffffffffffffffffffffffffffffffffffffffff163373ffffffffffffffffffffffffffffffffffffffff1614610fbc576040517f08c379a0000000000000000000000000000000000000000000000000000000008152600401610fb390611b24565b60405180910390fd5b6000600660146101000a81548160ff0219169083151502179055508360079080519060200190610fed92919061161f565b50826008908051906020019061100492919061161f565b50816009908051906020019061101b92919061161f565b5080600481905550600067ffffffffffffffff81111561103e5761103d611f74565b5b60405190808252806020026020018201604052801561106c5781602001602082028036833780820191505090505b50600d90805190602001906110829291906116a5565b504260038190555050505050565b6000600d82815481106110a6576110a5611f45565b5b9060005260206000200160009054906101000a900473ffffffffffffffffffffffffffffffffffffffff169050919050565b600660149054906101000a900460ff1681565b600d81815481106110fb57600080fd5b906000526020600020016000915054906101000a900473ffffffffffffffffffffffffffffffffffffffff1681565b6000600d80549050905090565b6000600f54905090565b600660009054906101000a900473ffffffffffffffffffffffffffffffffffffffff1673ffffffffffffffffffffffffffffffffffffffff163373ffffffffffffffffffffffffffffffffffffffff16146111d1576040517f08c379a00000000000000000000000000000000000000000000000000000000081526004016111c890611b24565b60405180910390fd5b600080600080600080600090505b600d8054905081101561130457600d8181548110611200576111ff611f45565b5b9060005260206000200160009054906101000a900473ffffffffffffffffffffffffffffffffffffffff1691508661ffff16600c60008473ffffffffffffffffffffffffffffffffffffffff1673ffffffffffffffffffffffffffffffffffffffff16815260200190815260200160002060010160009054906101000a900461ffff1661ffff1614156112f157600e829080600181540180825580915050600190039060005260206000200160009091909190916101000a81548173ffffffffffffffffffffffffffffffffffffffff021916908373ffffffffffffffffffffffffffffffffffffffff1602179055505b80806112fc90611e6f565b9150506111df565b5060018661ffff161415611321576002549450600154935061132c565b600154945060025493505b60005b600e8054905081101561149d57600e81815481106113505761134f611f45565b5b9060005260206000200160009054906101000a900473ffffffffffffffffffffffffffffffffffffffff169350600c60008573ffffffffffffffffffffffffffffffffffffffff1673ffffffffffffffffffffffffffffffffffffffff168152602001908152602001600020600001549250600061271086612710896113d69190611cd4565b6113e09190611ca3565b6127106113ed9190611c4d565b856113f89190611cd4565b6114029190611ca3565b9050600e828154811061141857611417611f45565b5b9060005260206000200160009054906101000a900473ffffffffffffffffffffffffffffffffffffffff1673ffffffffffffffffffffffffffffffffffffffff166108fc829081150290604051600060405180830381858888f19350505050158015611488573d6000803e3d6000fd5b5050808061149590611e6f565b91505061132f565b50600560009054906101000a900473ffffffffffffffffffffffffffffffffffffffff1673ffffffffffffffffffffffffffffffffffffffff166108fc479081150290604051600060405180830381858888f19350505050158015611506573d6000803e3d6000fd5b506001600660146101000a81548160ff02191690831515021790555060005b600d805490508110156115e257600c6000600d838154811061154a57611549611f45565b5b9060005260206000200160009054906101000a900473ffffffffffffffffffffffffffffffffffffffff1673ffffffffffffffffffffffffffffffffffffffff1673ffffffffffffffffffffffffffffffffffffffff1681526020019081526020016000206000808201600090556001820160006101000a81549061ffff0219169055505080806115da90611e6f565b915050611525565b50600d60006115f1919061172f565b600e60006115ff919061172f565b600094506000935060006001819055506000600281905550505050505050565b82805461162b90611e0c565b90600052602060002090601f01602090048101928261164d5760008555611694565b82601f1061166657805160ff1916838001178555611694565b82800160010185558215611694579182015b82811115611693578251825591602001919060010190611678565b5b5090506116a19190611750565b5090565b82805482825590600052602060002090810192821561171e579160200282015b8281111561171d5782518260006101000a81548173ffffffffffffffffffffffffffffffffffffffff021916908373ffffffffffffffffffffffffffffffffffffffff160217905550916020019190600101906116c5565b5b50905061172b9190611750565b5090565b508054600082559060005260206000209081019061174d9190611750565b50565b5b80821115611769576000816000905550600101611751565b5090565b600061178061177b84611be4565b611bbf565b90508281526020810184848401111561179c5761179b611fa8565b5b6117a7848285611dca565b509392505050565b6000813590506117be81612040565b92915050565b600082601f8301126117d9576117d8611fa3565b5b81356117e984826020860161176d565b91505092915050565b60008135905061180181612057565b92915050565b6000813590506118168161206e565b92915050565b60006020828403121561183257611831611fb2565b5b6000611840848285016117af565b91505092915050565b6000806000806080858703121561186357611862611fb2565b5b600085013567ffffffffffffffff81111561188157611880611fad565b5b61188d878288016117c4565b945050602085013567ffffffffffffffff8111156118ae576118ad611fad565b5b6118ba878288016117c4565b935050604085013567ffffffffffffffff8111156118db576118da611fad565b5b6118e7878288016117c4565b92505060606118f887828801611807565b91505092959194509250565b60006020828403121561191a57611919611fb2565b5b6000611928848285016117f2565b91505092915050565b60006020828403121561194757611946611fb2565b5b600061195584828501611807565b91505092915050565b61196781611d74565b82525050565b61197681611d62565b82525050565b61198581611d86565b82525050565b600061199682611c15565b6119a08185611c2b565b93506119b0818560208601611dd9565b6119b981611fb7565b840191505092915050565b60006119cf82611c20565b6119d98185611c3c565b93506119e9818560208601611dd9565b6119f281611fb7565b840191505092915050565b6000611a0a601783611c3c565b9150611a1582611fc8565b602082019050919050565b6000611a2d602183611c3c565b9150611a3882611ff1565b604082019050919050565b611a4c81611d92565b82525050565b611a5b81611dc0565b82525050565b6000602082019050611a76600083018461196d565b92915050565b6000602082019050611a91600083018461195e565b92915050565b6000602082019050611aac600083018461197c565b92915050565b6000604082019050611ac7600083018561197c565b8181036020830152611ad9818461198b565b90509392505050565b60006020820190508181036000830152611afc81846119c4565b905092915050565b60006020820190508181036000830152611b1d816119fd565b9050919050565b60006020820190508181036000830152611b3d81611a20565b9050919050565b6000602082019050611b596000830184611a52565b92915050565b6000604082019050611b746000830185611a52565b611b816020830184611a43565b9392505050565b6000606082019050611b9d6000830186611a52565b611baa6020830185611a52565b611bb7604083018461197c565b949350505050565b6000611bc9611bda565b9050611bd58282611e3e565b919050565b6000604051905090565b600067ffffffffffffffff821115611bff57611bfe611f74565b5b611c0882611fb7565b9050602081019050919050565b600081519050919050565b600081519050919050565b600082825260208201905092915050565b600082825260208201905092915050565b6000611c5882611dc0565b9150611c6383611dc0565b9250827fffffffffffffffffffffffffffffffffffffffffffffffffffffffffffffffff03821115611c9857611c97611eb8565b5b828201905092915050565b6000611cae82611dc0565b9150611cb983611dc0565b925082611cc957611cc8611ee7565b5b828204905092915050565b6000611cdf82611dc0565b9150611cea83611dc0565b9250817fffffffffffffffffffffffffffffffffffffffffffffffffffffffffffffffff0483118215151615611d2357611d22611eb8565b5b828202905092915050565b6000611d3982611dc0565b9150611d4483611dc0565b925082821015611d5757611d56611eb8565b5b828203905092915050565b6000611d6d82611da0565b9050919050565b6000611d7f82611da0565b9050919050565b60008115159050919050565b600061ffff82169050919050565b600073ffffffffffffffffffffffffffffffffffffffff82169050919050565b6000819050919050565b82818337600083830152505050565b60005b83811015611df7578082015181840152602081019050611ddc565b83811115611e06576000848401525b50505050565b60006002820490506001821680611e2457607f821691505b60208210811415611e3857611e37611f16565b5b50919050565b611e4782611fb7565b810181811067ffffffffffffffff82111715611e6657611e65611f74565b5b80604052505050565b6000611e7a82611dc0565b91507fffffffffffffffffffffffffffffffffffffffffffffffffffffffffffffffff821415611ead57611eac611eb8565b5b600182019050919050565b7f4e487b7100000000000000000000000000000000000000000000000000000000600052601160045260246000fd5b7f4e487b7100000000000000000000000000000000000000000000000000000000600052601260045260246000fd5b7f4e487b7100000000000000000000000000000000000000000000000000000000600052602260045260246000fd5b7f4e487b7100000000000000000000000000000000000000000000000000000000600052603260045260246000fd5b7f4e487b7100000000000000000000000000000000000000000000000000000000600052604160045260246000fd5b600080fd5b600080fd5b600080fd5b600080fd5b6000601f19601f8301169050919050565b7f496e73756666696369656e742062657420616d6f756e74000000000000000000600082015250565b7f4f6e6c792061646d696e2063616e2063616c6c20746869732066756e6374696f60008201527f6e00000000000000000000000000000000000000000000000000000000000000602082015250565b61204981611d62565b811461205457600080fd5b50565b61206081611d92565b811461206b57600080fd5b50565b61207781611dc0565b811461208257600080fd5b5056fea2646970667358221220c526586f16ac3398c763e1a3c6d79b2516c0a7ca87a8cdd00fa60a5c9a1287fa64736f6c63430008070033","opcodes":"PUSH1 0x80 PUSH1 0x40 MSTORE PUSH1 0x5 PUSH1 0xF SSTORE CALLVALUE DUP1 ISZERO PUSH3 0x16 JUMPI PUSH1 0x0 DUP1 REVERT JUMPDEST POP PUSH1 0x40 MLOAD PUSH3 0x26A0 CODESIZE SUB DUP1 PUSH3 0x26A0 DUP4 CODECOPY DUP2 DUP2 ADD PUSH1 0x40 MSTORE DUP2 ADD SWAP1 PUSH3 0x3C SWAP2 SWAP1 PUSH3 0x2DF JUMP JUMPDEST DUP1 PUSH1 0x0 DUP2 SWAP1 SSTORE POP PUSH1 0x0 PUSH1 0x6 PUSH1 0x14 PUSH2 0x100 EXP DUP2 SLOAD DUP2 PUSH1 0xFF MUL NOT AND SWAP1 DUP4 ISZERO ISZERO MUL OR SWAP1 SSTORE POP TIMESTAMP PUSH1 0x3 DUP2 SWAP1 SSTORE POP DUP2 PUSH1 0x4 DUP2 SWAP1 SSTORE POP CALLER PUSH1 0x6 PUSH1 0x0 PUSH2 0x100 EXP DUP2 SLOAD DUP2 PUSH20 0xFFFFFFFFFFFFFFFFFFFFFFFFFFFFFFFFFFFFFFFF MUL NOT AND SWAP1 DUP4 PUSH20 0xFFFFFFFFFFFFFFFFFFFFFFFFFFFFFFFFFFFFFFFF AND MUL OR SWAP1 SSTORE POP DUP7 PUSH1 0x7 SWAP1 DUP1 MLOAD SWAP1 PUSH1 0x20 ADD SWAP1 PUSH3 0xC5 SWAP3 SWAP2 SWAP1 PUSH3 0x19A JUMP JUMPDEST POP DUP6 PUSH1 0x8 SWAP1 DUP1 MLOAD SWAP1 PUSH1 0x20 ADD SWAP1 PUSH3 0xDE SWAP3 SWAP2 SWAP1 PUSH3 0x19A JUMP JUMPDEST POP DUP5 PUSH1 0x9 SWAP1 DUP1 MLOAD SWAP1 PUSH1 0x20 ADD SWAP1 PUSH3 0xF7 SWAP3 SWAP2 SWAP1 PUSH3 0x19A JUMP JUMPDEST POP DUP4 PUSH1 0xA SWAP1 DUP1 MLOAD SWAP1 PUSH1 0x20 ADD SWAP1 PUSH3 0x110 SWAP3 SWAP2 SWAP1 PUSH3 0x19A JUMP JUMPDEST POP DUP3 PUSH1 0xB SWAP1 DUP1 MLOAD SWAP1 PUSH1 0x20 ADD SWAP1 PUSH3 0x129 SWAP3 SWAP2 SWAP1 PUSH3 0x19A JUMP JUMPDEST POP PUSH1 0x6 PUSH1 0x0 SWAP1 SLOAD SWAP1 PUSH2 0x100 EXP SWAP1 DIV PUSH20 0xFFFFFFFFFFFFFFFFFFFFFFFFFFFFFFFFFFFFFFFF AND PUSH1 0x5 PUSH1 0x0 PUSH2 0x100 EXP DUP2 SLOAD DUP2 PUSH20 0xFFFFFFFFFFFFFFFFFFFFFFFFFFFFFFFFFFFFFFFF MUL NOT AND SWAP1 DUP4 PUSH20 0xFFFFFFFFFFFFFFFFFFFFFFFFFFFFFFFFFFFFFFFF AND MUL OR SWAP1 SSTORE POP POP POP POP POP POP POP POP PUSH3 0x5D5 JUMP JUMPDEST DUP3 DUP1 SLOAD PUSH3 0x1A8 SWAP1 PUSH3 0x4CC JUMP JUMPDEST SWAP1 PUSH1 0x0 MSTORE PUSH1 0x20 PUSH1 0x0 KECCAK256 SWAP1 PUSH1 0x1F ADD PUSH1 0x20 SWAP1 DIV DUP2 ADD SWAP3 DUP3 PUSH3 0x1CC JUMPI PUSH1 0x0 DUP6 SSTORE PUSH3 0x218 JUMP JUMPDEST DUP3 PUSH1 0x1F LT PUSH3 0x1E7 JUMPI DUP1 MLOAD PUSH1 0xFF NOT AND DUP4 DUP1 ADD OR DUP6 SSTORE PUSH3 0x218 JUMP JUMPDEST DUP3 DUP1 ADD PUSH1 0x1 ADD DUP6 SSTORE DUP3 ISZERO PUSH3 0x218 JUMPI SWAP2 DUP3 ADD JUMPDEST DUP3 DUP2 GT ISZERO PUSH3 0x217 JUMPI DUP3 MLOAD DUP3 SSTORE SWAP2 PUSH1 0x20 ADD SWAP2 SWAP1 PUSH1 0x1 ADD SWAP1 PUSH3 0x1FA JUMP JUMPDEST JUMPDEST POP SWAP1 POP PUSH3 0x227 SWAP2 SWAP1 PUSH3 0x22B JUMP JUMPDEST POP SWAP1 JUMP JUMPDEST JUMPDEST DUP1 DUP3 GT ISZERO PUSH3 0x246 JUMPI PUSH1 0x0 DUP2 PUSH1 0x0 SWAP1 SSTORE POP PUSH1 0x1 ADD PUSH3 0x22C JUMP JUMPDEST POP SWAP1 JUMP JUMPDEST PUSH1 0x0 PUSH3 0x261 PUSH3 0x25B DUP5 PUSH3 0x456 JUMP JUMPDEST PUSH3 0x42D JUMP JUMPDEST SWAP1 POP DUP3 DUP2 MSTORE PUSH1 0x20 DUP2 ADD DUP5 DUP5 DUP5 ADD GT ISZERO PUSH3 0x280 JUMPI PUSH3 0x27F PUSH3 0x59B JUMP JUMPDEST JUMPDEST PUSH3 0x28D DUP5 DUP3 DUP6 PUSH3 0x496 JUMP JUMPDEST POP SWAP4 SWAP3 POP POP POP JUMP JUMPDEST PUSH1 0x0 DUP3 PUSH1 0x1F DUP4 ADD SLT PUSH3 0x2AD JUMPI PUSH3 0x2AC PUSH3 0x596 JUMP JUMPDEST JUMPDEST DUP2 MLOAD PUSH3 0x2BF DUP5 DUP3 PUSH1 0x20 DUP7 ADD PUSH3 0x24A JUMP JUMPDEST SWAP2 POP POP SWAP3 SWAP2 POP POP JUMP JUMPDEST PUSH1 0x0 DUP2 MLOAD SWAP1 POP PUSH3 0x2D9 DUP2 PUSH3 0x5BB JUMP JUMPDEST SWAP3 SWAP2 POP POP JUMP JUMPDEST PUSH1 0x0 DUP1 PUSH1 0x0 DUP1 PUSH1 0x0 DUP1 PUSH1 0x0 PUSH1 0xE0 DUP9 DUP11 SUB SLT ISZERO PUSH3 0x301 JUMPI PUSH3 0x300 PUSH3 0x5A5 JUMP JUMPDEST JUMPDEST PUSH1 0x0 DUP9 ADD MLOAD PUSH8 0xFFFFFFFFFFFFFFFF DUP2 GT ISZERO PUSH3 0x322 JUMPI PUSH3 0x321 PUSH3 0x5A0 JUMP JUMPDEST JUMPDEST PUSH3 0x330 DUP11 DUP3 DUP12 ADD PUSH3 0x295 JUMP JUMPDEST SWAP8 POP POP PUSH1 0x20 DUP9 ADD MLOAD PUSH8 0xFFFFFFFFFFFFFFFF DUP2 GT ISZERO PUSH3 0x354 JUMPI PUSH3 0x353 PUSH3 0x5A0 JUMP JUMPDEST JUMPDEST PUSH3 0x362 DUP11 DUP3 DUP12 ADD PUSH3 0x295 JUMP JUMPDEST SWAP7 POP POP PUSH1 0x40 DUP9 ADD MLOAD PUSH8 0xFFFFFFFFFFFFFFFF DUP2 GT ISZERO PUSH3 0x386 JUMPI PUSH3 0x385 PUSH3 0x5A0 JUMP JUMPDEST JUMPDEST PUSH3 0x394 DUP11 DUP3 DUP12 ADD PUSH3 0x295 JUMP JUMPDEST SWAP6 POP POP PUSH1 0x60 DUP9 ADD MLOAD PUSH8 0xFFFFFFFFFFFFFFFF DUP2 GT ISZERO PUSH3 0x3B8 JUMPI PUSH3 0x3B7 PUSH3 0x5A0 JUMP JUMPDEST JUMPDEST PUSH3 0x3C6 DUP11 DUP3 DUP12 ADD PUSH3 0x295 JUMP JUMPDEST SWAP5 POP POP PUSH1 0x80 DUP9 ADD MLOAD PUSH8 0xFFFFFFFFFFFFFFFF DUP2 GT ISZERO PUSH3 0x3EA JUMPI PUSH3 0x3E9 PUSH3 0x5A0 JUMP JUMPDEST JUMPDEST PUSH3 0x3F8 DUP11 DUP3 DUP12 ADD PUSH3 0x295 JUMP JUMPDEST SWAP4 POP POP PUSH1 0xA0 PUSH3 0x40B DUP11 DUP3 DUP12 ADD PUSH3 0x2C8 JUMP JUMPDEST SWAP3 POP POP PUSH1 0xC0 PUSH3 0x41E DUP11 DUP3 DUP12 ADD PUSH3 0x2C8 JUMP JUMPDEST SWAP2 POP POP SWAP3 SWAP6 SWAP9 SWAP2 SWAP5 SWAP8 POP SWAP3 SWAP6 POP JUMP JUMPDEST PUSH1 0x0 PUSH3 0x439 PUSH3 0x44C JUMP JUMPDEST SWAP1 POP PUSH3 0x447 DUP3 DUP3 PUSH3 0x502 JUMP JUMPDEST SWAP2 SWAP1 POP JUMP JUMPDEST PUSH1 0x0 PUSH1 0x40 MLOAD SWAP1 POP SWAP1 JUMP JUMPDEST PUSH1 0x0 PUSH8 0xFFFFFFFFFFFFFFFF DUP3 GT ISZERO PUSH3 0x474 JUMPI PUSH3 0x473 PUSH3 0x567 JUMP JUMPDEST JUMPDEST PUSH3 0x47F DUP3 PUSH3 0x5AA JUMP JUMPDEST SWAP1 POP PUSH1 0x20 DUP2 ADD SWAP1 POP SWAP2 SWAP1 POP JUMP JUMPDEST PUSH1 0x0 DUP2 SWAP1 POP SWAP2 SWAP1 POP JUMP JUMPDEST PUSH1 0x0 JUMPDEST DUP4 DUP2 LT ISZERO PUSH3 0x4B6 JUMPI DUP1 DUP3 ADD MLOAD DUP2 DUP5 ADD MSTORE PUSH1 0x20 DUP2 ADD SWAP1 POP PUSH3 0x499 JUMP JUMPDEST DUP4 DUP2 GT ISZERO PUSH3 0x4C6 JUMPI PUSH1 0x0 DUP5 DUP5 ADD MSTORE JUMPDEST POP POP POP POP JUMP JUMPDEST PUSH1 0x0 PUSH1 0x2 DUP3 DIV SWAP1 POP PUSH1 0x1 DUP3 AND DUP1 PUSH3 0x4E5 JUMPI PUSH1 0x7F DUP3 AND SWAP2 POP JUMPDEST PUSH1 0x20 DUP3 LT DUP2 EQ ISZERO PUSH3 0x4FC JUMPI PUSH3 0x4FB PUSH3 0x538 JUMP JUMPDEST JUMPDEST POP SWAP2 SWAP1 POP JUMP JUMPDEST PUSH3 0x50D DUP3 PUSH3 0x5AA JUMP JUMPDEST DUP2 ADD DUP2 DUP2 LT PUSH8 0xFFFFFFFFFFFFFFFF DUP3 GT OR ISZERO PUSH3 0x52F JUMPI PUSH3 0x52E PUSH3 0x567 JUMP JUMPDEST JUMPDEST DUP1 PUSH1 0x40 MSTORE POP POP POP JUMP JUMPDEST PUSH32 0x4E487B7100000000000000000000000000000000000000000000000000000000 PUSH1 0x0 MSTORE PUSH1 0x22 PUSH1 0x4 MSTORE PUSH1 0x24 PUSH1 0x0 REVERT JUMPDEST PUSH32 0x4E487B7100000000000000000000000000000000000000000000000000000000 PUSH1 0x0 MSTORE PUSH1 0x41 PUSH1 0x4 MSTORE PUSH1 0x24 PUSH1 0x0 REVERT JUMPDEST PUSH1 0x0 DUP1 REVERT JUMPDEST PUSH1 0x0 DUP1 REVERT JUMPDEST PUSH1 0x0 DUP1 REVERT JUMPDEST PUSH1 0x0 DUP1 REVERT JUMPDEST PUSH1 0x0 PUSH1 0x1F NOT PUSH1 0x1F DUP4 ADD AND SWAP1 POP SWAP2 SWAP1 POP JUMP JUMPDEST PUSH3 0x5C6 DUP2 PUSH3 0x48C JUMP JUMPDEST DUP2 EQ PUSH3 0x5D2 JUMPI PUSH1 0x0 DUP1 REVERT JUMPDEST POP JUMP JUMPDEST PUSH2 0x20BB DUP1 PUSH3 0x5E5 PUSH1 0x0 CODECOPY PUSH1 0x0 RETURN INVALID PUSH1 0x80 PUSH1 0x40 MSTORE PUSH1 0x4 CALLDATASIZE LT PUSH2 0x14B JUMPI PUSH1 0x0 CALLDATALOAD PUSH1 0xE0 SHR DUP1 PUSH4 0x65733592 GT PUSH2 0xB6 JUMPI DUP1 PUSH4 0xD4DBDC32 GT PUSH2 0x6F JUMPI DUP1 PUSH4 0xD4DBDC32 EQ PUSH2 0x438 JUMPI DUP1 PUSH4 0xEA17532E EQ PUSH2 0x461 JUMPI DUP1 PUSH4 0xF0F32497 EQ PUSH2 0x49E JUMPI DUP1 PUSH4 0xF71D96CB EQ PUSH2 0x4C9 JUMPI DUP1 PUSH4 0xFD6673F5 EQ PUSH2 0x506 JUMPI DUP1 PUSH4 0xFDBE6667 EQ PUSH2 0x531 JUMPI PUSH2 0x14B JUMP JUMPDEST DUP1 PUSH4 0x65733592 EQ PUSH2 0x356 JUMPI DUP1 PUSH4 0x676F6474 EQ PUSH2 0x381 JUMPI DUP1 PUSH4 0x6E9960C3 EQ PUSH2 0x3AD JUMPI DUP1 PUSH4 0x7DC6E841 EQ PUSH2 0x3D8 JUMPI DUP1 PUSH4 0x8B5D691C EQ PUSH2 0x403 JUMPI DUP1 PUSH4 0xC8539808 EQ PUSH2 0x42E JUMPI PUSH2 0x14B JUMP JUMPDEST DUP1 PUSH4 0x2B74E9BD GT PUSH2 0x108 JUMPI DUP1 PUSH4 0x2B74E9BD EQ PUSH2 0x231 JUMPI DUP1 PUSH4 0x2F9F65F6 EQ PUSH2 0x25C JUMPI DUP1 PUSH4 0x3CA53BBA EQ PUSH2 0x287 JUMPI DUP1 PUSH4 0x4081D916 EQ PUSH2 0x2B0 JUMPI DUP1 PUSH4 0x4996D51D EQ PUSH2 0x2ED JUMPI DUP1 PUSH4 0x4B114691 EQ PUSH2 0x318 JUMPI PUSH2 0x14B JUMP JUMPDEST DUP1 PUSH4 0x9BC33A7 EQ PUSH2 0x150 JUMPI DUP1 PUSH4 0xCA74040 EQ PUSH2 0x17B JUMPI DUP1 PUSH4 0x1385F1A9 EQ PUSH2 0x185 JUMPI DUP1 PUSH4 0x1F89F25E EQ PUSH2 0x1B0 JUMPI DUP1 PUSH4 0x27F0CBC0 EQ PUSH2 0x1DB JUMPI DUP1 PUSH4 0x2AAE3630 EQ PUSH2 0x206 JUMPI JUMPDEST PUSH1 0x0 DUP1 REVERT JUMPDEST CALLVALUE DUP1 ISZERO PUSH2 0x15C JUMPI PUSH1 0x0 DUP1 REVERT JUMPDEST POP PUSH2 0x165 PUSH2 0x55C JUMP JUMPDEST PUSH1 0x40 MLOAD PUSH2 0x172 SWAP2 SWAP1 PUSH2 0x1B44 JUMP JUMPDEST PUSH1 0x40 MLOAD DUP1 SWAP2 SUB SWAP1 RETURN JUMPDEST PUSH2 0x183 PUSH2 0x565 JUMP JUMPDEST STOP JUMPDEST CALLVALUE DUP1 ISZERO PUSH2 0x191 JUMPI PUSH1 0x0 DUP1 REVERT JUMPDEST POP PUSH2 0x19A PUSH2 0x762 JUMP JUMPDEST PUSH1 0x40 MLOAD PUSH2 0x1A7 SWAP2 SWAP1 PUSH2 0x1AE2 JUMP JUMPDEST PUSH1 0x40 MLOAD DUP1 SWAP2 SUB SWAP1 RETURN JUMPDEST CALLVALUE DUP1 ISZERO PUSH2 0x1BC JUMPI PUSH1 0x0 DUP1 REVERT JUMPDEST POP PUSH2 0x1C5 PUSH2 0x7F4 JUMP JUMPDEST PUSH1 0x40 MLOAD PUSH2 0x1D2 SWAP2 SWAP1 PUSH2 0x1B44 JUMP JUMPDEST PUSH1 0x40 MLOAD DUP1 SWAP2 SUB SWAP1 RETURN JUMPDEST CALLVALUE DUP1 ISZERO PUSH2 0x1E7 JUMPI PUSH1 0x0 DUP1 REVERT JUMPDEST POP PUSH2 0x1F0 PUSH2 0x7FE JUMP JUMPDEST PUSH1 0x40 MLOAD PUSH2 0x1FD SWAP2 SWAP1 PUSH2 0x1A97 JUMP JUMPDEST PUSH1 0x40 MLOAD DUP1 SWAP2 SUB SWAP1 RETURN JUMPDEST CALLVALUE DUP1 ISZERO PUSH2 0x212 JUMPI PUSH1 0x0 DUP1 REVERT JUMPDEST POP PUSH2 0x21B PUSH2 0x815 JUMP JUMPDEST PUSH1 0x40 MLOAD PUSH2 0x228 SWAP2 SWAP1 PUSH2 0x1AE2 JUMP JUMPDEST PUSH1 0x40 MLOAD DUP1 SWAP2 SUB SWAP1 RETURN JUMPDEST CALLVALUE DUP1 ISZERO PUSH2 0x23D JUMPI PUSH1 0x0 DUP1 REVERT JUMPDEST POP PUSH2 0x246 PUSH2 0x8A7 JUMP JUMPDEST PUSH1 0x40 MLOAD PUSH2 0x253 SWAP2 SWAP1 PUSH2 0x1B44 JUMP JUMPDEST PUSH1 0x40 MLOAD DUP1 SWAP2 SUB SWAP1 RETURN JUMPDEST CALLVALUE DUP1 ISZERO PUSH2 0x268 JUMPI PUSH1 0x0 DUP1 REVERT JUMPDEST POP PUSH2 0x271 PUSH2 0x8B1 JUMP JUMPDEST PUSH1 0x40 MLOAD PUSH2 0x27E SWAP2 SWAP1 PUSH2 0x1AE2 JUMP JUMPDEST PUSH1 0x40 MLOAD DUP1 SWAP2 SUB SWAP1 RETURN JUMPDEST CALLVALUE DUP1 ISZERO PUSH2 0x293 JUMPI PUSH1 0x0 DUP1 REVERT JUMPDEST POP PUSH2 0x2AE PUSH1 0x4 DUP1 CALLDATASIZE SUB DUP2 ADD SWAP1 PUSH2 0x2A9 SWAP2 SWAP1 PUSH2 0x1904 JUMP JUMPDEST PUSH2 0x943 JUMP JUMPDEST STOP JUMPDEST CALLVALUE DUP1 ISZERO PUSH2 0x2BC JUMPI PUSH1 0x0 DUP1 REVERT JUMPDEST POP PUSH2 0x2D7 PUSH1 0x4 DUP1 CALLDATASIZE SUB DUP2 ADD SWAP1 PUSH2 0x2D2 SWAP2 SWAP1 PUSH2 0x181C JUMP JUMPDEST PUSH2 0xA47 JUMP JUMPDEST PUSH1 0x40 MLOAD PUSH2 0x2E4 SWAP2 SWAP1 PUSH2 0x1A97 JUMP JUMPDEST PUSH1 0x40 MLOAD DUP1 SWAP2 SUB SWAP1 RETURN JUMPDEST CALLVALUE DUP1 ISZERO PUSH2 0x2F9 JUMPI PUSH1 0x0 DUP1 REVERT JUMPDEST POP PUSH2 0x302 PUSH2 0xAF9 JUMP JUMPDEST PUSH1 0x40 MLOAD PUSH2 0x30F SWAP2 SWAP1 PUSH2 0x1B44 JUMP JUMPDEST PUSH1 0x40 MLOAD DUP1 SWAP2 SUB SWAP1 RETURN JUMPDEST CALLVALUE DUP1 ISZERO PUSH2 0x324 JUMPI PUSH1 0x0 DUP1 REVERT JUMPDEST POP PUSH2 0x33F PUSH1 0x4 DUP1 CALLDATASIZE SUB DUP2 ADD SWAP1 PUSH2 0x33A SWAP2 SWAP1 PUSH2 0x181C JUMP JUMPDEST PUSH2 0xB03 JUMP JUMPDEST PUSH1 0x40 MLOAD PUSH2 0x34D SWAP3 SWAP2 SWAP1 PUSH2 0x1B5F JUMP JUMPDEST PUSH1 0x40 MLOAD DUP1 SWAP2 SUB SWAP1 RETURN JUMPDEST CALLVALUE DUP1 ISZERO PUSH2 0x362 JUMPI PUSH1 0x0 DUP1 REVERT JUMPDEST POP PUSH2 0x36B PUSH2 0xB35 JUMP JUMPDEST PUSH1 0x40 MLOAD PUSH2 0x378 SWAP2 SWAP1 PUSH2 0x1B44 JUMP JUMPDEST PUSH1 0x40 MLOAD DUP1 SWAP2 SUB SWAP1 RETURN JUMPDEST CALLVALUE DUP1 ISZERO PUSH2 0x38D JUMPI PUSH1 0x0 DUP1 REVERT JUMPDEST POP PUSH2 0x396 PUSH2 0xB3F JUMP JUMPDEST PUSH1 0x40 MLOAD PUSH2 0x3A4 SWAP3 SWAP2 SWAP1 PUSH2 0x1AB2 JUMP JUMPDEST PUSH1 0x40 MLOAD DUP1 SWAP2 SUB SWAP1 RETURN JUMPDEST CALLVALUE DUP1 ISZERO PUSH2 0x3B9 JUMPI PUSH1 0x0 DUP1 REVERT JUMPDEST POP PUSH2 0x3C2 PUSH2 0xBE5 JUMP JUMPDEST PUSH1 0x40 MLOAD PUSH2 0x3CF SWAP2 SWAP1 PUSH2 0x1A61 JUMP JUMPDEST PUSH1 0x40 MLOAD DUP1 SWAP2 SUB SWAP1 RETURN JUMPDEST CALLVALUE DUP1 ISZERO PUSH2 0x3E4 JUMPI PUSH1 0x0 DUP1 REVERT JUMPDEST POP PUSH2 0x3ED PUSH2 0xC0F JUMP JUMPDEST PUSH1 0x40 MLOAD PUSH2 0x3FA SWAP2 SWAP1 PUSH2 0x1AE2 JUMP JUMPDEST PUSH1 0x40 MLOAD DUP1 SWAP2 SUB SWAP1 RETURN JUMPDEST CALLVALUE DUP1 ISZERO PUSH2 0x40F JUMPI PUSH1 0x0 DUP1 REVERT JUMPDEST POP PUSH2 0x418 PUSH2 0xCA1 JUMP JUMPDEST PUSH1 0x40 MLOAD PUSH2 0x425 SWAP2 SWAP1 PUSH2 0x1AE2 JUMP JUMPDEST PUSH1 0x40 MLOAD DUP1 SWAP2 SUB SWAP1 RETURN JUMPDEST PUSH2 0x436 PUSH2 0xD2F JUMP JUMPDEST STOP JUMPDEST CALLVALUE DUP1 ISZERO PUSH2 0x444 JUMPI PUSH1 0x0 DUP1 REVERT JUMPDEST POP PUSH2 0x45F PUSH1 0x4 DUP1 CALLDATASIZE SUB DUP2 ADD SWAP1 PUSH2 0x45A SWAP2 SWAP1 PUSH2 0x1849 JUMP JUMPDEST PUSH2 0xF2C JUMP JUMPDEST STOP JUMPDEST CALLVALUE DUP1 ISZERO PUSH2 0x46D JUMPI PUSH1 0x0 DUP1 REVERT JUMPDEST POP PUSH2 0x488 PUSH1 0x4 DUP1 CALLDATASIZE SUB DUP2 ADD SWAP1 PUSH2 0x483 SWAP2 SWAP1 PUSH2 0x1931 JUMP JUMPDEST PUSH2 0x1090 JUMP JUMPDEST PUSH1 0x40 MLOAD PUSH2 0x495 SWAP2 SWAP1 PUSH2 0x1A61 JUMP JUMPDEST PUSH1 0x40 MLOAD DUP1 SWAP2 SUB SWAP1 RETURN JUMPDEST CALLVALUE DUP1 ISZERO PUSH2 0x4AA JUMPI PUSH1 0x0 DUP1 REVERT JUMPDEST POP PUSH2 0x4B3 PUSH2 0x10D8 JUMP JUMPDEST PUSH1 0x40 MLOAD PUSH2 0x4C0 SWAP2 SWAP1 PUSH2 0x1A97 JUMP JUMPDEST PUSH1 0x40 MLOAD DUP1 SWAP2 SUB SWAP1 RETURN JUMPDEST CALLVALUE DUP1 ISZERO PUSH2 0x4D5 JUMPI PUSH1 0x0 DUP1 REVERT JUMPDEST POP PUSH2 0x4F0 PUSH1 0x4 DUP1 CALLDATASIZE SUB DUP2 ADD SWAP1 PUSH2 0x4EB SWAP2 SWAP1 PUSH2 0x1931 JUMP JUMPDEST PUSH2 0x10EB JUMP JUMPDEST PUSH1 0x40 MLOAD PUSH2 0x4FD SWAP2 SWAP1 PUSH2 0x1A7C JUMP JUMPDEST PUSH1 0x40 MLOAD DUP1 SWAP2 SUB SWAP1 RETURN JUMPDEST CALLVALUE DUP1 ISZERO PUSH2 0x512 JUMPI PUSH1 0x0 DUP1 REVERT JUMPDEST POP PUSH2 0x51B PUSH2 0x112A JUMP JUMPDEST PUSH1 0x40 MLOAD PUSH2 0x528 SWAP2 SWAP1 PUSH2 0x1B44 JUMP JUMPDEST PUSH1 0x40 MLOAD DUP1 SWAP2 SUB SWAP1 RETURN JUMPDEST CALLVALUE DUP1 ISZERO PUSH2 0x53D JUMPI PUSH1 0x0 DUP1 REVERT JUMPDEST POP PUSH2 0x546 PUSH2 0x1137 JUMP JUMPDEST PUSH1 0x40 MLOAD PUSH2 0x553 SWAP2 SWAP1 PUSH2 0x1B44 JUMP JUMPDEST PUSH1 0x40 MLOAD DUP1 SWAP2 SUB SWAP1 RETURN JUMPDEST PUSH1 0x0 DUP1 SLOAD SWAP1 POP SWAP1 JUMP JUMPDEST PUSH2 0x56E CALLER PUSH2 0xA47 JUMP JUMPDEST ISZERO PUSH2 0x578 JUMPI PUSH1 0x0 DUP1 REVERT JUMPDEST PUSH1 0x6 PUSH1 0x14 SWAP1 SLOAD SWAP1 PUSH2 0x100 EXP SWAP1 DIV PUSH1 0xFF AND ISZERO PUSH2 0x592 JUMPI PUSH1 0x0 DUP1 REVERT JUMPDEST PUSH1 0x0 SLOAD CALLVALUE LT ISZERO PUSH2 0x5D7 JUMPI PUSH1 0x40 MLOAD PUSH32 0x8C379A000000000000000000000000000000000000000000000000000000000 DUP2 MSTORE PUSH1 0x4 ADD PUSH2 0x5CE SWAP1 PUSH2 0x1B04 JUMP JUMPDEST PUSH1 0x40 MLOAD DUP1 SWAP2 SUB SWAP1 REVERT JUMPDEST CALLVALUE PUSH1 0xC PUSH1 0x0 CALLER PUSH20 0xFFFFFFFFFFFFFFFFFFFFFFFFFFFFFFFFFFFFFFFF AND PUSH20 0xFFFFFFFFFFFFFFFFFFFFFFFFFFFFFFFFFFFFFFFF AND DUP2 MSTORE PUSH1 0x20 ADD SWAP1 DUP2 MSTORE PUSH1 0x20 ADD PUSH1 0x0 KECCAK256 PUSH1 0x0 ADD DUP2 SWAP1 SSTORE POP PUSH1 0x1 PUSH1 0xC PUSH1 0x0 CALLER PUSH20 0xFFFFFFFFFFFFFFFFFFFFFFFFFFFFFFFFFFFFFFFF AND PUSH20 0xFFFFFFFFFFFFFFFFFFFFFFFFFFFFFFFFFFFFFFFF AND DUP2 MSTORE PUSH1 0x20 ADD SWAP1 DUP2 MSTORE PUSH1 0x20 ADD PUSH1 0x0 KECCAK256 PUSH1 0x1 ADD PUSH1 0x0 PUSH2 0x100 EXP DUP2 SLOAD DUP2 PUSH2 0xFFFF MUL NOT AND SWAP1 DUP4 PUSH2 0xFFFF AND MUL OR SWAP1 SSTORE POP PUSH1 0xD CALLER SWAP1 DUP1 PUSH1 0x1 DUP2 SLOAD ADD DUP1 DUP3 SSTORE DUP1 SWAP2 POP POP PUSH1 0x1 SWAP1 SUB SWAP1 PUSH1 0x0 MSTORE PUSH1 0x20 PUSH1 0x0 KECCAK256 ADD PUSH1 0x0 SWAP1 SWAP2 SWAP1 SWAP2 SWAP1 SWAP2 PUSH2 0x100 EXP DUP2 SLOAD DUP2 PUSH20 0xFFFFFFFFFFFFFFFFFFFFFFFFFFFFFFFFFFFFFFFF MUL NOT AND SWAP1 DUP4 PUSH20 0xFFFFFFFFFFFFFFFFFFFFFFFFFFFFFFFFFFFFFFFF AND MUL OR SWAP1 SSTORE POP PUSH1 0x64 PUSH1 0xF SLOAD PUSH1 0x64 PUSH2 0x6F0 SWAP2 SWAP1 PUSH2 0x1D2E JUMP JUMPDEST CALLVALUE PUSH2 0x6FB SWAP2 SWAP1 PUSH2 0x1CD4 JUMP JUMPDEST PUSH2 0x705 SWAP2 SWAP1 PUSH2 0x1CA3 JUMP JUMPDEST PUSH1 0x1 PUSH1 0x0 DUP3 DUP3 SLOAD PUSH2 0x716 SWAP2 SWAP1 PUSH2 0x1C4D JUMP JUMPDEST SWAP3 POP POP DUP2 SWAP1 SSTORE POP CALLER PUSH20 0xFFFFFFFFFFFFFFFFFFFFFFFFFFFFFFFFFFFFFFFF AND PUSH32 0x7F47E4B864EE52D8CA461D379020BE7E99AE801A152DDE71193BDC651DA8A7C0 PUSH1 0x40 MLOAD PUSH1 0x40 MLOAD DUP1 SWAP2 SUB SWAP1 LOG2 JUMP JUMPDEST PUSH1 0x60 PUSH1 0xA DUP1 SLOAD PUSH2 0x771 SWAP1 PUSH2 0x1E0C JUMP JUMPDEST DUP1 PUSH1 0x1F ADD PUSH1 0x20 DUP1 SWAP2 DIV MUL PUSH1 0x20 ADD PUSH1 0x40 MLOAD SWAP1 DUP2 ADD PUSH1 0x40 MSTORE DUP1 SWAP3 SWAP2 SWAP1 DUP2 DUP2 MSTORE PUSH1 0x20 ADD DUP3 DUP1 SLOAD PUSH2 0x79D SWAP1 PUSH2 0x1E0C JUMP JUMPDEST DUP1 ISZERO PUSH2 0x7EA JUMPI DUP1 PUSH1 0x1F LT PUSH2 0x7BF JUMPI PUSH2 0x100 DUP1 DUP4 SLOAD DIV MUL DUP4 MSTORE SWAP2 PUSH1 0x20 ADD SWAP2 PUSH2 0x7EA JUMP JUMPDEST DUP3 ADD SWAP2 SWAP1 PUSH1 0x0 MSTORE PUSH1 0x20 PUSH1 0x0 KECCAK256 SWAP1 JUMPDEST DUP2 SLOAD DUP2 MSTORE SWAP1 PUSH1 0x1 ADD SWAP1 PUSH1 0x20 ADD DUP1 DUP4 GT PUSH2 0x7CD JUMPI DUP3 SWAP1 SUB PUSH1 0x1F AND DUP3 ADD SWAP2 JUMPDEST POP POP POP POP POP SWAP1 POP SWAP1 JUMP JUMPDEST PUSH1 0x0 PUSH1 0x3 SLOAD SWAP1 POP SWAP1 JUMP JUMPDEST PUSH1 0x0 PUSH1 0x6 PUSH1 0x14 SWAP1 SLOAD SWAP1 PUSH2 0x100 EXP SWAP1 DIV PUSH1 0xFF AND SWAP1 POP SWAP1 JUMP JUMPDEST PUSH1 0x60 PUSH1 0x8 DUP1 SLOAD PUSH2 0x824 SWAP1 PUSH2 0x1E0C JUMP JUMPDEST DUP1 PUSH1 0x1F ADD PUSH1 0x20 DUP1 SWAP2 DIV MUL PUSH1 0x20 ADD PUSH1 0x40 MLOAD SWAP1 DUP2 ADD PUSH1 0x40 MSTORE DUP1 SWAP3 SWAP2 SWAP1 DUP2 DUP2 MSTORE PUSH1 0x20 ADD DUP3 DUP1 SLOAD PUSH2 0x850 SWAP1 PUSH2 0x1E0C JUMP JUMPDEST DUP1 ISZERO PUSH2 0x89D JUMPI DUP1 PUSH1 0x1F LT PUSH2 0x872 JUMPI PUSH2 0x100 DUP1 DUP4 SLOAD DIV MUL DUP4 MSTORE SWAP2 PUSH1 0x20 ADD SWAP2 PUSH2 0x89D JUMP JUMPDEST DUP3 ADD SWAP2 SWAP1 PUSH1 0x0 MSTORE PUSH1 0x20 PUSH1 0x0 KECCAK256 SWAP1 JUMPDEST DUP2 SLOAD DUP2 MSTORE SWAP1 PUSH1 0x1 ADD SWAP1 PUSH1 0x20 ADD DUP1 DUP4 GT PUSH2 0x880 JUMPI DUP3 SWAP1 SUB PUSH1 0x1F AND DUP3 ADD SWAP2 JUMPDEST POP POP POP POP POP SWAP1 POP SWAP1 JUMP JUMPDEST PUSH1 0x0 PUSH1 0x4 SLOAD SWAP1 POP SWAP1 JUMP JUMPDEST PUSH1 0x60 PUSH1 0xB DUP1 SLOAD PUSH2 0x8C0 SWAP1 PUSH2 0x1E0C JUMP JUMPDEST DUP1 PUSH1 0x1F ADD PUSH1 0x20 DUP1 SWAP2 DIV MUL PUSH1 0x20 ADD PUSH1 0x40 MLOAD SWAP1 DUP2 ADD PUSH1 0x40 MSTORE DUP1 SWAP3 SWAP2 SWAP1 DUP2 DUP2 MSTORE PUSH1 0x20 ADD DUP3 DUP1 SLOAD PUSH2 0x8EC SWAP1 PUSH2 0x1E0C JUMP JUMPDEST DUP1 ISZERO PUSH2 0x939 JUMPI DUP1 PUSH1 0x1F LT PUSH2 0x90E JUMPI PUSH2 0x100 DUP1 DUP4 SLOAD DIV MUL DUP4 MSTORE SWAP2 PUSH1 0x20 ADD SWAP2 PUSH2 0x939 JUMP JUMPDEST DUP3 ADD SWAP2 SWAP1 PUSH1 0x0 MSTORE PUSH1 0x20 PUSH1 0x0 KECCAK256 SWAP1 JUMPDEST DUP2 SLOAD DUP2 MSTORE SWAP1 PUSH1 0x1 ADD SWAP1 PUSH1 0x20 ADD DUP1 DUP4 GT PUSH2 0x91C JUMPI DUP3 SWAP1 SUB PUSH1 0x1F AND DUP3 ADD SWAP2 JUMPDEST POP POP POP POP POP SWAP1 POP SWAP1 JUMP JUMPDEST PUSH1 0x6 PUSH1 0x0 SWAP1 SLOAD SWAP1 PUSH2 0x100 EXP SWAP1 DIV PUSH20 0xFFFFFFFFFFFFFFFFFFFFFFFFFFFFFFFFFFFFFFFF AND PUSH20 0xFFFFFFFFFFFFFFFFFFFFFFFFFFFFFFFFFFFFFFFF AND CALLER PUSH20 0xFFFFFFFFFFFFFFFFFFFFFFFFFFFFFFFFFFFFFFFF AND EQ PUSH2 0x9D3 JUMPI PUSH1 0x40 MLOAD PUSH32 0x8C379A000000000000000000000000000000000000000000000000000000000 DUP2 MSTORE PUSH1 0x4 ADD PUSH2 0x9CA SWAP1 PUSH2 0x1B24 JUMP JUMPDEST PUSH1 0x40 MLOAD DUP1 SWAP2 SUB SWAP1 REVERT JUMPDEST PUSH1 0x0 PUSH2 0x9DD PUSH2 0xB3F JUMP JUMPDEST POP SWAP1 POP DUP1 PUSH2 0xA3A JUMPI SELFBALANCE PUSH1 0xD DUP1 SLOAD SWAP1 POP PUSH1 0x6 PUSH1 0x14 SWAP1 SLOAD SWAP1 PUSH2 0x100 EXP SWAP1 DIV PUSH1 0xFF AND PUSH1 0x40 MLOAD PUSH32 0xF72495400000000000000000000000000000000000000000000000000000000 DUP2 MSTORE PUSH1 0x4 ADD PUSH2 0xA31 SWAP4 SWAP3 SWAP2 SWAP1 PUSH2 0x1B88 JUMP JUMPDEST PUSH1 0x40 MLOAD DUP1 SWAP2 SUB SWAP1 REVERT JUMPDEST PUSH2 0xA43 DUP3 PUSH2 0x1141 JUMP JUMPDEST POP POP JUMP JUMPDEST PUSH1 0x0 DUP1 PUSH1 0xD DUP1 SLOAD SWAP1 POP SWAP1 POP PUSH1 0x0 JUMPDEST DUP2 DUP2 LT ISZERO PUSH2 0xAED JUMPI DUP4 PUSH20 0xFFFFFFFFFFFFFFFFFFFFFFFFFFFFFFFFFFFFFFFF AND PUSH1 0xD DUP3 DUP2 SLOAD DUP2 LT PUSH2 0xA88 JUMPI PUSH2 0xA87 PUSH2 0x1F45 JUMP JUMPDEST JUMPDEST SWAP1 PUSH1 0x0 MSTORE PUSH1 0x20 PUSH1 0x0 KECCAK256 ADD PUSH1 0x0 SWAP1 SLOAD SWAP1 PUSH2 0x100 EXP SWAP1 DIV PUSH20 0xFFFFFFFFFFFFFFFFFFFFFFFFFFFFFFFFFFFFFFFF AND PUSH20 0xFFFFFFFFFFFFFFFFFFFFFFFFFFFFFFFFFFFFFFFF AND EQ ISZERO PUSH2 0xADA JUMPI PUSH1 0x1 SWAP3 POP POP POP PUSH2 0xAF4 JUMP JUMPDEST DUP1 DUP1 PUSH2 0xAE5 SWAP1 PUSH2 0x1E6F JUMP JUMPDEST SWAP2 POP POP PUSH2 0xA55 JUMP JUMPDEST POP PUSH1 0x0 SWAP2 POP POP JUMPDEST SWAP2 SWAP1 POP JUMP JUMPDEST PUSH1 0x0 PUSH1 0x1 SLOAD SWAP1 POP SWAP1 JUMP JUMPDEST PUSH1 0xC PUSH1 0x20 MSTORE DUP1 PUSH1 0x0 MSTORE PUSH1 0x40 PUSH1 0x0 KECCAK256 PUSH1 0x0 SWAP2 POP SWAP1 POP DUP1 PUSH1 0x0 ADD SLOAD SWAP1 DUP1 PUSH1 0x1 ADD PUSH1 0x0 SWAP1 SLOAD SWAP1 PUSH2 0x100 EXP SWAP1 DIV PUSH2 0xFFFF AND SWAP1 POP DUP3 JUMP JUMPDEST PUSH1 0x0 PUSH1 0x2 SLOAD SWAP1 POP SWAP1 JUMP JUMPDEST PUSH1 0x0 PUSH1 0x60 PUSH1 0x0 DUP1 ISZERO ISZERO PUSH1 0x6 PUSH1 0x14 SWAP1 SLOAD SWAP1 PUSH2 0x100 EXP SWAP1 DIV PUSH1 0xFF AND ISZERO ISZERO EQ SWAP1 POP PUSH1 0x0 DUP1 PUSH1 0x4 SLOAD TIMESTAMP PUSH2 0xB6E SWAP2 SWAP1 PUSH2 0x1D2E JUMP JUMPDEST GT SWAP1 POP PUSH1 0x0 DUP1 PUSH1 0xD DUP1 SLOAD SWAP1 POP GT SWAP1 POP PUSH1 0x0 DUP1 SELFBALANCE GT SWAP1 POP DUP3 DUP1 ISZERO PUSH2 0xB8E JUMPI POP DUP4 JUMPDEST DUP1 ISZERO PUSH2 0xB97 JUMPI POP DUP1 JUMPDEST DUP1 ISZERO PUSH2 0xBA0 JUMPI POP DUP2 JUMPDEST SWAP6 POP DUP6 PUSH1 0x40 MLOAD DUP1 PUSH1 0x40 ADD PUSH1 0x40 MSTORE DUP1 PUSH1 0x3 DUP2 MSTORE PUSH1 0x20 ADD PUSH32 0x3078300000000000000000000000000000000000000000000000000000000000 DUP2 MSTORE POP SWAP6 POP SWAP6 POP POP POP POP POP SWAP1 SWAP2 JUMP JUMPDEST PUSH1 0x0 PUSH1 0x6 PUSH1 0x0 SWAP1 SLOAD SWAP1 PUSH2 0x100 EXP SWAP1 DIV PUSH20 0xFFFFFFFFFFFFFFFFFFFFFFFFFFFFFFFFFFFFFFFF AND SWAP1 POP SWAP1 JUMP JUMPDEST PUSH1 0x60 PUSH1 0x9 DUP1 SLOAD PUSH2 0xC1E SWAP1 PUSH2 0x1E0C JUMP JUMPDEST DUP1 PUSH1 0x1F ADD PUSH1 0x20 DUP1 SWAP2 DIV MUL PUSH1 0x20 ADD PUSH1 0x40 MLOAD SWAP1 DUP2 ADD PUSH1 0x40 MSTORE DUP1 SWAP3 SWAP2 SWAP1 DUP2 DUP2 MSTORE PUSH1 0x20 ADD DUP3 DUP1 SLOAD PUSH2 0xC4A SWAP1 PUSH2 0x1E0C JUMP JUMPDEST DUP1 ISZERO PUSH2 0xC97 JUMPI DUP1 PUSH1 0x1F LT PUSH2 0xC6C JUMPI PUSH2 0x100 DUP1 DUP4 SLOAD DIV MUL DUP4 MSTORE SWAP2 PUSH1 0x20 ADD SWAP2 PUSH2 0xC97 JUMP JUMPDEST DUP3 ADD SWAP2 SWAP1 PUSH1 0x0 MSTORE PUSH1 0x20 PUSH1 0x0 KECCAK256 SWAP1 JUMPDEST DUP2 SLOAD DUP2 MSTORE SWAP1 PUSH1 0x1 ADD SWAP1 PUSH1 0x20 ADD DUP1 DUP4 GT PUSH2 0xC7A JUMPI DUP3 SWAP1 SUB PUSH1 0x1F AND DUP3 ADD SWAP2 JUMPDEST POP POP POP POP POP SWAP1 POP SWAP1 JUMP JUMPDEST PUSH1 0x7 DUP1 SLOAD PUSH2 0xCAE SWAP1 PUSH2 0x1E0C JUMP JUMPDEST DUP1 PUSH1 0x1F ADD PUSH1 0x20 DUP1 SWAP2 DIV MUL PUSH1 0x20 ADD PUSH1 0x40 MLOAD SWAP1 DUP2 ADD PUSH1 0x40 MSTORE DUP1 SWAP3 SWAP2 SWAP1 DUP2 DUP2 MSTORE PUSH1 0x20 ADD DUP3 DUP1 SLOAD PUSH2 0xCDA SWAP1 PUSH2 0x1E0C JUMP JUMPDEST DUP1 ISZERO PUSH2 0xD27 JUMPI DUP1 PUSH1 0x1F LT PUSH2 0xCFC JUMPI PUSH2 0x100 DUP1 DUP4 SLOAD DIV MUL DUP4 MSTORE SWAP2 PUSH1 0x20 ADD SWAP2 PUSH2 0xD27 JUMP JUMPDEST DUP3 ADD SWAP2 SWAP1 PUSH1 0x0 MSTORE PUSH1 0x20 PUSH1 0x0 KECCAK256 SWAP1 JUMPDEST DUP2 SLOAD DUP2 MSTORE SWAP1 PUSH1 0x1 ADD SWAP1 PUSH1 0x20 ADD DUP1 DUP4 GT PUSH2 0xD0A JUMPI DUP3 SWAP1 SUB PUSH1 0x1F AND DUP3 ADD SWAP2 JUMPDEST POP POP POP POP POP DUP2 JUMP JUMPDEST PUSH2 0xD38 CALLER PUSH2 0xA47 JUMP JUMPDEST ISZERO PUSH2 0xD42 JUMPI PUSH1 0x0 DUP1 REVERT JUMPDEST PUSH1 0x6 PUSH1 0x14 SWAP1 SLOAD SWAP1 PUSH2 0x100 EXP SWAP1 DIV PUSH1 0xFF AND ISZERO PUSH2 0xD5C JUMPI PUSH1 0x0 DUP1 REVERT JUMPDEST PUSH1 0x0 SLOAD CALLVALUE LT ISZERO PUSH2 0xDA1 JUMPI PUSH1 0x40 MLOAD PUSH32 0x8C379A000000000000000000000000000000000000000000000000000000000 DUP2 MSTORE PUSH1 0x4 ADD PUSH2 0xD98 SWAP1 PUSH2 0x1B04 JUMP JUMPDEST PUSH1 0x40 MLOAD DUP1 SWAP2 SUB SWAP1 REVERT JUMPDEST CALLVALUE PUSH1 0xC PUSH1 0x0 CALLER PUSH20 0xFFFFFFFFFFFFFFFFFFFFFFFFFFFFFFFFFFFFFFFF AND PUSH20 0xFFFFFFFFFFFFFFFFFFFFFFFFFFFFFFFFFFFFFFFF AND DUP2 MSTORE PUSH1 0x20 ADD SWAP1 DUP2 MSTORE PUSH1 0x20 ADD PUSH1 0x0 KECCAK256 PUSH1 0x0 ADD DUP2 SWAP1 SSTORE POP PUSH1 0x2 PUSH1 0xC PUSH1 0x0 CALLER PUSH20 0xFFFFFFFFFFFFFFFFFFFFFFFFFFFFFFFFFFFFFFFF AND PUSH20 0xFFFFFFFFFFFFFFFFFFFFFFFFFFFFFFFFFFFFFFFF AND DUP2 MSTORE PUSH1 0x20 ADD SWAP1 DUP2 MSTORE PUSH1 0x20 ADD PUSH1 0x0 KECCAK256 PUSH1 0x1 ADD PUSH1 0x0 PUSH2 0x100 EXP DUP2 SLOAD DUP2 PUSH2 0xFFFF MUL NOT AND SWAP1 DUP4 PUSH2 0xFFFF AND MUL OR SWAP1 SSTORE POP PUSH1 0xD CALLER SWAP1 DUP1 PUSH1 0x1 DUP2 SLOAD ADD DUP1 DUP3 SSTORE DUP1 SWAP2 POP POP PUSH1 0x1 SWAP1 SUB SWAP1 PUSH1 0x0 MSTORE PUSH1 0x20 PUSH1 0x0 KECCAK256 ADD PUSH1 0x0 SWAP1 SWAP2 SWAP1 SWAP2 SWAP1 SWAP2 PUSH2 0x100 EXP DUP2 SLOAD DUP2 PUSH20 0xFFFFFFFFFFFFFFFFFFFFFFFFFFFFFFFFFFFFFFFF MUL NOT AND SWAP1 DUP4 PUSH20 0xFFFFFFFFFFFFFFFFFFFFFFFFFFFFFFFFFFFFFFFF AND MUL OR SWAP1 SSTORE POP PUSH1 0x64 PUSH1 0xF SLOAD PUSH1 0x64 PUSH2 0xEBA SWAP2 SWAP1 PUSH2 0x1D2E JUMP JUMPDEST CALLVALUE PUSH2 0xEC5 SWAP2 SWAP1 PUSH2 0x1CD4 JUMP JUMPDEST PUSH2 0xECF SWAP2 SWAP1 PUSH2 0x1CA3 JUMP JUMPDEST PUSH1 0x2 PUSH1 0x0 DUP3 DUP3 SLOAD PUSH2 0xEE0 SWAP2 SWAP1 PUSH2 0x1C4D JUMP JUMPDEST SWAP3 POP POP DUP2 SWAP1 SSTORE POP CALLER PUSH20 0xFFFFFFFFFFFFFFFFFFFFFFFFFFFFFFFFFFFFFFFF AND PUSH32 0x7F47E4B864EE52D8CA461D379020BE7E99AE801A152DDE71193BDC651DA8A7C0 PUSH1 0x40 MLOAD PUSH1 0x40 MLOAD DUP1 SWAP2 SUB SWAP1 LOG2 JUMP JUMPDEST PUSH1 0x6 PUSH1 0x0 SWAP1 SLOAD SWAP1 PUSH2 0x100 EXP SWAP1 DIV PUSH20 0xFFFFFFFFFFFFFFFFFFFFFFFFFFFFFFFFFFFFFFFF AND PUSH20 0xFFFFFFFFFFFFFFFFFFFFFFFFFFFFFFFFFFFFFFFF AND CALLER PUSH20 0xFFFFFFFFFFFFFFFFFFFFFFFFFFFFFFFFFFFFFFFF AND EQ PUSH2 0xFBC JUMPI PUSH1 0x40 MLOAD PUSH32 0x8C379A000000000000000000000000000000000000000000000000000000000 DUP2 MSTORE PUSH1 0x4 ADD PUSH2 0xFB3 SWAP1 PUSH2 0x1B24 JUMP JUMPDEST PUSH1 0x40 MLOAD DUP1 SWAP2 SUB SWAP1 REVERT JUMPDEST PUSH1 0x0 PUSH1 0x6 PUSH1 0x14 PUSH2 0x100 EXP DUP2 SLOAD DUP2 PUSH1 0xFF MUL NOT AND SWAP1 DUP4 ISZERO ISZERO MUL OR SWAP1 SSTORE POP DUP4 PUSH1 0x7 SWAP1 DUP1 MLOAD SWAP1 PUSH1 0x20 ADD SWAP1 PUSH2 0xFED SWAP3 SWAP2 SWAP1 PUSH2 0x161F JUMP JUMPDEST POP DUP3 PUSH1 0x8 SWAP1 DUP1 MLOAD SWAP1 PUSH1 0x20 ADD SWAP1 PUSH2 0x1004 SWAP3 SWAP2 SWAP1 PUSH2 0x161F JUMP JUMPDEST POP DUP2 PUSH1 0x9 SWAP1 DUP1 MLOAD SWAP1 PUSH1 0x20 ADD SWAP1 PUSH2 0x101B SWAP3 SWAP2 SWAP1 PUSH2 0x161F JUMP JUMPDEST POP DUP1 PUSH1 0x4 DUP2 SWAP1 SSTORE POP PUSH1 0x0 PUSH8 0xFFFFFFFFFFFFFFFF DUP2 GT ISZERO PUSH2 0x103E JUMPI PUSH2 0x103D PUSH2 0x1F74 JUMP JUMPDEST JUMPDEST PUSH1 0x40 MLOAD SWAP1 DUP1 DUP3 MSTORE DUP1 PUSH1 0x20 MUL PUSH1 0x20 ADD DUP3 ADD PUSH1 0x40 MSTORE DUP1 ISZERO PUSH2 0x106C JUMPI DUP2 PUSH1 0x20 ADD PUSH1 0x20 DUP3 MUL DUP1 CALLDATASIZE DUP4 CALLDATACOPY DUP1 DUP3 ADD SWAP2 POP POP SWAP1 POP JUMPDEST POP PUSH1 0xD SWAP1 DUP1 MLOAD SWAP1 PUSH1 0x20 ADD SWAP1 PUSH2 0x1082 SWAP3 SWAP2 SWAP1 PUSH2 0x16A5 JUMP JUMPDEST POP TIMESTAMP PUSH1 0x3 DUP2 SWAP1 SSTORE POP POP POP POP POP JUMP JUMPDEST PUSH1 0x0 PUSH1 0xD DUP3 DUP2 SLOAD DUP2 LT PUSH2 0x10A6 JUMPI PUSH2 0x10A5 PUSH2 0x1F45 JUMP JUMPDEST JUMPDEST SWAP1 PUSH1 0x0 MSTORE PUSH1 0x20 PUSH1 0x0 KECCAK256 ADD PUSH1 0x0 SWAP1 SLOAD SWAP1 PUSH2 0x100 EXP SWAP1 DIV PUSH20 0xFFFFFFFFFFFFFFFFFFFFFFFFFFFFFFFFFFFFFFFF AND SWAP1 POP SWAP2 SWAP1 POP JUMP JUMPDEST PUSH1 0x6 PUSH1 0x14 SWAP1 SLOAD SWAP1 PUSH2 0x100 EXP SWAP1 DIV PUSH1 0xFF AND DUP2 JUMP JUMPDEST PUSH1 0xD DUP2 DUP2 SLOAD DUP2 LT PUSH2 0x10FB JUMPI PUSH1 0x0 DUP1 REVERT JUMPDEST SWAP1 PUSH1 0x0 MSTORE PUSH1 0x20 PUSH1 0x0 KECCAK256 ADD PUSH1 0x0 SWAP2 POP SLOAD SWAP1 PUSH2 0x100 EXP SWAP1 DIV PUSH20 0xFFFFFFFFFFFFFFFFFFFFFFFFFFFFFFFFFFFFFFFF AND DUP2 JUMP JUMPDEST PUSH1 0x0 PUSH1 0xD DUP1 SLOAD SWAP1 POP SWAP1 POP SWAP1 JUMP JUMPDEST PUSH1 0x0 PUSH1 0xF SLOAD SWAP1 POP SWAP1 JUMP JUMPDEST PUSH1 0x6 PUSH1 0x0 SWAP1 SLOAD SWAP1 PUSH2 0x100 EXP SWAP1 DIV PUSH20 0xFFFFFFFFFFFFFFFFFFFFFFFFFFFFFFFFFFFFFFFF AND PUSH20 0xFFFFFFFFFFFFFFFFFFFFFFFFFFFFFFFFFFFFFFFF AND CALLER PUSH20 0xFFFFFFFFFFFFFFFFFFFFFFFFFFFFFFFFFFFFFFFF AND EQ PUSH2 0x11D1 JUMPI PUSH1 0x40 MLOAD PUSH32 0x8C379A000000000000000000000000000000000000000000000000000000000 DUP2 MSTORE PUSH1 0x4 ADD PUSH2 0x11C8 SWAP1 PUSH2 0x1B24 JUMP JUMPDEST PUSH1 0x40 MLOAD DUP1 SWAP2 SUB SWAP1 REVERT JUMPDEST PUSH1 0x0 DUP1 PUSH1 0x0 DUP1 PUSH1 0x0 DUP1 PUSH1 0x0 SWAP1 POP JUMPDEST PUSH1 0xD DUP1 SLOAD SWAP1 POP DUP2 LT ISZERO PUSH2 0x1304 JUMPI PUSH1 0xD DUP2 DUP2 SLOAD DUP2 LT PUSH2 0x1200 JUMPI PUSH2 0x11FF PUSH2 0x1F45 JUMP JUMPDEST JUMPDEST SWAP1 PUSH1 0x0 MSTORE PUSH1 0x20 PUSH1 0x0 KECCAK256 ADD PUSH1 0x0 SWAP1 SLOAD SWAP1 PUSH2 0x100 EXP SWAP1 DIV PUSH20 0xFFFFFFFFFFFFFFFFFFFFFFFFFFFFFFFFFFFFFFFF AND SWAP2 POP DUP7 PUSH2 0xFFFF AND PUSH1 0xC PUSH1 0x0 DUP5 PUSH20 0xFFFFFFFFFFFFFFFFFFFFFFFFFFFFFFFFFFFFFFFF AND PUSH20 0xFFFFFFFFFFFFFFFFFFFFFFFFFFFFFFFFFFFFFFFF AND DUP2 MSTORE PUSH1 0x20 ADD SWAP1 DUP2 MSTORE PUSH1 0x20 ADD PUSH1 0x0 KECCAK256 PUSH1 0x1 ADD PUSH1 0x0 SWAP1 SLOAD SWAP1 PUSH2 0x100 EXP SWAP1 DIV PUSH2 0xFFFF AND PUSH2 0xFFFF AND EQ ISZERO PUSH2 0x12F1 JUMPI PUSH1 0xE DUP3 SWAP1 DUP1 PUSH1 0x1 DUP2 SLOAD ADD DUP1 DUP3 SSTORE DUP1 SWAP2 POP POP PUSH1 0x1 SWAP1 SUB SWAP1 PUSH1 0x0 MSTORE PUSH1 0x20 PUSH1 0x0 KECCAK256 ADD PUSH1 0x0 SWAP1 SWAP2 SWAP1 SWAP2 SWAP1 SWAP2 PUSH2 0x100 EXP DUP2 SLOAD DUP2 PUSH20 0xFFFFFFFFFFFFFFFFFFFFFFFFFFFFFFFFFFFFFFFF MUL NOT AND SWAP1 DUP4 PUSH20 0xFFFFFFFFFFFFFFFFFFFFFFFFFFFFFFFFFFFFFFFF AND MUL OR SWAP1 SSTORE POP JUMPDEST DUP1 DUP1 PUSH2 0x12FC SWAP1 PUSH2 0x1E6F JUMP JUMPDEST SWAP2 POP POP PUSH2 0x11DF JUMP JUMPDEST POP PUSH1 0x1 DUP7 PUSH2 0xFFFF AND EQ ISZERO PUSH2 0x1321 JUMPI PUSH1 0x2 SLOAD SWAP5 POP PUSH1 0x1 SLOAD SWAP4 POP PUSH2 0x132C JUMP JUMPDEST PUSH1 0x1 SLOAD SWAP5 POP PUSH1 0x2 SLOAD SWAP4 POP JUMPDEST PUSH1 0x0 JUMPDEST PUSH1 0xE DUP1 SLOAD SWAP1 POP DUP2 LT ISZERO PUSH2 0x149D JUMPI PUSH1 0xE DUP2 DUP2 SLOAD DUP2 LT PUSH2 0x1350 JUMPI PUSH2 0x134F PUSH2 0x1F45 JUMP JUMPDEST JUMPDEST SWAP1 PUSH1 0x0 MSTORE PUSH1 0x20 PUSH1 0x0 KECCAK256 ADD PUSH1 0x0 SWAP1 SLOAD SWAP1 PUSH2 0x100 EXP SWAP1 DIV PUSH20 0xFFFFFFFFFFFFFFFFFFFFFFFFFFFFFFFFFFFFFFFF AND SWAP4 POP PUSH1 0xC PUSH1 0x0 DUP6 PUSH20 0xFFFFFFFFFFFFFFFFFFFFFFFFFFFFFFFFFFFFFFFF AND PUSH20 0xFFFFFFFFFFFFFFFFFFFFFFFFFFFFFFFFFFFFFFFF AND DUP2 MSTORE PUSH1 0x20 ADD SWAP1 DUP2 MSTORE PUSH1 0x20 ADD PUSH1 0x0 KECCAK256 PUSH1 0x0 ADD SLOAD SWAP3 POP PUSH1 0x0 PUSH2 0x2710 DUP7 PUSH2 0x2710 DUP10 PUSH2 0x13D6 SWAP2 SWAP1 PUSH2 0x1CD4 JUMP JUMPDEST PUSH2 0x13E0 SWAP2 SWAP1 PUSH2 0x1CA3 JUMP JUMPDEST PUSH2 0x2710 PUSH2 0x13ED SWAP2 SWAP1 PUSH2 0x1C4D JUMP JUMPDEST DUP6 PUSH2 0x13F8 SWAP2 SWAP1 PUSH2 0x1CD4 JUMP JUMPDEST PUSH2 0x1402 SWAP2 SWAP1 PUSH2 0x1CA3 JUMP JUMPDEST SWAP1 POP PUSH1 0xE DUP3 DUP2 SLOAD DUP2 LT PUSH2 0x1418 JUMPI PUSH2 0x1417 PUSH2 0x1F45 JUMP JUMPDEST JUMPDEST SWAP1 PUSH1 0x0 MSTORE PUSH1 0x20 PUSH1 0x0 KECCAK256 ADD PUSH1 0x0 SWAP1 SLOAD SWAP1 PUSH2 0x100 EXP SWAP1 DIV PUSH20 0xFFFFFFFFFFFFFFFFFFFFFFFFFFFFFFFFFFFFFFFF AND PUSH20 0xFFFFFFFFFFFFFFFFFFFFFFFFFFFFFFFFFFFFFFFF AND PUSH2 0x8FC DUP3 SWAP1 DUP2 ISZERO MUL SWAP1 PUSH1 0x40 MLOAD PUSH1 0x0 PUSH1 0x40 MLOAD DUP1 DUP4 SUB DUP2 DUP6 DUP9 DUP9 CALL SWAP4 POP POP POP POP ISZERO DUP1 ISZERO PUSH2 0x1488 JUMPI RETURNDATASIZE PUSH1 0x0 DUP1 RETURNDATACOPY RETURNDATASIZE PUSH1 0x0 REVERT JUMPDEST POP POP DUP1 DUP1 PUSH2 0x1495 SWAP1 PUSH2 0x1E6F JUMP JUMPDEST SWAP2 POP POP PUSH2 0x132F JUMP JUMPDEST POP PUSH1 0x5 PUSH1 0x0 SWAP1 SLOAD SWAP1 PUSH2 0x100 EXP SWAP1 DIV PUSH20 0xFFFFFFFFFFFFFFFFFFFFFFFFFFFFFFFFFFFFFFFF AND PUSH20 0xFFFFFFFFFFFFFFFFFFFFFFFFFFFFFFFFFFFFFFFF AND PUSH2 0x8FC SELFBALANCE SWAP1 DUP2 ISZERO MUL SWAP1 PUSH1 0x40 MLOAD PUSH1 0x0 PUSH1 0x40 MLOAD DUP1 DUP4 SUB DUP2 DUP6 DUP9 DUP9 CALL SWAP4 POP POP POP POP ISZERO DUP1 ISZERO PUSH2 0x1506 JUMPI RETURNDATASIZE PUSH1 0x0 DUP1 RETURNDATACOPY RETURNDATASIZE PUSH1 0x0 REVERT JUMPDEST POP PUSH1 0x1 PUSH1 0x6 PUSH1 0x14 PUSH2 0x100 EXP DUP2 SLOAD DUP2 PUSH1 0xFF MUL NOT AND SWAP1 DUP4 ISZERO ISZERO MUL OR SWAP1 SSTORE POP PUSH1 0x0 JUMPDEST PUSH1 0xD DUP1 SLOAD SWAP1 POP DUP2 LT ISZERO PUSH2 0x15E2 JUMPI PUSH1 0xC PUSH1 0x0 PUSH1 0xD DUP4 DUP2 SLOAD DUP2 LT PUSH2 0x154A JUMPI PUSH2 0x1549 PUSH2 0x1F45 JUMP JUMPDEST JUMPDEST SWAP1 PUSH1 0x0 MSTORE PUSH1 0x20 PUSH1 0x0 KECCAK256 ADD PUSH1 0x0 SWAP1 SLOAD SWAP1 PUSH2 0x100 EXP SWAP1 DIV PUSH20 0xFFFFFFFFFFFFFFFFFFFFFFFFFFFFFFFFFFFFFFFF AND PUSH20 0xFFFFFFFFFFFFFFFFFFFFFFFFFFFFFFFFFFFFFFFF AND PUSH20 0xFFFFFFFFFFFFFFFFFFFFFFFFFFFFFFFFFFFFFFFF AND DUP2 MSTORE PUSH1 0x20 ADD SWAP1 DUP2 MSTORE PUSH1 0x20 ADD PUSH1 0x0 KECCAK256 PUSH1 0x0 DUP1 DUP3 ADD PUSH1 0x0 SWAP1 SSTORE PUSH1 0x1 DUP3 ADD PUSH1 0x0 PUSH2 0x100 EXP DUP2 SLOAD SWAP1 PUSH2 0xFFFF MUL NOT AND SWAP1 SSTORE POP POP DUP1 DUP1 PUSH2 0x15DA SWAP1 PUSH2 0x1E6F JUMP JUMPDEST SWAP2 POP POP PUSH2 0x1525 JUMP JUMPDEST POP PUSH1 0xD PUSH1 0x0 PUSH2 0x15F1 SWAP2 SWAP1 PUSH2 0x172F JUMP JUMPDEST PUSH1 0xE PUSH1 0x0 PUSH2 0x15FF SWAP2 SWAP1 PUSH2 0x172F JUMP JUMPDEST PUSH1 0x0 SWAP5 POP PUSH1 0x0 SWAP4 POP PUSH1 0x0 PUSH1 0x1 DUP2 SWAP1 SSTORE POP PUSH1 0x0 PUSH1 0x2 DUP2 SWAP1 SSTORE POP POP POP POP POP POP POP JUMP JUMPDEST DUP3 DUP1 SLOAD PUSH2 0x162B SWAP1 PUSH2 0x1E0C JUMP JUMPDEST SWAP1 PUSH1 0x0 MSTORE PUSH1 0x20 PUSH1 0x0 KECCAK256 SWAP1 PUSH1 0x1F ADD PUSH1 0x20 SWAP1 DIV DUP2 ADD SWAP3 DUP3 PUSH2 0x164D JUMPI PUSH1 0x0 DUP6 SSTORE PUSH2 0x1694 JUMP JUMPDEST DUP3 PUSH1 0x1F LT PUSH2 0x1666 JUMPI DUP1 MLOAD PUSH1 0xFF NOT AND DUP4 DUP1 ADD OR DUP6 SSTORE PUSH2 0x1694 JUMP JUMPDEST DUP3 DUP1 ADD PUSH1 0x1 ADD DUP6 SSTORE DUP3 ISZERO PUSH2 0x1694 JUMPI SWAP2 DUP3 ADD JUMPDEST DUP3 DUP2 GT ISZERO PUSH2 0x1693 JUMPI DUP3 MLOAD DUP3 SSTORE SWAP2 PUSH1 0x20 ADD SWAP2 SWAP1 PUSH1 0x1 ADD SWAP1 PUSH2 0x1678 JUMP JUMPDEST JUMPDEST POP SWAP1 POP PUSH2 0x16A1 SWAP2 SWAP1 PUSH2 0x1750 JUMP JUMPDEST POP SWAP1 JUMP JUMPDEST DUP3 DUP1 SLOAD DUP3 DUP3 SSTORE SWAP1 PUSH1 0x0 MSTORE PUSH1 0x20 PUSH1 0x0 KECCAK256 SWAP1 DUP2 ADD SWAP3 DUP3 ISZERO PUSH2 0x171E JUMPI SWAP2 PUSH1 0x20 MUL DUP3 ADD JUMPDEST DUP3 DUP2 GT ISZERO PUSH2 0x171D JUMPI DUP3 MLOAD DUP3 PUSH1 0x0 PUSH2 0x100 EXP DUP2 SLOAD DUP2 PUSH20 0xFFFFFFFFFFFFFFFFFFFFFFFFFFFFFFFFFFFFFFFF MUL NOT AND SWAP1 DUP4 PUSH20 0xFFFFFFFFFFFFFFFFFFFFFFFFFFFFFFFFFFFFFFFF AND MUL OR SWAP1 SSTORE POP SWAP2 PUSH1 0x20 ADD SWAP2 SWAP1 PUSH1 0x1 ADD SWAP1 PUSH2 0x16C5 JUMP JUMPDEST JUMPDEST POP SWAP1 POP PUSH2 0x172B SWAP2 SWAP1 PUSH2 0x1750 JUMP JUMPDEST POP SWAP1 JUMP JUMPDEST POP DUP1 SLOAD PUSH1 0x0 DUP3 SSTORE SWAP1 PUSH1 0x0 MSTORE PUSH1 0x20 PUSH1 0x0 KECCAK256 SWAP1 DUP2 ADD SWAP1 PUSH2 0x174D SWAP2 SWAP1 PUSH2 0x1750 JUMP JUMPDEST POP JUMP JUMPDEST JUMPDEST DUP1 DUP3 GT ISZERO PUSH2 0x1769 JUMPI PUSH1 0x0 DUP2 PUSH1 0x0 SWAP1 SSTORE POP PUSH1 0x1 ADD PUSH2 0x1751 JUMP JUMPDEST POP SWAP1 JUMP JUMPDEST PUSH1 0x0 PUSH2 0x1780 PUSH2 0x177B DUP5 PUSH2 0x1BE4 JUMP JUMPDEST PUSH2 0x1BBF JUMP JUMPDEST SWAP1 POP DUP3 DUP2 MSTORE PUSH1 0x20 DUP2 ADD DUP5 DUP5 DUP5 ADD GT ISZERO PUSH2 0x179C JUMPI PUSH2 0x179B PUSH2 0x1FA8 JUMP JUMPDEST JUMPDEST PUSH2 0x17A7 DUP5 DUP3 DUP6 PUSH2 0x1DCA JUMP JUMPDEST POP SWAP4 SWAP3 POP POP POP JUMP JUMPDEST PUSH1 0x0 DUP2 CALLDATALOAD SWAP1 POP PUSH2 0x17BE DUP2 PUSH2 0x2040 JUMP JUMPDEST SWAP3 SWAP2 POP POP JUMP JUMPDEST PUSH1 0x0 DUP3 PUSH1 0x1F DUP4 ADD SLT PUSH2 0x17D9 JUMPI PUSH2 0x17D8 PUSH2 0x1FA3 JUMP JUMPDEST JUMPDEST DUP2 CALLDATALOAD PUSH2 0x17E9 DUP5 DUP3 PUSH1 0x20 DUP7 ADD PUSH2 0x176D JUMP JUMPDEST SWAP2 POP POP SWAP3 SWAP2 POP POP JUMP JUMPDEST PUSH1 0x0 DUP2 CALLDATALOAD SWAP1 POP PUSH2 0x1801 DUP2 PUSH2 0x2057 JUMP JUMPDEST SWAP3 SWAP2 POP POP JUMP JUMPDEST PUSH1 0x0 DUP2 CALLDATALOAD SWAP1 POP PUSH2 0x1816 DUP2 PUSH2 0x206E JUMP JUMPDEST SWAP3 SWAP2 POP POP JUMP JUMPDEST PUSH1 0x0 PUSH1 0x20 DUP3 DUP5 SUB SLT ISZERO PUSH2 0x1832 JUMPI PUSH2 0x1831 PUSH2 0x1FB2 JUMP JUMPDEST JUMPDEST PUSH1 0x0 PUSH2 0x1840 DUP5 DUP3 DUP6 ADD PUSH2 0x17AF JUMP JUMPDEST SWAP2 POP POP SWAP3 SWAP2 POP POP JUMP JUMPDEST PUSH1 0x0 DUP1 PUSH1 0x0 DUP1 PUSH1 0x80 DUP6 DUP8 SUB SLT ISZERO PUSH2 0x1863 JUMPI PUSH2 0x1862 PUSH2 0x1FB2 JUMP JUMPDEST JUMPDEST PUSH1 0x0 DUP6 ADD CALLDATALOAD PUSH8 0xFFFFFFFFFFFFFFFF DUP2 GT ISZERO PUSH2 0x1881 JUMPI PUSH2 0x1880 PUSH2 0x1FAD JUMP JUMPDEST JUMPDEST PUSH2 0x188D DUP8 DUP3 DUP9 ADD PUSH2 0x17C4 JUMP JUMPDEST SWAP5 POP POP PUSH1 0x20 DUP6 ADD CALLDATALOAD PUSH8 0xFFFFFFFFFFFFFFFF DUP2 GT ISZERO PUSH2 0x18AE JUMPI PUSH2 0x18AD PUSH2 0x1FAD JUMP JUMPDEST JUMPDEST PUSH2 0x18BA DUP8 DUP3 DUP9 ADD PUSH2 0x17C4 JUMP JUMPDEST SWAP4 POP POP PUSH1 0x40 DUP6 ADD CALLDATALOAD PUSH8 0xFFFFFFFFFFFFFFFF DUP2 GT ISZERO PUSH2 0x18DB JUMPI PUSH2 0x18DA PUSH2 0x1FAD JUMP JUMPDEST JUMPDEST PUSH2 0x18E7 DUP8 DUP3 DUP9 ADD PUSH2 0x17C4 JUMP JUMPDEST SWAP3 POP POP PUSH1 0x60 PUSH2 0x18F8 DUP8 DUP3 DUP9 ADD PUSH2 0x1807 JUMP JUMPDEST SWAP2 POP POP SWAP3 SWAP6 SWAP2 SWAP5 POP SWAP3 POP JUMP JUMPDEST PUSH1 0x0 PUSH1 0x20 DUP3 DUP5 SUB SLT ISZERO PUSH2 0x191A JUMPI PUSH2 0x1919 PUSH2 0x1FB2 JUMP JUMPDEST JUMPDEST PUSH1 0x0 PUSH2 0x1928 DUP5 DUP3 DUP6 ADD PUSH2 0x17F2 JUMP JUMPDEST SWAP2 POP POP SWAP3 SWAP2 POP POP JUMP JUMPDEST PUSH1 0x0 PUSH1 0x20 DUP3 DUP5 SUB SLT ISZERO PUSH2 0x1947 JUMPI PUSH2 0x1946 PUSH2 0x1FB2 JUMP JUMPDEST JUMPDEST PUSH1 0x0 PUSH2 0x1955 DUP5 DUP3 DUP6 ADD PUSH2 0x1807 JUMP JUMPDEST SWAP2 POP POP SWAP3 SWAP2 POP POP JUMP JUMPDEST PUSH2 0x1967 DUP2 PUSH2 0x1D74 JUMP JUMPDEST DUP3 MSTORE POP POP JUMP JUMPDEST PUSH2 0x1976 DUP2 PUSH2 0x1D62 JUMP JUMPDEST DUP3 MSTORE POP POP JUMP JUMPDEST PUSH2 0x1985 DUP2 PUSH2 0x1D86 JUMP JUMPDEST DUP3 MSTORE POP POP JUMP JUMPDEST PUSH1 0x0 PUSH2 0x1996 DUP3 PUSH2 0x1C15 JUMP JUMPDEST PUSH2 0x19A0 DUP2 DUP6 PUSH2 0x1C2B JUMP JUMPDEST SWAP4 POP PUSH2 0x19B0 DUP2 DUP6 PUSH1 0x20 DUP7 ADD PUSH2 0x1DD9 JUMP JUMPDEST PUSH2 0x19B9 DUP2 PUSH2 0x1FB7 JUMP JUMPDEST DUP5 ADD SWAP2 POP POP SWAP3 SWAP2 POP POP JUMP JUMPDEST PUSH1 0x0 PUSH2 0x19CF DUP3 PUSH2 0x1C20 JUMP JUMPDEST PUSH2 0x19D9 DUP2 DUP6 PUSH2 0x1C3C JUMP JUMPDEST SWAP4 POP PUSH2 0x19E9 DUP2 DUP6 PUSH1 0x20 DUP7 ADD PUSH2 0x1DD9 JUMP JUMPDEST PUSH2 0x19F2 DUP2 PUSH2 0x1FB7 JUMP JUMPDEST DUP5 ADD SWAP2 POP POP SWAP3 SWAP2 POP POP JUMP JUMPDEST PUSH1 0x0 PUSH2 0x1A0A PUSH1 0x17 DUP4 PUSH2 0x1C3C JUMP JUMPDEST SWAP2 POP PUSH2 0x1A15 DUP3 PUSH2 0x1FC8 JUMP JUMPDEST PUSH1 0x20 DUP3 ADD SWAP1 POP SWAP2 SWAP1 POP JUMP JUMPDEST PUSH1 0x0 PUSH2 0x1A2D PUSH1 0x21 DUP4 PUSH2 0x1C3C JUMP JUMPDEST SWAP2 POP PUSH2 0x1A38 DUP3 PUSH2 0x1FF1 JUMP JUMPDEST PUSH1 0x40 DUP3 ADD SWAP1 POP SWAP2 SWAP1 POP JUMP JUMPDEST PUSH2 0x1A4C DUP2 PUSH2 0x1D92 JUMP JUMPDEST DUP3 MSTORE POP POP JUMP JUMPDEST PUSH2 0x1A5B DUP2 PUSH2 0x1DC0 JUMP JUMPDEST DUP3 MSTORE POP POP JUMP JUMPDEST PUSH1 0x0 PUSH1 0x20 DUP3 ADD SWAP1 POP PUSH2 0x1A76 PUSH1 0x0 DUP4 ADD DUP5 PUSH2 0x196D JUMP JUMPDEST SWAP3 SWAP2 POP POP JUMP JUMPDEST PUSH1 0x0 PUSH1 0x20 DUP3 ADD SWAP1 POP PUSH2 0x1A91 PUSH1 0x0 DUP4 ADD DUP5 PUSH2 0x195E JUMP JUMPDEST SWAP3 SWAP2 POP POP JUMP JUMPDEST PUSH1 0x0 PUSH1 0x20 DUP3 ADD SWAP1 POP PUSH2 0x1AAC PUSH1 0x0 DUP4 ADD DUP5 PUSH2 0x197C JUMP JUMPDEST SWAP3 SWAP2 POP POP JUMP JUMPDEST PUSH1 0x0 PUSH1 0x40 DUP3 ADD SWAP1 POP PUSH2 0x1AC7 PUSH1 0x0 DUP4 ADD DUP6 PUSH2 0x197C JUMP JUMPDEST DUP2 DUP2 SUB PUSH1 0x20 DUP4 ADD MSTORE PUSH2 0x1AD9 DUP2 DUP5 PUSH2 0x198B JUMP JUMPDEST SWAP1 POP SWAP4 SWAP3 POP POP POP JUMP JUMPDEST PUSH1 0x0 PUSH1 0x20 DUP3 ADD SWAP1 POP DUP2 DUP2 SUB PUSH1 0x0 DUP4 ADD MSTORE PUSH2 0x1AFC DUP2 DUP5 PUSH2 0x19C4 JUMP JUMPDEST SWAP1 POP SWAP3 SWAP2 POP POP JUMP JUMPDEST PUSH1 0x0 PUSH1 0x20 DUP3 ADD SWAP1 POP DUP2 DUP2 SUB PUSH1 0x0 DUP4 ADD MSTORE PUSH2 0x1B1D DUP2 PUSH2 0x19FD JUMP JUMPDEST SWAP1 POP SWAP2 SWAP1 POP JUMP JUMPDEST PUSH1 0x0 PUSH1 0x20 DUP3 ADD SWAP1 POP DUP2 DUP2 SUB PUSH1 0x0 DUP4 ADD MSTORE PUSH2 0x1B3D DUP2 PUSH2 0x1A20 JUMP JUMPDEST SWAP1 POP SWAP2 SWAP1 POP JUMP JUMPDEST PUSH1 0x0 PUSH1 0x20 DUP3 ADD SWAP1 POP PUSH2 0x1B59 PUSH1 0x0 DUP4 ADD DUP5 PUSH2 0x1A52 JUMP JUMPDEST SWAP3 SWAP2 POP POP JUMP JUMPDEST PUSH1 0x0 PUSH1 0x40 DUP3 ADD SWAP1 POP PUSH2 0x1B74 PUSH1 0x0 DUP4 ADD DUP6 PUSH2 0x1A52 JUMP JUMPDEST PUSH2 0x1B81 PUSH1 0x20 DUP4 ADD DUP5 PUSH2 0x1A43 JUMP JUMPDEST SWAP4 SWAP3 POP POP POP JUMP JUMPDEST PUSH1 0x0 PUSH1 0x60 DUP3 ADD SWAP1 POP PUSH2 0x1B9D PUSH1 0x0 DUP4 ADD DUP7 PUSH2 0x1A52 JUMP JUMPDEST PUSH2 0x1BAA PUSH1 0x20 DUP4 ADD DUP6 PUSH2 0x1A52 JUMP JUMPDEST PUSH2 0x1BB7 PUSH1 0x40 DUP4 ADD DUP5 PUSH2 0x197C JUMP JUMPDEST SWAP5 SWAP4 POP POP POP POP JUMP JUMPDEST PUSH1 0x0 PUSH2 0x1BC9 PUSH2 0x1BDA JUMP JUMPDEST SWAP1 POP PUSH2 0x1BD5 DUP3 DUP3 PUSH2 0x1E3E JUMP JUMPDEST SWAP2 SWAP1 POP JUMP JUMPDEST PUSH1 0x0 PUSH1 0x40 MLOAD SWAP1 POP SWAP1 JUMP JUMPDEST PUSH1 0x0 PUSH8 0xFFFFFFFFFFFFFFFF DUP3 GT ISZERO PUSH2 0x1BFF JUMPI PUSH2 0x1BFE PUSH2 0x1F74 JUMP JUMPDEST JUMPDEST PUSH2 0x1C08 DUP3 PUSH2 0x1FB7 JUMP JUMPDEST SWAP1 POP PUSH1 0x20 DUP2 ADD SWAP1 POP SWAP2 SWAP1 POP JUMP JUMPDEST PUSH1 0x0 DUP2 MLOAD SWAP1 POP SWAP2 SWAP1 POP JUMP JUMPDEST PUSH1 0x0 DUP2 MLOAD SWAP1 POP SWAP2 SWAP1 POP JUMP JUMPDEST PUSH1 0x0 DUP3 DUP3 MSTORE PUSH1 0x20 DUP3 ADD SWAP1 POP SWAP3 SWAP2 POP POP JUMP JUMPDEST PUSH1 0x0 DUP3 DUP3 MSTORE PUSH1 0x20 DUP3 ADD SWAP1 POP SWAP3 SWAP2 POP POP JUMP JUMPDEST PUSH1 0x0 PUSH2 0x1C58 DUP3 PUSH2 0x1DC0 JUMP JUMPDEST SWAP2 POP PUSH2 0x1C63 DUP4 PUSH2 0x1DC0 JUMP JUMPDEST SWAP3 POP DUP3 PUSH32 0xFFFFFFFFFFFFFFFFFFFFFFFFFFFFFFFFFFFFFFFFFFFFFFFFFFFFFFFFFFFFFFFF SUB DUP3 GT ISZERO PUSH2 0x1C98 JUMPI PUSH2 0x1C97 PUSH2 0x1EB8 JUMP JUMPDEST JUMPDEST DUP3 DUP3 ADD SWAP1 POP SWAP3 SWAP2 POP POP JUMP JUMPDEST PUSH1 0x0 PUSH2 0x1CAE DUP3 PUSH2 0x1DC0 JUMP JUMPDEST SWAP2 POP PUSH2 0x1CB9 DUP4 PUSH2 0x1DC0 JUMP JUMPDEST SWAP3 POP DUP3 PUSH2 0x1CC9 JUMPI PUSH2 0x1CC8 PUSH2 0x1EE7 JUMP JUMPDEST JUMPDEST DUP3 DUP3 DIV SWAP1 POP SWAP3 SWAP2 POP POP JUMP JUMPDEST PUSH1 0x0 PUSH2 0x1CDF DUP3 PUSH2 0x1DC0 JUMP JUMPDEST SWAP2 POP PUSH2 0x1CEA DUP4 PUSH2 0x1DC0 JUMP JUMPDEST SWAP3 POP DUP2 PUSH32 0xFFFFFFFFFFFFFFFFFFFFFFFFFFFFFFFFFFFFFFFFFFFFFFFFFFFFFFFFFFFFFFFF DIV DUP4 GT DUP3 ISZERO ISZERO AND ISZERO PUSH2 0x1D23 JUMPI PUSH2 0x1D22 PUSH2 0x1EB8 JUMP JUMPDEST JUMPDEST DUP3 DUP3 MUL SWAP1 POP SWAP3 SWAP2 POP POP JUMP JUMPDEST PUSH1 0x0 PUSH2 0x1D39 DUP3 PUSH2 0x1DC0 JUMP JUMPDEST SWAP2 POP PUSH2 0x1D44 DUP4 PUSH2 0x1DC0 JUMP JUMPDEST SWAP3 POP DUP3 DUP3 LT ISZERO PUSH2 0x1D57 JUMPI PUSH2 0x1D56 PUSH2 0x1EB8 JUMP JUMPDEST JUMPDEST DUP3 DUP3 SUB SWAP1 POP SWAP3 SWAP2 POP POP JUMP JUMPDEST PUSH1 0x0 PUSH2 0x1D6D DUP3 PUSH2 0x1DA0 JUMP JUMPDEST SWAP1 POP SWAP2 SWAP1 POP JUMP JUMPDEST PUSH1 0x0 PUSH2 0x1D7F DUP3 PUSH2 0x1DA0 JUMP JUMPDEST SWAP1 POP SWAP2 SWAP1 POP JUMP JUMPDEST PUSH1 0x0 DUP2 ISZERO ISZERO SWAP1 POP SWAP2 SWAP1 POP JUMP JUMPDEST PUSH1 0x0 PUSH2 0xFFFF DUP3 AND SWAP1 POP SWAP2 SWAP1 POP JUMP JUMPDEST PUSH1 0x0 PUSH20 0xFFFFFFFFFFFFFFFFFFFFFFFFFFFFFFFFFFFFFFFF DUP3 AND SWAP1 POP SWAP2 SWAP1 POP JUMP JUMPDEST PUSH1 0x0 DUP2 SWAP1 POP SWAP2 SWAP1 POP JUMP JUMPDEST DUP3 DUP2 DUP4 CALLDATACOPY PUSH1 0x0 DUP4 DUP4 ADD MSTORE POP POP POP JUMP JUMPDEST PUSH1 0x0 JUMPDEST DUP4 DUP2 LT ISZERO PUSH2 0x1DF7 JUMPI DUP1 DUP3 ADD MLOAD DUP2 DUP5 ADD MSTORE PUSH1 0x20 DUP2 ADD SWAP1 POP PUSH2 0x1DDC JUMP JUMPDEST DUP4 DUP2 GT ISZERO PUSH2 0x1E06 JUMPI PUSH1 0x0 DUP5 DUP5 ADD MSTORE JUMPDEST POP POP POP POP JUMP JUMPDEST PUSH1 0x0 PUSH1 0x2 DUP3 DIV SWAP1 POP PUSH1 0x1 DUP3 AND DUP1 PUSH2 0x1E24 JUMPI PUSH1 0x7F DUP3 AND SWAP2 POP JUMPDEST PUSH1 0x20 DUP3 LT DUP2 EQ ISZERO PUSH2 0x1E38 JUMPI PUSH2 0x1E37 PUSH2 0x1F16 JUMP JUMPDEST JUMPDEST POP SWAP2 SWAP1 POP JUMP JUMPDEST PUSH2 0x1E47 DUP3 PUSH2 0x1FB7 JUMP JUMPDEST DUP2 ADD DUP2 DUP2 LT PUSH8 0xFFFFFFFFFFFFFFFF DUP3 GT OR ISZERO PUSH2 0x1E66 JUMPI PUSH2 0x1E65 PUSH2 0x1F74 JUMP JUMPDEST JUMPDEST DUP1 PUSH1 0x40 MSTORE POP POP POP JUMP JUMPDEST PUSH1 0x0 PUSH2 0x1E7A DUP3 PUSH2 0x1DC0 JUMP JUMPDEST SWAP2 POP PUSH32 0xFFFFFFFFFFFFFFFFFFFFFFFFFFFFFFFFFFFFFFFFFFFFFFFFFFFFFFFFFFFFFFFF DUP3 EQ ISZERO PUSH2 0x1EAD JUMPI PUSH2 0x1EAC PUSH2 0x1EB8 JUMP JUMPDEST JUMPDEST PUSH1 0x1 DUP3 ADD SWAP1 POP SWAP2 SWAP1 POP JUMP JUMPDEST PUSH32 0x4E487B7100000000000000000000000000000000000000000000000000000000 PUSH1 0x0 MSTORE PUSH1 0x11 PUSH1 0x4 MSTORE PUSH1 0x24 PUSH1 0x0 REVERT JUMPDEST PUSH32 0x4E487B7100000000000000000000000000000000000000000000000000000000 PUSH1 0x0 MSTORE PUSH1 0x12 PUSH1 0x4 MSTORE PUSH1 0x24 PUSH1 0x0 REVERT JUMPDEST PUSH32 0x4E487B7100000000000000000000000000000000000000000000000000000000 PUSH1 0x0 MSTORE PUSH1 0x22 PUSH1 0x4 MSTORE PUSH1 0x24 PUSH1 0x0 REVERT JUMPDEST PUSH32 0x4E487B7100000000000000000000000000000000000000000000000000000000 PUSH1 0x0 MSTORE PUSH1 0x32 PUSH1 0x4 MSTORE PUSH1 0x24 PUSH1 0x0 REVERT JUMPDEST PUSH32 0x4E487B7100000000000000000000000000000000000000000000000000000000 PUSH1 0x0 MSTORE PUSH1 0x41 PUSH1 0x4 MSTORE PUSH1 0x24 PUSH1 0x0 REVERT JUMPDEST PUSH1 0x0 DUP1 REVERT JUMPDEST PUSH1 0x0 DUP1 REVERT JUMPDEST PUSH1 0x0 DUP1 REVERT JUMPDEST PUSH1 0x0 DUP1 REVERT JUMPDEST PUSH1 0x0 PUSH1 0x1F NOT PUSH1 0x1F DUP4 ADD AND SWAP1 POP SWAP2 SWAP1 POP JUMP JUMPDEST PUSH32 0x496E73756666696369656E742062657420616D6F756E74000000000000000000 PUSH1 0x0 DUP3 ADD MSTORE POP JUMP JUMPDEST PUSH32 0x4F6E6C792061646D696E2063616E2063616C6C20746869732066756E6374696F PUSH1 0x0 DUP3 ADD MSTORE PUSH32 0x6E00000000000000000000000000000000000000000000000000000000000000 PUSH1 0x20 DUP3 ADD MSTORE POP JUMP JUMPDEST PUSH2 0x2049 DUP2 PUSH2 0x1D62 JUMP JUMPDEST DUP2 EQ PUSH2 0x2054 JUMPI PUSH1 0x0 DUP1 REVERT JUMPDEST POP JUMP JUMPDEST PUSH2 0x2060 DUP2 PUSH2 0x1D92 JUMP JUMPDEST DUP2 EQ PUSH2 0x206B JUMPI PUSH1 0x0 DUP1 REVERT JUMPDEST POP JUMP JUMPDEST PUSH2 0x2077 DUP2 PUSH2 0x1DC0 JUMP JUMPDEST DUP2 EQ PUSH2 0x2082 JUMPI PUSH1 0x0 DUP1 REVERT JUMPDEST POP JUMP INVALID LOG2 PUSH5 0x6970667358 0x22 SLT KECCAK256 0xC5 0x26 PC PUSH16 0x16AC3398C763E1A3C6D79B2516C0A7CA DUP8 0xA8 0xCD 0xD0 0xF 0xA6 EXP 0x5C SWAP11 SLT DUP8 STATICCALL PUSH5 0x736F6C6343 STOP ADDMOD SMOD STOP CALLER "},"gasEstimates":{"creation":{"codeDepositCost":"1675800","executionCost":"infinite","totalCost":"infinite"},"external":{"AmountOne()":"2548","AmountTwo()":"2460","betOnOption1()":"infinite","betOnOption2()":"infinite","checkExecuteReady()":"infinite","checkPlayerExists(address)":"infinite","gameDescription()":"infinite","gameFinished()":"2587","getAdmin()":"2589","getCommissionRatio()":"2569","getEntranceFee()":"2461","getGameFinished()":"2641","getMatchDateTimestamp()":"2460","getNumberOfPlayers()":"2555","getOption1LeagueName()":"infinite","getOption1Name()":"infinite","getOption2LeagueName()":"infinite","getOption2Name()":"infinite","getPlayerInfo(uint256)":"5011","getStartTimestamp()":"2527","performExecute(uint16)":"infinite","playerInfo(address)":"5215","players(uint256)":"5044","reopenGame(string,string,string,uint256)":"infinite"},"internal":{"distributePrizes(uint16)":"infinite"}},"methodIdentifiers":{"AmountOne()":"4996d51d","AmountTwo()":"65733592","betOnOption1()":"0ca74040","betOnOption2()":"c8539808","checkExecuteReady()":"676f6474","checkPlayerExists(address)":"4081d916","gameDescription()":"8b5d691c","gameFinished()":"f0f32497","getAdmin()":"6e9960c3","getCommissionRatio()":"fdbe6667","getEntranceFee()":"09bc33a7","getGameFinished()":"27f0cbc0","getMatchDateTimestamp()":"2b74e9bd","getNumberOfPlayers()":"fd6673f5","getOption1LeagueName()":"1385f1a9","getOption1Name()":"2aae3630","getOption2LeagueName()":"2f9f65f6","getOption2Name()":"7dc6e841","getPlayerInfo(uint256)":"ea17532e","getStartTimestamp()":"1f89f25e","performExecute(uint16)":"3ca53bba","playerInfo(address)":"4b114691","players(uint256)":"f71d96cb","reopenGame(string,string,string,uint256)":"d4dbdc32"}},"storageLayout":{"storage":[{"astId":330,"contract":"contracts/BinaryBet.sol:Betting","label":"minimumBet","offset":0,"slot":"0","type":"t_uint256"},{"astId":332,"contract":"contracts/BinaryBet.sol:Betting","label":"totalBetOne","offset":0,"slot":"1","type":"t_uint256"},{"astId":334,"contract":"contracts/BinaryBet.sol:Betting","label":"totalBetTwo","offset":0,"slot":"2","type":"t_uint256"},{"astId":336,"contract":"contracts/BinaryBet.sol:Betting","label":"startTimestamp","offset":0,"slot":"3","type":"t_uint256"},{"astId":338,"contract":"contracts/BinaryBet.sol:Betting","label":"matchDateTimestamp","offset":0,"slot":"4","type":"t_uint256"},{"astId":340,"contract":"contracts/BinaryBet.sol:Betting","label":"owner","offset":0,"slot":"5","type":"t_address_payable"},{"astId":342,"contract":"contracts/BinaryBet.sol:Betting","label":"admin","offset":0,"slot":"6","type":"t_address"},{"astId":344,"contract":"contracts/BinaryBet.sol:Betting","label":"gameFinished","offset":20,"slot":"6","type":"t_bool"},{"astId":346,"contract":"contracts/BinaryBet.sol:Betting","label":"gameDescription","offset":0,"slot":"7","type":"t_string_storage"},{"astId":348,"contract":"contracts/BinaryBet.sol:Betting","label":"option1Name","offset":0,"slot":"8","type":"t_string_storage"},{"astId":350,"contract":"contracts/BinaryBet.sol:Betting","label":"option2Name","offset":0,"slot":"9","type":"t_string_storage"},{"astId":352,"contract":"contracts/BinaryBet.sol:Betting","label":"option1LeagueName","offset":0,"slot":"10","type":"t_string_storage"},{"astId":354,"contract":"contracts/BinaryBet.sol:Betting","label":"option2LeagueName","offset":0,"slot":"11","type":"t_string_storage"},{"astId":364,"contract":"contracts/BinaryBet.sol:Betting","label":"playerInfo","offset":0,"slot":"12","type":"t_mapping(t_address,t_struct(Player)359_storage)"},{"astId":367,"contract":"contracts/BinaryBet.sol:Betting","label":"players","offset":0,"slot":"13","type":"t_array(t_address_payable)dyn_storage"},{"astId":370,"contract":"contracts/BinaryBet.sol:Betting","label":"winners","offset":0,"slot":"14","type":"t_array(t_address_payable)dyn_storage"},{"astId":373,"contract":"contracts/BinaryBet.sol:Betting","label":"commission","offset":0,"slot":"15","type":"t_uint256"}],"types":{"t_address":{"encoding":"inplace","label":"address","numberOfBytes":"20"},"t_address_payable":{"encoding":"inplace","label":"address payable","numberOfBytes":"20"},"t_array(t_address_payable)dyn_storage":{"base":"t_address_payable","encoding":"dynamic_array","label":"address payable[]","numberOfBytes":"32"},"t_bool":{"encoding":"inplace","label":"bool","numberOfBytes":"1"},"t_mapping(t_address,t_struct(Player)359_storage)":{"encoding":"mapping","key":"t_address","label":"mapping(address => struct Betting.Player)","numberOfBytes":"32","value":"t_struct(Player)359_storage"},"t_string_storage":{"encoding":"bytes","label":"string","numberOfBytes":"32"},"t_struct(Player)359_storage":{"encoding":"inplace","label":"struct Betting.Player","members":[{"astId":356,"contract":"contracts/BinaryBet.sol:Betting","label":"amountBet","offset":0,"slot":"0","type":"t_uint256"},{"astId":358,"contract":"contracts/BinaryBet.sol:Betting","label":"teamSelected","offset":0,"slot":"1","type":"t_uint16"}],"numberOfBytes":"64"},"t_uint16":{"encoding":"inplace","label":"uint16","numberOfBytes":"2"},"t_uint256":{"encoding":"inplace","label":"uint256","numberOfBytes":"32"}}},"userdoc":{"kind":"user","methods":{"getAdmin()":{"notice":"Getter Functions "}},"notice":"This contract is for creating a sample betting contract","version":1}}}}