{"contracts/BinaryBet.sol":{"Betting":{"abi":[{"inputs":[{"internalType":"string","name":"_gameDescription","type":"string"},{"internalType":"string","name":"_option1Name","type":"string"},{"internalType":"string","name":"_option2Name","type":"string"},{"internalType":"string","name":"_option1LeagueName","type":"string"},{"internalType":"string","name":"_option2LeagueName","type":"string"},{"internalType":"uint256","name":"_matchDateTimestamp","type":"uint256"},{"internalType":"uint256","name":"entranceFee","type":"uint256"}],"stateMutability":"nonpayable","type":"constructor"},{"inputs":[{"internalType":"uint256","name":"currentBalance","type":"uint256"},{"internalType":"uint256","name":"numPlayers","type":"uint256"},{"internalType":"bool","name":"gameFinished","type":"bool"}],"name":"Betting__ExecuteNotNeeded","type":"error"},{"anonymous":false,"inputs":[{"indexed":true,"internalType":"address","name":"player","type":"address"}],"name":"BettingEnter","type":"event"},{"inputs":[],"name":"AmountOne","outputs":[{"internalType":"uint256","name":"","type":"uint256"}],"stateMutability":"view","type":"function"},{"inputs":[],"name":"AmountTwo","outputs":[{"internalType":"uint256","name":"","type":"uint256"}],"stateMutability":"view","type":"function"},{"inputs":[],"name":"betOnOption1","outputs":[],"stateMutability":"payable","type":"function"},{"inputs":[],"name":"betOnOption2","outputs":[],"stateMutability":"payable","type":"function"},{"inputs":[],"name":"checkExecuteReady","outputs":[{"internalType":"bool","name":"readyToExecute","type":"bool"},{"internalType":"bytes","name":"","type":"bytes"}],"stateMutability":"view","type":"function"},{"inputs":[{"internalType":"address","name":"player","type":"address"}],"name":"checkPlayerExists","outputs":[{"internalType":"bool","name":"","type":"bool"}],"stateMutability":"view","type":"function"},{"inputs":[],"name":"gameDescription","outputs":[{"internalType":"string","name":"","type":"string"}],"stateMutability":"view","type":"function"},{"inputs":[],"name":"gameFinished","outputs":[{"internalType":"bool","name":"","type":"bool"}],"stateMutability":"view","type":"function"},{"inputs":[],"name":"getAdmin","outputs":[{"internalType":"address","name":"","type":"address"}],"stateMutability":"view","type":"function"},{"inputs":[],"name":"getCommissionRatio","outputs":[{"internalType":"uint256","name":"","type":"uint256"}],"stateMutability":"view","type":"function"},{"inputs":[],"name":"getEntranceFee","outputs":[{"internalType":"uint256","name":"","type":"uint256"}],"stateMutability":"view","type":"function"},{"inputs":[],"name":"getGameFinished","outputs":[{"internalType":"bool","name":"","type":"bool"}],"stateMutability":"view","type":"function"},{"inputs":[],"name":"getMatchDateTimestamp","outputs":[{"internalType":"uint256","name":"","type":"uint256"}],"stateMutability":"view","type":"function"},{"inputs":[],"name":"getNumberOfPlayers","outputs":[{"internalType":"uint256","name":"","type":"uint256"}],"stateMutability":"view","type":"function"},{"inputs":[],"name":"getOption1LeagueName","outputs":[{"internalType":"string","name":"","type":"string"}],"stateMutability":"view","type":"function"},{"inputs":[],"name":"getOption1Name","outputs":[{"internalType":"string","name":"","type":"string"}],"stateMutability":"view","type":"function"},{"inputs":[],"name":"getOption2LeagueName","outputs":[{"internalType":"string","name":"","type":"string"}],"stateMutability":"view","type":"function"},{"inputs":[],"name":"getOption2Name","outputs":[{"internalType":"string","name":"","type":"string"}],"stateMutability":"view","type":"function"},{"inputs":[{"internalType":"uint256","name":"index","type":"uint256"}],"name":"getPlayerInfo","outputs":[{"internalType":"address","name":"","type":"address"}],"stateMutability":"view","type":"function"},{"inputs":[],"name":"getStartTimestamp","outputs":[{"internalType":"uint256","name":"","type":"uint256"}],"stateMutability":"view","type":"function"},{"inputs":[{"internalType":"uint16","name":"oraclemsg","type":"uint16"}],"name":"performExecute","outputs":[],"stateMutability":"nonpayable","type":"function"},{"inputs":[{"internalType":"address","name":"","type":"address"}],"name":"playerInfo","outputs":[{"internalType":"uint256","name":"amountBet","type":"uint256"},{"internalType":"uint16","name":"teamSelected","type":"uint16"}],"stateMutability":"view","type":"function"},{"inputs":[{"internalType":"uint256","name":"","type":"uint256"}],"name":"players","outputs":[{"internalType":"address payable","name":"","type":"address"}],"stateMutability":"view","type":"function"},{"inputs":[{"internalType":"string","name":"_gameDescription","type":"string"},{"internalType":"string","name":"_option1Name","type":"string"},{"internalType":"string","name":"_option1LeagueName","type":"string"},{"internalType":"string","name":"_option2Name","type":"string"},{"internalType":"string","name":"_option2LeagueName","type":"string"},{"internalType":"uint256","name":"_matchDateTimestamp","type":"uint256"}],"name":"reopenGame","outputs":[],"stateMutability":"nonpayable","type":"function"}],"devdoc":{"author":"Yakou Hikoichi","kind":"dev","methods":{"checkExecuteReady()":{"details":"This is the function whether the execution of betting is ready or not they look for `readyToExecute` to return True. the following should be true for this to return true: 1. The time interval has passed between betting runs. 2. The Game is open. 3. The contract has ETH."},"performExecute(uint16)":{"details":"Once `checkExecuteReady` is returning `true`, this function is called and it kicks off the winner."}},"title":"A sample Betting Contract","version":1},"evm":{"bytecode":{"linkReferences":{},"object":"60806040526005600f553480156200001657600080fd5b5060405162002aa138038062002aa183398181016040528101906200003c919062000345565b806000819055506000600660146101000a81548160ff021916908315150217905550426003819055508160048190555033600660006101000a81548173ffffffffffffffffffffffffffffffffffffffff021916908373ffffffffffffffffffffffffffffffffffffffff1602179055508660079081620000be9190620006d4565b508560089081620000d09190620006d4565b508460099081620000e29190620006d4565b5083600a9081620000f49190620006d4565b5082600b9081620001069190620006d4565b50600660009054906101000a900473ffffffffffffffffffffffffffffffffffffffff16600560006101000a81548173ffffffffffffffffffffffffffffffffffffffff021916908373ffffffffffffffffffffffffffffffffffffffff16021790555050505050505050620007bb565b6000604051905090565b600080fd5b600080fd5b600080fd5b600080fd5b6000601f19601f8301169050919050565b7f4e487b7100000000000000000000000000000000000000000000000000000000600052604160045260246000fd5b620001e08262000195565b810181811067ffffffffffffffff82111715620002025762000201620001a6565b5b80604052505050565b60006200021762000177565b9050620002258282620001d5565b919050565b600067ffffffffffffffff821115620002485762000247620001a6565b5b620002538262000195565b9050602081019050919050565b60005b838110156200028057808201518184015260208101905062000263565b60008484015250505050565b6000620002a36200029d846200022a565b6200020b565b905082815260208101848484011115620002c257620002c162000190565b5b620002cf84828562000260565b509392505050565b600082601f830112620002ef57620002ee6200018b565b5b8151620003018482602086016200028c565b91505092915050565b6000819050919050565b6200031f816200030a565b81146200032b57600080fd5b50565b6000815190506200033f8162000314565b92915050565b600080600080600080600060e0888a03121562000367576200036662000181565b5b600088015167ffffffffffffffff81111562000388576200038762000186565b5b620003968a828b01620002d7565b975050602088015167ffffffffffffffff811115620003ba57620003b962000186565b5b620003c88a828b01620002d7565b965050604088015167ffffffffffffffff811115620003ec57620003eb62000186565b5b620003fa8a828b01620002d7565b955050606088015167ffffffffffffffff8111156200041e576200041d62000186565b5b6200042c8a828b01620002d7565b945050608088015167ffffffffffffffff81111562000450576200044f62000186565b5b6200045e8a828b01620002d7565b93505060a0620004718a828b016200032e565b92505060c0620004848a828b016200032e565b91505092959891949750929550565b600081519050919050565b7f4e487b7100000000000000000000000000000000000000000000000000000000600052602260045260246000fd5b60006002820490506001821680620004e657607f821691505b602082108103620004fc57620004fb6200049e565b5b50919050565b60008190508160005260206000209050919050565b60006020601f8301049050919050565b600082821b905092915050565b600060088302620005667fffffffffffffffffffffffffffffffffffffffffffffffffffffffffffffffff8262000527565b62000572868362000527565b95508019841693508086168417925050509392505050565b6000819050919050565b6000620005b5620005af620005a9846200030a565b6200058a565b6200030a565b9050919050565b6000819050919050565b620005d18362000594565b620005e9620005e082620005bc565b84845462000534565b825550505050565b600090565b62000600620005f1565b6200060d818484620005c6565b505050565b5b81811015620006355762000629600082620005f6565b60018101905062000613565b5050565b601f82111562000684576200064e8162000502565b620006598462000517565b8101602085101562000669578190505b62000681620006788562000517565b83018262000612565b50505b505050565b600082821c905092915050565b6000620006a96000198460080262000689565b1980831691505092915050565b6000620006c4838362000696565b9150826002028217905092915050565b620006df8262000493565b67ffffffffffffffff811115620006fb57620006fa620001a6565b5b620007078254620004cd565b6200071482828562000639565b600060209050601f8311600181146200074c576000841562000737578287015190505b620007438582620006b6565b865550620007b3565b601f1984166200075c8662000502565b60005b8281101562000786578489015182556001820191506020850194506020810190506200075f565b86831015620007a65784890151620007a2601f89168262000696565b8355505b6001600288020188555050505b505050505050565b6122d680620007cb6000396000f3fe60806040526004361061014b5760003560e01c806365733592116100b6578063c85398081161006f578063c853980814610457578063ea17532e14610461578063f0f324971461049e578063f71d96cb146104c9578063fd6673f514610506578063fdbe6667146105315761014b565b80636573359214610356578063676f6474146103815780636e9960c3146103ad578063777cd247146103d85780637dc6e841146104015780638b5d691c1461042c5761014b565b80632b74e9bd116101085780632b74e9bd146102315780632f9f65f61461025c5780633ca53bba146102875780634081d916146102b05780634996d51d146102ed5780634b114691146103185761014b565b806309bc33a7146101505780630ca740401461017b5780631385f1a9146101855780631f89f25e146101b057806327f0cbc0146101db5780632aae363014610206575b600080fd5b34801561015c57600080fd5b5061016561055c565b604051610172919061170a565b60405180910390f35b610183610565565b005b34801561019157600080fd5b5061019a610762565b6040516101a791906117b5565b60405180910390f35b3480156101bc57600080fd5b506101c56107f4565b6040516101d2919061170a565b60405180910390f35b3480156101e757600080fd5b506101f06107fe565b6040516101fd91906117f2565b60405180910390f35b34801561021257600080fd5b5061021b610815565b60405161022891906117b5565b60405180910390f35b34801561023d57600080fd5b506102466108a7565b604051610253919061170a565b60405180910390f35b34801561026857600080fd5b506102716108b1565b60405161027e91906117b5565b60405180910390f35b34801561029357600080fd5b506102ae60048036038101906102a9919061185b565b610943565b005b3480156102bc57600080fd5b506102d760048036038101906102d291906118e6565b610a47565b6040516102e491906117f2565b60405180910390f35b3480156102f957600080fd5b50610302610af8565b60405161030f919061170a565b60405180910390f35b34801561032457600080fd5b5061033f600480360381019061033a91906118e6565b610b02565b60405161034d929190611922565b60405180910390f35b34801561036257600080fd5b5061036b610b34565b604051610378919061170a565b60405180910390f35b34801561038d57600080fd5b50610396610b3e565b6040516103a49291906119a0565b60405180910390f35b3480156103b957600080fd5b506103c2610be4565b6040516103cf91906119df565b60405180910390f35b3480156103e457600080fd5b506103ff60048036038101906103fa9190611b5b565b610c0e565b005b34801561040d57600080fd5b50610416610d7f565b60405161042391906117b5565b60405180910390f35b34801561043857600080fd5b50610441610e11565b60405161044e91906117b5565b60405180910390f35b61045f610e9f565b005b34801561046d57600080fd5b5061048860048036038101906104839190611c74565b61109c565b60405161049591906119df565b60405180910390f35b3480156104aa57600080fd5b506104b36110e4565b6040516104c091906117f2565b60405180910390f35b3480156104d557600080fd5b506104f060048036038101906104eb9190611c74565b6110f7565b6040516104fd9190611cc2565b60405180910390f35b34801561051257600080fd5b5061051b611136565b604051610528919061170a565b60405180910390f35b34801561053d57600080fd5b50610546611143565b604051610553919061170a565b60405180910390f35b60008054905090565b61056e33610a47565b1561057857600080fd5b600660149054906101000a900460ff161561059257600080fd5b6000543410156105d7576040517f08c379a00000000000000000000000000000000000000000000000000000000081526004016105ce90611d29565b60405180910390fd5b34600c60003373ffffffffffffffffffffffffffffffffffffffff1673ffffffffffffffffffffffffffffffffffffffff168152602001908152602001600020600001819055506001600c60003373ffffffffffffffffffffffffffffffffffffffff1673ffffffffffffffffffffffffffffffffffffffff16815260200190815260200160002060010160006101000a81548161ffff021916908361ffff160217905550600d339080600181540180825580915050600190039060005260206000200160009091909190916101000a81548173ffffffffffffffffffffffffffffffffffffffff021916908373ffffffffffffffffffffffffffffffffffffffff1602179055506064600f5460646106f09190611d78565b346106fb9190611dac565b6107059190611e1d565b600160008282546107169190611e4e565b925050819055503373ffffffffffffffffffffffffffffffffffffffff167f7f47e4b864ee52d8ca461d379020be7e99ae801a152dde71193bdc651da8a7c060405160405180910390a2565b6060600a805461077190611eb1565b80601f016020809104026020016040519081016040528092919081815260200182805461079d90611eb1565b80156107ea5780601f106107bf576101008083540402835291602001916107ea565b820191906000526020600020905b8154815290600101906020018083116107cd57829003601f168201915b5050505050905090565b6000600354905090565b6000600660149054906101000a900460ff16905090565b60606008805461082490611eb1565b80601f016020809104026020016040519081016040528092919081815260200182805461085090611eb1565b801561089d5780601f106108725761010080835404028352916020019161089d565b820191906000526020600020905b81548152906001019060200180831161088057829003601f168201915b5050505050905090565b6000600454905090565b6060600b80546108c090611eb1565b80601f01602080910402602001604051908101604052809291908181526020018280546108ec90611eb1565b80156109395780601f1061090e57610100808354040283529160200191610939565b820191906000526020600020905b81548152906001019060200180831161091c57829003601f168201915b5050505050905090565b600660009054906101000a900473ffffffffffffffffffffffffffffffffffffffff1673ffffffffffffffffffffffffffffffffffffffff163373ffffffffffffffffffffffffffffffffffffffff16146109d3576040517f08c379a00000000000000000000000000000000000000000000000000000000081526004016109ca90611f54565b60405180910390fd5b60006109dd610b3e565b50905080610a3a5747600d80549050600660149054906101000a900460ff166040517f0f724954000000000000000000000000000000000000000000000000000000008152600401610a3193929190611f74565b60405180910390fd5b610a438261114d565b5050565b600080600d80549050905060005b81811015610aec578373ffffffffffffffffffffffffffffffffffffffff16600d8281548110610a8857610a87611fab565b5b9060005260206000200160009054906101000a900473ffffffffffffffffffffffffffffffffffffffff1673ffffffffffffffffffffffffffffffffffffffff1603610ad957600192505050610af3565b8080610ae490611fda565b915050610a55565b5060009150505b919050565b6000600154905090565b600c6020528060005260406000206000915090508060000154908060010160009054906101000a900461ffff16905082565b6000600254905090565b600060606000801515600660149054906101000a900460ff16151514905060008060045442610b6d9190611d78565b119050600080600d8054905011905060008047119050828015610b8d5750835b8015610b965750805b8015610b9f5750815b9550856040518060400160405280600381526020017f307830000000000000000000000000000000000000000000000000000000000081525095509550505050509091565b6000600660009054906101000a900473ffffffffffffffffffffffffffffffffffffffff16905090565b600660009054906101000a900473ffffffffffffffffffffffffffffffffffffffff1673ffffffffffffffffffffffffffffffffffffffff163373ffffffffffffffffffffffffffffffffffffffff1614610c9e576040517f08c379a0000000000000000000000000000000000000000000000000000000008152600401610c9590611f54565b60405180910390fd5b6000600660146101000a81548160ff0219169083151502179055508560079081610cc891906121ce565b508460089081610cd891906121ce565b5083600a9081610ce891906121ce565b508260099081610cf891906121ce565b5081600b9081610d0891906121ce565b5080600481905550600067ffffffffffffffff811115610d2b57610d2a611a04565b5b604051908082528060200260200182016040528015610d595781602001602082028036833780820191505090505b50600d9080519060200190610d6f929190611629565b5042600381905550505050505050565b606060098054610d8e90611eb1565b80601f0160208091040260200160405190810160405280929190818152602001828054610dba90611eb1565b8015610e075780601f10610ddc57610100808354040283529160200191610e07565b820191906000526020600020905b815481529060010190602001808311610dea57829003601f168201915b5050505050905090565b60078054610e1e90611eb1565b80601f0160208091040260200160405190810160405280929190818152602001828054610e4a90611eb1565b8015610e975780601f10610e6c57610100808354040283529160200191610e97565b820191906000526020600020905b815481529060010190602001808311610e7a57829003601f168201915b505050505081565b610ea833610a47565b15610eb257600080fd5b600660149054906101000a900460ff1615610ecc57600080fd5b600054341015610f11576040517f08c379a0000000000000000000000000000000000000000000000000000000008152600401610f0890611d29565b60405180910390fd5b34600c60003373ffffffffffffffffffffffffffffffffffffffff1673ffffffffffffffffffffffffffffffffffffffff168152602001908152602001600020600001819055506002600c60003373ffffffffffffffffffffffffffffffffffffffff1673ffffffffffffffffffffffffffffffffffffffff16815260200190815260200160002060010160006101000a81548161ffff021916908361ffff160217905550600d339080600181540180825580915050600190039060005260206000200160009091909190916101000a81548173ffffffffffffffffffffffffffffffffffffffff021916908373ffffffffffffffffffffffffffffffffffffffff1602179055506064600f54606461102a9190611d78565b346110359190611dac565b61103f9190611e1d565b600260008282546110509190611e4e565b925050819055503373ffffffffffffffffffffffffffffffffffffffff167f7f47e4b864ee52d8ca461d379020be7e99ae801a152dde71193bdc651da8a7c060405160405180910390a2565b6000600d82815481106110b2576110b1611fab565b5b9060005260206000200160009054906101000a900473ffffffffffffffffffffffffffffffffffffffff169050919050565b600660149054906101000a900460ff1681565b600d818154811061110757600080fd5b906000526020600020016000915054906101000a900473ffffffffffffffffffffffffffffffffffffffff1681565b6000600d80549050905090565b6000600f54905090565b600660009054906101000a900473ffffffffffffffffffffffffffffffffffffffff1673ffffffffffffffffffffffffffffffffffffffff163373ffffffffffffffffffffffffffffffffffffffff16146111dd576040517f08c379a00000000000000000000000000000000000000000000000000000000081526004016111d490611f54565b60405180910390fd5b600080600080600080600090505b600d8054905081101561130f57600d818154811061120c5761120b611fab565b5b9060005260206000200160009054906101000a900473ffffffffffffffffffffffffffffffffffffffff1691508661ffff16600c60008473ffffffffffffffffffffffffffffffffffffffff1673ffffffffffffffffffffffffffffffffffffffff16815260200190815260200160002060010160009054906101000a900461ffff1661ffff16036112fc57600e829080600181540180825580915050600190039060005260206000200160009091909190916101000a81548173ffffffffffffffffffffffffffffffffffffffff021916908373ffffffffffffffffffffffffffffffffffffffff1602179055505b808061130790611fda565b9150506111eb565b5060018661ffff160361132b5760025494506001549350611336565b600154945060025493505b60005b600e805490508110156114a757600e818154811061135a57611359611fab565b5b9060005260206000200160009054906101000a900473ffffffffffffffffffffffffffffffffffffffff169350600c60008573ffffffffffffffffffffffffffffffffffffffff1673ffffffffffffffffffffffffffffffffffffffff168152602001908152602001600020600001549250600061271086612710896113e09190611dac565b6113ea9190611e1d565b6127106113f79190611e4e565b856114029190611dac565b61140c9190611e1d565b9050600e828154811061142257611421611fab565b5b9060005260206000200160009054906101000a900473ffffffffffffffffffffffffffffffffffffffff1673ffffffffffffffffffffffffffffffffffffffff166108fc829081150290604051600060405180830381858888f19350505050158015611492573d6000803e3d6000fd5b5050808061149f90611fda565b915050611339565b50600560009054906101000a900473ffffffffffffffffffffffffffffffffffffffff1673ffffffffffffffffffffffffffffffffffffffff166108fc479081150290604051600060405180830381858888f19350505050158015611510573d6000803e3d6000fd5b506001600660146101000a81548160ff02191690831515021790555060005b600d805490508110156115ec57600c6000600d838154811061155457611553611fab565b5b9060005260206000200160009054906101000a900473ffffffffffffffffffffffffffffffffffffffff1673ffffffffffffffffffffffffffffffffffffffff1673ffffffffffffffffffffffffffffffffffffffff1681526020019081526020016000206000808201600090556001820160006101000a81549061ffff0219169055505080806115e490611fda565b91505061152f565b50600d60006115fb91906116b3565b600e600061160991906116b3565b600094506000935060006001819055506000600281905550505050505050565b8280548282559060005260206000209081019282156116a2579160200282015b828111156116a15782518260006101000a81548173ffffffffffffffffffffffffffffffffffffffff021916908373ffffffffffffffffffffffffffffffffffffffff16021790555091602001919060010190611649565b5b5090506116af91906116d4565b5090565b50805460008255906000526020600020908101906116d191906116d4565b50565b5b808211156116ed5760008160009055506001016116d5565b5090565b6000819050919050565b611704816116f1565b82525050565b600060208201905061171f60008301846116fb565b92915050565b600081519050919050565b600082825260208201905092915050565b60005b8381101561175f578082015181840152602081019050611744565b60008484015250505050565b6000601f19601f8301169050919050565b600061178782611725565b6117918185611730565b93506117a1818560208601611741565b6117aa8161176b565b840191505092915050565b600060208201905081810360008301526117cf818461177c565b905092915050565b60008115159050919050565b6117ec816117d7565b82525050565b600060208201905061180760008301846117e3565b92915050565b6000604051905090565b600080fd5b600080fd5b600061ffff82169050919050565b61183881611821565b811461184357600080fd5b50565b6000813590506118558161182f565b92915050565b60006020828403121561187157611870611817565b5b600061187f84828501611846565b91505092915050565b600073ffffffffffffffffffffffffffffffffffffffff82169050919050565b60006118b382611888565b9050919050565b6118c3816118a8565b81146118ce57600080fd5b50565b6000813590506118e0816118ba565b92915050565b6000602082840312156118fc576118fb611817565b5b600061190a848285016118d1565b91505092915050565b61191c81611821565b82525050565b600060408201905061193760008301856116fb565b6119446020830184611913565b9392505050565b600081519050919050565b600082825260208201905092915050565b60006119728261194b565b61197c8185611956565b935061198c818560208601611741565b6119958161176b565b840191505092915050565b60006040820190506119b560008301856117e3565b81810360208301526119c78184611967565b90509392505050565b6119d9816118a8565b82525050565b60006020820190506119f460008301846119d0565b92915050565b600080fd5b600080fd5b7f4e487b7100000000000000000000000000000000000000000000000000000000600052604160045260246000fd5b611a3c8261176b565b810181811067ffffffffffffffff82111715611a5b57611a5a611a04565b5b80604052505050565b6000611a6e61180d565b9050611a7a8282611a33565b919050565b600067ffffffffffffffff821115611a9a57611a99611a04565b5b611aa38261176b565b9050602081019050919050565b82818337600083830152505050565b6000611ad2611acd84611a7f565b611a64565b905082815260208101848484011115611aee57611aed6119ff565b5b611af9848285611ab0565b509392505050565b600082601f830112611b1657611b156119fa565b5b8135611b26848260208601611abf565b91505092915050565b611b38816116f1565b8114611b4357600080fd5b50565b600081359050611b5581611b2f565b92915050565b60008060008060008060c08789031215611b7857611b77611817565b5b600087013567ffffffffffffffff811115611b9657611b9561181c565b5b611ba289828a01611b01565b965050602087013567ffffffffffffffff811115611bc357611bc261181c565b5b611bcf89828a01611b01565b955050604087013567ffffffffffffffff811115611bf057611bef61181c565b5b611bfc89828a01611b01565b945050606087013567ffffffffffffffff811115611c1d57611c1c61181c565b5b611c2989828a01611b01565b935050608087013567ffffffffffffffff811115611c4a57611c4961181c565b5b611c5689828a01611b01565b92505060a0611c6789828a01611b46565b9150509295509295509295565b600060208284031215611c8a57611c89611817565b5b6000611c9884828501611b46565b91505092915050565b6000611cac82611888565b9050919050565b611cbc81611ca1565b82525050565b6000602082019050611cd76000830184611cb3565b92915050565b7f496e73756666696369656e742062657420616d6f756e74000000000000000000600082015250565b6000611d13601783611730565b9150611d1e82611cdd565b602082019050919050565b60006020820190508181036000830152611d4281611d06565b9050919050565b7f4e487b7100000000000000000000000000000000000000000000000000000000600052601160045260246000fd5b6000611d83826116f1565b9150611d8e836116f1565b9250828203905081811115611da657611da5611d49565b5b92915050565b6000611db7826116f1565b9150611dc2836116f1565b9250828202611dd0816116f1565b91508282048414831517611de757611de6611d49565b5b5092915050565b7f4e487b7100000000000000000000000000000000000000000000000000000000600052601260045260246000fd5b6000611e28826116f1565b9150611e33836116f1565b925082611e4357611e42611dee565b5b828204905092915050565b6000611e59826116f1565b9150611e64836116f1565b9250828201905080821115611e7c57611e7b611d49565b5b92915050565b7f4e487b7100000000000000000000000000000000000000000000000000000000600052602260045260246000fd5b60006002820490506001821680611ec957607f821691505b602082108103611edc57611edb611e82565b5b50919050565b7f4f6e6c792061646d696e2063616e2063616c6c20746869732066756e6374696f60008201527f6e00000000000000000000000000000000000000000000000000000000000000602082015250565b6000611f3e602183611730565b9150611f4982611ee2565b604082019050919050565b60006020820190508181036000830152611f6d81611f31565b9050919050565b6000606082019050611f8960008301866116fb565b611f9660208301856116fb565b611fa360408301846117e3565b949350505050565b7f4e487b7100000000000000000000000000000000000000000000000000000000600052603260045260246000fd5b6000611fe5826116f1565b91507fffffffffffffffffffffffffffffffffffffffffffffffffffffffffffffffff820361201757612016611d49565b5b600182019050919050565b60008190508160005260206000209050919050565b60006020601f8301049050919050565b600082821b905092915050565b6000600883026120847fffffffffffffffffffffffffffffffffffffffffffffffffffffffffffffffff82612047565b61208e8683612047565b95508019841693508086168417925050509392505050565b6000819050919050565b60006120cb6120c66120c1846116f1565b6120a6565b6116f1565b9050919050565b6000819050919050565b6120e5836120b0565b6120f96120f1826120d2565b848454612054565b825550505050565b600090565b61210e612101565b6121198184846120dc565b505050565b5b8181101561213d57612132600082612106565b60018101905061211f565b5050565b601f8211156121825761215381612022565b61215c84612037565b8101602085101561216b578190505b61217f61217785612037565b83018261211e565b50505b505050565b600082821c905092915050565b60006121a560001984600802612187565b1980831691505092915050565b60006121be8383612194565b9150826002028217905092915050565b6121d782611725565b67ffffffffffffffff8111156121f0576121ef611a04565b5b6121fa8254611eb1565b612205828285612141565b600060209050601f8311600181146122385760008415612226578287015190505b61223085826121b2565b865550612298565b601f19841661224686612022565b60005b8281101561226e57848901518255600182019150602085019450602081019050612249565b8683101561228b5784890151612287601f891682612194565b8355505b6001600288020188555050505b50505050505056fea264697066735822122002c821f2712d3a02d0ead66560a4d1c25867579b3405b7122221e3a6821aab7864736f6c63430008110033","opcodes":"PUSH1 0x80 PUSH1 0x40 MSTORE PUSH1 0x5 PUSH1 0xF SSTORE CALLVALUE DUP1 ISZERO PUSH3 0x16 JUMPI PUSH1 0x0 DUP1 REVERT JUMPDEST POP PUSH1 0x40 MLOAD PUSH3 0x2AA1 CODESIZE SUB DUP1 PUSH3 0x2AA1 DUP4 CODECOPY DUP2 DUP2 ADD PUSH1 0x40 MSTORE DUP2 ADD SWAP1 PUSH3 0x3C SWAP2 SWAP1 PUSH3 0x345 JUMP JUMPDEST DUP1 PUSH1 0x0 DUP2 SWAP1 SSTORE POP PUSH1 0x0 PUSH1 0x6 PUSH1 0x14 PUSH2 0x100 EXP DUP2 SLOAD DUP2 PUSH1 0xFF MUL NOT AND SWAP1 DUP4 ISZERO ISZERO MUL OR SWAP1 SSTORE POP TIMESTAMP PUSH1 0x3 DUP2 SWAP1 SSTORE POP DUP2 PUSH1 0x4 DUP2 SWAP1 SSTORE POP CALLER PUSH1 0x6 PUSH1 0x0 PUSH2 0x100 EXP DUP2 SLOAD DUP2 PUSH20 0xFFFFFFFFFFFFFFFFFFFFFFFFFFFFFFFFFFFFFFFF MUL NOT AND SWAP1 DUP4 PUSH20 0xFFFFFFFFFFFFFFFFFFFFFFFFFFFFFFFFFFFFFFFF AND MUL OR SWAP1 SSTORE POP DUP7 PUSH1 0x7 SWAP1 DUP2 PUSH3 0xBE SWAP2 SWAP1 PUSH3 0x6D4 JUMP JUMPDEST POP DUP6 PUSH1 0x8 SWAP1 DUP2 PUSH3 0xD0 SWAP2 SWAP1 PUSH3 0x6D4 JUMP JUMPDEST POP DUP5 PUSH1 0x9 SWAP1 DUP2 PUSH3 0xE2 SWAP2 SWAP1 PUSH3 0x6D4 JUMP JUMPDEST POP DUP4 PUSH1 0xA SWAP1 DUP2 PUSH3 0xF4 SWAP2 SWAP1 PUSH3 0x6D4 JUMP JUMPDEST POP DUP3 PUSH1 0xB SWAP1 DUP2 PUSH3 0x106 SWAP2 SWAP1 PUSH3 0x6D4 JUMP JUMPDEST POP PUSH1 0x6 PUSH1 0x0 SWAP1 SLOAD SWAP1 PUSH2 0x100 EXP SWAP1 DIV PUSH20 0xFFFFFFFFFFFFFFFFFFFFFFFFFFFFFFFFFFFFFFFF AND PUSH1 0x5 PUSH1 0x0 PUSH2 0x100 EXP DUP2 SLOAD DUP2 PUSH20 0xFFFFFFFFFFFFFFFFFFFFFFFFFFFFFFFFFFFFFFFF MUL NOT AND SWAP1 DUP4 PUSH20 0xFFFFFFFFFFFFFFFFFFFFFFFFFFFFFFFFFFFFFFFF AND MUL OR SWAP1 SSTORE POP POP POP POP POP POP POP POP PUSH3 0x7BB JUMP JUMPDEST PUSH1 0x0 PUSH1 0x40 MLOAD SWAP1 POP SWAP1 JUMP JUMPDEST PUSH1 0x0 DUP1 REVERT JUMPDEST PUSH1 0x0 DUP1 REVERT JUMPDEST PUSH1 0x0 DUP1 REVERT JUMPDEST PUSH1 0x0 DUP1 REVERT JUMPDEST PUSH1 0x0 PUSH1 0x1F NOT PUSH1 0x1F DUP4 ADD AND SWAP1 POP SWAP2 SWAP1 POP JUMP JUMPDEST PUSH32 0x4E487B7100000000000000000000000000000000000000000000000000000000 PUSH1 0x0 MSTORE PUSH1 0x41 PUSH1 0x4 MSTORE PUSH1 0x24 PUSH1 0x0 REVERT JUMPDEST PUSH3 0x1E0 DUP3 PUSH3 0x195 JUMP JUMPDEST DUP2 ADD DUP2 DUP2 LT PUSH8 0xFFFFFFFFFFFFFFFF DUP3 GT OR ISZERO PUSH3 0x202 JUMPI PUSH3 0x201 PUSH3 0x1A6 JUMP JUMPDEST JUMPDEST DUP1 PUSH1 0x40 MSTORE POP POP POP JUMP JUMPDEST PUSH1 0x0 PUSH3 0x217 PUSH3 0x177 JUMP JUMPDEST SWAP1 POP PUSH3 0x225 DUP3 DUP3 PUSH3 0x1D5 JUMP JUMPDEST SWAP2 SWAP1 POP JUMP JUMPDEST PUSH1 0x0 PUSH8 0xFFFFFFFFFFFFFFFF DUP3 GT ISZERO PUSH3 0x248 JUMPI PUSH3 0x247 PUSH3 0x1A6 JUMP JUMPDEST JUMPDEST PUSH3 0x253 DUP3 PUSH3 0x195 JUMP JUMPDEST SWAP1 POP PUSH1 0x20 DUP2 ADD SWAP1 POP SWAP2 SWAP1 POP JUMP JUMPDEST PUSH1 0x0 JUMPDEST DUP4 DUP2 LT ISZERO PUSH3 0x280 JUMPI DUP1 DUP3 ADD MLOAD DUP2 DUP5 ADD MSTORE PUSH1 0x20 DUP2 ADD SWAP1 POP PUSH3 0x263 JUMP JUMPDEST PUSH1 0x0 DUP5 DUP5 ADD MSTORE POP POP POP POP JUMP JUMPDEST PUSH1 0x0 PUSH3 0x2A3 PUSH3 0x29D DUP5 PUSH3 0x22A JUMP JUMPDEST PUSH3 0x20B JUMP JUMPDEST SWAP1 POP DUP3 DUP2 MSTORE PUSH1 0x20 DUP2 ADD DUP5 DUP5 DUP5 ADD GT ISZERO PUSH3 0x2C2 JUMPI PUSH3 0x2C1 PUSH3 0x190 JUMP JUMPDEST JUMPDEST PUSH3 0x2CF DUP5 DUP3 DUP6 PUSH3 0x260 JUMP JUMPDEST POP SWAP4 SWAP3 POP POP POP JUMP JUMPDEST PUSH1 0x0 DUP3 PUSH1 0x1F DUP4 ADD SLT PUSH3 0x2EF JUMPI PUSH3 0x2EE PUSH3 0x18B JUMP JUMPDEST JUMPDEST DUP2 MLOAD PUSH3 0x301 DUP5 DUP3 PUSH1 0x20 DUP7 ADD PUSH3 0x28C JUMP JUMPDEST SWAP2 POP POP SWAP3 SWAP2 POP POP JUMP JUMPDEST PUSH1 0x0 DUP2 SWAP1 POP SWAP2 SWAP1 POP JUMP JUMPDEST PUSH3 0x31F DUP2 PUSH3 0x30A JUMP JUMPDEST DUP2 EQ PUSH3 0x32B JUMPI PUSH1 0x0 DUP1 REVERT JUMPDEST POP JUMP JUMPDEST PUSH1 0x0 DUP2 MLOAD SWAP1 POP PUSH3 0x33F DUP2 PUSH3 0x314 JUMP JUMPDEST SWAP3 SWAP2 POP POP JUMP JUMPDEST PUSH1 0x0 DUP1 PUSH1 0x0 DUP1 PUSH1 0x0 DUP1 PUSH1 0x0 PUSH1 0xE0 DUP9 DUP11 SUB SLT ISZERO PUSH3 0x367 JUMPI PUSH3 0x366 PUSH3 0x181 JUMP JUMPDEST JUMPDEST PUSH1 0x0 DUP9 ADD MLOAD PUSH8 0xFFFFFFFFFFFFFFFF DUP2 GT ISZERO PUSH3 0x388 JUMPI PUSH3 0x387 PUSH3 0x186 JUMP JUMPDEST JUMPDEST PUSH3 0x396 DUP11 DUP3 DUP12 ADD PUSH3 0x2D7 JUMP JUMPDEST SWAP8 POP POP PUSH1 0x20 DUP9 ADD MLOAD PUSH8 0xFFFFFFFFFFFFFFFF DUP2 GT ISZERO PUSH3 0x3BA JUMPI PUSH3 0x3B9 PUSH3 0x186 JUMP JUMPDEST JUMPDEST PUSH3 0x3C8 DUP11 DUP3 DUP12 ADD PUSH3 0x2D7 JUMP JUMPDEST SWAP7 POP POP PUSH1 0x40 DUP9 ADD MLOAD PUSH8 0xFFFFFFFFFFFFFFFF DUP2 GT ISZERO PUSH3 0x3EC JUMPI PUSH3 0x3EB PUSH3 0x186 JUMP JUMPDEST JUMPDEST PUSH3 0x3FA DUP11 DUP3 DUP12 ADD PUSH3 0x2D7 JUMP JUMPDEST SWAP6 POP POP PUSH1 0x60 DUP9 ADD MLOAD PUSH8 0xFFFFFFFFFFFFFFFF DUP2 GT ISZERO PUSH3 0x41E JUMPI PUSH3 0x41D PUSH3 0x186 JUMP JUMPDEST JUMPDEST PUSH3 0x42C DUP11 DUP3 DUP12 ADD PUSH3 0x2D7 JUMP JUMPDEST SWAP5 POP POP PUSH1 0x80 DUP9 ADD MLOAD PUSH8 0xFFFFFFFFFFFFFFFF DUP2 GT ISZERO PUSH3 0x450 JUMPI PUSH3 0x44F PUSH3 0x186 JUMP JUMPDEST JUMPDEST PUSH3 0x45E DUP11 DUP3 DUP12 ADD PUSH3 0x2D7 JUMP JUMPDEST SWAP4 POP POP PUSH1 0xA0 PUSH3 0x471 DUP11 DUP3 DUP12 ADD PUSH3 0x32E JUMP JUMPDEST SWAP3 POP POP PUSH1 0xC0 PUSH3 0x484 DUP11 DUP3 DUP12 ADD PUSH3 0x32E JUMP JUMPDEST SWAP2 POP POP SWAP3 SWAP6 SWAP9 SWAP2 SWAP5 SWAP8 POP SWAP3 SWAP6 POP JUMP JUMPDEST PUSH1 0x0 DUP2 MLOAD SWAP1 POP SWAP2 SWAP1 POP JUMP JUMPDEST PUSH32 0x4E487B7100000000000000000000000000000000000000000000000000000000 PUSH1 0x0 MSTORE PUSH1 0x22 PUSH1 0x4 MSTORE PUSH1 0x24 PUSH1 0x0 REVERT JUMPDEST PUSH1 0x0 PUSH1 0x2 DUP3 DIV SWAP1 POP PUSH1 0x1 DUP3 AND DUP1 PUSH3 0x4E6 JUMPI PUSH1 0x7F DUP3 AND SWAP2 POP JUMPDEST PUSH1 0x20 DUP3 LT DUP2 SUB PUSH3 0x4FC JUMPI PUSH3 0x4FB PUSH3 0x49E JUMP JUMPDEST JUMPDEST POP SWAP2 SWAP1 POP JUMP JUMPDEST PUSH1 0x0 DUP2 SWAP1 POP DUP2 PUSH1 0x0 MSTORE PUSH1 0x20 PUSH1 0x0 KECCAK256 SWAP1 POP SWAP2 SWAP1 POP JUMP JUMPDEST PUSH1 0x0 PUSH1 0x20 PUSH1 0x1F DUP4 ADD DIV SWAP1 POP SWAP2 SWAP1 POP JUMP JUMPDEST PUSH1 0x0 DUP3 DUP3 SHL SWAP1 POP SWAP3 SWAP2 POP POP JUMP JUMPDEST PUSH1 0x0 PUSH1 0x8 DUP4 MUL PUSH3 0x566 PUSH32 0xFFFFFFFFFFFFFFFFFFFFFFFFFFFFFFFFFFFFFFFFFFFFFFFFFFFFFFFFFFFFFFFF DUP3 PUSH3 0x527 JUMP JUMPDEST PUSH3 0x572 DUP7 DUP4 PUSH3 0x527 JUMP JUMPDEST SWAP6 POP DUP1 NOT DUP5 AND SWAP4 POP DUP1 DUP7 AND DUP5 OR SWAP3 POP POP POP SWAP4 SWAP3 POP POP POP JUMP JUMPDEST PUSH1 0x0 DUP2 SWAP1 POP SWAP2 SWAP1 POP JUMP JUMPDEST PUSH1 0x0 PUSH3 0x5B5 PUSH3 0x5AF PUSH3 0x5A9 DUP5 PUSH3 0x30A JUMP JUMPDEST PUSH3 0x58A JUMP JUMPDEST PUSH3 0x30A JUMP JUMPDEST SWAP1 POP SWAP2 SWAP1 POP JUMP JUMPDEST PUSH1 0x0 DUP2 SWAP1 POP SWAP2 SWAP1 POP JUMP JUMPDEST PUSH3 0x5D1 DUP4 PUSH3 0x594 JUMP JUMPDEST PUSH3 0x5E9 PUSH3 0x5E0 DUP3 PUSH3 0x5BC JUMP JUMPDEST DUP5 DUP5 SLOAD PUSH3 0x534 JUMP JUMPDEST DUP3 SSTORE POP POP POP POP JUMP JUMPDEST PUSH1 0x0 SWAP1 JUMP JUMPDEST PUSH3 0x600 PUSH3 0x5F1 JUMP JUMPDEST PUSH3 0x60D DUP2 DUP5 DUP5 PUSH3 0x5C6 JUMP JUMPDEST POP POP POP JUMP JUMPDEST JUMPDEST DUP2 DUP2 LT ISZERO PUSH3 0x635 JUMPI PUSH3 0x629 PUSH1 0x0 DUP3 PUSH3 0x5F6 JUMP JUMPDEST PUSH1 0x1 DUP2 ADD SWAP1 POP PUSH3 0x613 JUMP JUMPDEST POP POP JUMP JUMPDEST PUSH1 0x1F DUP3 GT ISZERO PUSH3 0x684 JUMPI PUSH3 0x64E DUP2 PUSH3 0x502 JUMP JUMPDEST PUSH3 0x659 DUP5 PUSH3 0x517 JUMP JUMPDEST DUP2 ADD PUSH1 0x20 DUP6 LT ISZERO PUSH3 0x669 JUMPI DUP2 SWAP1 POP JUMPDEST PUSH3 0x681 PUSH3 0x678 DUP6 PUSH3 0x517 JUMP JUMPDEST DUP4 ADD DUP3 PUSH3 0x612 JUMP JUMPDEST POP POP JUMPDEST POP POP POP JUMP JUMPDEST PUSH1 0x0 DUP3 DUP3 SHR SWAP1 POP SWAP3 SWAP2 POP POP JUMP JUMPDEST PUSH1 0x0 PUSH3 0x6A9 PUSH1 0x0 NOT DUP5 PUSH1 0x8 MUL PUSH3 0x689 JUMP JUMPDEST NOT DUP1 DUP4 AND SWAP2 POP POP SWAP3 SWAP2 POP POP JUMP JUMPDEST PUSH1 0x0 PUSH3 0x6C4 DUP4 DUP4 PUSH3 0x696 JUMP JUMPDEST SWAP2 POP DUP3 PUSH1 0x2 MUL DUP3 OR SWAP1 POP SWAP3 SWAP2 POP POP JUMP JUMPDEST PUSH3 0x6DF DUP3 PUSH3 0x493 JUMP JUMPDEST PUSH8 0xFFFFFFFFFFFFFFFF DUP2 GT ISZERO PUSH3 0x6FB JUMPI PUSH3 0x6FA PUSH3 0x1A6 JUMP JUMPDEST JUMPDEST PUSH3 0x707 DUP3 SLOAD PUSH3 0x4CD JUMP JUMPDEST PUSH3 0x714 DUP3 DUP3 DUP6 PUSH3 0x639 JUMP JUMPDEST PUSH1 0x0 PUSH1 0x20 SWAP1 POP PUSH1 0x1F DUP4 GT PUSH1 0x1 DUP2 EQ PUSH3 0x74C JUMPI PUSH1 0x0 DUP5 ISZERO PUSH3 0x737 JUMPI DUP3 DUP8 ADD MLOAD SWAP1 POP JUMPDEST PUSH3 0x743 DUP6 DUP3 PUSH3 0x6B6 JUMP JUMPDEST DUP7 SSTORE POP PUSH3 0x7B3 JUMP JUMPDEST PUSH1 0x1F NOT DUP5 AND PUSH3 0x75C DUP7 PUSH3 0x502 JUMP JUMPDEST PUSH1 0x0 JUMPDEST DUP3 DUP2 LT ISZERO PUSH3 0x786 JUMPI DUP5 DUP10 ADD MLOAD DUP3 SSTORE PUSH1 0x1 DUP3 ADD SWAP2 POP PUSH1 0x20 DUP6 ADD SWAP5 POP PUSH1 0x20 DUP2 ADD SWAP1 POP PUSH3 0x75F JUMP JUMPDEST DUP7 DUP4 LT ISZERO PUSH3 0x7A6 JUMPI DUP5 DUP10 ADD MLOAD PUSH3 0x7A2 PUSH1 0x1F DUP10 AND DUP3 PUSH3 0x696 JUMP JUMPDEST DUP4 SSTORE POP JUMPDEST PUSH1 0x1 PUSH1 0x2 DUP9 MUL ADD DUP9 SSTORE POP POP POP JUMPDEST POP POP POP POP POP POP JUMP JUMPDEST PUSH2 0x22D6 DUP1 PUSH3 0x7CB PUSH1 0x0 CODECOPY PUSH1 0x0 RETURN INVALID PUSH1 0x80 PUSH1 0x40 MSTORE PUSH1 0x4 CALLDATASIZE LT PUSH2 0x14B JUMPI PUSH1 0x0 CALLDATALOAD PUSH1 0xE0 SHR DUP1 PUSH4 0x65733592 GT PUSH2 0xB6 JUMPI DUP1 PUSH4 0xC8539808 GT PUSH2 0x6F JUMPI DUP1 PUSH4 0xC8539808 EQ PUSH2 0x457 JUMPI DUP1 PUSH4 0xEA17532E EQ PUSH2 0x461 JUMPI DUP1 PUSH4 0xF0F32497 EQ PUSH2 0x49E JUMPI DUP1 PUSH4 0xF71D96CB EQ PUSH2 0x4C9 JUMPI DUP1 PUSH4 0xFD6673F5 EQ PUSH2 0x506 JUMPI DUP1 PUSH4 0xFDBE6667 EQ PUSH2 0x531 JUMPI PUSH2 0x14B JUMP JUMPDEST DUP1 PUSH4 0x65733592 EQ PUSH2 0x356 JUMPI DUP1 PUSH4 0x676F6474 EQ PUSH2 0x381 JUMPI DUP1 PUSH4 0x6E9960C3 EQ PUSH2 0x3AD JUMPI DUP1 PUSH4 0x777CD247 EQ PUSH2 0x3D8 JUMPI DUP1 PUSH4 0x7DC6E841 EQ PUSH2 0x401 JUMPI DUP1 PUSH4 0x8B5D691C EQ PUSH2 0x42C JUMPI PUSH2 0x14B JUMP JUMPDEST DUP1 PUSH4 0x2B74E9BD GT PUSH2 0x108 JUMPI DUP1 PUSH4 0x2B74E9BD EQ PUSH2 0x231 JUMPI DUP1 PUSH4 0x2F9F65F6 EQ PUSH2 0x25C JUMPI DUP1 PUSH4 0x3CA53BBA EQ PUSH2 0x287 JUMPI DUP1 PUSH4 0x4081D916 EQ PUSH2 0x2B0 JUMPI DUP1 PUSH4 0x4996D51D EQ PUSH2 0x2ED JUMPI DUP1 PUSH4 0x4B114691 EQ PUSH2 0x318 JUMPI PUSH2 0x14B JUMP JUMPDEST DUP1 PUSH4 0x9BC33A7 EQ PUSH2 0x150 JUMPI DUP1 PUSH4 0xCA74040 EQ PUSH2 0x17B JUMPI DUP1 PUSH4 0x1385F1A9 EQ PUSH2 0x185 JUMPI DUP1 PUSH4 0x1F89F25E EQ PUSH2 0x1B0 JUMPI DUP1 PUSH4 0x27F0CBC0 EQ PUSH2 0x1DB JUMPI DUP1 PUSH4 0x2AAE3630 EQ PUSH2 0x206 JUMPI JUMPDEST PUSH1 0x0 DUP1 REVERT JUMPDEST CALLVALUE DUP1 ISZERO PUSH2 0x15C JUMPI PUSH1 0x0 DUP1 REVERT JUMPDEST POP PUSH2 0x165 PUSH2 0x55C JUMP JUMPDEST PUSH1 0x40 MLOAD PUSH2 0x172 SWAP2 SWAP1 PUSH2 0x170A JUMP JUMPDEST PUSH1 0x40 MLOAD DUP1 SWAP2 SUB SWAP1 RETURN JUMPDEST PUSH2 0x183 PUSH2 0x565 JUMP JUMPDEST STOP JUMPDEST CALLVALUE DUP1 ISZERO PUSH2 0x191 JUMPI PUSH1 0x0 DUP1 REVERT JUMPDEST POP PUSH2 0x19A PUSH2 0x762 JUMP JUMPDEST PUSH1 0x40 MLOAD PUSH2 0x1A7 SWAP2 SWAP1 PUSH2 0x17B5 JUMP JUMPDEST PUSH1 0x40 MLOAD DUP1 SWAP2 SUB SWAP1 RETURN JUMPDEST CALLVALUE DUP1 ISZERO PUSH2 0x1BC JUMPI PUSH1 0x0 DUP1 REVERT JUMPDEST POP PUSH2 0x1C5 PUSH2 0x7F4 JUMP JUMPDEST PUSH1 0x40 MLOAD PUSH2 0x1D2 SWAP2 SWAP1 PUSH2 0x170A JUMP JUMPDEST PUSH1 0x40 MLOAD DUP1 SWAP2 SUB SWAP1 RETURN JUMPDEST CALLVALUE DUP1 ISZERO PUSH2 0x1E7 JUMPI PUSH1 0x0 DUP1 REVERT JUMPDEST POP PUSH2 0x1F0 PUSH2 0x7FE JUMP JUMPDEST PUSH1 0x40 MLOAD PUSH2 0x1FD SWAP2 SWAP1 PUSH2 0x17F2 JUMP JUMPDEST PUSH1 0x40 MLOAD DUP1 SWAP2 SUB SWAP1 RETURN JUMPDEST CALLVALUE DUP1 ISZERO PUSH2 0x212 JUMPI PUSH1 0x0 DUP1 REVERT JUMPDEST POP PUSH2 0x21B PUSH2 0x815 JUMP JUMPDEST PUSH1 0x40 MLOAD PUSH2 0x228 SWAP2 SWAP1 PUSH2 0x17B5 JUMP JUMPDEST PUSH1 0x40 MLOAD DUP1 SWAP2 SUB SWAP1 RETURN JUMPDEST CALLVALUE DUP1 ISZERO PUSH2 0x23D JUMPI PUSH1 0x0 DUP1 REVERT JUMPDEST POP PUSH2 0x246 PUSH2 0x8A7 JUMP JUMPDEST PUSH1 0x40 MLOAD PUSH2 0x253 SWAP2 SWAP1 PUSH2 0x170A JUMP JUMPDEST PUSH1 0x40 MLOAD DUP1 SWAP2 SUB SWAP1 RETURN JUMPDEST CALLVALUE DUP1 ISZERO PUSH2 0x268 JUMPI PUSH1 0x0 DUP1 REVERT JUMPDEST POP PUSH2 0x271 PUSH2 0x8B1 JUMP JUMPDEST PUSH1 0x40 MLOAD PUSH2 0x27E SWAP2 SWAP1 PUSH2 0x17B5 JUMP JUMPDEST PUSH1 0x40 MLOAD DUP1 SWAP2 SUB SWAP1 RETURN JUMPDEST CALLVALUE DUP1 ISZERO PUSH2 0x293 JUMPI PUSH1 0x0 DUP1 REVERT JUMPDEST POP PUSH2 0x2AE PUSH1 0x4 DUP1 CALLDATASIZE SUB DUP2 ADD SWAP1 PUSH2 0x2A9 SWAP2 SWAP1 PUSH2 0x185B JUMP JUMPDEST PUSH2 0x943 JUMP JUMPDEST STOP JUMPDEST CALLVALUE DUP1 ISZERO PUSH2 0x2BC JUMPI PUSH1 0x0 DUP1 REVERT JUMPDEST POP PUSH2 0x2D7 PUSH1 0x4 DUP1 CALLDATASIZE SUB DUP2 ADD SWAP1 PUSH2 0x2D2 SWAP2 SWAP1 PUSH2 0x18E6 JUMP JUMPDEST PUSH2 0xA47 JUMP JUMPDEST PUSH1 0x40 MLOAD PUSH2 0x2E4 SWAP2 SWAP1 PUSH2 0x17F2 JUMP JUMPDEST PUSH1 0x40 MLOAD DUP1 SWAP2 SUB SWAP1 RETURN JUMPDEST CALLVALUE DUP1 ISZERO PUSH2 0x2F9 JUMPI PUSH1 0x0 DUP1 REVERT JUMPDEST POP PUSH2 0x302 PUSH2 0xAF8 JUMP JUMPDEST PUSH1 0x40 MLOAD PUSH2 0x30F SWAP2 SWAP1 PUSH2 0x170A JUMP JUMPDEST PUSH1 0x40 MLOAD DUP1 SWAP2 SUB SWAP1 RETURN JUMPDEST CALLVALUE DUP1 ISZERO PUSH2 0x324 JUMPI PUSH1 0x0 DUP1 REVERT JUMPDEST POP PUSH2 0x33F PUSH1 0x4 DUP1 CALLDATASIZE SUB DUP2 ADD SWAP1 PUSH2 0x33A SWAP2 SWAP1 PUSH2 0x18E6 JUMP JUMPDEST PUSH2 0xB02 JUMP JUMPDEST PUSH1 0x40 MLOAD PUSH2 0x34D SWAP3 SWAP2 SWAP1 PUSH2 0x1922 JUMP JUMPDEST PUSH1 0x40 MLOAD DUP1 SWAP2 SUB SWAP1 RETURN JUMPDEST CALLVALUE DUP1 ISZERO PUSH2 0x362 JUMPI PUSH1 0x0 DUP1 REVERT JUMPDEST POP PUSH2 0x36B PUSH2 0xB34 JUMP JUMPDEST PUSH1 0x40 MLOAD PUSH2 0x378 SWAP2 SWAP1 PUSH2 0x170A JUMP JUMPDEST PUSH1 0x40 MLOAD DUP1 SWAP2 SUB SWAP1 RETURN JUMPDEST CALLVALUE DUP1 ISZERO PUSH2 0x38D JUMPI PUSH1 0x0 DUP1 REVERT JUMPDEST POP PUSH2 0x396 PUSH2 0xB3E JUMP JUMPDEST PUSH1 0x40 MLOAD PUSH2 0x3A4 SWAP3 SWAP2 SWAP1 PUSH2 0x19A0 JUMP JUMPDEST PUSH1 0x40 MLOAD DUP1 SWAP2 SUB SWAP1 RETURN JUMPDEST CALLVALUE DUP1 ISZERO PUSH2 0x3B9 JUMPI PUSH1 0x0 DUP1 REVERT JUMPDEST POP PUSH2 0x3C2 PUSH2 0xBE4 JUMP JUMPDEST PUSH1 0x40 MLOAD PUSH2 0x3CF SWAP2 SWAP1 PUSH2 0x19DF JUMP JUMPDEST PUSH1 0x40 MLOAD DUP1 SWAP2 SUB SWAP1 RETURN JUMPDEST CALLVALUE DUP1 ISZERO PUSH2 0x3E4 JUMPI PUSH1 0x0 DUP1 REVERT JUMPDEST POP PUSH2 0x3FF PUSH1 0x4 DUP1 CALLDATASIZE SUB DUP2 ADD SWAP1 PUSH2 0x3FA SWAP2 SWAP1 PUSH2 0x1B5B JUMP JUMPDEST PUSH2 0xC0E JUMP JUMPDEST STOP JUMPDEST CALLVALUE DUP1 ISZERO PUSH2 0x40D JUMPI PUSH1 0x0 DUP1 REVERT JUMPDEST POP PUSH2 0x416 PUSH2 0xD7F JUMP JUMPDEST PUSH1 0x40 MLOAD PUSH2 0x423 SWAP2 SWAP1 PUSH2 0x17B5 JUMP JUMPDEST PUSH1 0x40 MLOAD DUP1 SWAP2 SUB SWAP1 RETURN JUMPDEST CALLVALUE DUP1 ISZERO PUSH2 0x438 JUMPI PUSH1 0x0 DUP1 REVERT JUMPDEST POP PUSH2 0x441 PUSH2 0xE11 JUMP JUMPDEST PUSH1 0x40 MLOAD PUSH2 0x44E SWAP2 SWAP1 PUSH2 0x17B5 JUMP JUMPDEST PUSH1 0x40 MLOAD DUP1 SWAP2 SUB SWAP1 RETURN JUMPDEST PUSH2 0x45F PUSH2 0xE9F JUMP JUMPDEST STOP JUMPDEST CALLVALUE DUP1 ISZERO PUSH2 0x46D JUMPI PUSH1 0x0 DUP1 REVERT JUMPDEST POP PUSH2 0x488 PUSH1 0x4 DUP1 CALLDATASIZE SUB DUP2 ADD SWAP1 PUSH2 0x483 SWAP2 SWAP1 PUSH2 0x1C74 JUMP JUMPDEST PUSH2 0x109C JUMP JUMPDEST PUSH1 0x40 MLOAD PUSH2 0x495 SWAP2 SWAP1 PUSH2 0x19DF JUMP JUMPDEST PUSH1 0x40 MLOAD DUP1 SWAP2 SUB SWAP1 RETURN JUMPDEST CALLVALUE DUP1 ISZERO PUSH2 0x4AA JUMPI PUSH1 0x0 DUP1 REVERT JUMPDEST POP PUSH2 0x4B3 PUSH2 0x10E4 JUMP JUMPDEST PUSH1 0x40 MLOAD PUSH2 0x4C0 SWAP2 SWAP1 PUSH2 0x17F2 JUMP JUMPDEST PUSH1 0x40 MLOAD DUP1 SWAP2 SUB SWAP1 RETURN JUMPDEST CALLVALUE DUP1 ISZERO PUSH2 0x4D5 JUMPI PUSH1 0x0 DUP1 REVERT JUMPDEST POP PUSH2 0x4F0 PUSH1 0x4 DUP1 CALLDATASIZE SUB DUP2 ADD SWAP1 PUSH2 0x4EB SWAP2 SWAP1 PUSH2 0x1C74 JUMP JUMPDEST PUSH2 0x10F7 JUMP JUMPDEST PUSH1 0x40 MLOAD PUSH2 0x4FD SWAP2 SWAP1 PUSH2 0x1CC2 JUMP JUMPDEST PUSH1 0x40 MLOAD DUP1 SWAP2 SUB SWAP1 RETURN JUMPDEST CALLVALUE DUP1 ISZERO PUSH2 0x512 JUMPI PUSH1 0x0 DUP1 REVERT JUMPDEST POP PUSH2 0x51B PUSH2 0x1136 JUMP JUMPDEST PUSH1 0x40 MLOAD PUSH2 0x528 SWAP2 SWAP1 PUSH2 0x170A JUMP JUMPDEST PUSH1 0x40 MLOAD DUP1 SWAP2 SUB SWAP1 RETURN JUMPDEST CALLVALUE DUP1 ISZERO PUSH2 0x53D JUMPI PUSH1 0x0 DUP1 REVERT JUMPDEST POP PUSH2 0x546 PUSH2 0x1143 JUMP JUMPDEST PUSH1 0x40 MLOAD PUSH2 0x553 SWAP2 SWAP1 PUSH2 0x170A JUMP JUMPDEST PUSH1 0x40 MLOAD DUP1 SWAP2 SUB SWAP1 RETURN JUMPDEST PUSH1 0x0 DUP1 SLOAD SWAP1 POP SWAP1 JUMP JUMPDEST PUSH2 0x56E CALLER PUSH2 0xA47 JUMP JUMPDEST ISZERO PUSH2 0x578 JUMPI PUSH1 0x0 DUP1 REVERT JUMPDEST PUSH1 0x6 PUSH1 0x14 SWAP1 SLOAD SWAP1 PUSH2 0x100 EXP SWAP1 DIV PUSH1 0xFF AND ISZERO PUSH2 0x592 JUMPI PUSH1 0x0 DUP1 REVERT JUMPDEST PUSH1 0x0 SLOAD CALLVALUE LT ISZERO PUSH2 0x5D7 JUMPI PUSH1 0x40 MLOAD PUSH32 0x8C379A000000000000000000000000000000000000000000000000000000000 DUP2 MSTORE PUSH1 0x4 ADD PUSH2 0x5CE SWAP1 PUSH2 0x1D29 JUMP JUMPDEST PUSH1 0x40 MLOAD DUP1 SWAP2 SUB SWAP1 REVERT JUMPDEST CALLVALUE PUSH1 0xC PUSH1 0x0 CALLER PUSH20 0xFFFFFFFFFFFFFFFFFFFFFFFFFFFFFFFFFFFFFFFF AND PUSH20 0xFFFFFFFFFFFFFFFFFFFFFFFFFFFFFFFFFFFFFFFF AND DUP2 MSTORE PUSH1 0x20 ADD SWAP1 DUP2 MSTORE PUSH1 0x20 ADD PUSH1 0x0 KECCAK256 PUSH1 0x0 ADD DUP2 SWAP1 SSTORE POP PUSH1 0x1 PUSH1 0xC PUSH1 0x0 CALLER PUSH20 0xFFFFFFFFFFFFFFFFFFFFFFFFFFFFFFFFFFFFFFFF AND PUSH20 0xFFFFFFFFFFFFFFFFFFFFFFFFFFFFFFFFFFFFFFFF AND DUP2 MSTORE PUSH1 0x20 ADD SWAP1 DUP2 MSTORE PUSH1 0x20 ADD PUSH1 0x0 KECCAK256 PUSH1 0x1 ADD PUSH1 0x0 PUSH2 0x100 EXP DUP2 SLOAD DUP2 PUSH2 0xFFFF MUL NOT AND SWAP1 DUP4 PUSH2 0xFFFF AND MUL OR SWAP1 SSTORE POP PUSH1 0xD CALLER SWAP1 DUP1 PUSH1 0x1 DUP2 SLOAD ADD DUP1 DUP3 SSTORE DUP1 SWAP2 POP POP PUSH1 0x1 SWAP1 SUB SWAP1 PUSH1 0x0 MSTORE PUSH1 0x20 PUSH1 0x0 KECCAK256 ADD PUSH1 0x0 SWAP1 SWAP2 SWAP1 SWAP2 SWAP1 SWAP2 PUSH2 0x100 EXP DUP2 SLOAD DUP2 PUSH20 0xFFFFFFFFFFFFFFFFFFFFFFFFFFFFFFFFFFFFFFFF MUL NOT AND SWAP1 DUP4 PUSH20 0xFFFFFFFFFFFFFFFFFFFFFFFFFFFFFFFFFFFFFFFF AND MUL OR SWAP1 SSTORE POP PUSH1 0x64 PUSH1 0xF SLOAD PUSH1 0x64 PUSH2 0x6F0 SWAP2 SWAP1 PUSH2 0x1D78 JUMP JUMPDEST CALLVALUE PUSH2 0x6FB SWAP2 SWAP1 PUSH2 0x1DAC JUMP JUMPDEST PUSH2 0x705 SWAP2 SWAP1 PUSH2 0x1E1D JUMP JUMPDEST PUSH1 0x1 PUSH1 0x0 DUP3 DUP3 SLOAD PUSH2 0x716 SWAP2 SWAP1 PUSH2 0x1E4E JUMP JUMPDEST SWAP3 POP POP DUP2 SWAP1 SSTORE POP CALLER PUSH20 0xFFFFFFFFFFFFFFFFFFFFFFFFFFFFFFFFFFFFFFFF AND PUSH32 0x7F47E4B864EE52D8CA461D379020BE7E99AE801A152DDE71193BDC651DA8A7C0 PUSH1 0x40 MLOAD PUSH1 0x40 MLOAD DUP1 SWAP2 SUB SWAP1 LOG2 JUMP JUMPDEST PUSH1 0x60 PUSH1 0xA DUP1 SLOAD PUSH2 0x771 SWAP1 PUSH2 0x1EB1 JUMP JUMPDEST DUP1 PUSH1 0x1F ADD PUSH1 0x20 DUP1 SWAP2 DIV MUL PUSH1 0x20 ADD PUSH1 0x40 MLOAD SWAP1 DUP2 ADD PUSH1 0x40 MSTORE DUP1 SWAP3 SWAP2 SWAP1 DUP2 DUP2 MSTORE PUSH1 0x20 ADD DUP3 DUP1 SLOAD PUSH2 0x79D SWAP1 PUSH2 0x1EB1 JUMP JUMPDEST DUP1 ISZERO PUSH2 0x7EA JUMPI DUP1 PUSH1 0x1F LT PUSH2 0x7BF JUMPI PUSH2 0x100 DUP1 DUP4 SLOAD DIV MUL DUP4 MSTORE SWAP2 PUSH1 0x20 ADD SWAP2 PUSH2 0x7EA JUMP JUMPDEST DUP3 ADD SWAP2 SWAP1 PUSH1 0x0 MSTORE PUSH1 0x20 PUSH1 0x0 KECCAK256 SWAP1 JUMPDEST DUP2 SLOAD DUP2 MSTORE SWAP1 PUSH1 0x1 ADD SWAP1 PUSH1 0x20 ADD DUP1 DUP4 GT PUSH2 0x7CD JUMPI DUP3 SWAP1 SUB PUSH1 0x1F AND DUP3 ADD SWAP2 JUMPDEST POP POP POP POP POP SWAP1 POP SWAP1 JUMP JUMPDEST PUSH1 0x0 PUSH1 0x3 SLOAD SWAP1 POP SWAP1 JUMP JUMPDEST PUSH1 0x0 PUSH1 0x6 PUSH1 0x14 SWAP1 SLOAD SWAP1 PUSH2 0x100 EXP SWAP1 DIV PUSH1 0xFF AND SWAP1 POP SWAP1 JUMP JUMPDEST PUSH1 0x60 PUSH1 0x8 DUP1 SLOAD PUSH2 0x824 SWAP1 PUSH2 0x1EB1 JUMP JUMPDEST DUP1 PUSH1 0x1F ADD PUSH1 0x20 DUP1 SWAP2 DIV MUL PUSH1 0x20 ADD PUSH1 0x40 MLOAD SWAP1 DUP2 ADD PUSH1 0x40 MSTORE DUP1 SWAP3 SWAP2 SWAP1 DUP2 DUP2 MSTORE PUSH1 0x20 ADD DUP3 DUP1 SLOAD PUSH2 0x850 SWAP1 PUSH2 0x1EB1 JUMP JUMPDEST DUP1 ISZERO PUSH2 0x89D JUMPI DUP1 PUSH1 0x1F LT PUSH2 0x872 JUMPI PUSH2 0x100 DUP1 DUP4 SLOAD DIV MUL DUP4 MSTORE SWAP2 PUSH1 0x20 ADD SWAP2 PUSH2 0x89D JUMP JUMPDEST DUP3 ADD SWAP2 SWAP1 PUSH1 0x0 MSTORE PUSH1 0x20 PUSH1 0x0 KECCAK256 SWAP1 JUMPDEST DUP2 SLOAD DUP2 MSTORE SWAP1 PUSH1 0x1 ADD SWAP1 PUSH1 0x20 ADD DUP1 DUP4 GT PUSH2 0x880 JUMPI DUP3 SWAP1 SUB PUSH1 0x1F AND DUP3 ADD SWAP2 JUMPDEST POP POP POP POP POP SWAP1 POP SWAP1 JUMP JUMPDEST PUSH1 0x0 PUSH1 0x4 SLOAD SWAP1 POP SWAP1 JUMP JUMPDEST PUSH1 0x60 PUSH1 0xB DUP1 SLOAD PUSH2 0x8C0 SWAP1 PUSH2 0x1EB1 JUMP JUMPDEST DUP1 PUSH1 0x1F ADD PUSH1 0x20 DUP1 SWAP2 DIV MUL PUSH1 0x20 ADD PUSH1 0x40 MLOAD SWAP1 DUP2 ADD PUSH1 0x40 MSTORE DUP1 SWAP3 SWAP2 SWAP1 DUP2 DUP2 MSTORE PUSH1 0x20 ADD DUP3 DUP1 SLOAD PUSH2 0x8EC SWAP1 PUSH2 0x1EB1 JUMP JUMPDEST DUP1 ISZERO PUSH2 0x939 JUMPI DUP1 PUSH1 0x1F LT PUSH2 0x90E JUMPI PUSH2 0x100 DUP1 DUP4 SLOAD DIV MUL DUP4 MSTORE SWAP2 PUSH1 0x20 ADD SWAP2 PUSH2 0x939 JUMP JUMPDEST DUP3 ADD SWAP2 SWAP1 PUSH1 0x0 MSTORE PUSH1 0x20 PUSH1 0x0 KECCAK256 SWAP1 JUMPDEST DUP2 SLOAD DUP2 MSTORE SWAP1 PUSH1 0x1 ADD SWAP1 PUSH1 0x20 ADD DUP1 DUP4 GT PUSH2 0x91C JUMPI DUP3 SWAP1 SUB PUSH1 0x1F AND DUP3 ADD SWAP2 JUMPDEST POP POP POP POP POP SWAP1 POP SWAP1 JUMP JUMPDEST PUSH1 0x6 PUSH1 0x0 SWAP1 SLOAD SWAP1 PUSH2 0x100 EXP SWAP1 DIV PUSH20 0xFFFFFFFFFFFFFFFFFFFFFFFFFFFFFFFFFFFFFFFF AND PUSH20 0xFFFFFFFFFFFFFFFFFFFFFFFFFFFFFFFFFFFFFFFF AND CALLER PUSH20 0xFFFFFFFFFFFFFFFFFFFFFFFFFFFFFFFFFFFFFFFF AND EQ PUSH2 0x9D3 JUMPI PUSH1 0x40 MLOAD PUSH32 0x8C379A000000000000000000000000000000000000000000000000000000000 DUP2 MSTORE PUSH1 0x4 ADD PUSH2 0x9CA SWAP1 PUSH2 0x1F54 JUMP JUMPDEST PUSH1 0x40 MLOAD DUP1 SWAP2 SUB SWAP1 REVERT JUMPDEST PUSH1 0x0 PUSH2 0x9DD PUSH2 0xB3E JUMP JUMPDEST POP SWAP1 POP DUP1 PUSH2 0xA3A JUMPI SELFBALANCE PUSH1 0xD DUP1 SLOAD SWAP1 POP PUSH1 0x6 PUSH1 0x14 SWAP1 SLOAD SWAP1 PUSH2 0x100 EXP SWAP1 DIV PUSH1 0xFF AND PUSH1 0x40 MLOAD PUSH32 0xF72495400000000000000000000000000000000000000000000000000000000 DUP2 MSTORE PUSH1 0x4 ADD PUSH2 0xA31 SWAP4 SWAP3 SWAP2 SWAP1 PUSH2 0x1F74 JUMP JUMPDEST PUSH1 0x40 MLOAD DUP1 SWAP2 SUB SWAP1 REVERT JUMPDEST PUSH2 0xA43 DUP3 PUSH2 0x114D JUMP JUMPDEST POP POP JUMP JUMPDEST PUSH1 0x0 DUP1 PUSH1 0xD DUP1 SLOAD SWAP1 POP SWAP1 POP PUSH1 0x0 JUMPDEST DUP2 DUP2 LT ISZERO PUSH2 0xAEC JUMPI DUP4 PUSH20 0xFFFFFFFFFFFFFFFFFFFFFFFFFFFFFFFFFFFFFFFF AND PUSH1 0xD DUP3 DUP2 SLOAD DUP2 LT PUSH2 0xA88 JUMPI PUSH2 0xA87 PUSH2 0x1FAB JUMP JUMPDEST JUMPDEST SWAP1 PUSH1 0x0 MSTORE PUSH1 0x20 PUSH1 0x0 KECCAK256 ADD PUSH1 0x0 SWAP1 SLOAD SWAP1 PUSH2 0x100 EXP SWAP1 DIV PUSH20 0xFFFFFFFFFFFFFFFFFFFFFFFFFFFFFFFFFFFFFFFF AND PUSH20 0xFFFFFFFFFFFFFFFFFFFFFFFFFFFFFFFFFFFFFFFF AND SUB PUSH2 0xAD9 JUMPI PUSH1 0x1 SWAP3 POP POP POP PUSH2 0xAF3 JUMP JUMPDEST DUP1 DUP1 PUSH2 0xAE4 SWAP1 PUSH2 0x1FDA JUMP JUMPDEST SWAP2 POP POP PUSH2 0xA55 JUMP JUMPDEST POP PUSH1 0x0 SWAP2 POP POP JUMPDEST SWAP2 SWAP1 POP JUMP JUMPDEST PUSH1 0x0 PUSH1 0x1 SLOAD SWAP1 POP SWAP1 JUMP JUMPDEST PUSH1 0xC PUSH1 0x20 MSTORE DUP1 PUSH1 0x0 MSTORE PUSH1 0x40 PUSH1 0x0 KECCAK256 PUSH1 0x0 SWAP2 POP SWAP1 POP DUP1 PUSH1 0x0 ADD SLOAD SWAP1 DUP1 PUSH1 0x1 ADD PUSH1 0x0 SWAP1 SLOAD SWAP1 PUSH2 0x100 EXP SWAP1 DIV PUSH2 0xFFFF AND SWAP1 POP DUP3 JUMP JUMPDEST PUSH1 0x0 PUSH1 0x2 SLOAD SWAP1 POP SWAP1 JUMP JUMPDEST PUSH1 0x0 PUSH1 0x60 PUSH1 0x0 DUP1 ISZERO ISZERO PUSH1 0x6 PUSH1 0x14 SWAP1 SLOAD SWAP1 PUSH2 0x100 EXP SWAP1 DIV PUSH1 0xFF AND ISZERO ISZERO EQ SWAP1 POP PUSH1 0x0 DUP1 PUSH1 0x4 SLOAD TIMESTAMP PUSH2 0xB6D SWAP2 SWAP1 PUSH2 0x1D78 JUMP JUMPDEST GT SWAP1 POP PUSH1 0x0 DUP1 PUSH1 0xD DUP1 SLOAD SWAP1 POP GT SWAP1 POP PUSH1 0x0 DUP1 SELFBALANCE GT SWAP1 POP DUP3 DUP1 ISZERO PUSH2 0xB8D JUMPI POP DUP4 JUMPDEST DUP1 ISZERO PUSH2 0xB96 JUMPI POP DUP1 JUMPDEST DUP1 ISZERO PUSH2 0xB9F JUMPI POP DUP2 JUMPDEST SWAP6 POP DUP6 PUSH1 0x40 MLOAD DUP1 PUSH1 0x40 ADD PUSH1 0x40 MSTORE DUP1 PUSH1 0x3 DUP2 MSTORE PUSH1 0x20 ADD PUSH32 0x3078300000000000000000000000000000000000000000000000000000000000 DUP2 MSTORE POP SWAP6 POP SWAP6 POP POP POP POP POP SWAP1 SWAP2 JUMP JUMPDEST PUSH1 0x0 PUSH1 0x6 PUSH1 0x0 SWAP1 SLOAD SWAP1 PUSH2 0x100 EXP SWAP1 DIV PUSH20 0xFFFFFFFFFFFFFFFFFFFFFFFFFFFFFFFFFFFFFFFF AND SWAP1 POP SWAP1 JUMP JUMPDEST PUSH1 0x6 PUSH1 0x0 SWAP1 SLOAD SWAP1 PUSH2 0x100 EXP SWAP1 DIV PUSH20 0xFFFFFFFFFFFFFFFFFFFFFFFFFFFFFFFFFFFFFFFF AND PUSH20 0xFFFFFFFFFFFFFFFFFFFFFFFFFFFFFFFFFFFFFFFF AND CALLER PUSH20 0xFFFFFFFFFFFFFFFFFFFFFFFFFFFFFFFFFFFFFFFF AND EQ PUSH2 0xC9E JUMPI PUSH1 0x40 MLOAD PUSH32 0x8C379A000000000000000000000000000000000000000000000000000000000 DUP2 MSTORE PUSH1 0x4 ADD PUSH2 0xC95 SWAP1 PUSH2 0x1F54 JUMP JUMPDEST PUSH1 0x40 MLOAD DUP1 SWAP2 SUB SWAP1 REVERT JUMPDEST PUSH1 0x0 PUSH1 0x6 PUSH1 0x14 PUSH2 0x100 EXP DUP2 SLOAD DUP2 PUSH1 0xFF MUL NOT AND SWAP1 DUP4 ISZERO ISZERO MUL OR SWAP1 SSTORE POP DUP6 PUSH1 0x7 SWAP1 DUP2 PUSH2 0xCC8 SWAP2 SWAP1 PUSH2 0x21CE JUMP JUMPDEST POP DUP5 PUSH1 0x8 SWAP1 DUP2 PUSH2 0xCD8 SWAP2 SWAP1 PUSH2 0x21CE JUMP JUMPDEST POP DUP4 PUSH1 0xA SWAP1 DUP2 PUSH2 0xCE8 SWAP2 SWAP1 PUSH2 0x21CE JUMP JUMPDEST POP DUP3 PUSH1 0x9 SWAP1 DUP2 PUSH2 0xCF8 SWAP2 SWAP1 PUSH2 0x21CE JUMP JUMPDEST POP DUP2 PUSH1 0xB SWAP1 DUP2 PUSH2 0xD08 SWAP2 SWAP1 PUSH2 0x21CE JUMP JUMPDEST POP DUP1 PUSH1 0x4 DUP2 SWAP1 SSTORE POP PUSH1 0x0 PUSH8 0xFFFFFFFFFFFFFFFF DUP2 GT ISZERO PUSH2 0xD2B JUMPI PUSH2 0xD2A PUSH2 0x1A04 JUMP JUMPDEST JUMPDEST PUSH1 0x40 MLOAD SWAP1 DUP1 DUP3 MSTORE DUP1 PUSH1 0x20 MUL PUSH1 0x20 ADD DUP3 ADD PUSH1 0x40 MSTORE DUP1 ISZERO PUSH2 0xD59 JUMPI DUP2 PUSH1 0x20 ADD PUSH1 0x20 DUP3 MUL DUP1 CALLDATASIZE DUP4 CALLDATACOPY DUP1 DUP3 ADD SWAP2 POP POP SWAP1 POP JUMPDEST POP PUSH1 0xD SWAP1 DUP1 MLOAD SWAP1 PUSH1 0x20 ADD SWAP1 PUSH2 0xD6F SWAP3 SWAP2 SWAP1 PUSH2 0x1629 JUMP JUMPDEST POP TIMESTAMP PUSH1 0x3 DUP2 SWAP1 SSTORE POP POP POP POP POP POP POP JUMP JUMPDEST PUSH1 0x60 PUSH1 0x9 DUP1 SLOAD PUSH2 0xD8E SWAP1 PUSH2 0x1EB1 JUMP JUMPDEST DUP1 PUSH1 0x1F ADD PUSH1 0x20 DUP1 SWAP2 DIV MUL PUSH1 0x20 ADD PUSH1 0x40 MLOAD SWAP1 DUP2 ADD PUSH1 0x40 MSTORE DUP1 SWAP3 SWAP2 SWAP1 DUP2 DUP2 MSTORE PUSH1 0x20 ADD DUP3 DUP1 SLOAD PUSH2 0xDBA SWAP1 PUSH2 0x1EB1 JUMP JUMPDEST DUP1 ISZERO PUSH2 0xE07 JUMPI DUP1 PUSH1 0x1F LT PUSH2 0xDDC JUMPI PUSH2 0x100 DUP1 DUP4 SLOAD DIV MUL DUP4 MSTORE SWAP2 PUSH1 0x20 ADD SWAP2 PUSH2 0xE07 JUMP JUMPDEST DUP3 ADD SWAP2 SWAP1 PUSH1 0x0 MSTORE PUSH1 0x20 PUSH1 0x0 KECCAK256 SWAP1 JUMPDEST DUP2 SLOAD DUP2 MSTORE SWAP1 PUSH1 0x1 ADD SWAP1 PUSH1 0x20 ADD DUP1 DUP4 GT PUSH2 0xDEA JUMPI DUP3 SWAP1 SUB PUSH1 0x1F AND DUP3 ADD SWAP2 JUMPDEST POP POP POP POP POP SWAP1 POP SWAP1 JUMP JUMPDEST PUSH1 0x7 DUP1 SLOAD PUSH2 0xE1E SWAP1 PUSH2 0x1EB1 JUMP JUMPDEST DUP1 PUSH1 0x1F ADD PUSH1 0x20 DUP1 SWAP2 DIV MUL PUSH1 0x20 ADD PUSH1 0x40 MLOAD SWAP1 DUP2 ADD PUSH1 0x40 MSTORE DUP1 SWAP3 SWAP2 SWAP1 DUP2 DUP2 MSTORE PUSH1 0x20 ADD DUP3 DUP1 SLOAD PUSH2 0xE4A SWAP1 PUSH2 0x1EB1 JUMP JUMPDEST DUP1 ISZERO PUSH2 0xE97 JUMPI DUP1 PUSH1 0x1F LT PUSH2 0xE6C JUMPI PUSH2 0x100 DUP1 DUP4 SLOAD DIV MUL DUP4 MSTORE SWAP2 PUSH1 0x20 ADD SWAP2 PUSH2 0xE97 JUMP JUMPDEST DUP3 ADD SWAP2 SWAP1 PUSH1 0x0 MSTORE PUSH1 0x20 PUSH1 0x0 KECCAK256 SWAP1 JUMPDEST DUP2 SLOAD DUP2 MSTORE SWAP1 PUSH1 0x1 ADD SWAP1 PUSH1 0x20 ADD DUP1 DUP4 GT PUSH2 0xE7A JUMPI DUP3 SWAP1 SUB PUSH1 0x1F AND DUP3 ADD SWAP2 JUMPDEST POP POP POP POP POP DUP2 JUMP JUMPDEST PUSH2 0xEA8 CALLER PUSH2 0xA47 JUMP JUMPDEST ISZERO PUSH2 0xEB2 JUMPI PUSH1 0x0 DUP1 REVERT JUMPDEST PUSH1 0x6 PUSH1 0x14 SWAP1 SLOAD SWAP1 PUSH2 0x100 EXP SWAP1 DIV PUSH1 0xFF AND ISZERO PUSH2 0xECC JUMPI PUSH1 0x0 DUP1 REVERT JUMPDEST PUSH1 0x0 SLOAD CALLVALUE LT ISZERO PUSH2 0xF11 JUMPI PUSH1 0x40 MLOAD PUSH32 0x8C379A000000000000000000000000000000000000000000000000000000000 DUP2 MSTORE PUSH1 0x4 ADD PUSH2 0xF08 SWAP1 PUSH2 0x1D29 JUMP JUMPDEST PUSH1 0x40 MLOAD DUP1 SWAP2 SUB SWAP1 REVERT JUMPDEST CALLVALUE PUSH1 0xC PUSH1 0x0 CALLER PUSH20 0xFFFFFFFFFFFFFFFFFFFFFFFFFFFFFFFFFFFFFFFF AND PUSH20 0xFFFFFFFFFFFFFFFFFFFFFFFFFFFFFFFFFFFFFFFF AND DUP2 MSTORE PUSH1 0x20 ADD SWAP1 DUP2 MSTORE PUSH1 0x20 ADD PUSH1 0x0 KECCAK256 PUSH1 0x0 ADD DUP2 SWAP1 SSTORE POP PUSH1 0x2 PUSH1 0xC PUSH1 0x0 CALLER PUSH20 0xFFFFFFFFFFFFFFFFFFFFFFFFFFFFFFFFFFFFFFFF AND PUSH20 0xFFFFFFFFFFFFFFFFFFFFFFFFFFFFFFFFFFFFFFFF AND DUP2 MSTORE PUSH1 0x20 ADD SWAP1 DUP2 MSTORE PUSH1 0x20 ADD PUSH1 0x0 KECCAK256 PUSH1 0x1 ADD PUSH1 0x0 PUSH2 0x100 EXP DUP2 SLOAD DUP2 PUSH2 0xFFFF MUL NOT AND SWAP1 DUP4 PUSH2 0xFFFF AND MUL OR SWAP1 SSTORE POP PUSH1 0xD CALLER SWAP1 DUP1 PUSH1 0x1 DUP2 SLOAD ADD DUP1 DUP3 SSTORE DUP1 SWAP2 POP POP PUSH1 0x1 SWAP1 SUB SWAP1 PUSH1 0x0 MSTORE PUSH1 0x20 PUSH1 0x0 KECCAK256 ADD PUSH1 0x0 SWAP1 SWAP2 SWAP1 SWAP2 SWAP1 SWAP2 PUSH2 0x100 EXP DUP2 SLOAD DUP2 PUSH20 0xFFFFFFFFFFFFFFFFFFFFFFFFFFFFFFFFFFFFFFFF MUL NOT AND SWAP1 DUP4 PUSH20 0xFFFFFFFFFFFFFFFFFFFFFFFFFFFFFFFFFFFFFFFF AND MUL OR SWAP1 SSTORE POP PUSH1 0x64 PUSH1 0xF SLOAD PUSH1 0x64 PUSH2 0x102A SWAP2 SWAP1 PUSH2 0x1D78 JUMP JUMPDEST CALLVALUE PUSH2 0x1035 SWAP2 SWAP1 PUSH2 0x1DAC JUMP JUMPDEST PUSH2 0x103F SWAP2 SWAP1 PUSH2 0x1E1D JUMP JUMPDEST PUSH1 0x2 PUSH1 0x0 DUP3 DUP3 SLOAD PUSH2 0x1050 SWAP2 SWAP1 PUSH2 0x1E4E JUMP JUMPDEST SWAP3 POP POP DUP2 SWAP1 SSTORE POP CALLER PUSH20 0xFFFFFFFFFFFFFFFFFFFFFFFFFFFFFFFFFFFFFFFF AND PUSH32 0x7F47E4B864EE52D8CA461D379020BE7E99AE801A152DDE71193BDC651DA8A7C0 PUSH1 0x40 MLOAD PUSH1 0x40 MLOAD DUP1 SWAP2 SUB SWAP1 LOG2 JUMP JUMPDEST PUSH1 0x0 PUSH1 0xD DUP3 DUP2 SLOAD DUP2 LT PUSH2 0x10B2 JUMPI PUSH2 0x10B1 PUSH2 0x1FAB JUMP JUMPDEST JUMPDEST SWAP1 PUSH1 0x0 MSTORE PUSH1 0x20 PUSH1 0x0 KECCAK256 ADD PUSH1 0x0 SWAP1 SLOAD SWAP1 PUSH2 0x100 EXP SWAP1 DIV PUSH20 0xFFFFFFFFFFFFFFFFFFFFFFFFFFFFFFFFFFFFFFFF AND SWAP1 POP SWAP2 SWAP1 POP JUMP JUMPDEST PUSH1 0x6 PUSH1 0x14 SWAP1 SLOAD SWAP1 PUSH2 0x100 EXP SWAP1 DIV PUSH1 0xFF AND DUP2 JUMP JUMPDEST PUSH1 0xD DUP2 DUP2 SLOAD DUP2 LT PUSH2 0x1107 JUMPI PUSH1 0x0 DUP1 REVERT JUMPDEST SWAP1 PUSH1 0x0 MSTORE PUSH1 0x20 PUSH1 0x0 KECCAK256 ADD PUSH1 0x0 SWAP2 POP SLOAD SWAP1 PUSH2 0x100 EXP SWAP1 DIV PUSH20 0xFFFFFFFFFFFFFFFFFFFFFFFFFFFFFFFFFFFFFFFF AND DUP2 JUMP JUMPDEST PUSH1 0x0 PUSH1 0xD DUP1 SLOAD SWAP1 POP SWAP1 POP SWAP1 JUMP JUMPDEST PUSH1 0x0 PUSH1 0xF SLOAD SWAP1 POP SWAP1 JUMP JUMPDEST PUSH1 0x6 PUSH1 0x0 SWAP1 SLOAD SWAP1 PUSH2 0x100 EXP SWAP1 DIV PUSH20 0xFFFFFFFFFFFFFFFFFFFFFFFFFFFFFFFFFFFFFFFF AND PUSH20 0xFFFFFFFFFFFFFFFFFFFFFFFFFFFFFFFFFFFFFFFF AND CALLER PUSH20 0xFFFFFFFFFFFFFFFFFFFFFFFFFFFFFFFFFFFFFFFF AND EQ PUSH2 0x11DD JUMPI PUSH1 0x40 MLOAD PUSH32 0x8C379A000000000000000000000000000000000000000000000000000000000 DUP2 MSTORE PUSH1 0x4 ADD PUSH2 0x11D4 SWAP1 PUSH2 0x1F54 JUMP JUMPDEST PUSH1 0x40 MLOAD DUP1 SWAP2 SUB SWAP1 REVERT JUMPDEST PUSH1 0x0 DUP1 PUSH1 0x0 DUP1 PUSH1 0x0 DUP1 PUSH1 0x0 SWAP1 POP JUMPDEST PUSH1 0xD DUP1 SLOAD SWAP1 POP DUP2 LT ISZERO PUSH2 0x130F JUMPI PUSH1 0xD DUP2 DUP2 SLOAD DUP2 LT PUSH2 0x120C JUMPI PUSH2 0x120B PUSH2 0x1FAB JUMP JUMPDEST JUMPDEST SWAP1 PUSH1 0x0 MSTORE PUSH1 0x20 PUSH1 0x0 KECCAK256 ADD PUSH1 0x0 SWAP1 SLOAD SWAP1 PUSH2 0x100 EXP SWAP1 DIV PUSH20 0xFFFFFFFFFFFFFFFFFFFFFFFFFFFFFFFFFFFFFFFF AND SWAP2 POP DUP7 PUSH2 0xFFFF AND PUSH1 0xC PUSH1 0x0 DUP5 PUSH20 0xFFFFFFFFFFFFFFFFFFFFFFFFFFFFFFFFFFFFFFFF AND PUSH20 0xFFFFFFFFFFFFFFFFFFFFFFFFFFFFFFFFFFFFFFFF AND DUP2 MSTORE PUSH1 0x20 ADD SWAP1 DUP2 MSTORE PUSH1 0x20 ADD PUSH1 0x0 KECCAK256 PUSH1 0x1 ADD PUSH1 0x0 SWAP1 SLOAD SWAP1 PUSH2 0x100 EXP SWAP1 DIV PUSH2 0xFFFF AND PUSH2 0xFFFF AND SUB PUSH2 0x12FC JUMPI PUSH1 0xE DUP3 SWAP1 DUP1 PUSH1 0x1 DUP2 SLOAD ADD DUP1 DUP3 SSTORE DUP1 SWAP2 POP POP PUSH1 0x1 SWAP1 SUB SWAP1 PUSH1 0x0 MSTORE PUSH1 0x20 PUSH1 0x0 KECCAK256 ADD PUSH1 0x0 SWAP1 SWAP2 SWAP1 SWAP2 SWAP1 SWAP2 PUSH2 0x100 EXP DUP2 SLOAD DUP2 PUSH20 0xFFFFFFFFFFFFFFFFFFFFFFFFFFFFFFFFFFFFFFFF MUL NOT AND SWAP1 DUP4 PUSH20 0xFFFFFFFFFFFFFFFFFFFFFFFFFFFFFFFFFFFFFFFF AND MUL OR SWAP1 SSTORE POP JUMPDEST DUP1 DUP1 PUSH2 0x1307 SWAP1 PUSH2 0x1FDA JUMP JUMPDEST SWAP2 POP POP PUSH2 0x11EB JUMP JUMPDEST POP PUSH1 0x1 DUP7 PUSH2 0xFFFF AND SUB PUSH2 0x132B JUMPI PUSH1 0x2 SLOAD SWAP5 POP PUSH1 0x1 SLOAD SWAP4 POP PUSH2 0x1336 JUMP JUMPDEST PUSH1 0x1 SLOAD SWAP5 POP PUSH1 0x2 SLOAD SWAP4 POP JUMPDEST PUSH1 0x0 JUMPDEST PUSH1 0xE DUP1 SLOAD SWAP1 POP DUP2 LT ISZERO PUSH2 0x14A7 JUMPI PUSH1 0xE DUP2 DUP2 SLOAD DUP2 LT PUSH2 0x135A JUMPI PUSH2 0x1359 PUSH2 0x1FAB JUMP JUMPDEST JUMPDEST SWAP1 PUSH1 0x0 MSTORE PUSH1 0x20 PUSH1 0x0 KECCAK256 ADD PUSH1 0x0 SWAP1 SLOAD SWAP1 PUSH2 0x100 EXP SWAP1 DIV PUSH20 0xFFFFFFFFFFFFFFFFFFFFFFFFFFFFFFFFFFFFFFFF AND SWAP4 POP PUSH1 0xC PUSH1 0x0 DUP6 PUSH20 0xFFFFFFFFFFFFFFFFFFFFFFFFFFFFFFFFFFFFFFFF AND PUSH20 0xFFFFFFFFFFFFFFFFFFFFFFFFFFFFFFFFFFFFFFFF AND DUP2 MSTORE PUSH1 0x20 ADD SWAP1 DUP2 MSTORE PUSH1 0x20 ADD PUSH1 0x0 KECCAK256 PUSH1 0x0 ADD SLOAD SWAP3 POP PUSH1 0x0 PUSH2 0x2710 DUP7 PUSH2 0x2710 DUP10 PUSH2 0x13E0 SWAP2 SWAP1 PUSH2 0x1DAC JUMP JUMPDEST PUSH2 0x13EA SWAP2 SWAP1 PUSH2 0x1E1D JUMP JUMPDEST PUSH2 0x2710 PUSH2 0x13F7 SWAP2 SWAP1 PUSH2 0x1E4E JUMP JUMPDEST DUP6 PUSH2 0x1402 SWAP2 SWAP1 PUSH2 0x1DAC JUMP JUMPDEST PUSH2 0x140C SWAP2 SWAP1 PUSH2 0x1E1D JUMP JUMPDEST SWAP1 POP PUSH1 0xE DUP3 DUP2 SLOAD DUP2 LT PUSH2 0x1422 JUMPI PUSH2 0x1421 PUSH2 0x1FAB JUMP JUMPDEST JUMPDEST SWAP1 PUSH1 0x0 MSTORE PUSH1 0x20 PUSH1 0x0 KECCAK256 ADD PUSH1 0x0 SWAP1 SLOAD SWAP1 PUSH2 0x100 EXP SWAP1 DIV PUSH20 0xFFFFFFFFFFFFFFFFFFFFFFFFFFFFFFFFFFFFFFFF AND PUSH20 0xFFFFFFFFFFFFFFFFFFFFFFFFFFFFFFFFFFFFFFFF AND PUSH2 0x8FC DUP3 SWAP1 DUP2 ISZERO MUL SWAP1 PUSH1 0x40 MLOAD PUSH1 0x0 PUSH1 0x40 MLOAD DUP1 DUP4 SUB DUP2 DUP6 DUP9 DUP9 CALL SWAP4 POP POP POP POP ISZERO DUP1 ISZERO PUSH2 0x1492 JUMPI RETURNDATASIZE PUSH1 0x0 DUP1 RETURNDATACOPY RETURNDATASIZE PUSH1 0x0 REVERT JUMPDEST POP POP DUP1 DUP1 PUSH2 0x149F SWAP1 PUSH2 0x1FDA JUMP JUMPDEST SWAP2 POP POP PUSH2 0x1339 JUMP JUMPDEST POP PUSH1 0x5 PUSH1 0x0 SWAP1 SLOAD SWAP1 PUSH2 0x100 EXP SWAP1 DIV PUSH20 0xFFFFFFFFFFFFFFFFFFFFFFFFFFFFFFFFFFFFFFFF AND PUSH20 0xFFFFFFFFFFFFFFFFFFFFFFFFFFFFFFFFFFFFFFFF AND PUSH2 0x8FC SELFBALANCE SWAP1 DUP2 ISZERO MUL SWAP1 PUSH1 0x40 MLOAD PUSH1 0x0 PUSH1 0x40 MLOAD DUP1 DUP4 SUB DUP2 DUP6 DUP9 DUP9 CALL SWAP4 POP POP POP POP ISZERO DUP1 ISZERO PUSH2 0x1510 JUMPI RETURNDATASIZE PUSH1 0x0 DUP1 RETURNDATACOPY RETURNDATASIZE PUSH1 0x0 REVERT JUMPDEST POP PUSH1 0x1 PUSH1 0x6 PUSH1 0x14 PUSH2 0x100 EXP DUP2 SLOAD DUP2 PUSH1 0xFF MUL NOT AND SWAP1 DUP4 ISZERO ISZERO MUL OR SWAP1 SSTORE POP PUSH1 0x0 JUMPDEST PUSH1 0xD DUP1 SLOAD SWAP1 POP DUP2 LT ISZERO PUSH2 0x15EC JUMPI PUSH1 0xC PUSH1 0x0 PUSH1 0xD DUP4 DUP2 SLOAD DUP2 LT PUSH2 0x1554 JUMPI PUSH2 0x1553 PUSH2 0x1FAB JUMP JUMPDEST JUMPDEST SWAP1 PUSH1 0x0 MSTORE PUSH1 0x20 PUSH1 0x0 KECCAK256 ADD PUSH1 0x0 SWAP1 SLOAD SWAP1 PUSH2 0x100 EXP SWAP1 DIV PUSH20 0xFFFFFFFFFFFFFFFFFFFFFFFFFFFFFFFFFFFFFFFF AND PUSH20 0xFFFFFFFFFFFFFFFFFFFFFFFFFFFFFFFFFFFFFFFF AND PUSH20 0xFFFFFFFFFFFFFFFFFFFFFFFFFFFFFFFFFFFFFFFF AND DUP2 MSTORE PUSH1 0x20 ADD SWAP1 DUP2 MSTORE PUSH1 0x20 ADD PUSH1 0x0 KECCAK256 PUSH1 0x0 DUP1 DUP3 ADD PUSH1 0x0 SWAP1 SSTORE PUSH1 0x1 DUP3 ADD PUSH1 0x0 PUSH2 0x100 EXP DUP2 SLOAD SWAP1 PUSH2 0xFFFF MUL NOT AND SWAP1 SSTORE POP POP DUP1 DUP1 PUSH2 0x15E4 SWAP1 PUSH2 0x1FDA JUMP JUMPDEST SWAP2 POP POP PUSH2 0x152F JUMP JUMPDEST POP PUSH1 0xD PUSH1 0x0 PUSH2 0x15FB SWAP2 SWAP1 PUSH2 0x16B3 JUMP JUMPDEST PUSH1 0xE PUSH1 0x0 PUSH2 0x1609 SWAP2 SWAP1 PUSH2 0x16B3 JUMP JUMPDEST PUSH1 0x0 SWAP5 POP PUSH1 0x0 SWAP4 POP PUSH1 0x0 PUSH1 0x1 DUP2 SWAP1 SSTORE POP PUSH1 0x0 PUSH1 0x2 DUP2 SWAP1 SSTORE POP POP POP POP POP POP POP JUMP JUMPDEST DUP3 DUP1 SLOAD DUP3 DUP3 SSTORE SWAP1 PUSH1 0x0 MSTORE PUSH1 0x20 PUSH1 0x0 KECCAK256 SWAP1 DUP2 ADD SWAP3 DUP3 ISZERO PUSH2 0x16A2 JUMPI SWAP2 PUSH1 0x20 MUL DUP3 ADD JUMPDEST DUP3 DUP2 GT ISZERO PUSH2 0x16A1 JUMPI DUP3 MLOAD DUP3 PUSH1 0x0 PUSH2 0x100 EXP DUP2 SLOAD DUP2 PUSH20 0xFFFFFFFFFFFFFFFFFFFFFFFFFFFFFFFFFFFFFFFF MUL NOT AND SWAP1 DUP4 PUSH20 0xFFFFFFFFFFFFFFFFFFFFFFFFFFFFFFFFFFFFFFFF AND MUL OR SWAP1 SSTORE POP SWAP2 PUSH1 0x20 ADD SWAP2 SWAP1 PUSH1 0x1 ADD SWAP1 PUSH2 0x1649 JUMP JUMPDEST JUMPDEST POP SWAP1 POP PUSH2 0x16AF SWAP2 SWAP1 PUSH2 0x16D4 JUMP JUMPDEST POP SWAP1 JUMP JUMPDEST POP DUP1 SLOAD PUSH1 0x0 DUP3 SSTORE SWAP1 PUSH1 0x0 MSTORE PUSH1 0x20 PUSH1 0x0 KECCAK256 SWAP1 DUP2 ADD SWAP1 PUSH2 0x16D1 SWAP2 SWAP1 PUSH2 0x16D4 JUMP JUMPDEST POP JUMP JUMPDEST JUMPDEST DUP1 DUP3 GT ISZERO PUSH2 0x16ED JUMPI PUSH1 0x0 DUP2 PUSH1 0x0 SWAP1 SSTORE POP PUSH1 0x1 ADD PUSH2 0x16D5 JUMP JUMPDEST POP SWAP1 JUMP JUMPDEST PUSH1 0x0 DUP2 SWAP1 POP SWAP2 SWAP1 POP JUMP JUMPDEST PUSH2 0x1704 DUP2 PUSH2 0x16F1 JUMP JUMPDEST DUP3 MSTORE POP POP JUMP JUMPDEST PUSH1 0x0 PUSH1 0x20 DUP3 ADD SWAP1 POP PUSH2 0x171F PUSH1 0x0 DUP4 ADD DUP5 PUSH2 0x16FB JUMP JUMPDEST SWAP3 SWAP2 POP POP JUMP JUMPDEST PUSH1 0x0 DUP2 MLOAD SWAP1 POP SWAP2 SWAP1 POP JUMP JUMPDEST PUSH1 0x0 DUP3 DUP3 MSTORE PUSH1 0x20 DUP3 ADD SWAP1 POP SWAP3 SWAP2 POP POP JUMP JUMPDEST PUSH1 0x0 JUMPDEST DUP4 DUP2 LT ISZERO PUSH2 0x175F JUMPI DUP1 DUP3 ADD MLOAD DUP2 DUP5 ADD MSTORE PUSH1 0x20 DUP2 ADD SWAP1 POP PUSH2 0x1744 JUMP JUMPDEST PUSH1 0x0 DUP5 DUP5 ADD MSTORE POP POP POP POP JUMP JUMPDEST PUSH1 0x0 PUSH1 0x1F NOT PUSH1 0x1F DUP4 ADD AND SWAP1 POP SWAP2 SWAP1 POP JUMP JUMPDEST PUSH1 0x0 PUSH2 0x1787 DUP3 PUSH2 0x1725 JUMP JUMPDEST PUSH2 0x1791 DUP2 DUP6 PUSH2 0x1730 JUMP JUMPDEST SWAP4 POP PUSH2 0x17A1 DUP2 DUP6 PUSH1 0x20 DUP7 ADD PUSH2 0x1741 JUMP JUMPDEST PUSH2 0x17AA DUP2 PUSH2 0x176B JUMP JUMPDEST DUP5 ADD SWAP2 POP POP SWAP3 SWAP2 POP POP JUMP JUMPDEST PUSH1 0x0 PUSH1 0x20 DUP3 ADD SWAP1 POP DUP2 DUP2 SUB PUSH1 0x0 DUP4 ADD MSTORE PUSH2 0x17CF DUP2 DUP5 PUSH2 0x177C JUMP JUMPDEST SWAP1 POP SWAP3 SWAP2 POP POP JUMP JUMPDEST PUSH1 0x0 DUP2 ISZERO ISZERO SWAP1 POP SWAP2 SWAP1 POP JUMP JUMPDEST PUSH2 0x17EC DUP2 PUSH2 0x17D7 JUMP JUMPDEST DUP3 MSTORE POP POP JUMP JUMPDEST PUSH1 0x0 PUSH1 0x20 DUP3 ADD SWAP1 POP PUSH2 0x1807 PUSH1 0x0 DUP4 ADD DUP5 PUSH2 0x17E3 JUMP JUMPDEST SWAP3 SWAP2 POP POP JUMP JUMPDEST PUSH1 0x0 PUSH1 0x40 MLOAD SWAP1 POP SWAP1 JUMP JUMPDEST PUSH1 0x0 DUP1 REVERT JUMPDEST PUSH1 0x0 DUP1 REVERT JUMPDEST PUSH1 0x0 PUSH2 0xFFFF DUP3 AND SWAP1 POP SWAP2 SWAP1 POP JUMP JUMPDEST PUSH2 0x1838 DUP2 PUSH2 0x1821 JUMP JUMPDEST DUP2 EQ PUSH2 0x1843 JUMPI PUSH1 0x0 DUP1 REVERT JUMPDEST POP JUMP JUMPDEST PUSH1 0x0 DUP2 CALLDATALOAD SWAP1 POP PUSH2 0x1855 DUP2 PUSH2 0x182F JUMP JUMPDEST SWAP3 SWAP2 POP POP JUMP JUMPDEST PUSH1 0x0 PUSH1 0x20 DUP3 DUP5 SUB SLT ISZERO PUSH2 0x1871 JUMPI PUSH2 0x1870 PUSH2 0x1817 JUMP JUMPDEST JUMPDEST PUSH1 0x0 PUSH2 0x187F DUP5 DUP3 DUP6 ADD PUSH2 0x1846 JUMP JUMPDEST SWAP2 POP POP SWAP3 SWAP2 POP POP JUMP JUMPDEST PUSH1 0x0 PUSH20 0xFFFFFFFFFFFFFFFFFFFFFFFFFFFFFFFFFFFFFFFF DUP3 AND SWAP1 POP SWAP2 SWAP1 POP JUMP JUMPDEST PUSH1 0x0 PUSH2 0x18B3 DUP3 PUSH2 0x1888 JUMP JUMPDEST SWAP1 POP SWAP2 SWAP1 POP JUMP JUMPDEST PUSH2 0x18C3 DUP2 PUSH2 0x18A8 JUMP JUMPDEST DUP2 EQ PUSH2 0x18CE JUMPI PUSH1 0x0 DUP1 REVERT JUMPDEST POP JUMP JUMPDEST PUSH1 0x0 DUP2 CALLDATALOAD SWAP1 POP PUSH2 0x18E0 DUP2 PUSH2 0x18BA JUMP JUMPDEST SWAP3 SWAP2 POP POP JUMP JUMPDEST PUSH1 0x0 PUSH1 0x20 DUP3 DUP5 SUB SLT ISZERO PUSH2 0x18FC JUMPI PUSH2 0x18FB PUSH2 0x1817 JUMP JUMPDEST JUMPDEST PUSH1 0x0 PUSH2 0x190A DUP5 DUP3 DUP6 ADD PUSH2 0x18D1 JUMP JUMPDEST SWAP2 POP POP SWAP3 SWAP2 POP POP JUMP JUMPDEST PUSH2 0x191C DUP2 PUSH2 0x1821 JUMP JUMPDEST DUP3 MSTORE POP POP JUMP JUMPDEST PUSH1 0x0 PUSH1 0x40 DUP3 ADD SWAP1 POP PUSH2 0x1937 PUSH1 0x0 DUP4 ADD DUP6 PUSH2 0x16FB JUMP JUMPDEST PUSH2 0x1944 PUSH1 0x20 DUP4 ADD DUP5 PUSH2 0x1913 JUMP JUMPDEST SWAP4 SWAP3 POP POP POP JUMP JUMPDEST PUSH1 0x0 DUP2 MLOAD SWAP1 POP SWAP2 SWAP1 POP JUMP JUMPDEST PUSH1 0x0 DUP3 DUP3 MSTORE PUSH1 0x20 DUP3 ADD SWAP1 POP SWAP3 SWAP2 POP POP JUMP JUMPDEST PUSH1 0x0 PUSH2 0x1972 DUP3 PUSH2 0x194B JUMP JUMPDEST PUSH2 0x197C DUP2 DUP6 PUSH2 0x1956 JUMP JUMPDEST SWAP4 POP PUSH2 0x198C DUP2 DUP6 PUSH1 0x20 DUP7 ADD PUSH2 0x1741 JUMP JUMPDEST PUSH2 0x1995 DUP2 PUSH2 0x176B JUMP JUMPDEST DUP5 ADD SWAP2 POP POP SWAP3 SWAP2 POP POP JUMP JUMPDEST PUSH1 0x0 PUSH1 0x40 DUP3 ADD SWAP1 POP PUSH2 0x19B5 PUSH1 0x0 DUP4 ADD DUP6 PUSH2 0x17E3 JUMP JUMPDEST DUP2 DUP2 SUB PUSH1 0x20 DUP4 ADD MSTORE PUSH2 0x19C7 DUP2 DUP5 PUSH2 0x1967 JUMP JUMPDEST SWAP1 POP SWAP4 SWAP3 POP POP POP JUMP JUMPDEST PUSH2 0x19D9 DUP2 PUSH2 0x18A8 JUMP JUMPDEST DUP3 MSTORE POP POP JUMP JUMPDEST PUSH1 0x0 PUSH1 0x20 DUP3 ADD SWAP1 POP PUSH2 0x19F4 PUSH1 0x0 DUP4 ADD DUP5 PUSH2 0x19D0 JUMP JUMPDEST SWAP3 SWAP2 POP POP JUMP JUMPDEST PUSH1 0x0 DUP1 REVERT JUMPDEST PUSH1 0x0 DUP1 REVERT JUMPDEST PUSH32 0x4E487B7100000000000000000000000000000000000000000000000000000000 PUSH1 0x0 MSTORE PUSH1 0x41 PUSH1 0x4 MSTORE PUSH1 0x24 PUSH1 0x0 REVERT JUMPDEST PUSH2 0x1A3C DUP3 PUSH2 0x176B JUMP JUMPDEST DUP2 ADD DUP2 DUP2 LT PUSH8 0xFFFFFFFFFFFFFFFF DUP3 GT OR ISZERO PUSH2 0x1A5B JUMPI PUSH2 0x1A5A PUSH2 0x1A04 JUMP JUMPDEST JUMPDEST DUP1 PUSH1 0x40 MSTORE POP POP POP JUMP JUMPDEST PUSH1 0x0 PUSH2 0x1A6E PUSH2 0x180D JUMP JUMPDEST SWAP1 POP PUSH2 0x1A7A DUP3 DUP3 PUSH2 0x1A33 JUMP JUMPDEST SWAP2 SWAP1 POP JUMP JUMPDEST PUSH1 0x0 PUSH8 0xFFFFFFFFFFFFFFFF DUP3 GT ISZERO PUSH2 0x1A9A JUMPI PUSH2 0x1A99 PUSH2 0x1A04 JUMP JUMPDEST JUMPDEST PUSH2 0x1AA3 DUP3 PUSH2 0x176B JUMP JUMPDEST SWAP1 POP PUSH1 0x20 DUP2 ADD SWAP1 POP SWAP2 SWAP1 POP JUMP JUMPDEST DUP3 DUP2 DUP4 CALLDATACOPY PUSH1 0x0 DUP4 DUP4 ADD MSTORE POP POP POP JUMP JUMPDEST PUSH1 0x0 PUSH2 0x1AD2 PUSH2 0x1ACD DUP5 PUSH2 0x1A7F JUMP JUMPDEST PUSH2 0x1A64 JUMP JUMPDEST SWAP1 POP DUP3 DUP2 MSTORE PUSH1 0x20 DUP2 ADD DUP5 DUP5 DUP5 ADD GT ISZERO PUSH2 0x1AEE JUMPI PUSH2 0x1AED PUSH2 0x19FF JUMP JUMPDEST JUMPDEST PUSH2 0x1AF9 DUP5 DUP3 DUP6 PUSH2 0x1AB0 JUMP JUMPDEST POP SWAP4 SWAP3 POP POP POP JUMP JUMPDEST PUSH1 0x0 DUP3 PUSH1 0x1F DUP4 ADD SLT PUSH2 0x1B16 JUMPI PUSH2 0x1B15 PUSH2 0x19FA JUMP JUMPDEST JUMPDEST DUP2 CALLDATALOAD PUSH2 0x1B26 DUP5 DUP3 PUSH1 0x20 DUP7 ADD PUSH2 0x1ABF JUMP JUMPDEST SWAP2 POP POP SWAP3 SWAP2 POP POP JUMP JUMPDEST PUSH2 0x1B38 DUP2 PUSH2 0x16F1 JUMP JUMPDEST DUP2 EQ PUSH2 0x1B43 JUMPI PUSH1 0x0 DUP1 REVERT JUMPDEST POP JUMP JUMPDEST PUSH1 0x0 DUP2 CALLDATALOAD SWAP1 POP PUSH2 0x1B55 DUP2 PUSH2 0x1B2F JUMP JUMPDEST SWAP3 SWAP2 POP POP JUMP JUMPDEST PUSH1 0x0 DUP1 PUSH1 0x0 DUP1 PUSH1 0x0 DUP1 PUSH1 0xC0 DUP8 DUP10 SUB SLT ISZERO PUSH2 0x1B78 JUMPI PUSH2 0x1B77 PUSH2 0x1817 JUMP JUMPDEST JUMPDEST PUSH1 0x0 DUP8 ADD CALLDATALOAD PUSH8 0xFFFFFFFFFFFFFFFF DUP2 GT ISZERO PUSH2 0x1B96 JUMPI PUSH2 0x1B95 PUSH2 0x181C JUMP JUMPDEST JUMPDEST PUSH2 0x1BA2 DUP10 DUP3 DUP11 ADD PUSH2 0x1B01 JUMP JUMPDEST SWAP7 POP POP PUSH1 0x20 DUP8 ADD CALLDATALOAD PUSH8 0xFFFFFFFFFFFFFFFF DUP2 GT ISZERO PUSH2 0x1BC3 JUMPI PUSH2 0x1BC2 PUSH2 0x181C JUMP JUMPDEST JUMPDEST PUSH2 0x1BCF DUP10 DUP3 DUP11 ADD PUSH2 0x1B01 JUMP JUMPDEST SWAP6 POP POP PUSH1 0x40 DUP8 ADD CALLDATALOAD PUSH8 0xFFFFFFFFFFFFFFFF DUP2 GT ISZERO PUSH2 0x1BF0 JUMPI PUSH2 0x1BEF PUSH2 0x181C JUMP JUMPDEST JUMPDEST PUSH2 0x1BFC DUP10 DUP3 DUP11 ADD PUSH2 0x1B01 JUMP JUMPDEST SWAP5 POP POP PUSH1 0x60 DUP8 ADD CALLDATALOAD PUSH8 0xFFFFFFFFFFFFFFFF DUP2 GT ISZERO PUSH2 0x1C1D JUMPI PUSH2 0x1C1C PUSH2 0x181C JUMP JUMPDEST JUMPDEST PUSH2 0x1C29 DUP10 DUP3 DUP11 ADD PUSH2 0x1B01 JUMP JUMPDEST SWAP4 POP POP PUSH1 0x80 DUP8 ADD CALLDATALOAD PUSH8 0xFFFFFFFFFFFFFFFF DUP2 GT ISZERO PUSH2 0x1C4A JUMPI PUSH2 0x1C49 PUSH2 0x181C JUMP JUMPDEST JUMPDEST PUSH2 0x1C56 DUP10 DUP3 DUP11 ADD PUSH2 0x1B01 JUMP JUMPDEST SWAP3 POP POP PUSH1 0xA0 PUSH2 0x1C67 DUP10 DUP3 DUP11 ADD PUSH2 0x1B46 JUMP JUMPDEST SWAP2 POP POP SWAP3 SWAP6 POP SWAP3 SWAP6 POP SWAP3 SWAP6 JUMP JUMPDEST PUSH1 0x0 PUSH1 0x20 DUP3 DUP5 SUB SLT ISZERO PUSH2 0x1C8A JUMPI PUSH2 0x1C89 PUSH2 0x1817 JUMP JUMPDEST JUMPDEST PUSH1 0x0 PUSH2 0x1C98 DUP5 DUP3 DUP6 ADD PUSH2 0x1B46 JUMP JUMPDEST SWAP2 POP POP SWAP3 SWAP2 POP POP JUMP JUMPDEST PUSH1 0x0 PUSH2 0x1CAC DUP3 PUSH2 0x1888 JUMP JUMPDEST SWAP1 POP SWAP2 SWAP1 POP JUMP JUMPDEST PUSH2 0x1CBC DUP2 PUSH2 0x1CA1 JUMP JUMPDEST DUP3 MSTORE POP POP JUMP JUMPDEST PUSH1 0x0 PUSH1 0x20 DUP3 ADD SWAP1 POP PUSH2 0x1CD7 PUSH1 0x0 DUP4 ADD DUP5 PUSH2 0x1CB3 JUMP JUMPDEST SWAP3 SWAP2 POP POP JUMP JUMPDEST PUSH32 0x496E73756666696369656E742062657420616D6F756E74000000000000000000 PUSH1 0x0 DUP3 ADD MSTORE POP JUMP JUMPDEST PUSH1 0x0 PUSH2 0x1D13 PUSH1 0x17 DUP4 PUSH2 0x1730 JUMP JUMPDEST SWAP2 POP PUSH2 0x1D1E DUP3 PUSH2 0x1CDD JUMP JUMPDEST PUSH1 0x20 DUP3 ADD SWAP1 POP SWAP2 SWAP1 POP JUMP JUMPDEST PUSH1 0x0 PUSH1 0x20 DUP3 ADD SWAP1 POP DUP2 DUP2 SUB PUSH1 0x0 DUP4 ADD MSTORE PUSH2 0x1D42 DUP2 PUSH2 0x1D06 JUMP JUMPDEST SWAP1 POP SWAP2 SWAP1 POP JUMP JUMPDEST PUSH32 0x4E487B7100000000000000000000000000000000000000000000000000000000 PUSH1 0x0 MSTORE PUSH1 0x11 PUSH1 0x4 MSTORE PUSH1 0x24 PUSH1 0x0 REVERT JUMPDEST PUSH1 0x0 PUSH2 0x1D83 DUP3 PUSH2 0x16F1 JUMP JUMPDEST SWAP2 POP PUSH2 0x1D8E DUP4 PUSH2 0x16F1 JUMP JUMPDEST SWAP3 POP DUP3 DUP3 SUB SWAP1 POP DUP2 DUP2 GT ISZERO PUSH2 0x1DA6 JUMPI PUSH2 0x1DA5 PUSH2 0x1D49 JUMP JUMPDEST JUMPDEST SWAP3 SWAP2 POP POP JUMP JUMPDEST PUSH1 0x0 PUSH2 0x1DB7 DUP3 PUSH2 0x16F1 JUMP JUMPDEST SWAP2 POP PUSH2 0x1DC2 DUP4 PUSH2 0x16F1 JUMP JUMPDEST SWAP3 POP DUP3 DUP3 MUL PUSH2 0x1DD0 DUP2 PUSH2 0x16F1 JUMP JUMPDEST SWAP2 POP DUP3 DUP3 DIV DUP5 EQ DUP4 ISZERO OR PUSH2 0x1DE7 JUMPI PUSH2 0x1DE6 PUSH2 0x1D49 JUMP JUMPDEST JUMPDEST POP SWAP3 SWAP2 POP POP JUMP JUMPDEST PUSH32 0x4E487B7100000000000000000000000000000000000000000000000000000000 PUSH1 0x0 MSTORE PUSH1 0x12 PUSH1 0x4 MSTORE PUSH1 0x24 PUSH1 0x0 REVERT JUMPDEST PUSH1 0x0 PUSH2 0x1E28 DUP3 PUSH2 0x16F1 JUMP JUMPDEST SWAP2 POP PUSH2 0x1E33 DUP4 PUSH2 0x16F1 JUMP JUMPDEST SWAP3 POP DUP3 PUSH2 0x1E43 JUMPI PUSH2 0x1E42 PUSH2 0x1DEE JUMP JUMPDEST JUMPDEST DUP3 DUP3 DIV SWAP1 POP SWAP3 SWAP2 POP POP JUMP JUMPDEST PUSH1 0x0 PUSH2 0x1E59 DUP3 PUSH2 0x16F1 JUMP JUMPDEST SWAP2 POP PUSH2 0x1E64 DUP4 PUSH2 0x16F1 JUMP JUMPDEST SWAP3 POP DUP3 DUP3 ADD SWAP1 POP DUP1 DUP3 GT ISZERO PUSH2 0x1E7C JUMPI PUSH2 0x1E7B PUSH2 0x1D49 JUMP JUMPDEST JUMPDEST SWAP3 SWAP2 POP POP JUMP JUMPDEST PUSH32 0x4E487B7100000000000000000000000000000000000000000000000000000000 PUSH1 0x0 MSTORE PUSH1 0x22 PUSH1 0x4 MSTORE PUSH1 0x24 PUSH1 0x0 REVERT JUMPDEST PUSH1 0x0 PUSH1 0x2 DUP3 DIV SWAP1 POP PUSH1 0x1 DUP3 AND DUP1 PUSH2 0x1EC9 JUMPI PUSH1 0x7F DUP3 AND SWAP2 POP JUMPDEST PUSH1 0x20 DUP3 LT DUP2 SUB PUSH2 0x1EDC JUMPI PUSH2 0x1EDB PUSH2 0x1E82 JUMP JUMPDEST JUMPDEST POP SWAP2 SWAP1 POP JUMP JUMPDEST PUSH32 0x4F6E6C792061646D696E2063616E2063616C6C20746869732066756E6374696F PUSH1 0x0 DUP3 ADD MSTORE PUSH32 0x6E00000000000000000000000000000000000000000000000000000000000000 PUSH1 0x20 DUP3 ADD MSTORE POP JUMP JUMPDEST PUSH1 0x0 PUSH2 0x1F3E PUSH1 0x21 DUP4 PUSH2 0x1730 JUMP JUMPDEST SWAP2 POP PUSH2 0x1F49 DUP3 PUSH2 0x1EE2 JUMP JUMPDEST PUSH1 0x40 DUP3 ADD SWAP1 POP SWAP2 SWAP1 POP JUMP JUMPDEST PUSH1 0x0 PUSH1 0x20 DUP3 ADD SWAP1 POP DUP2 DUP2 SUB PUSH1 0x0 DUP4 ADD MSTORE PUSH2 0x1F6D DUP2 PUSH2 0x1F31 JUMP JUMPDEST SWAP1 POP SWAP2 SWAP1 POP JUMP JUMPDEST PUSH1 0x0 PUSH1 0x60 DUP3 ADD SWAP1 POP PUSH2 0x1F89 PUSH1 0x0 DUP4 ADD DUP7 PUSH2 0x16FB JUMP JUMPDEST PUSH2 0x1F96 PUSH1 0x20 DUP4 ADD DUP6 PUSH2 0x16FB JUMP JUMPDEST PUSH2 0x1FA3 PUSH1 0x40 DUP4 ADD DUP5 PUSH2 0x17E3 JUMP JUMPDEST SWAP5 SWAP4 POP POP POP POP JUMP JUMPDEST PUSH32 0x4E487B7100000000000000000000000000000000000000000000000000000000 PUSH1 0x0 MSTORE PUSH1 0x32 PUSH1 0x4 MSTORE PUSH1 0x24 PUSH1 0x0 REVERT JUMPDEST PUSH1 0x0 PUSH2 0x1FE5 DUP3 PUSH2 0x16F1 JUMP JUMPDEST SWAP2 POP PUSH32 0xFFFFFFFFFFFFFFFFFFFFFFFFFFFFFFFFFFFFFFFFFFFFFFFFFFFFFFFFFFFFFFFF DUP3 SUB PUSH2 0x2017 JUMPI PUSH2 0x2016 PUSH2 0x1D49 JUMP JUMPDEST JUMPDEST PUSH1 0x1 DUP3 ADD SWAP1 POP SWAP2 SWAP1 POP JUMP JUMPDEST PUSH1 0x0 DUP2 SWAP1 POP DUP2 PUSH1 0x0 MSTORE PUSH1 0x20 PUSH1 0x0 KECCAK256 SWAP1 POP SWAP2 SWAP1 POP JUMP JUMPDEST PUSH1 0x0 PUSH1 0x20 PUSH1 0x1F DUP4 ADD DIV SWAP1 POP SWAP2 SWAP1 POP JUMP JUMPDEST PUSH1 0x0 DUP3 DUP3 SHL SWAP1 POP SWAP3 SWAP2 POP POP JUMP JUMPDEST PUSH1 0x0 PUSH1 0x8 DUP4 MUL PUSH2 0x2084 PUSH32 0xFFFFFFFFFFFFFFFFFFFFFFFFFFFFFFFFFFFFFFFFFFFFFFFFFFFFFFFFFFFFFFFF DUP3 PUSH2 0x2047 JUMP JUMPDEST PUSH2 0x208E DUP7 DUP4 PUSH2 0x2047 JUMP JUMPDEST SWAP6 POP DUP1 NOT DUP5 AND SWAP4 POP DUP1 DUP7 AND DUP5 OR SWAP3 POP POP POP SWAP4 SWAP3 POP POP POP JUMP JUMPDEST PUSH1 0x0 DUP2 SWAP1 POP SWAP2 SWAP1 POP JUMP JUMPDEST PUSH1 0x0 PUSH2 0x20CB PUSH2 0x20C6 PUSH2 0x20C1 DUP5 PUSH2 0x16F1 JUMP JUMPDEST PUSH2 0x20A6 JUMP JUMPDEST PUSH2 0x16F1 JUMP JUMPDEST SWAP1 POP SWAP2 SWAP1 POP JUMP JUMPDEST PUSH1 0x0 DUP2 SWAP1 POP SWAP2 SWAP1 POP JUMP JUMPDEST PUSH2 0x20E5 DUP4 PUSH2 0x20B0 JUMP JUMPDEST PUSH2 0x20F9 PUSH2 0x20F1 DUP3 PUSH2 0x20D2 JUMP JUMPDEST DUP5 DUP5 SLOAD PUSH2 0x2054 JUMP JUMPDEST DUP3 SSTORE POP POP POP POP JUMP JUMPDEST PUSH1 0x0 SWAP1 JUMP JUMPDEST PUSH2 0x210E PUSH2 0x2101 JUMP JUMPDEST PUSH2 0x2119 DUP2 DUP5 DUP5 PUSH2 0x20DC JUMP JUMPDEST POP POP POP JUMP JUMPDEST JUMPDEST DUP2 DUP2 LT ISZERO PUSH2 0x213D JUMPI PUSH2 0x2132 PUSH1 0x0 DUP3 PUSH2 0x2106 JUMP JUMPDEST PUSH1 0x1 DUP2 ADD SWAP1 POP PUSH2 0x211F JUMP JUMPDEST POP POP JUMP JUMPDEST PUSH1 0x1F DUP3 GT ISZERO PUSH2 0x2182 JUMPI PUSH2 0x2153 DUP2 PUSH2 0x2022 JUMP JUMPDEST PUSH2 0x215C DUP5 PUSH2 0x2037 JUMP JUMPDEST DUP2 ADD PUSH1 0x20 DUP6 LT ISZERO PUSH2 0x216B JUMPI DUP2 SWAP1 POP JUMPDEST PUSH2 0x217F PUSH2 0x2177 DUP6 PUSH2 0x2037 JUMP JUMPDEST DUP4 ADD DUP3 PUSH2 0x211E JUMP JUMPDEST POP POP JUMPDEST POP POP POP JUMP JUMPDEST PUSH1 0x0 DUP3 DUP3 SHR SWAP1 POP SWAP3 SWAP2 POP POP JUMP JUMPDEST PUSH1 0x0 PUSH2 0x21A5 PUSH1 0x0 NOT DUP5 PUSH1 0x8 MUL PUSH2 0x2187 JUMP JUMPDEST NOT DUP1 DUP4 AND SWAP2 POP POP SWAP3 SWAP2 POP POP JUMP JUMPDEST PUSH1 0x0 PUSH2 0x21BE DUP4 DUP4 PUSH2 0x2194 JUMP JUMPDEST SWAP2 POP DUP3 PUSH1 0x2 MUL DUP3 OR SWAP1 POP SWAP3 SWAP2 POP POP JUMP JUMPDEST PUSH2 0x21D7 DUP3 PUSH2 0x1725 JUMP JUMPDEST PUSH8 0xFFFFFFFFFFFFFFFF DUP2 GT ISZERO PUSH2 0x21F0 JUMPI PUSH2 0x21EF PUSH2 0x1A04 JUMP JUMPDEST JUMPDEST PUSH2 0x21FA DUP3 SLOAD PUSH2 0x1EB1 JUMP JUMPDEST PUSH2 0x2205 DUP3 DUP3 DUP6 PUSH2 0x2141 JUMP JUMPDEST PUSH1 0x0 PUSH1 0x20 SWAP1 POP PUSH1 0x1F DUP4 GT PUSH1 0x1 DUP2 EQ PUSH2 0x2238 JUMPI PUSH1 0x0 DUP5 ISZERO PUSH2 0x2226 JUMPI DUP3 DUP8 ADD MLOAD SWAP1 POP JUMPDEST PUSH2 0x2230 DUP6 DUP3 PUSH2 0x21B2 JUMP JUMPDEST DUP7 SSTORE POP PUSH2 0x2298 JUMP JUMPDEST PUSH1 0x1F NOT DUP5 AND PUSH2 0x2246 DUP7 PUSH2 0x2022 JUMP JUMPDEST PUSH1 0x0 JUMPDEST DUP3 DUP2 LT ISZERO PUSH2 0x226E JUMPI DUP5 DUP10 ADD MLOAD DUP3 SSTORE PUSH1 0x1 DUP3 ADD SWAP2 POP PUSH1 0x20 DUP6 ADD SWAP5 POP PUSH1 0x20 DUP2 ADD SWAP1 POP PUSH2 0x2249 JUMP JUMPDEST DUP7 DUP4 LT ISZERO PUSH2 0x228B JUMPI DUP5 DUP10 ADD MLOAD PUSH2 0x2287 PUSH1 0x1F DUP10 AND DUP3 PUSH2 0x2194 JUMP JUMPDEST DUP4 SSTORE POP JUMPDEST PUSH1 0x1 PUSH1 0x2 DUP9 MUL ADD DUP9 SSTORE POP POP POP JUMPDEST POP POP POP POP POP POP JUMP INVALID LOG2 PUSH5 0x6970667358 0x22 SLT KECCAK256 MUL 0xC8 0x21 CALLCODE PUSH18 0x2D3A02D0EAD66560A4D1C25867579B3405B7 SLT 0x22 0x21 0xE3 0xA6 DUP3 BYTE 0xAB PUSH25 0x64736F6C634300081100330000000000000000000000000000 "},"gasEstimates":{"creation":{"codeDepositCost":"1783600","executionCost":"infinite","totalCost":"infinite"},"external":{"AmountOne()":"2548","AmountTwo()":"2460","betOnOption1()":"infinite","betOnOption2()":"infinite","checkExecuteReady()":"infinite","checkPlayerExists(address)":"infinite","gameDescription()":"infinite","gameFinished()":"2587","getAdmin()":"2589","getCommissionRatio()":"2569","getEntranceFee()":"2461","getGameFinished()":"2641","getMatchDateTimestamp()":"2460","getNumberOfPlayers()":"2555","getOption1LeagueName()":"infinite","getOption1Name()":"infinite","getOption2LeagueName()":"infinite","getOption2Name()":"infinite","getPlayerInfo(uint256)":"5011","getStartTimestamp()":"2527","performExecute(uint16)":"infinite","playerInfo(address)":"5215","players(uint256)":"5044","reopenGame(string,string,string,string,string,uint256)":"infinite"},"internal":{"distributePrizes(uint16)":"infinite"}},"methodIdentifiers":{"AmountOne()":"4996d51d","AmountTwo()":"65733592","betOnOption1()":"0ca74040","betOnOption2()":"c8539808","checkExecuteReady()":"676f6474","checkPlayerExists(address)":"4081d916","gameDescription()":"8b5d691c","gameFinished()":"f0f32497","getAdmin()":"6e9960c3","getCommissionRatio()":"fdbe6667","getEntranceFee()":"09bc33a7","getGameFinished()":"27f0cbc0","getMatchDateTimestamp()":"2b74e9bd","getNumberOfPlayers()":"fd6673f5","getOption1LeagueName()":"1385f1a9","getOption1Name()":"2aae3630","getOption2LeagueName()":"2f9f65f6","getOption2Name()":"7dc6e841","getPlayerInfo(uint256)":"ea17532e","getStartTimestamp()":"1f89f25e","performExecute(uint16)":"3ca53bba","playerInfo(address)":"4b114691","players(uint256)":"f71d96cb","reopenGame(string,string,string,string,string,uint256)":"777cd247"}},"storageLayout":{"storage":[{"astId":16,"contract":"contracts/BinaryBet.sol:Betting","label":"minimumBet","offset":0,"slot":"0","type":"t_uint256"},{"astId":18,"contract":"contracts/BinaryBet.sol:Betting","label":"totalBetOne","offset":0,"slot":"1","type":"t_uint256"},{"astId":20,"contract":"contracts/BinaryBet.sol:Betting","label":"totalBetTwo","offset":0,"slot":"2","type":"t_uint256"},{"astId":22,"contract":"contracts/BinaryBet.sol:Betting","label":"startTimestamp","offset":0,"slot":"3","type":"t_uint256"},{"astId":24,"contract":"contracts/BinaryBet.sol:Betting","label":"matchDateTimestamp","offset":0,"slot":"4","type":"t_uint256"},{"astId":26,"contract":"contracts/BinaryBet.sol:Betting","label":"owner","offset":0,"slot":"5","type":"t_address_payable"},{"astId":28,"contract":"contracts/BinaryBet.sol:Betting","label":"admin","offset":0,"slot":"6","type":"t_address"},{"astId":30,"contract":"contracts/BinaryBet.sol:Betting","label":"gameFinished","offset":20,"slot":"6","type":"t_bool"},{"astId":32,"contract":"contracts/BinaryBet.sol:Betting","label":"gameDescription","offset":0,"slot":"7","type":"t_string_storage"},{"astId":34,"contract":"contracts/BinaryBet.sol:Betting","label":"option1Name","offset":0,"slot":"8","type":"t_string_storage"},{"astId":36,"contract":"contracts/BinaryBet.sol:Betting","label":"option2Name","offset":0,"slot":"9","type":"t_string_storage"},{"astId":38,"contract":"contracts/BinaryBet.sol:Betting","label":"option1LeagueName","offset":0,"slot":"10","type":"t_string_storage"},{"astId":40,"contract":"contracts/BinaryBet.sol:Betting","label":"option2LeagueName","offset":0,"slot":"11","type":"t_string_storage"},{"astId":50,"contract":"contracts/BinaryBet.sol:Betting","label":"playerInfo","offset":0,"slot":"12","type":"t_mapping(t_address,t_struct(Player)45_storage)"},{"astId":53,"contract":"contracts/BinaryBet.sol:Betting","label":"players","offset":0,"slot":"13","type":"t_array(t_address_payable)dyn_storage"},{"astId":56,"contract":"contracts/BinaryBet.sol:Betting","label":"winners","offset":0,"slot":"14","type":"t_array(t_address_payable)dyn_storage"},{"astId":59,"contract":"contracts/BinaryBet.sol:Betting","label":"commission","offset":0,"slot":"15","type":"t_uint256"}],"types":{"t_address":{"encoding":"inplace","label":"address","numberOfBytes":"20"},"t_address_payable":{"encoding":"inplace","label":"address payable","numberOfBytes":"20"},"t_array(t_address_payable)dyn_storage":{"base":"t_address_payable","encoding":"dynamic_array","label":"address payable[]","numberOfBytes":"32"},"t_bool":{"encoding":"inplace","label":"bool","numberOfBytes":"1"},"t_mapping(t_address,t_struct(Player)45_storage)":{"encoding":"mapping","key":"t_address","label":"mapping(address => struct Betting.Player)","numberOfBytes":"32","value":"t_struct(Player)45_storage"},"t_string_storage":{"encoding":"bytes","label":"string","numberOfBytes":"32"},"t_struct(Player)45_storage":{"encoding":"inplace","label":"struct Betting.Player","members":[{"astId":42,"contract":"contracts/BinaryBet.sol:Betting","label":"amountBet","offset":0,"slot":"0","type":"t_uint256"},{"astId":44,"contract":"contracts/BinaryBet.sol:Betting","label":"teamSelected","offset":0,"slot":"1","type":"t_uint16"}],"numberOfBytes":"64"},"t_uint16":{"encoding":"inplace","label":"uint16","numberOfBytes":"2"},"t_uint256":{"encoding":"inplace","label":"uint256","numberOfBytes":"32"}}},"userdoc":{"kind":"user","methods":{"getAdmin()":{"notice":"Getter Functions "}},"notice":"This contract is for creating a sample betting contract","version":1}}}}