{
  "address": "0x3936071B0f59C5633e30f7D96435C5C46061a95b",
  "abi": [
    {
      "inputs": [
        {
          "internalType": "uint256",
          "name": "interval",
          "type": "uint256"
        },
        {
          "internalType": "uint256",
          "name": "entranceFee",
          "type": "uint256"
        }
      ],
      "stateMutability": "nonpayable",
      "type": "constructor"
    },
    {
      "inputs": [],
      "name": "Betting__BettingNotOpen",
      "type": "error"
    },
    {
      "inputs": [
        {
          "internalType": "uint256",
          "name": "currentBalance",
          "type": "uint256"
        },
        {
          "internalType": "uint256",
          "name": "numPlayers",
          "type": "uint256"
        },
        {
          "internalType": "uint256",
          "name": "bettingState",
          "type": "uint256"
        }
      ],
      "name": "Betting__ExecuteNotNeeded",
      "type": "error"
    },
    {
      "inputs": [],
      "name": "Betting__SendMoreToEnterBetting",
      "type": "error"
    },
    {
      "anonymous": false,
      "inputs": [
        {
          "indexed": true,
          "internalType": "address",
          "name": "player",
          "type": "address"
        }
      ],
      "name": "BettingEnter",
      "type": "event"
    },
    {
      "inputs": [],
      "name": "AmountOne",
      "outputs": [
        {
          "internalType": "uint256",
          "name": "",
          "type": "uint256"
        }
      ],
      "stateMutability": "view",
      "type": "function"
    },
    {
      "inputs": [],
      "name": "AmountTwo",
      "outputs": [
        {
          "internalType": "uint256",
          "name": "",
          "type": "uint256"
        }
      ],
      "stateMutability": "view",
      "type": "function"
    },
    {
      "inputs": [
        {
          "internalType": "uint16",
          "name": "_teamSelected",
          "type": "uint16"
        }
      ],
      "name": "betting",
      "outputs": [],
      "stateMutability": "payable",
      "type": "function"
    },
    {
      "inputs": [
        {
          "internalType": "bytes",
          "name": "",
          "type": "bytes"
        }
      ],
      "name": "checkExecuteReady",
      "outputs": [
        {
          "internalType": "bool",
          "name": "readyToExecute",
          "type": "bool"
        },
        {
          "internalType": "bytes",
          "name": "",
          "type": "bytes"
        }
      ],
      "stateMutability": "view",
      "type": "function"
    },
    {
      "inputs": [
        {
          "internalType": "address",
          "name": "player",
          "type": "address"
        }
      ],
      "name": "checkPlayerExists",
      "outputs": [
        {
          "internalType": "bool",
          "name": "",
          "type": "bool"
        }
      ],
      "stateMutability": "view",
      "type": "function"
    },
    {
      "inputs": [
        {
          "internalType": "uint16",
          "name": "teamWinner",
          "type": "uint16"
        }
      ],
      "name": "distributePrizes",
      "outputs": [],
      "stateMutability": "nonpayable",
      "type": "function"
    },
    {
      "inputs": [],
      "name": "getAdmin",
      "outputs": [
        {
          "internalType": "address",
          "name": "",
          "type": "address"
        }
      ],
      "stateMutability": "view",
      "type": "function"
    },
    {
      "inputs": [],
      "name": "getBettingState",
      "outputs": [
        {
          "internalType": "enum Betting.BettingState",
          "name": "",
          "type": "uint8"
        }
      ],
      "stateMutability": "view",
      "type": "function"
    },
    {
      "inputs": [],
      "name": "getEntranceFee",
      "outputs": [
        {
          "internalType": "uint256",
          "name": "",
          "type": "uint256"
        }
      ],
      "stateMutability": "view",
      "type": "function"
    },
    {
      "inputs": [],
      "name": "getInterval",
      "outputs": [
        {
          "internalType": "uint256",
          "name": "",
          "type": "uint256"
        }
      ],
      "stateMutability": "view",
      "type": "function"
    },
    {
      "inputs": [],
      "name": "getLastTimeStamp",
      "outputs": [
        {
          "internalType": "uint256",
          "name": "",
          "type": "uint256"
        }
      ],
      "stateMutability": "view",
      "type": "function"
    },
    {
      "inputs": [],
      "name": "getNumberOfPlayers",
      "outputs": [
        {
          "internalType": "uint256",
          "name": "",
          "type": "uint256"
        }
      ],
      "stateMutability": "view",
      "type": "function"
    },
    {
      "inputs": [
        {
          "internalType": "uint256",
          "name": "index",
          "type": "uint256"
        }
      ],
      "name": "getPlayer",
      "outputs": [
        {
          "internalType": "address",
          "name": "",
          "type": "address"
        }
      ],
      "stateMutability": "view",
      "type": "function"
    },
    {
      "inputs": [
        {
          "internalType": "uint16",
          "name": "oraclemsg",
          "type": "uint16"
        }
      ],
      "name": "performExecute",
      "outputs": [],
      "stateMutability": "nonpayable",
      "type": "function"
    },
    {
      "inputs": [
        {
          "internalType": "address",
          "name": "",
          "type": "address"
        }
      ],
      "name": "playerInfo",
      "outputs": [
        {
          "internalType": "uint256",
          "name": "amountBet",
          "type": "uint256"
        },
        {
          "internalType": "uint16",
          "name": "teamSelected",
          "type": "uint16"
        }
      ],
      "stateMutability": "view",
      "type": "function"
    },
    {
      "inputs": [],
      "name": "reopenGame",
      "outputs": [],
      "stateMutability": "nonpayable",
      "type": "function"
    }
  ],
  "transactionHash": "0xf0af465c49be14c59b44cba003c100671067fd01d612733fc1601b0a8774bb75",
  "args": [
    "30",
    "10000000000000000"
  ],
  "numDeployments": 1,
  "solcInputHash": "8cc829fede3c2b18c37b0cf230fdc3f8",
  "bytecode": "0x60a06040523480156200001157600080fd5b506040516200194a3803806200194a8339818101604052810190620000379190620000db565b8160808181525050806000819055506000600660006101000a81548160ff021916908360028111156200006f576200006e6200012c565b5b02179055504260038190555033600460006101000a81548173ffffffffffffffffffffffffffffffffffffffff021916908373ffffffffffffffffffffffffffffffffffffffff16021790555050506200017a565b600081519050620000d58162000160565b92915050565b60008060408385031215620000f557620000f46200015b565b5b60006200010585828601620000c4565b92505060206200011885828601620000c4565b9150509250929050565b6000819050919050565b7f4e487b7100000000000000000000000000000000000000000000000000000000600052602160045260246000fd5b600080fd5b6200016b8162000122565b81146200017757600080fd5b50565b6080516117ad6200019d60003960008181610b2d0152610b9e01526117ad6000f3fe6080604052600436106100f35760003560e01c80636e9960c31161008a578063cc1e979d11610059578063cc1e979d14610309578063e55ae4e814610347578063f08846d414610384578063fd6673f5146103a0576100f3565b80636e9960c31461025f5780637904f6881461028a57806391ad27b4146102b3578063c1c244e8146102de576100f3565b80634b114691116100c65780634b114691146101b45780635428ec85146101f257806357899342146102095780636573359214610234576100f3565b806309bc33a7146100f85780633ca53bba146101235780634081d9161461014c5780634996d51d14610189575b600080fd5b34801561010457600080fd5b5061010d6103cb565b60405161011a9190611275565b60405180910390f35b34801561012f57600080fd5b5061014a600480360381019061014591906110d3565b6103d4565b005b34801561015857600080fd5b50610173600480360381019061016e919061105d565b610550565b60405161018091906111ef565b60405180910390f35b34801561019557600080fd5b5061019e6105ff565b6040516101ab9190611275565b60405180910390f35b3480156101c057600080fd5b506101db60048036038101906101d6919061105d565b610609565b6040516101e9929190611290565b60405180910390f35b3480156101fe57600080fd5b5061020761063b565b005b34801561021557600080fd5b5061021e61075f565b60405161022b919061123a565b60405180910390f35b34801561024057600080fd5b50610249610776565b6040516102569190611275565b60405180910390f35b34801561026b57600080fd5b50610274610780565b60405161028191906111d4565b60405180910390f35b34801561029657600080fd5b506102b160048036038101906102ac91906110d3565b6107aa565b005b3480156102bf57600080fd5b506102c8610b29565b6040516102d59190611275565b60405180910390f35b3480156102ea57600080fd5b506102f3610b51565b6040516103009190611275565b60405180910390f35b34801561031557600080fd5b50610330600480360381019061032b919061108a565b610b5b565b60405161033e92919061120a565b60405180910390f35b34801561035357600080fd5b5061036e60048036038101906103699190611100565b610c43565b60405161037b91906111d4565b60405180910390f35b61039e600480360381019061039991906110d3565b610c8b565b005b3480156103ac57600080fd5b506103b5610ed9565b6040516103c29190611275565b60405180910390f35b60008054905090565b600460009054906101000a900473ffffffffffffffffffffffffffffffffffffffff1673ffffffffffffffffffffffffffffffffffffffff163373ffffffffffffffffffffffffffffffffffffffff1614610464576040517f08c379a000000000000000000000000000000000000000000000000000000000815260040161045b90611255565b60405180910390fd5b600061047e60405180602001604052806000815250610b5b565b509050806104ed5747600580549050600660009054906101000a900460ff1660028111156104af576104ae61161d565b5b6040517fb8cbb54c0000000000000000000000000000000000000000000000000000000081526004016104e4939291906112b9565b60405180910390fd5b6001600660006101000a81548160ff021916908360028111156105135761051261161d565b5b0217905550610521826107aa565b6002600660006101000a81548160ff021916908360028111156105475761054661161d565b5b02179055505050565b600080600090505b6005805490508110156105f4578273ffffffffffffffffffffffffffffffffffffffff16600582815481106105905761058f61164c565b5b9060005260206000200160009054906101000a900473ffffffffffffffffffffffffffffffffffffffff1673ffffffffffffffffffffffffffffffffffffffff1614156105e15760019150506105fa565b80806105ec90611576565b915050610558565b50600090505b919050565b6000600154905090565b60076020528060005260406000206000915090508060000154908060010160009054906101000a900461ffff16905082565b600460009054906101000a900473ffffffffffffffffffffffffffffffffffffffff1673ffffffffffffffffffffffffffffffffffffffff163373ffffffffffffffffffffffffffffffffffffffff16146106cb576040517f08c379a00000000000000000000000000000000000000000000000000000000081526004016106c290611255565b60405180910390fd5b6000600660006101000a81548160ff021916908360028111156106f1576106f061161d565b5b0217905550600067ffffffffffffffff8111156107115761071061167b565b5b60405190808252806020026020018201604052801561073f5781602001602082028036833780820191505090505b5060059080519060200190610755929190610ee6565b5042600381905550565b6000600660009054906101000a900460ff16905090565b6000600254905090565b6000600460009054906101000a900473ffffffffffffffffffffffffffffffffffffffff16905090565b606060008060008080600080600090505b6005805490508110156108d957600581815481106107dc576107db61164c565b5b9060005260206000200160009054906101000a900473ffffffffffffffffffffffffffffffffffffffff1691508861ffff16600760008473ffffffffffffffffffffffffffffffffffffffff1673ffffffffffffffffffffffffffffffffffffffff16815260200190815260200160002060010160009054906101000a900461ffff1661ffff1614156108c6578188888151811061087d5761087c61164c565b5b602002602001019073ffffffffffffffffffffffffffffffffffffffff16908173ffffffffffffffffffffffffffffffffffffffff168152505086806108c290611576565b9750505b80806108d190611576565b9150506107bb565b5060018861ffff1614156108f65760025494506001549350610901565b600154945060025493505b60005b86811015610a6e57600073ffffffffffffffffffffffffffffffffffffffff168882815181106109375761093661164c565b5b602002602001015173ffffffffffffffffffffffffffffffffffffffff1614610a5b5787818151811061096d5761096c61164c565b5b60200260200101519350600760008573ffffffffffffffffffffffffffffffffffffffff1673ffffffffffffffffffffffffffffffffffffffff1681526020019081526020016000206000015492508781815181106109cf576109ce61164c565b5b602002602001015173ffffffffffffffffffffffffffffffffffffffff166108fc612710876127108a610a0291906113fa565b610a0c91906113c9565b612710610a199190611373565b86610a2491906113fa565b610a2e91906113c9565b9081150290604051600060405180830381858888f19350505050158015610a59573d6000803e3d6000fd5b505b8080610a6690611576565b915050610904565b506002600660006101000a81548160ff02191690836002811115610a9557610a9461161d565b5b0217905550600760008273ffffffffffffffffffffffffffffffffffffffff1673ffffffffffffffffffffffffffffffffffffffff1681526020019081526020016000206000808201600090556001820160006101000a81549061ffff0219169055505060056000610b079190610f70565b6000945060009350600060018190555060006002819055505050505050505050565b60007f0000000000000000000000000000000000000000000000000000000000000000905090565b6000600354905090565b600060606000600660009054906101000a900460ff166002811115610b8357610b8261161d565b5b60006002811115610b9757610b9661161d565b5b14905060007f000000000000000000000000000000000000000000000000000000000000000060035442610bcb9190611454565b11905060008060058054905011905060008047119050828015610beb5750835b8015610bf45750805b8015610bfd5750815b9550856040518060400160405280600381526020017f30783000000000000000000000000000000000000000000000000000000000008152509550955050505050915091565b600060058281548110610c5957610c5861164c565b5b9060005260206000200160009054906101000a900473ffffffffffffffffffffffffffffffffffffffff169050919050565b610c9433610550565b15610c9e57600080fd5b600054341015610cda576040517f30a16e2e00000000000000000000000000000000000000000000000000000000815260040160405180910390fd5b60006002811115610cee57610ced61161d565b5b600660009054906101000a900460ff166002811115610d1057610d0f61161d565b5b14610d47576040517ff3b8fa1b00000000000000000000000000000000000000000000000000000000815260040160405180910390fd5b34600760003373ffffffffffffffffffffffffffffffffffffffff1673ffffffffffffffffffffffffffffffffffffffff1681526020019081526020016000206000018190555080600760003373ffffffffffffffffffffffffffffffffffffffff1673ffffffffffffffffffffffffffffffffffffffff16815260200190815260200160002060010160006101000a81548161ffff021916908361ffff1602179055506005339080600181540180825580915050600190039060005260206000200160009091909190916101000a81548173ffffffffffffffffffffffffffffffffffffffff021916908373ffffffffffffffffffffffffffffffffffffffff16021790555060018161ffff161415610e79573460016000828254610e6d9190611373565b92505081905550610e93565b3460026000828254610e8b9190611373565b925050819055505b3373ffffffffffffffffffffffffffffffffffffffff167f7f47e4b864ee52d8ca461d379020be7e99ae801a152dde71193bdc651da8a7c060405160405180910390a250565b6000600580549050905090565b828054828255906000526020600020908101928215610f5f579160200282015b82811115610f5e5782518260006101000a81548173ffffffffffffffffffffffffffffffffffffffff021916908373ffffffffffffffffffffffffffffffffffffffff16021790555091602001919060010190610f06565b5b509050610f6c9190610f91565b5090565b5080546000825590600052602060002090810190610f8e9190610f91565b50565b5b80821115610faa576000816000905550600101610f92565b5090565b6000610fc1610fbc84611315565b6112f0565b905082815260208101848484011115610fdd57610fdc6116af565b5b610fe8848285611503565b509392505050565b600081359050610fff81611732565b92915050565b600082601f83011261101a576110196116aa565b5b813561102a848260208601610fae565b91505092915050565b60008135905061104281611749565b92915050565b60008135905061105781611760565b92915050565b600060208284031215611073576110726116b9565b5b600061108184828501610ff0565b91505092915050565b6000602082840312156110a05761109f6116b9565b5b600082013567ffffffffffffffff8111156110be576110bd6116b4565b5b6110ca84828501611005565b91505092915050565b6000602082840312156110e9576110e86116b9565b5b60006110f784828501611033565b91505092915050565b600060208284031215611116576111156116b9565b5b600061112484828501611048565b91505092915050565b61113681611488565b82525050565b6111458161149a565b82525050565b600061115682611346565b6111608185611351565b9350611170818560208601611512565b611179816116be565b840191505092915050565b61118d816114f1565b82525050565b60006111a0602183611362565b91506111ab826116cf565b604082019050919050565b6111bf816114b9565b82525050565b6111ce816114e7565b82525050565b60006020820190506111e9600083018461112d565b92915050565b6000602082019050611204600083018461113c565b92915050565b600060408201905061121f600083018561113c565b8181036020830152611231818461114b565b90509392505050565b600060208201905061124f6000830184611184565b92915050565b6000602082019050818103600083015261126e81611193565b9050919050565b600060208201905061128a60008301846111c5565b92915050565b60006040820190506112a560008301856111c5565b6112b260208301846111b6565b9392505050565b60006060820190506112ce60008301866111c5565b6112db60208301856111c5565b6112e860408301846111c5565b949350505050565b60006112fa61130b565b90506113068282611545565b919050565b6000604051905090565b600067ffffffffffffffff8211156113305761132f61167b565b5b611339826116be565b9050602081019050919050565b600081519050919050565b600082825260208201905092915050565b600082825260208201905092915050565b600061137e826114e7565b9150611389836114e7565b9250827fffffffffffffffffffffffffffffffffffffffffffffffffffffffffffffffff038211156113be576113bd6115bf565b5b828201905092915050565b60006113d4826114e7565b91506113df836114e7565b9250826113ef576113ee6115ee565b5b828204905092915050565b6000611405826114e7565b9150611410836114e7565b9250817fffffffffffffffffffffffffffffffffffffffffffffffffffffffffffffffff0483118215151615611449576114486115bf565b5b828202905092915050565b600061145f826114e7565b915061146a836114e7565b92508282101561147d5761147c6115bf565b5b828203905092915050565b6000611493826114c7565b9050919050565b60008115159050919050565b60008190506114b48261171e565b919050565b600061ffff82169050919050565b600073ffffffffffffffffffffffffffffffffffffffff82169050919050565b6000819050919050565b60006114fc826114a6565b9050919050565b82818337600083830152505050565b60005b83811015611530578082015181840152602081019050611515565b8381111561153f576000848401525b50505050565b61154e826116be565b810181811067ffffffffffffffff8211171561156d5761156c61167b565b5b80604052505050565b6000611581826114e7565b91507fffffffffffffffffffffffffffffffffffffffffffffffffffffffffffffffff8214156115b4576115b36115bf565b5b600182019050919050565b7f4e487b7100000000000000000000000000000000000000000000000000000000600052601160045260246000fd5b7f4e487b7100000000000000000000000000000000000000000000000000000000600052601260045260246000fd5b7f4e487b7100000000000000000000000000000000000000000000000000000000600052602160045260246000fd5b7f4e487b7100000000000000000000000000000000000000000000000000000000600052603260045260246000fd5b7f4e487b7100000000000000000000000000000000000000000000000000000000600052604160045260246000fd5b600080fd5b600080fd5b600080fd5b600080fd5b6000601f19601f8301169050919050565b7f4f6e6c792061646d696e2063616e2063616c6c20746869732066756e6374696f60008201527f6e00000000000000000000000000000000000000000000000000000000000000602082015250565b6003811061172f5761172e61161d565b5b50565b61173b81611488565b811461174657600080fd5b50565b611752816114b9565b811461175d57600080fd5b50565b611769816114e7565b811461177457600080fd5b5056fea26469706673582212204c6d5ee28f59a0b6b5c6d0df47318b59d47e82a4f0c432db1cba75f8f0ebab9164736f6c63430008070033",
  "devdoc": {
    "author": "Yakou Hikoichi",
    "kind": "dev",
    "methods": {
      "checkExecuteReady(bytes)": {
        "details": "This is the function whether the execution of betting is ready or not they look for `readyToExecute` to return True. the following should be true for this to return true: 1. The time interval has passed between betting runs. 2. The lottery is open. 3. The contract has ETH."
      },
      "performExecute(uint16)": {
        "details": "Once `checkExecuteReady` is returning `true`, this function is called and it kicks off the winner."
      }
    },
    "title": "A sample Betting Contract",
    "version": 1
  },
  "userdoc": {
    "kind": "user",
    "methods": {
      "getAdmin()": {
        "notice": "Getter Functions "
      }
    },
    "notice": "This contract is for creating a sample betting contract",
    "version": 1
  },
  "storageLayout": {
    "storage": [
      {
        "astId": 413,
        "contract": "contracts/BinaryBet.sol:Betting",
        "label": "minimumBet",
        "offset": 0,
        "slot": "0",
        "type": "t_uint256"
      },
      {
        "astId": 415,
        "contract": "contracts/BinaryBet.sol:Betting",
        "label": "totalBetOne",
        "offset": 0,
        "slot": "1",
        "type": "t_uint256"
      },
      {
        "astId": 417,
        "contract": "contracts/BinaryBet.sol:Betting",
        "label": "totalBetTwo",
        "offset": 0,
        "slot": "2",
        "type": "t_uint256"
      },
      {
        "astId": 419,
        "contract": "contracts/BinaryBet.sol:Betting",
        "label": "s_lastTimeStamp",
        "offset": 0,
        "slot": "3",
        "type": "t_uint256"
      },
      {
        "astId": 421,
        "contract": "contracts/BinaryBet.sol:Betting",
        "label": "admin",
        "offset": 0,
        "slot": "4",
        "type": "t_address"
      },
      {
        "astId": 424,
        "contract": "contracts/BinaryBet.sol:Betting",
        "label": "players",
        "offset": 0,
        "slot": "5",
        "type": "t_array(t_address_payable)dyn_storage"
      },
      {
        "astId": 427,
        "contract": "contracts/BinaryBet.sol:Betting",
        "label": "s_bettingState",
        "offset": 0,
        "slot": "6",
        "type": "t_enum(BettingState)409"
      },
      {
        "astId": 437,
        "contract": "contracts/BinaryBet.sol:Betting",
        "label": "playerInfo",
        "offset": 0,
        "slot": "7",
        "type": "t_mapping(t_address,t_struct(Player)432_storage)"
      }
    ],
    "types": {
      "t_address": {
        "encoding": "inplace",
        "label": "address",
        "numberOfBytes": "20"
      },
      "t_address_payable": {
        "encoding": "inplace",
        "label": "address payable",
        "numberOfBytes": "20"
      },
      "t_array(t_address_payable)dyn_storage": {
        "base": "t_address_payable",
        "encoding": "dynamic_array",
        "label": "address payable[]",
        "numberOfBytes": "32"
      },
      "t_enum(BettingState)409": {
        "encoding": "inplace",
        "label": "enum Betting.BettingState",
        "numberOfBytes": "1"
      },
      "t_mapping(t_address,t_struct(Player)432_storage)": {
        "encoding": "mapping",
        "key": "t_address",
        "label": "mapping(address => struct Betting.Player)",
        "numberOfBytes": "32",
        "value": "t_struct(Player)432_storage"
      },
      "t_struct(Player)432_storage": {
        "encoding": "inplace",
        "label": "struct Betting.Player",
        "members": [
          {
            "astId": 429,
            "contract": "contracts/BinaryBet.sol:Betting",
            "label": "amountBet",
            "offset": 0,
            "slot": "0",
            "type": "t_uint256"
          },
          {
            "astId": 431,
            "contract": "contracts/BinaryBet.sol:Betting",
            "label": "teamSelected",
            "offset": 0,
            "slot": "1",
            "type": "t_uint16"
          }
        ],
        "numberOfBytes": "64"
      },
      "t_uint16": {
        "encoding": "inplace",
        "label": "uint16",
        "numberOfBytes": "2"
      },
      "t_uint256": {
        "encoding": "inplace",
        "label": "uint256",
        "numberOfBytes": "32"
      }
    }
  }
}