{
  "address": "0x22103DdE891F9B853EfD316f426e657E5C085Ec8",
  "abi": [
    {
      "inputs": [
        {
          "internalType": "string",
          "name": "_gameDescription",
          "type": "string"
        },
        {
          "internalType": "string",
          "name": "_option1Name",
          "type": "string"
        },
        {
          "internalType": "string",
          "name": "_option2Name",
          "type": "string"
        },
        {
          "internalType": "uint256",
          "name": "_dueDateTimestamp",
          "type": "uint256"
        },
        {
          "internalType": "uint256",
          "name": "entranceFee",
          "type": "uint256"
        }
      ],
      "stateMutability": "nonpayable",
      "type": "constructor"
    },
    {
      "inputs": [
        {
          "internalType": "uint256",
          "name": "currentBalance",
          "type": "uint256"
        },
        {
          "internalType": "uint256",
          "name": "numPlayers",
          "type": "uint256"
        },
        {
          "internalType": "bool",
          "name": "gameFinished",
          "type": "bool"
        }
      ],
      "name": "Betting__ExecuteNotNeeded",
      "type": "error"
    },
    {
      "anonymous": false,
      "inputs": [
        {
          "indexed": true,
          "internalType": "address",
          "name": "player",
          "type": "address"
        }
      ],
      "name": "BettingEnter",
      "type": "event"
    },
    {
      "inputs": [],
      "name": "AmountOne",
      "outputs": [
        {
          "internalType": "uint256",
          "name": "",
          "type": "uint256"
        }
      ],
      "stateMutability": "view",
      "type": "function"
    },
    {
      "inputs": [],
      "name": "AmountTwo",
      "outputs": [
        {
          "internalType": "uint256",
          "name": "",
          "type": "uint256"
        }
      ],
      "stateMutability": "view",
      "type": "function"
    },
    {
      "inputs": [],
      "name": "betOnOption1",
      "outputs": [],
      "stateMutability": "payable",
      "type": "function"
    },
    {
      "inputs": [],
      "name": "betOnOption2",
      "outputs": [],
      "stateMutability": "payable",
      "type": "function"
    },
    {
      "inputs": [],
      "name": "checkExecuteReady",
      "outputs": [
        {
          "internalType": "bool",
          "name": "readyToExecute",
          "type": "bool"
        },
        {
          "internalType": "bytes",
          "name": "",
          "type": "bytes"
        }
      ],
      "stateMutability": "view",
      "type": "function"
    },
    {
      "inputs": [
        {
          "internalType": "address",
          "name": "player",
          "type": "address"
        }
      ],
      "name": "checkPlayerExists",
      "outputs": [
        {
          "internalType": "bool",
          "name": "",
          "type": "bool"
        }
      ],
      "stateMutability": "view",
      "type": "function"
    },
    {
      "inputs": [],
      "name": "gameDescription",
      "outputs": [
        {
          "internalType": "string",
          "name": "",
          "type": "string"
        }
      ],
      "stateMutability": "view",
      "type": "function"
    },
    {
      "inputs": [],
      "name": "gameFinished",
      "outputs": [
        {
          "internalType": "bool",
          "name": "",
          "type": "bool"
        }
      ],
      "stateMutability": "view",
      "type": "function"
    },
    {
      "inputs": [],
      "name": "getAdmin",
      "outputs": [
        {
          "internalType": "address",
          "name": "",
          "type": "address"
        }
      ],
      "stateMutability": "view",
      "type": "function"
    },
    {
      "inputs": [],
      "name": "getDueDateTimestamp",
      "outputs": [
        {
          "internalType": "uint256",
          "name": "",
          "type": "uint256"
        }
      ],
      "stateMutability": "view",
      "type": "function"
    },
    {
      "inputs": [],
      "name": "getEntranceFee",
      "outputs": [
        {
          "internalType": "uint256",
          "name": "",
          "type": "uint256"
        }
      ],
      "stateMutability": "view",
      "type": "function"
    },
    {
      "inputs": [],
      "name": "getGameFinished",
      "outputs": [
        {
          "internalType": "bool",
          "name": "",
          "type": "bool"
        }
      ],
      "stateMutability": "view",
      "type": "function"
    },
    {
      "inputs": [],
      "name": "getNumberOfPlayers",
      "outputs": [
        {
          "internalType": "uint256",
          "name": "",
          "type": "uint256"
        }
      ],
      "stateMutability": "view",
      "type": "function"
    },
    {
      "inputs": [],
      "name": "getOption1Name",
      "outputs": [
        {
          "internalType": "string",
          "name": "",
          "type": "string"
        }
      ],
      "stateMutability": "view",
      "type": "function"
    },
    {
      "inputs": [],
      "name": "getOption2Name",
      "outputs": [
        {
          "internalType": "string",
          "name": "",
          "type": "string"
        }
      ],
      "stateMutability": "view",
      "type": "function"
    },
    {
      "inputs": [
        {
          "internalType": "uint256",
          "name": "index",
          "type": "uint256"
        }
      ],
      "name": "getPlayerInfo",
      "outputs": [
        {
          "internalType": "address",
          "name": "",
          "type": "address"
        }
      ],
      "stateMutability": "view",
      "type": "function"
    },
    {
      "inputs": [],
      "name": "getStartTimeStamp",
      "outputs": [
        {
          "internalType": "uint256",
          "name": "",
          "type": "uint256"
        }
      ],
      "stateMutability": "view",
      "type": "function"
    },
    {
      "inputs": [],
      "name": "option1Name",
      "outputs": [
        {
          "internalType": "string",
          "name": "",
          "type": "string"
        }
      ],
      "stateMutability": "view",
      "type": "function"
    },
    {
      "inputs": [],
      "name": "option2Name",
      "outputs": [
        {
          "internalType": "string",
          "name": "",
          "type": "string"
        }
      ],
      "stateMutability": "view",
      "type": "function"
    },
    {
      "inputs": [],
      "name": "owner",
      "outputs": [
        {
          "internalType": "address payable",
          "name": "",
          "type": "address"
        }
      ],
      "stateMutability": "view",
      "type": "function"
    },
    {
      "inputs": [
        {
          "internalType": "uint16",
          "name": "oraclemsg",
          "type": "uint16"
        }
      ],
      "name": "performExecute",
      "outputs": [],
      "stateMutability": "nonpayable",
      "type": "function"
    },
    {
      "inputs": [
        {
          "internalType": "address",
          "name": "",
          "type": "address"
        }
      ],
      "name": "playerInfo",
      "outputs": [
        {
          "internalType": "uint256",
          "name": "amountBet",
          "type": "uint256"
        },
        {
          "internalType": "uint16",
          "name": "teamSelected",
          "type": "uint16"
        }
      ],
      "stateMutability": "view",
      "type": "function"
    },
    {
      "inputs": [
        {
          "internalType": "uint256",
          "name": "",
          "type": "uint256"
        }
      ],
      "name": "players",
      "outputs": [
        {
          "internalType": "address payable",
          "name": "",
          "type": "address"
        }
      ],
      "stateMutability": "view",
      "type": "function"
    },
    {
      "inputs": [
        {
          "internalType": "string",
          "name": "_gameDescription",
          "type": "string"
        },
        {
          "internalType": "string",
          "name": "_option1Name",
          "type": "string"
        },
        {
          "internalType": "string",
          "name": "_option2Name",
          "type": "string"
        },
        {
          "internalType": "uint256",
          "name": "_dueDateTimestamp",
          "type": "uint256"
        }
      ],
      "name": "reopenGame",
      "outputs": [],
      "stateMutability": "nonpayable",
      "type": "function"
    }
  ],
  "transactionHash": "0xd634e1bfddf4d4b12b0aaa30c7cec3999694858649af1097861c1755882423b9",
  "args": [
    "Bet the winner Group Stage A, MSI 2023, 2023-05-27",
    "SKT",
    "KT",
    "1682251200",
    "10000000000000000"
  ],
  "numDeployments": 6,
  "solcInputHash": "8d403e1a1c75eeebc4520703a57f03be",
  "bytecode": "0x6080604052600a600d553480156200001657600080fd5b50604051620026173803806200261783398181016040528101906200003c9190620002ab565b806000819055506000600660146101000a81548160ff021916908315150217905550426003819055508160048190555033600660006101000a81548173ffffffffffffffffffffffffffffffffffffffff021916908373ffffffffffffffffffffffffffffffffffffffff1602179055508460079080519060200190620000c592919062000166565b508360089080519060200190620000de92919062000166565b508260099080519060200190620000f792919062000166565b50600660009054906101000a900473ffffffffffffffffffffffffffffffffffffffff16600560006101000a81548173ffffffffffffffffffffffffffffffffffffffff021916908373ffffffffffffffffffffffffffffffffffffffff160217905550505050505062000538565b82805462000174906200042f565b90600052602060002090601f016020900481019282620001985760008555620001e4565b82601f10620001b357805160ff1916838001178555620001e4565b82800160010185558215620001e4579182015b82811115620001e3578251825591602001919060010190620001c6565b5b509050620001f39190620001f7565b5090565b5b8082111562000212576000816000905550600101620001f8565b5090565b60006200022d6200022784620003b9565b62000390565b9050828152602081018484840111156200024c576200024b620004fe565b5b62000259848285620003f9565b509392505050565b600082601f830112620002795762000278620004f9565b5b81516200028b84826020860162000216565b91505092915050565b600081519050620002a5816200051e565b92915050565b600080600080600060a08688031215620002ca57620002c962000508565b5b600086015167ffffffffffffffff811115620002eb57620002ea62000503565b5b620002f98882890162000261565b955050602086015167ffffffffffffffff8111156200031d576200031c62000503565b5b6200032b8882890162000261565b945050604086015167ffffffffffffffff8111156200034f576200034e62000503565b5b6200035d8882890162000261565b9350506060620003708882890162000294565b9250506080620003838882890162000294565b9150509295509295909350565b60006200039c620003af565b9050620003aa828262000465565b919050565b6000604051905090565b600067ffffffffffffffff821115620003d757620003d6620004ca565b5b620003e2826200050d565b9050602081019050919050565b6000819050919050565b60005b8381101562000419578082015181840152602081019050620003fc565b8381111562000429576000848401525b50505050565b600060028204905060018216806200044857607f821691505b602082108114156200045f576200045e6200049b565b5b50919050565b62000470826200050d565b810181811067ffffffffffffffff82111715620004925762000491620004ca565b5b80604052505050565b7f4e487b7100000000000000000000000000000000000000000000000000000000600052602260045260246000fd5b7f4e487b7100000000000000000000000000000000000000000000000000000000600052604160045260246000fd5b600080fd5b600080fd5b600080fd5b600080fd5b6000601f19601f8301169050919050565b6200052981620003ef565b81146200053557600080fd5b50565b6120cf80620005486000396000f3fe60806040526004361061014b5760003560e01c80636e9960c3116100b6578063d4dbdc321161006f578063d4dbdc3214610438578063ea17532e14610461578063f0f324971461049e578063f6d4ec26146104c9578063f71d96cb146104f4578063fd6673f5146105315761014b565b80636e9960c3146103575780637dc6e841146103825780638b5d691c146103ad5780638da5cb5b146103d8578063c2cadad114610403578063c85398081461042e5761014b565b80634081d916116101085780634081d9161461022f5780634996d51d1461026c5780634b114691146102975780635bb68fe8146102d55780636573359214610300578063676f64741461032b5761014b565b80630632cf6d1461015057806309bc33a71461017b5780630ca74040146101a657806327f0cbc0146101b05780632aae3630146101db5780633ca53bba14610206575b600080fd5b34801561015c57600080fd5b5061016561055c565b6040516101729190611af6565b60405180910390f35b34801561018757600080fd5b506101906105ea565b60405161019d9190611b58565b60405180910390f35b6101ae6105f3565b005b3480156101bc57600080fd5b506101c56107f0565b6040516101d29190611aab565b60405180910390f35b3480156101e757600080fd5b506101f0610807565b6040516101fd9190611af6565b60405180910390f35b34801561021257600080fd5b5061022d60048036038101906102289190611918565b610899565b005b34801561023b57600080fd5b5061025660048036038101906102519190611830565b61099d565b6040516102639190611aab565b60405180910390f35b34801561027857600080fd5b50610281610a4f565b60405161028e9190611b58565b60405180910390f35b3480156102a357600080fd5b506102be60048036038101906102b99190611830565b610a59565b6040516102cc929190611b73565b60405180910390f35b3480156102e157600080fd5b506102ea610a8b565b6040516102f79190611af6565b60405180910390f35b34801561030c57600080fd5b50610315610b19565b6040516103229190611b58565b60405180910390f35b34801561033757600080fd5b50610340610b23565b60405161034e929190611ac6565b60405180910390f35b34801561036357600080fd5b5061036c610bc9565b6040516103799190611a75565b60405180910390f35b34801561038e57600080fd5b50610397610bf3565b6040516103a49190611af6565b60405180910390f35b3480156103b957600080fd5b506103c2610c85565b6040516103cf9190611af6565b60405180910390f35b3480156103e457600080fd5b506103ed610d13565b6040516103fa9190611a90565b60405180910390f35b34801561040f57600080fd5b50610418610d39565b6040516104259190611b58565b60405180910390f35b610436610d43565b005b34801561044457600080fd5b5061045f600480360381019061045a919061185d565b610f40565b005b34801561046d57600080fd5b5061048860048036038101906104839190611945565b6110a4565b6040516104959190611a75565b60405180910390f35b3480156104aa57600080fd5b506104b36110ec565b6040516104c09190611aab565b60405180910390f35b3480156104d557600080fd5b506104de6110ff565b6040516104eb9190611b58565b60405180910390f35b34801561050057600080fd5b5061051b60048036038101906105169190611945565b611109565b6040516105289190611a90565b60405180910390f35b34801561053d57600080fd5b50610546611148565b6040516105539190611b58565b60405180910390f35b6008805461056990611e20565b80601f016020809104026020016040519081016040528092919081815260200182805461059590611e20565b80156105e25780601f106105b7576101008083540402835291602001916105e2565b820191906000526020600020905b8154815290600101906020018083116105c557829003601f168201915b505050505081565b60008054905090565b6105fc3361099d565b1561060657600080fd5b600660149054906101000a900460ff161561062057600080fd5b600054341015610665576040517f08c379a000000000000000000000000000000000000000000000000000000000815260040161065c90611b18565b60405180910390fd5b34600a60003373ffffffffffffffffffffffffffffffffffffffff1673ffffffffffffffffffffffffffffffffffffffff168152602001908152602001600020600001819055506001600a60003373ffffffffffffffffffffffffffffffffffffffff1673ffffffffffffffffffffffffffffffffffffffff16815260200190815260200160002060010160006101000a81548161ffff021916908361ffff160217905550600b339080600181540180825580915050600190039060005260206000200160009091909190916101000a81548173ffffffffffffffffffffffffffffffffffffffff021916908373ffffffffffffffffffffffffffffffffffffffff1602179055506064600d54606461077e9190611d42565b346107899190611ce8565b6107939190611cb7565b600160008282546107a49190611c61565b925050819055503373ffffffffffffffffffffffffffffffffffffffff167f7f47e4b864ee52d8ca461d379020be7e99ae801a152dde71193bdc651da8a7c060405160405180910390a2565b6000600660149054906101000a900460ff16905090565b60606008805461081690611e20565b80601f016020809104026020016040519081016040528092919081815260200182805461084290611e20565b801561088f5780601f106108645761010080835404028352916020019161088f565b820191906000526020600020905b81548152906001019060200180831161087257829003601f168201915b5050505050905090565b600660009054906101000a900473ffffffffffffffffffffffffffffffffffffffff1673ffffffffffffffffffffffffffffffffffffffff163373ffffffffffffffffffffffffffffffffffffffff1614610929576040517f08c379a000000000000000000000000000000000000000000000000000000000815260040161092090611b38565b60405180910390fd5b6000610933610b23565b509050806109905747600b80549050600660149054906101000a900460ff166040517f0f72495400000000000000000000000000000000000000000000000000000000815260040161098793929190611b9c565b60405180910390fd5b61099982611155565b5050565b600080600b80549050905060005b81811015610a43578373ffffffffffffffffffffffffffffffffffffffff16600b82815481106109de576109dd611f59565b5b9060005260206000200160009054906101000a900473ffffffffffffffffffffffffffffffffffffffff1673ffffffffffffffffffffffffffffffffffffffff161415610a3057600192505050610a4a565b8080610a3b90611e83565b9150506109ab565b5060009150505b919050565b6000600154905090565b600a6020528060005260406000206000915090508060000154908060010160009054906101000a900461ffff16905082565b60098054610a9890611e20565b80601f0160208091040260200160405190810160405280929190818152602001828054610ac490611e20565b8015610b115780601f10610ae657610100808354040283529160200191610b11565b820191906000526020600020905b815481529060010190602001808311610af457829003601f168201915b505050505081565b6000600254905090565b600060606000801515600660149054906101000a900460ff16151514905060008060045442610b529190611d42565b119050600080600b8054905011905060008047119050828015610b725750835b8015610b7b5750805b8015610b845750815b9550856040518060400160405280600381526020017f307830000000000000000000000000000000000000000000000000000000000081525095509550505050509091565b6000600660009054906101000a900473ffffffffffffffffffffffffffffffffffffffff16905090565b606060098054610c0290611e20565b80601f0160208091040260200160405190810160405280929190818152602001828054610c2e90611e20565b8015610c7b5780601f10610c5057610100808354040283529160200191610c7b565b820191906000526020600020905b815481529060010190602001808311610c5e57829003601f168201915b5050505050905090565b60078054610c9290611e20565b80601f0160208091040260200160405190810160405280929190818152602001828054610cbe90611e20565b8015610d0b5780601f10610ce057610100808354040283529160200191610d0b565b820191906000526020600020905b815481529060010190602001808311610cee57829003601f168201915b505050505081565b600560009054906101000a900473ffffffffffffffffffffffffffffffffffffffff1681565b6000600454905090565b610d4c3361099d565b15610d5657600080fd5b600660149054906101000a900460ff1615610d7057600080fd5b600054341015610db5576040517f08c379a0000000000000000000000000000000000000000000000000000000008152600401610dac90611b18565b60405180910390fd5b34600a60003373ffffffffffffffffffffffffffffffffffffffff1673ffffffffffffffffffffffffffffffffffffffff168152602001908152602001600020600001819055506002600a60003373ffffffffffffffffffffffffffffffffffffffff1673ffffffffffffffffffffffffffffffffffffffff16815260200190815260200160002060010160006101000a81548161ffff021916908361ffff160217905550600b339080600181540180825580915050600190039060005260206000200160009091909190916101000a81548173ffffffffffffffffffffffffffffffffffffffff021916908373ffffffffffffffffffffffffffffffffffffffff1602179055506064600d546064610ece9190611d42565b34610ed99190611ce8565b610ee39190611cb7565b60026000828254610ef49190611c61565b925050819055503373ffffffffffffffffffffffffffffffffffffffff167f7f47e4b864ee52d8ca461d379020be7e99ae801a152dde71193bdc651da8a7c060405160405180910390a2565b600660009054906101000a900473ffffffffffffffffffffffffffffffffffffffff1673ffffffffffffffffffffffffffffffffffffffff163373ffffffffffffffffffffffffffffffffffffffff1614610fd0576040517f08c379a0000000000000000000000000000000000000000000000000000000008152600401610fc790611b38565b60405180910390fd5b6000600660146101000a81548160ff0219169083151502179055508360079080519060200190611001929190611633565b508260089080519060200190611018929190611633565b50816009908051906020019061102f929190611633565b5080600481905550600067ffffffffffffffff81111561105257611051611f88565b5b6040519080825280602002602001820160405280156110805781602001602082028036833780820191505090505b50600b90805190602001906110969291906116b9565b504260038190555050505050565b6000600b82815481106110ba576110b9611f59565b5b9060005260206000200160009054906101000a900473ffffffffffffffffffffffffffffffffffffffff169050919050565b600660149054906101000a900460ff1681565b6000600354905090565b600b818154811061111957600080fd5b906000526020600020016000915054906101000a900473ffffffffffffffffffffffffffffffffffffffff1681565b6000600b80549050905090565b600660009054906101000a900473ffffffffffffffffffffffffffffffffffffffff1673ffffffffffffffffffffffffffffffffffffffff163373ffffffffffffffffffffffffffffffffffffffff16146111e5576040517f08c379a00000000000000000000000000000000000000000000000000000000081526004016111dc90611b38565b60405180910390fd5b600080600080600080600090505b600b8054905081101561131857600b818154811061121457611213611f59565b5b9060005260206000200160009054906101000a900473ffffffffffffffffffffffffffffffffffffffff1691508661ffff16600a60008473ffffffffffffffffffffffffffffffffffffffff1673ffffffffffffffffffffffffffffffffffffffff16815260200190815260200160002060010160009054906101000a900461ffff1661ffff16141561130557600c829080600181540180825580915050600190039060005260206000200160009091909190916101000a81548173ffffffffffffffffffffffffffffffffffffffff021916908373ffffffffffffffffffffffffffffffffffffffff1602179055505b808061131090611e83565b9150506111f3565b5060018661ffff1614156113355760025494506001549350611340565b600154945060025493505b60005b600c805490508110156114b157600c818154811061136457611363611f59565b5b9060005260206000200160009054906101000a900473ffffffffffffffffffffffffffffffffffffffff169350600a60008573ffffffffffffffffffffffffffffffffffffffff1673ffffffffffffffffffffffffffffffffffffffff168152602001908152602001600020600001549250600061271086612710896113ea9190611ce8565b6113f49190611cb7565b6127106114019190611c61565b8561140c9190611ce8565b6114169190611cb7565b9050600c828154811061142c5761142b611f59565b5b9060005260206000200160009054906101000a900473ffffffffffffffffffffffffffffffffffffffff1673ffffffffffffffffffffffffffffffffffffffff166108fc829081150290604051600060405180830381858888f1935050505015801561149c573d6000803e3d6000fd5b505080806114a990611e83565b915050611343565b50600560009054906101000a900473ffffffffffffffffffffffffffffffffffffffff1673ffffffffffffffffffffffffffffffffffffffff166108fc479081150290604051600060405180830381858888f1935050505015801561151a573d6000803e3d6000fd5b506001600660146101000a81548160ff02191690831515021790555060005b600b805490508110156115f657600a6000600b838154811061155e5761155d611f59565b5b9060005260206000200160009054906101000a900473ffffffffffffffffffffffffffffffffffffffff1673ffffffffffffffffffffffffffffffffffffffff1673ffffffffffffffffffffffffffffffffffffffff1681526020019081526020016000206000808201600090556001820160006101000a81549061ffff0219169055505080806115ee90611e83565b915050611539565b50600b60006116059190611743565b600c60006116139190611743565b600094506000935060006001819055506000600281905550505050505050565b82805461163f90611e20565b90600052602060002090601f01602090048101928261166157600085556116a8565b82601f1061167a57805160ff19168380011785556116a8565b828001600101855582156116a8579182015b828111156116a757825182559160200191906001019061168c565b5b5090506116b59190611764565b5090565b828054828255906000526020600020908101928215611732579160200282015b828111156117315782518260006101000a81548173ffffffffffffffffffffffffffffffffffffffff021916908373ffffffffffffffffffffffffffffffffffffffff160217905550916020019190600101906116d9565b5b50905061173f9190611764565b5090565b50805460008255906000526020600020908101906117619190611764565b50565b5b8082111561177d576000816000905550600101611765565b5090565b600061179461178f84611bf8565b611bd3565b9050828152602081018484840111156117b0576117af611fbc565b5b6117bb848285611dde565b509392505050565b6000813590506117d281612054565b92915050565b600082601f8301126117ed576117ec611fb7565b5b81356117fd848260208601611781565b91505092915050565b6000813590506118158161206b565b92915050565b60008135905061182a81612082565b92915050565b60006020828403121561184657611845611fc6565b5b6000611854848285016117c3565b91505092915050565b6000806000806080858703121561187757611876611fc6565b5b600085013567ffffffffffffffff81111561189557611894611fc1565b5b6118a1878288016117d8565b945050602085013567ffffffffffffffff8111156118c2576118c1611fc1565b5b6118ce878288016117d8565b935050604085013567ffffffffffffffff8111156118ef576118ee611fc1565b5b6118fb878288016117d8565b925050606061190c8782880161181b565b91505092959194509250565b60006020828403121561192e5761192d611fc6565b5b600061193c84828501611806565b91505092915050565b60006020828403121561195b5761195a611fc6565b5b60006119698482850161181b565b91505092915050565b61197b81611d88565b82525050565b61198a81611d76565b82525050565b61199981611d9a565b82525050565b60006119aa82611c29565b6119b48185611c3f565b93506119c4818560208601611ded565b6119cd81611fcb565b840191505092915050565b60006119e382611c34565b6119ed8185611c50565b93506119fd818560208601611ded565b611a0681611fcb565b840191505092915050565b6000611a1e601783611c50565b9150611a2982611fdc565b602082019050919050565b6000611a41602183611c50565b9150611a4c82612005565b604082019050919050565b611a6081611da6565b82525050565b611a6f81611dd4565b82525050565b6000602082019050611a8a6000830184611981565b92915050565b6000602082019050611aa56000830184611972565b92915050565b6000602082019050611ac06000830184611990565b92915050565b6000604082019050611adb6000830185611990565b8181036020830152611aed818461199f565b90509392505050565b60006020820190508181036000830152611b1081846119d8565b905092915050565b60006020820190508181036000830152611b3181611a11565b9050919050565b60006020820190508181036000830152611b5181611a34565b9050919050565b6000602082019050611b6d6000830184611a66565b92915050565b6000604082019050611b886000830185611a66565b611b956020830184611a57565b9392505050565b6000606082019050611bb16000830186611a66565b611bbe6020830185611a66565b611bcb6040830184611990565b949350505050565b6000611bdd611bee565b9050611be98282611e52565b919050565b6000604051905090565b600067ffffffffffffffff821115611c1357611c12611f88565b5b611c1c82611fcb565b9050602081019050919050565b600081519050919050565b600081519050919050565b600082825260208201905092915050565b600082825260208201905092915050565b6000611c6c82611dd4565b9150611c7783611dd4565b9250827fffffffffffffffffffffffffffffffffffffffffffffffffffffffffffffffff03821115611cac57611cab611ecc565b5b828201905092915050565b6000611cc282611dd4565b9150611ccd83611dd4565b925082611cdd57611cdc611efb565b5b828204905092915050565b6000611cf382611dd4565b9150611cfe83611dd4565b9250817fffffffffffffffffffffffffffffffffffffffffffffffffffffffffffffffff0483118215151615611d3757611d36611ecc565b5b828202905092915050565b6000611d4d82611dd4565b9150611d5883611dd4565b925082821015611d6b57611d6a611ecc565b5b828203905092915050565b6000611d8182611db4565b9050919050565b6000611d9382611db4565b9050919050565b60008115159050919050565b600061ffff82169050919050565b600073ffffffffffffffffffffffffffffffffffffffff82169050919050565b6000819050919050565b82818337600083830152505050565b60005b83811015611e0b578082015181840152602081019050611df0565b83811115611e1a576000848401525b50505050565b60006002820490506001821680611e3857607f821691505b60208210811415611e4c57611e4b611f2a565b5b50919050565b611e5b82611fcb565b810181811067ffffffffffffffff82111715611e7a57611e79611f88565b5b80604052505050565b6000611e8e82611dd4565b91507fffffffffffffffffffffffffffffffffffffffffffffffffffffffffffffffff821415611ec157611ec0611ecc565b5b600182019050919050565b7f4e487b7100000000000000000000000000000000000000000000000000000000600052601160045260246000fd5b7f4e487b7100000000000000000000000000000000000000000000000000000000600052601260045260246000fd5b7f4e487b7100000000000000000000000000000000000000000000000000000000600052602260045260246000fd5b7f4e487b7100000000000000000000000000000000000000000000000000000000600052603260045260246000fd5b7f4e487b7100000000000000000000000000000000000000000000000000000000600052604160045260246000fd5b600080fd5b600080fd5b600080fd5b600080fd5b6000601f19601f8301169050919050565b7f496e73756666696369656e742062657420616d6f756e74000000000000000000600082015250565b7f4f6e6c792061646d696e2063616e2063616c6c20746869732066756e6374696f60008201527f6e00000000000000000000000000000000000000000000000000000000000000602082015250565b61205d81611d76565b811461206857600080fd5b50565b61207481611da6565b811461207f57600080fd5b50565b61208b81611dd4565b811461209657600080fd5b5056fea26469706673582212201b4534bc001ef8d06b1bdf66b7a56959301dd18134087916d0727a85c7ac58e364736f6c63430008070033",
  "devdoc": {
    "author": "Yakou Hikoichi",
    "kind": "dev",
    "methods": {
      "checkExecuteReady()": {
        "details": "This is the function whether the execution of betting is ready or not they look for `readyToExecute` to return True. the following should be true for this to return true: 1. The time interval has passed between betting runs. 2. The Game is open. 3. The contract has ETH."
      },
      "performExecute(uint16)": {
        "details": "Once `checkExecuteReady` is returning `true`, this function is called and it kicks off the winner."
      }
    },
    "title": "A sample Betting Contract",
    "version": 1
  },
  "userdoc": {
    "kind": "user",
    "methods": {
      "getAdmin()": {
        "notice": "Getter Functions "
      }
    },
    "notice": "This contract is for creating a sample betting contract",
    "version": 1
  },
  "storageLayout": {
    "storage": [
      {
        "astId": 330,
        "contract": "contracts/BinaryBet.sol:Betting",
        "label": "minimumBet",
        "offset": 0,
        "slot": "0",
        "type": "t_uint256"
      },
      {
        "astId": 332,
        "contract": "contracts/BinaryBet.sol:Betting",
        "label": "totalBetOne",
        "offset": 0,
        "slot": "1",
        "type": "t_uint256"
      },
      {
        "astId": 334,
        "contract": "contracts/BinaryBet.sol:Betting",
        "label": "totalBetTwo",
        "offset": 0,
        "slot": "2",
        "type": "t_uint256"
      },
      {
        "astId": 336,
        "contract": "contracts/BinaryBet.sol:Betting",
        "label": "startTimestamp",
        "offset": 0,
        "slot": "3",
        "type": "t_uint256"
      },
      {
        "astId": 338,
        "contract": "contracts/BinaryBet.sol:Betting",
        "label": "dueDateTimestamp",
        "offset": 0,
        "slot": "4",
        "type": "t_uint256"
      },
      {
        "astId": 340,
        "contract": "contracts/BinaryBet.sol:Betting",
        "label": "owner",
        "offset": 0,
        "slot": "5",
        "type": "t_address_payable"
      },
      {
        "astId": 342,
        "contract": "contracts/BinaryBet.sol:Betting",
        "label": "admin",
        "offset": 0,
        "slot": "6",
        "type": "t_address"
      },
      {
        "astId": 344,
        "contract": "contracts/BinaryBet.sol:Betting",
        "label": "gameFinished",
        "offset": 20,
        "slot": "6",
        "type": "t_bool"
      },
      {
        "astId": 346,
        "contract": "contracts/BinaryBet.sol:Betting",
        "label": "gameDescription",
        "offset": 0,
        "slot": "7",
        "type": "t_string_storage"
      },
      {
        "astId": 348,
        "contract": "contracts/BinaryBet.sol:Betting",
        "label": "option1Name",
        "offset": 0,
        "slot": "8",
        "type": "t_string_storage"
      },
      {
        "astId": 350,
        "contract": "contracts/BinaryBet.sol:Betting",
        "label": "option2Name",
        "offset": 0,
        "slot": "9",
        "type": "t_string_storage"
      },
      {
        "astId": 360,
        "contract": "contracts/BinaryBet.sol:Betting",
        "label": "playerInfo",
        "offset": 0,
        "slot": "10",
        "type": "t_mapping(t_address,t_struct(Player)355_storage)"
      },
      {
        "astId": 363,
        "contract": "contracts/BinaryBet.sol:Betting",
        "label": "players",
        "offset": 0,
        "slot": "11",
        "type": "t_array(t_address_payable)dyn_storage"
      },
      {
        "astId": 366,
        "contract": "contracts/BinaryBet.sol:Betting",
        "label": "winners",
        "offset": 0,
        "slot": "12",
        "type": "t_array(t_address_payable)dyn_storage"
      },
      {
        "astId": 369,
        "contract": "contracts/BinaryBet.sol:Betting",
        "label": "commission",
        "offset": 0,
        "slot": "13",
        "type": "t_uint256"
      }
    ],
    "types": {
      "t_address": {
        "encoding": "inplace",
        "label": "address",
        "numberOfBytes": "20"
      },
      "t_address_payable": {
        "encoding": "inplace",
        "label": "address payable",
        "numberOfBytes": "20"
      },
      "t_array(t_address_payable)dyn_storage": {
        "base": "t_address_payable",
        "encoding": "dynamic_array",
        "label": "address payable[]",
        "numberOfBytes": "32"
      },
      "t_bool": {
        "encoding": "inplace",
        "label": "bool",
        "numberOfBytes": "1"
      },
      "t_mapping(t_address,t_struct(Player)355_storage)": {
        "encoding": "mapping",
        "key": "t_address",
        "label": "mapping(address => struct Betting.Player)",
        "numberOfBytes": "32",
        "value": "t_struct(Player)355_storage"
      },
      "t_string_storage": {
        "encoding": "bytes",
        "label": "string",
        "numberOfBytes": "32"
      },
      "t_struct(Player)355_storage": {
        "encoding": "inplace",
        "label": "struct Betting.Player",
        "members": [
          {
            "astId": 352,
            "contract": "contracts/BinaryBet.sol:Betting",
            "label": "amountBet",
            "offset": 0,
            "slot": "0",
            "type": "t_uint256"
          },
          {
            "astId": 354,
            "contract": "contracts/BinaryBet.sol:Betting",
            "label": "teamSelected",
            "offset": 0,
            "slot": "1",
            "type": "t_uint16"
          }
        ],
        "numberOfBytes": "64"
      },
      "t_uint16": {
        "encoding": "inplace",
        "label": "uint16",
        "numberOfBytes": "2"
      },
      "t_uint256": {
        "encoding": "inplace",
        "label": "uint256",
        "numberOfBytes": "32"
      }
    }
  }
}