{
  "address": "0x77D54DE70a2d3f81435F9B1aEa3B71A7A09912D9",
  "abi": [
    {
      "inputs": [
        {
          "internalType": "uint256",
          "name": "interval",
          "type": "uint256"
        },
        {
          "internalType": "uint256",
          "name": "entranceFee",
          "type": "uint256"
        }
      ],
      "stateMutability": "nonpayable",
      "type": "constructor"
    },
    {
      "inputs": [
        {
          "internalType": "uint256",
          "name": "currentBalance",
          "type": "uint256"
        },
        {
          "internalType": "uint256",
          "name": "numPlayers",
          "type": "uint256"
        },
        {
          "internalType": "bool",
          "name": "gameFinished",
          "type": "bool"
        }
      ],
      "name": "Betting__ExecuteNotNeeded",
      "type": "error"
    },
    {
      "inputs": [],
      "name": "Betting__SendMoreToEnterBetting",
      "type": "error"
    },
    {
      "anonymous": false,
      "inputs": [
        {
          "indexed": true,
          "internalType": "address",
          "name": "player",
          "type": "address"
        }
      ],
      "name": "BettingEnter",
      "type": "event"
    },
    {
      "inputs": [],
      "name": "AmountOne",
      "outputs": [
        {
          "internalType": "uint256",
          "name": "",
          "type": "uint256"
        }
      ],
      "stateMutability": "view",
      "type": "function"
    },
    {
      "inputs": [],
      "name": "AmountTwo",
      "outputs": [
        {
          "internalType": "uint256",
          "name": "",
          "type": "uint256"
        }
      ],
      "stateMutability": "view",
      "type": "function"
    },
    {
      "inputs": [
        {
          "internalType": "uint16",
          "name": "_teamSelected",
          "type": "uint16"
        }
      ],
      "name": "betting",
      "outputs": [],
      "stateMutability": "payable",
      "type": "function"
    },
    {
      "inputs": [],
      "name": "checkExecuteReady",
      "outputs": [
        {
          "internalType": "bool",
          "name": "readyToExecute",
          "type": "bool"
        },
        {
          "internalType": "bytes",
          "name": "",
          "type": "bytes"
        }
      ],
      "stateMutability": "view",
      "type": "function"
    },
    {
      "inputs": [
        {
          "internalType": "address",
          "name": "player",
          "type": "address"
        }
      ],
      "name": "checkPlayerExists",
      "outputs": [
        {
          "internalType": "bool",
          "name": "",
          "type": "bool"
        }
      ],
      "stateMutability": "view",
      "type": "function"
    },
    {
      "inputs": [],
      "name": "gameFinished",
      "outputs": [
        {
          "internalType": "bool",
          "name": "",
          "type": "bool"
        }
      ],
      "stateMutability": "view",
      "type": "function"
    },
    {
      "inputs": [],
      "name": "getAdmin",
      "outputs": [
        {
          "internalType": "address",
          "name": "",
          "type": "address"
        }
      ],
      "stateMutability": "view",
      "type": "function"
    },
    {
      "inputs": [],
      "name": "getEntranceFee",
      "outputs": [
        {
          "internalType": "uint256",
          "name": "",
          "type": "uint256"
        }
      ],
      "stateMutability": "view",
      "type": "function"
    },
    {
      "inputs": [],
      "name": "getGameFinished",
      "outputs": [
        {
          "internalType": "bool",
          "name": "",
          "type": "bool"
        }
      ],
      "stateMutability": "view",
      "type": "function"
    },
    {
      "inputs": [],
      "name": "getInterval",
      "outputs": [
        {
          "internalType": "uint256",
          "name": "",
          "type": "uint256"
        }
      ],
      "stateMutability": "view",
      "type": "function"
    },
    {
      "inputs": [],
      "name": "getLastTimeStamp",
      "outputs": [
        {
          "internalType": "uint256",
          "name": "",
          "type": "uint256"
        }
      ],
      "stateMutability": "view",
      "type": "function"
    },
    {
      "inputs": [],
      "name": "getNumberOfPlayers",
      "outputs": [
        {
          "internalType": "uint256",
          "name": "",
          "type": "uint256"
        }
      ],
      "stateMutability": "view",
      "type": "function"
    },
    {
      "inputs": [
        {
          "internalType": "uint256",
          "name": "index",
          "type": "uint256"
        }
      ],
      "name": "getPlayer",
      "outputs": [
        {
          "internalType": "address",
          "name": "",
          "type": "address"
        }
      ],
      "stateMutability": "view",
      "type": "function"
    },
    {
      "inputs": [],
      "name": "owner",
      "outputs": [
        {
          "internalType": "address payable",
          "name": "",
          "type": "address"
        }
      ],
      "stateMutability": "view",
      "type": "function"
    },
    {
      "inputs": [
        {
          "internalType": "uint16",
          "name": "oraclemsg",
          "type": "uint16"
        }
      ],
      "name": "performExecute",
      "outputs": [],
      "stateMutability": "nonpayable",
      "type": "function"
    },
    {
      "inputs": [
        {
          "internalType": "address",
          "name": "",
          "type": "address"
        }
      ],
      "name": "playerInfo",
      "outputs": [
        {
          "internalType": "uint256",
          "name": "amountBet",
          "type": "uint256"
        },
        {
          "internalType": "uint16",
          "name": "teamSelected",
          "type": "uint16"
        }
      ],
      "stateMutability": "view",
      "type": "function"
    },
    {
      "inputs": [
        {
          "internalType": "uint256",
          "name": "",
          "type": "uint256"
        }
      ],
      "name": "players",
      "outputs": [
        {
          "internalType": "address payable",
          "name": "",
          "type": "address"
        }
      ],
      "stateMutability": "view",
      "type": "function"
    },
    {
      "inputs": [],
      "name": "reopenGame",
      "outputs": [],
      "stateMutability": "nonpayable",
      "type": "function"
    }
  ],
  "transactionHash": "0xc9c5a702e69c6746d8d0456c6f3ed19003768dc5e0c74d3dc1802a49b16e51c9",
  "args": [
    "30",
    "10000000000000000"
  ],
  "numDeployments": 4,
  "solcInputHash": "4cc7b8869107063ac34788fff126e831",
  "bytecode": "0x60a06040523480156200001157600080fd5b50604051620019023803806200190283398181016040528101906200003791906200012b565b8160808181525050806000819055506000600560146101000a81548160ff0219169083151502179055504260038190555033600560006101000a81548173ffffffffffffffffffffffffffffffffffffffff021916908373ffffffffffffffffffffffffffffffffffffffff160217905550600560009054906101000a900473ffffffffffffffffffffffffffffffffffffffff16600460006101000a81548173ffffffffffffffffffffffffffffffffffffffff021916908373ffffffffffffffffffffffffffffffffffffffff16021790555050506200019b565b600081519050620001258162000181565b92915050565b600080604083850312156200014557620001446200017c565b5b6000620001558582860162000114565b9250506020620001688582860162000114565b9150509250929050565b6000819050919050565b600080fd5b6200018c8162000172565b81146200019857600080fd5b50565b608051611744620001be6000396000818161078b015261088301526117446000f3fe6080604052600436106101095760003560e01c80636e9960c311610095578063e55ae4e811610064578063e55ae4e81461034d578063f08846d41461038a578063f0f32497146103a6578063f71d96cb146103d1578063fd6673f51461040e57610109565b80636e9960c3146102a15780638da5cb5b146102cc57806391ad27b4146102f7578063c1c244e81461032257610109565b80634996d51d116100dc5780634996d51d146101ca5780634b114691146101f55780635428ec8514610233578063657335921461024a578063676f64741461027557610109565b806309bc33a71461010e57806327f0cbc0146101395780633ca53bba146101645780634081d9161461018d575b600080fd5b34801561011a57600080fd5b50610123610439565b6040516101309190611307565b60405180910390f35b34801561014557600080fd5b5061014e610442565b60405161015b919061129c565b60405180910390f35b34801561017057600080fd5b5061018b60048036038101906101869190611165565b610459565b005b34801561019957600080fd5b506101b460048036038101906101af9190611138565b61055d565b6040516101c1919061129c565b60405180910390f35b3480156101d657600080fd5b506101df61060f565b6040516101ec9190611307565b60405180910390f35b34801561020157600080fd5b5061021c60048036038101906102179190611138565b610619565b60405161022a929190611322565b60405180910390f35b34801561023f57600080fd5b5061024861064b565b005b34801561025657600080fd5b5061025f61075f565b60405161026c9190611307565b60405180910390f35b34801561028157600080fd5b5061028a610769565b6040516102989291906112b7565b60405180910390f35b3480156102ad57600080fd5b506102b661082f565b6040516102c39190611266565b60405180910390f35b3480156102d857600080fd5b506102e1610859565b6040516102ee9190611281565b60405180910390f35b34801561030357600080fd5b5061030c61087f565b6040516103199190611307565b60405180910390f35b34801561032e57600080fd5b506103376108a7565b6040516103449190611307565b60405180910390f35b34801561035957600080fd5b50610374600480360381019061036f9190611192565b6108b1565b6040516103819190611266565b60405180910390f35b6103a4600480360381019061039f9190611165565b6108f9565b005b3480156103b257600080fd5b506103bb610af4565b6040516103c8919061129c565b60405180910390f35b3480156103dd57600080fd5b506103f860048036038101906103f39190611192565b610b07565b6040516104059190611281565b60405180910390f35b34801561041a57600080fd5b50610423610b46565b6040516104309190611307565b60405180910390f35b60008054905090565b6000600560149054906101000a900460ff16905090565b600560009054906101000a900473ffffffffffffffffffffffffffffffffffffffff1673ffffffffffffffffffffffffffffffffffffffff163373ffffffffffffffffffffffffffffffffffffffff16146104e9576040517f08c379a00000000000000000000000000000000000000000000000000000000081526004016104e0906112e7565b60405180910390fd5b60006104f3610769565b509050806105505747600780549050600560149054906101000a900460ff166040517f0f7249540000000000000000000000000000000000000000000000000000000081526004016105479392919061134b565b60405180910390fd5b61055982610b53565b5050565b600080600780549050905060005b81811015610603578373ffffffffffffffffffffffffffffffffffffffff166007828154811061059e5761059d611606565b5b9060005260206000200160009054906101000a900473ffffffffffffffffffffffffffffffffffffffff1673ffffffffffffffffffffffffffffffffffffffff1614156105f05760019250505061060a565b80806105fb9061155f565b91505061056b565b5060009150505b919050565b6000600154905090565b60066020528060005260406000206000915090508060000154908060010160009054906101000a900461ffff16905082565b600560009054906101000a900473ffffffffffffffffffffffffffffffffffffffff1673ffffffffffffffffffffffffffffffffffffffff163373ffffffffffffffffffffffffffffffffffffffff16146106db576040517f08c379a00000000000000000000000000000000000000000000000000000000081526004016106d2906112e7565b60405180910390fd5b6000600560146101000a81548160ff021916908315150217905550600067ffffffffffffffff81111561071157610710611635565b5b60405190808252806020026020018201604052801561073f5781602001602082028036833780820191505090505b5060079080519060200190610755929190611031565b5042600381905550565b6000600254905090565b600060606000801515600560149054906101000a900460ff16151514905060007f0000000000000000000000000000000000000000000000000000000000000000600354426107b89190611490565b119050600080600780549050119050600080471190508280156107d85750835b80156107e15750805b80156107ea5750815b9550856040518060400160405280600381526020017f307830000000000000000000000000000000000000000000000000000000000081525095509550505050509091565b6000600560009054906101000a900473ffffffffffffffffffffffffffffffffffffffff16905090565b600460009054906101000a900473ffffffffffffffffffffffffffffffffffffffff1681565b60007f0000000000000000000000000000000000000000000000000000000000000000905090565b6000600354905090565b6000600782815481106108c7576108c6611606565b5b9060005260206000200160009054906101000a900473ffffffffffffffffffffffffffffffffffffffff169050919050565b6109023361055d565b1561090c57600080fd5b600560149054906101000a900460ff161561092657600080fd5b600054341015610962576040517f30a16e2e00000000000000000000000000000000000000000000000000000000815260040160405180910390fd5b34600660003373ffffffffffffffffffffffffffffffffffffffff1673ffffffffffffffffffffffffffffffffffffffff1681526020019081526020016000206000018190555080600660003373ffffffffffffffffffffffffffffffffffffffff1673ffffffffffffffffffffffffffffffffffffffff16815260200190815260200160002060010160006101000a81548161ffff021916908361ffff1602179055506007339080600181540180825580915050600190039060005260206000200160009091909190916101000a81548173ffffffffffffffffffffffffffffffffffffffff021916908373ffffffffffffffffffffffffffffffffffffffff16021790555060018161ffff161415610a94573460016000828254610a8891906113af565b92505081905550610aae565b3460026000828254610aa691906113af565b925050819055505b3373ffffffffffffffffffffffffffffffffffffffff167f7f47e4b864ee52d8ca461d379020be7e99ae801a152dde71193bdc651da8a7c060405160405180910390a250565b600560149054906101000a900460ff1681565b60078181548110610b1757600080fd5b906000526020600020016000915054906101000a900473ffffffffffffffffffffffffffffffffffffffff1681565b6000600780549050905090565b600560009054906101000a900473ffffffffffffffffffffffffffffffffffffffff1673ffffffffffffffffffffffffffffffffffffffff163373ffffffffffffffffffffffffffffffffffffffff1614610be3576040517f08c379a0000000000000000000000000000000000000000000000000000000008152600401610bda906112e7565b60405180910390fd5b600080600080600080600090505b600780549050811015610d165760078181548110610c1257610c11611606565b5b9060005260206000200160009054906101000a900473ffffffffffffffffffffffffffffffffffffffff1691508661ffff16600660008473ffffffffffffffffffffffffffffffffffffffff1673ffffffffffffffffffffffffffffffffffffffff16815260200190815260200160002060010160009054906101000a900461ffff1661ffff161415610d03576008829080600181540180825580915050600190039060005260206000200160009091909190916101000a81548173ffffffffffffffffffffffffffffffffffffffff021916908373ffffffffffffffffffffffffffffffffffffffff1602179055505b8080610d0e9061155f565b915050610bf1565b5060018661ffff161415610d335760025494506001549350610d3e565b600154945060025493505b60005b600880549050811015610eaf5760088181548110610d6257610d61611606565b5b9060005260206000200160009054906101000a900473ffffffffffffffffffffffffffffffffffffffff169350600660008573ffffffffffffffffffffffffffffffffffffffff1673ffffffffffffffffffffffffffffffffffffffff16815260200190815260200160002060000154925060006127108661271089610de89190611436565b610df29190611405565b612710610dff91906113af565b85610e0a9190611436565b610e149190611405565b905060088281548110610e2a57610e29611606565b5b9060005260206000200160009054906101000a900473ffffffffffffffffffffffffffffffffffffffff1673ffffffffffffffffffffffffffffffffffffffff166108fc829081150290604051600060405180830381858888f19350505050158015610e9a573d6000803e3d6000fd5b50508080610ea79061155f565b915050610d41565b50600460009054906101000a900473ffffffffffffffffffffffffffffffffffffffff1673ffffffffffffffffffffffffffffffffffffffff166108fc479081150290604051600060405180830381858888f19350505050158015610f18573d6000803e3d6000fd5b506001600560146101000a81548160ff02191690831515021790555060005b600780549050811015610ff4576006600060078381548110610f5c57610f5b611606565b5b9060005260206000200160009054906101000a900473ffffffffffffffffffffffffffffffffffffffff1673ffffffffffffffffffffffffffffffffffffffff1673ffffffffffffffffffffffffffffffffffffffff1681526020019081526020016000206000808201600090556001820160006101000a81549061ffff021916905550508080610fec9061155f565b915050610f37565b506007600061100391906110bb565b6008600061101191906110bb565b600094506000935060006001819055506000600281905550505050505050565b8280548282559060005260206000209081019282156110aa579160200282015b828111156110a95782518260006101000a81548173ffffffffffffffffffffffffffffffffffffffff021916908373ffffffffffffffffffffffffffffffffffffffff16021790555091602001919060010190611051565b5b5090506110b791906110dc565b5090565b50805460008255906000526020600020908101906110d991906110dc565b50565b5b808211156110f55760008160009055506001016110dd565b5090565b600081359050611108816116c9565b92915050565b60008135905061111d816116e0565b92915050565b600081359050611132816116f7565b92915050565b60006020828403121561114e5761114d611664565b5b600061115c848285016110f9565b91505092915050565b60006020828403121561117b5761117a611664565b5b60006111898482850161110e565b91505092915050565b6000602082840312156111a8576111a7611664565b5b60006111b684828501611123565b91505092915050565b6111c8816114d6565b82525050565b6111d7816114c4565b82525050565b6111e6816114e8565b82525050565b60006111f782611382565b611201818561138d565b935061121181856020860161152c565b61121a81611669565b840191505092915050565b600061123260218361139e565b915061123d8261167a565b604082019050919050565b611251816114f4565b82525050565b61126081611522565b82525050565b600060208201905061127b60008301846111ce565b92915050565b600060208201905061129660008301846111bf565b92915050565b60006020820190506112b160008301846111dd565b92915050565b60006040820190506112cc60008301856111dd565b81810360208301526112de81846111ec565b90509392505050565b6000602082019050818103600083015261130081611225565b9050919050565b600060208201905061131c6000830184611257565b92915050565b60006040820190506113376000830185611257565b6113446020830184611248565b9392505050565b60006060820190506113606000830186611257565b61136d6020830185611257565b61137a60408301846111dd565b949350505050565b600081519050919050565b600082825260208201905092915050565b600082825260208201905092915050565b60006113ba82611522565b91506113c583611522565b9250827fffffffffffffffffffffffffffffffffffffffffffffffffffffffffffffffff038211156113fa576113f96115a8565b5b828201905092915050565b600061141082611522565b915061141b83611522565b92508261142b5761142a6115d7565b5b828204905092915050565b600061144182611522565b915061144c83611522565b9250817fffffffffffffffffffffffffffffffffffffffffffffffffffffffffffffffff0483118215151615611485576114846115a8565b5b828202905092915050565b600061149b82611522565b91506114a683611522565b9250828210156114b9576114b86115a8565b5b828203905092915050565b60006114cf82611502565b9050919050565b60006114e182611502565b9050919050565b60008115159050919050565b600061ffff82169050919050565b600073ffffffffffffffffffffffffffffffffffffffff82169050919050565b6000819050919050565b60005b8381101561154a57808201518184015260208101905061152f565b83811115611559576000848401525b50505050565b600061156a82611522565b91507fffffffffffffffffffffffffffffffffffffffffffffffffffffffffffffffff82141561159d5761159c6115a8565b5b600182019050919050565b7f4e487b7100000000000000000000000000000000000000000000000000000000600052601160045260246000fd5b7f4e487b7100000000000000000000000000000000000000000000000000000000600052601260045260246000fd5b7f4e487b7100000000000000000000000000000000000000000000000000000000600052603260045260246000fd5b7f4e487b7100000000000000000000000000000000000000000000000000000000600052604160045260246000fd5b600080fd5b6000601f19601f8301169050919050565b7f4f6e6c792061646d696e2063616e2063616c6c20746869732066756e6374696f60008201527f6e00000000000000000000000000000000000000000000000000000000000000602082015250565b6116d2816114c4565b81146116dd57600080fd5b50565b6116e9816114f4565b81146116f457600080fd5b50565b61170081611522565b811461170b57600080fd5b5056fea2646970667358221220f1cfe6a10b9c486bfc5c2171d75120ea6ae3addd52ea8debe5bda8e04985fbe364736f6c63430008070033",
  "devdoc": {
    "author": "Yakou Hikoichi",
    "kind": "dev",
    "methods": {
      "checkExecuteReady()": {
        "details": "This is the function whether the execution of betting is ready or not they look for `readyToExecute` to return True. the following should be true for this to return true: 1. The time interval has passed between betting runs. 2. The Game is open. 3. The contract has ETH."
      },
      "performExecute(uint16)": {
        "details": "Once `checkExecuteReady` is returning `true`, this function is called and it kicks off the winner."
      }
    },
    "title": "A sample Betting Contract",
    "version": 1
  },
  "userdoc": {
    "kind": "user",
    "methods": {
      "getAdmin()": {
        "notice": "Getter Functions "
      }
    },
    "notice": "This contract is for creating a sample betting contract",
    "version": 1
  },
  "storageLayout": {
    "storage": [
      {
        "astId": 334,
        "contract": "contracts/BinaryBet.sol:Betting",
        "label": "minimumBet",
        "offset": 0,
        "slot": "0",
        "type": "t_uint256"
      },
      {
        "astId": 336,
        "contract": "contracts/BinaryBet.sol:Betting",
        "label": "totalBetOne",
        "offset": 0,
        "slot": "1",
        "type": "t_uint256"
      },
      {
        "astId": 338,
        "contract": "contracts/BinaryBet.sol:Betting",
        "label": "totalBetTwo",
        "offset": 0,
        "slot": "2",
        "type": "t_uint256"
      },
      {
        "astId": 340,
        "contract": "contracts/BinaryBet.sol:Betting",
        "label": "s_lastTimeStamp",
        "offset": 0,
        "slot": "3",
        "type": "t_uint256"
      },
      {
        "astId": 342,
        "contract": "contracts/BinaryBet.sol:Betting",
        "label": "owner",
        "offset": 0,
        "slot": "4",
        "type": "t_address_payable"
      },
      {
        "astId": 344,
        "contract": "contracts/BinaryBet.sol:Betting",
        "label": "admin",
        "offset": 0,
        "slot": "5",
        "type": "t_address"
      },
      {
        "astId": 346,
        "contract": "contracts/BinaryBet.sol:Betting",
        "label": "gameFinished",
        "offset": 20,
        "slot": "5",
        "type": "t_bool"
      },
      {
        "astId": 356,
        "contract": "contracts/BinaryBet.sol:Betting",
        "label": "playerInfo",
        "offset": 0,
        "slot": "6",
        "type": "t_mapping(t_address,t_struct(Player)351_storage)"
      },
      {
        "astId": 359,
        "contract": "contracts/BinaryBet.sol:Betting",
        "label": "players",
        "offset": 0,
        "slot": "7",
        "type": "t_array(t_address_payable)dyn_storage"
      },
      {
        "astId": 362,
        "contract": "contracts/BinaryBet.sol:Betting",
        "label": "winners",
        "offset": 0,
        "slot": "8",
        "type": "t_array(t_address_payable)dyn_storage"
      }
    ],
    "types": {
      "t_address": {
        "encoding": "inplace",
        "label": "address",
        "numberOfBytes": "20"
      },
      "t_address_payable": {
        "encoding": "inplace",
        "label": "address payable",
        "numberOfBytes": "20"
      },
      "t_array(t_address_payable)dyn_storage": {
        "base": "t_address_payable",
        "encoding": "dynamic_array",
        "label": "address payable[]",
        "numberOfBytes": "32"
      },
      "t_bool": {
        "encoding": "inplace",
        "label": "bool",
        "numberOfBytes": "1"
      },
      "t_mapping(t_address,t_struct(Player)351_storage)": {
        "encoding": "mapping",
        "key": "t_address",
        "label": "mapping(address => struct Betting.Player)",
        "numberOfBytes": "32",
        "value": "t_struct(Player)351_storage"
      },
      "t_struct(Player)351_storage": {
        "encoding": "inplace",
        "label": "struct Betting.Player",
        "members": [
          {
            "astId": 348,
            "contract": "contracts/BinaryBet.sol:Betting",
            "label": "amountBet",
            "offset": 0,
            "slot": "0",
            "type": "t_uint256"
          },
          {
            "astId": 350,
            "contract": "contracts/BinaryBet.sol:Betting",
            "label": "teamSelected",
            "offset": 0,
            "slot": "1",
            "type": "t_uint16"
          }
        ],
        "numberOfBytes": "64"
      },
      "t_uint16": {
        "encoding": "inplace",
        "label": "uint16",
        "numberOfBytes": "2"
      },
      "t_uint256": {
        "encoding": "inplace",
        "label": "uint256",
        "numberOfBytes": "32"
      }
    }
  }
}