{
  "address": "0x8dcaCea8f9fdD8Aa7C3F1A5eAFDe867516FC747B",
  "abi": [
    {
      "inputs": [
        {
          "internalType": "uint256",
          "name": "interval",
          "type": "uint256"
        },
        {
          "internalType": "uint256",
          "name": "entranceFee",
          "type": "uint256"
        }
      ],
      "stateMutability": "nonpayable",
      "type": "constructor"
    },
    {
      "inputs": [
        {
          "internalType": "uint256",
          "name": "currentBalance",
          "type": "uint256"
        },
        {
          "internalType": "uint256",
          "name": "numPlayers",
          "type": "uint256"
        },
        {
          "internalType": "bool",
          "name": "gameFinished",
          "type": "bool"
        }
      ],
      "name": "Betting__ExecuteNotNeeded",
      "type": "error"
    },
    {
      "inputs": [],
      "name": "Betting__SendMoreToEnterBetting",
      "type": "error"
    },
    {
      "anonymous": false,
      "inputs": [
        {
          "indexed": true,
          "internalType": "address",
          "name": "player",
          "type": "address"
        }
      ],
      "name": "BettingEnter",
      "type": "event"
    },
    {
      "inputs": [],
      "name": "AmountOne",
      "outputs": [
        {
          "internalType": "uint256",
          "name": "",
          "type": "uint256"
        }
      ],
      "stateMutability": "view",
      "type": "function"
    },
    {
      "inputs": [],
      "name": "AmountTwo",
      "outputs": [
        {
          "internalType": "uint256",
          "name": "",
          "type": "uint256"
        }
      ],
      "stateMutability": "view",
      "type": "function"
    },
    {
      "inputs": [
        {
          "internalType": "uint16",
          "name": "_teamSelected",
          "type": "uint16"
        }
      ],
      "name": "betting",
      "outputs": [],
      "stateMutability": "payable",
      "type": "function"
    },
    {
      "inputs": [],
      "name": "checkExecuteReady",
      "outputs": [
        {
          "internalType": "bool",
          "name": "readyToExecute",
          "type": "bool"
        },
        {
          "internalType": "bytes",
          "name": "",
          "type": "bytes"
        }
      ],
      "stateMutability": "view",
      "type": "function"
    },
    {
      "inputs": [
        {
          "internalType": "address",
          "name": "player",
          "type": "address"
        }
      ],
      "name": "checkPlayerExists",
      "outputs": [
        {
          "internalType": "bool",
          "name": "",
          "type": "bool"
        }
      ],
      "stateMutability": "view",
      "type": "function"
    },
    {
      "inputs": [],
      "name": "gameFinished",
      "outputs": [
        {
          "internalType": "bool",
          "name": "",
          "type": "bool"
        }
      ],
      "stateMutability": "view",
      "type": "function"
    },
    {
      "inputs": [],
      "name": "getAdmin",
      "outputs": [
        {
          "internalType": "address",
          "name": "",
          "type": "address"
        }
      ],
      "stateMutability": "view",
      "type": "function"
    },
    {
      "inputs": [],
      "name": "getEntranceFee",
      "outputs": [
        {
          "internalType": "uint256",
          "name": "",
          "type": "uint256"
        }
      ],
      "stateMutability": "view",
      "type": "function"
    },
    {
      "inputs": [],
      "name": "getGameFinished",
      "outputs": [
        {
          "internalType": "bool",
          "name": "",
          "type": "bool"
        }
      ],
      "stateMutability": "view",
      "type": "function"
    },
    {
      "inputs": [],
      "name": "getInterval",
      "outputs": [
        {
          "internalType": "uint256",
          "name": "",
          "type": "uint256"
        }
      ],
      "stateMutability": "view",
      "type": "function"
    },
    {
      "inputs": [],
      "name": "getLastTimeStamp",
      "outputs": [
        {
          "internalType": "uint256",
          "name": "",
          "type": "uint256"
        }
      ],
      "stateMutability": "view",
      "type": "function"
    },
    {
      "inputs": [],
      "name": "getNumberOfPlayers",
      "outputs": [
        {
          "internalType": "uint256",
          "name": "",
          "type": "uint256"
        }
      ],
      "stateMutability": "view",
      "type": "function"
    },
    {
      "inputs": [
        {
          "internalType": "uint256",
          "name": "index",
          "type": "uint256"
        }
      ],
      "name": "getPlayer",
      "outputs": [
        {
          "internalType": "address",
          "name": "",
          "type": "address"
        }
      ],
      "stateMutability": "view",
      "type": "function"
    },
    {
      "inputs": [],
      "name": "owner",
      "outputs": [
        {
          "internalType": "address payable",
          "name": "",
          "type": "address"
        }
      ],
      "stateMutability": "view",
      "type": "function"
    },
    {
      "inputs": [
        {
          "internalType": "uint16",
          "name": "oraclemsg",
          "type": "uint16"
        }
      ],
      "name": "performExecute",
      "outputs": [],
      "stateMutability": "nonpayable",
      "type": "function"
    },
    {
      "inputs": [
        {
          "internalType": "address",
          "name": "",
          "type": "address"
        }
      ],
      "name": "playerInfo",
      "outputs": [
        {
          "internalType": "uint256",
          "name": "amountBet",
          "type": "uint256"
        },
        {
          "internalType": "uint16",
          "name": "teamSelected",
          "type": "uint16"
        }
      ],
      "stateMutability": "view",
      "type": "function"
    },
    {
      "inputs": [
        {
          "internalType": "uint256",
          "name": "",
          "type": "uint256"
        }
      ],
      "name": "players",
      "outputs": [
        {
          "internalType": "address payable",
          "name": "",
          "type": "address"
        }
      ],
      "stateMutability": "view",
      "type": "function"
    },
    {
      "inputs": [],
      "name": "reopenGame",
      "outputs": [],
      "stateMutability": "nonpayable",
      "type": "function"
    },
    {
      "inputs": [
        {
          "internalType": "uint256",
          "name": "",
          "type": "uint256"
        }
      ],
      "name": "winners",
      "outputs": [
        {
          "internalType": "address payable",
          "name": "",
          "type": "address"
        }
      ],
      "stateMutability": "view",
      "type": "function"
    }
  ],
  "transactionHash": "0x31f8c2bd300682196657d0dd631c7d35c856a294d08cc362fc4f95526685f64d",
  "args": [
    "30",
    "10000000000000000"
  ],
  "numDeployments": 3,
  "solcInputHash": "5397163ab104228de802821e00e81052",
  "bytecode": "0x60a06040523480156200001157600080fd5b50604051620019893803806200198983398181016040528101906200003791906200012b565b8160808181525050806000819055506000600560146101000a81548160ff0219169083151502179055504260038190555033600560006101000a81548173ffffffffffffffffffffffffffffffffffffffff021916908373ffffffffffffffffffffffffffffffffffffffff160217905550600560009054906101000a900473ffffffffffffffffffffffffffffffffffffffff16600460006101000a81548173ffffffffffffffffffffffffffffffffffffffff021916908373ffffffffffffffffffffffffffffffffffffffff16021790555050506200019b565b600081519050620001258162000181565b92915050565b600080604083850312156200014557620001446200017c565b5b6000620001558582860162000114565b9250506020620001688582860162000114565b9150509250929050565b6000819050919050565b600080fd5b6200018c8162000172565b81146200019857600080fd5b50565b6080516117cb620001be600039600081816107d301526108cb01526117cb6000f3fe6080604052600436106101145760003560e01c80636e9960c3116100a0578063e55ae4e811610064578063e55ae4e814610395578063f08846d4146103d2578063f0f32497146103ee578063f71d96cb14610419578063fd6673f51461045657610114565b80636e9960c3146102ac5780638da5cb5b146102d757806391ad27b414610302578063a2fb11751461032d578063c1c244e81461036a57610114565b80634996d51d116100e75780634996d51d146101d55780634b114691146102005780635428ec851461023e5780636573359214610255578063676f64741461028057610114565b806309bc33a71461011957806327f0cbc0146101445780633ca53bba1461016f5780634081d91614610198575b600080fd5b34801561012557600080fd5b5061012e610481565b60405161013b919061138e565b60405180910390f35b34801561015057600080fd5b5061015961048a565b6040516101669190611323565b60405180910390f35b34801561017b57600080fd5b50610196600480360381019061019191906111ec565b6104a1565b005b3480156101a457600080fd5b506101bf60048036038101906101ba91906111bf565b6105a5565b6040516101cc9190611323565b60405180910390f35b3480156101e157600080fd5b506101ea610657565b6040516101f7919061138e565b60405180910390f35b34801561020c57600080fd5b50610227600480360381019061022291906111bf565b610661565b6040516102359291906113a9565b60405180910390f35b34801561024a57600080fd5b50610253610693565b005b34801561026157600080fd5b5061026a6107a7565b604051610277919061138e565b60405180910390f35b34801561028c57600080fd5b506102956107b1565b6040516102a392919061133e565b60405180910390f35b3480156102b857600080fd5b506102c1610877565b6040516102ce91906112ed565b60405180910390f35b3480156102e357600080fd5b506102ec6108a1565b6040516102f99190611308565b60405180910390f35b34801561030e57600080fd5b506103176108c7565b604051610324919061138e565b60405180910390f35b34801561033957600080fd5b50610354600480360381019061034f9190611219565b6108ef565b6040516103619190611308565b60405180910390f35b34801561037657600080fd5b5061037f61092e565b60405161038c919061138e565b60405180910390f35b3480156103a157600080fd5b506103bc60048036038101906103b79190611219565b610938565b6040516103c991906112ed565b60405180910390f35b6103ec60048036038101906103e791906111ec565b610980565b005b3480156103fa57600080fd5b50610403610b7b565b6040516104109190611323565b60405180910390f35b34801561042557600080fd5b50610440600480360381019061043b9190611219565b610b8e565b60405161044d9190611308565b60405180910390f35b34801561046257600080fd5b5061046b610bcd565b604051610478919061138e565b60405180910390f35b60008054905090565b6000600560149054906101000a900460ff16905090565b600560009054906101000a900473ffffffffffffffffffffffffffffffffffffffff1673ffffffffffffffffffffffffffffffffffffffff163373ffffffffffffffffffffffffffffffffffffffff1614610531576040517f08c379a00000000000000000000000000000000000000000000000000000000081526004016105289061136e565b60405180910390fd5b600061053b6107b1565b509050806105985747600780549050600560149054906101000a900460ff166040517f0f72495400000000000000000000000000000000000000000000000000000000815260040161058f939291906113d2565b60405180910390fd5b6105a182610bda565b5050565b600080600780549050905060005b8181101561064b578373ffffffffffffffffffffffffffffffffffffffff16600782815481106105e6576105e561168d565b5b9060005260206000200160009054906101000a900473ffffffffffffffffffffffffffffffffffffffff1673ffffffffffffffffffffffffffffffffffffffff16141561063857600192505050610652565b8080610643906115e6565b9150506105b3565b5060009150505b919050565b6000600154905090565b60066020528060005260406000206000915090508060000154908060010160009054906101000a900461ffff16905082565b600560009054906101000a900473ffffffffffffffffffffffffffffffffffffffff1673ffffffffffffffffffffffffffffffffffffffff163373ffffffffffffffffffffffffffffffffffffffff1614610723576040517f08c379a000000000000000000000000000000000000000000000000000000000815260040161071a9061136e565b60405180910390fd5b6000600560146101000a81548160ff021916908315150217905550600067ffffffffffffffff811115610759576107586116bc565b5b6040519080825280602002602001820160405280156107875781602001602082028036833780820191505090505b506007908051906020019061079d9291906110b8565b5042600381905550565b6000600254905090565b600060606000801515600560149054906101000a900460ff16151514905060007f0000000000000000000000000000000000000000000000000000000000000000600354426108009190611517565b119050600080600780549050119050600080471190508280156108205750835b80156108295750805b80156108325750815b9550856040518060400160405280600381526020017f307830000000000000000000000000000000000000000000000000000000000081525095509550505050509091565b6000600560009054906101000a900473ffffffffffffffffffffffffffffffffffffffff16905090565b600460009054906101000a900473ffffffffffffffffffffffffffffffffffffffff1681565b60007f0000000000000000000000000000000000000000000000000000000000000000905090565b600881815481106108ff57600080fd5b906000526020600020016000915054906101000a900473ffffffffffffffffffffffffffffffffffffffff1681565b6000600354905090565b60006007828154811061094e5761094d61168d565b5b9060005260206000200160009054906101000a900473ffffffffffffffffffffffffffffffffffffffff169050919050565b610989336105a5565b1561099357600080fd5b600560149054906101000a900460ff16156109ad57600080fd5b6000543410156109e9576040517f30a16e2e00000000000000000000000000000000000000000000000000000000815260040160405180910390fd5b34600660003373ffffffffffffffffffffffffffffffffffffffff1673ffffffffffffffffffffffffffffffffffffffff1681526020019081526020016000206000018190555080600660003373ffffffffffffffffffffffffffffffffffffffff1673ffffffffffffffffffffffffffffffffffffffff16815260200190815260200160002060010160006101000a81548161ffff021916908361ffff1602179055506007339080600181540180825580915050600190039060005260206000200160009091909190916101000a81548173ffffffffffffffffffffffffffffffffffffffff021916908373ffffffffffffffffffffffffffffffffffffffff16021790555060018161ffff161415610b1b573460016000828254610b0f9190611436565b92505081905550610b35565b3460026000828254610b2d9190611436565b925050819055505b3373ffffffffffffffffffffffffffffffffffffffff167f7f47e4b864ee52d8ca461d379020be7e99ae801a152dde71193bdc651da8a7c060405160405180910390a250565b600560149054906101000a900460ff1681565b60078181548110610b9e57600080fd5b906000526020600020016000915054906101000a900473ffffffffffffffffffffffffffffffffffffffff1681565b6000600780549050905090565b600560009054906101000a900473ffffffffffffffffffffffffffffffffffffffff1673ffffffffffffffffffffffffffffffffffffffff163373ffffffffffffffffffffffffffffffffffffffff1614610c6a576040517f08c379a0000000000000000000000000000000000000000000000000000000008152600401610c619061136e565b60405180910390fd5b600080600080600080600090505b600780549050811015610d9d5760078181548110610c9957610c9861168d565b5b9060005260206000200160009054906101000a900473ffffffffffffffffffffffffffffffffffffffff1691508661ffff16600660008473ffffffffffffffffffffffffffffffffffffffff1673ffffffffffffffffffffffffffffffffffffffff16815260200190815260200160002060010160009054906101000a900461ffff1661ffff161415610d8a576008829080600181540180825580915050600190039060005260206000200160009091909190916101000a81548173ffffffffffffffffffffffffffffffffffffffff021916908373ffffffffffffffffffffffffffffffffffffffff1602179055505b8080610d95906115e6565b915050610c78565b5060018661ffff161415610dba5760025494506001549350610dc5565b600154945060025493505b60005b600880549050811015610f365760088181548110610de957610de861168d565b5b9060005260206000200160009054906101000a900473ffffffffffffffffffffffffffffffffffffffff169350600660008573ffffffffffffffffffffffffffffffffffffffff1673ffffffffffffffffffffffffffffffffffffffff16815260200190815260200160002060000154925060006127108661271089610e6f91906114bd565b610e79919061148c565b612710610e869190611436565b85610e9191906114bd565b610e9b919061148c565b905060088281548110610eb157610eb061168d565b5b9060005260206000200160009054906101000a900473ffffffffffffffffffffffffffffffffffffffff1673ffffffffffffffffffffffffffffffffffffffff166108fc829081150290604051600060405180830381858888f19350505050158015610f21573d6000803e3d6000fd5b50508080610f2e906115e6565b915050610dc8565b50600460009054906101000a900473ffffffffffffffffffffffffffffffffffffffff1673ffffffffffffffffffffffffffffffffffffffff166108fc479081150290604051600060405180830381858888f19350505050158015610f9f573d6000803e3d6000fd5b506001600560146101000a81548160ff02191690831515021790555060005b60078054905081101561107b576006600060078381548110610fe357610fe261168d565b5b9060005260206000200160009054906101000a900473ffffffffffffffffffffffffffffffffffffffff1673ffffffffffffffffffffffffffffffffffffffff1673ffffffffffffffffffffffffffffffffffffffff1681526020019081526020016000206000808201600090556001820160006101000a81549061ffff021916905550508080611073906115e6565b915050610fbe565b506007600061108a9190611142565b600860006110989190611142565b600094506000935060006001819055506000600281905550505050505050565b828054828255906000526020600020908101928215611131579160200282015b828111156111305782518260006101000a81548173ffffffffffffffffffffffffffffffffffffffff021916908373ffffffffffffffffffffffffffffffffffffffff160217905550916020019190600101906110d8565b5b50905061113e9190611163565b5090565b50805460008255906000526020600020908101906111609190611163565b50565b5b8082111561117c576000816000905550600101611164565b5090565b60008135905061118f81611750565b92915050565b6000813590506111a481611767565b92915050565b6000813590506111b98161177e565b92915050565b6000602082840312156111d5576111d46116eb565b5b60006111e384828501611180565b91505092915050565b600060208284031215611202576112016116eb565b5b600061121084828501611195565b91505092915050565b60006020828403121561122f5761122e6116eb565b5b600061123d848285016111aa565b91505092915050565b61124f8161155d565b82525050565b61125e8161154b565b82525050565b61126d8161156f565b82525050565b600061127e82611409565b6112888185611414565b93506112988185602086016115b3565b6112a1816116f0565b840191505092915050565b60006112b9602183611425565b91506112c482611701565b604082019050919050565b6112d88161157b565b82525050565b6112e7816115a9565b82525050565b60006020820190506113026000830184611255565b92915050565b600060208201905061131d6000830184611246565b92915050565b60006020820190506113386000830184611264565b92915050565b60006040820190506113536000830185611264565b81810360208301526113658184611273565b90509392505050565b60006020820190508181036000830152611387816112ac565b9050919050565b60006020820190506113a360008301846112de565b92915050565b60006040820190506113be60008301856112de565b6113cb60208301846112cf565b9392505050565b60006060820190506113e760008301866112de565b6113f460208301856112de565b6114016040830184611264565b949350505050565b600081519050919050565b600082825260208201905092915050565b600082825260208201905092915050565b6000611441826115a9565b915061144c836115a9565b9250827fffffffffffffffffffffffffffffffffffffffffffffffffffffffffffffffff038211156114815761148061162f565b5b828201905092915050565b6000611497826115a9565b91506114a2836115a9565b9250826114b2576114b161165e565b5b828204905092915050565b60006114c8826115a9565b91506114d3836115a9565b9250817fffffffffffffffffffffffffffffffffffffffffffffffffffffffffffffffff048311821515161561150c5761150b61162f565b5b828202905092915050565b6000611522826115a9565b915061152d836115a9565b9250828210156115405761153f61162f565b5b828203905092915050565b600061155682611589565b9050919050565b600061156882611589565b9050919050565b60008115159050919050565b600061ffff82169050919050565b600073ffffffffffffffffffffffffffffffffffffffff82169050919050565b6000819050919050565b60005b838110156115d15780820151818401526020810190506115b6565b838111156115e0576000848401525b50505050565b60006115f1826115a9565b91507fffffffffffffffffffffffffffffffffffffffffffffffffffffffffffffffff8214156116245761162361162f565b5b600182019050919050565b7f4e487b7100000000000000000000000000000000000000000000000000000000600052601160045260246000fd5b7f4e487b7100000000000000000000000000000000000000000000000000000000600052601260045260246000fd5b7f4e487b7100000000000000000000000000000000000000000000000000000000600052603260045260246000fd5b7f4e487b7100000000000000000000000000000000000000000000000000000000600052604160045260246000fd5b600080fd5b6000601f19601f8301169050919050565b7f4f6e6c792061646d696e2063616e2063616c6c20746869732066756e6374696f60008201527f6e00000000000000000000000000000000000000000000000000000000000000602082015250565b6117598161154b565b811461176457600080fd5b50565b6117708161157b565b811461177b57600080fd5b50565b611787816115a9565b811461179257600080fd5b5056fea2646970667358221220f55acfd6d79972a0a69a56ac49238e799af83c77a925089bfb84da518a719d0b64736f6c63430008070033",
  "devdoc": {
    "author": "Yakou Hikoichi",
    "kind": "dev",
    "methods": {
      "checkExecuteReady()": {
        "details": "This is the function whether the execution of betting is ready or not they look for `readyToExecute` to return True. the following should be true for this to return true: 1. The time interval has passed between betting runs. 2. The Game is open. 3. The contract has ETH."
      },
      "performExecute(uint16)": {
        "details": "Once `checkExecuteReady` is returning `true`, this function is called and it kicks off the winner."
      }
    },
    "title": "A sample Betting Contract",
    "version": 1
  },
  "userdoc": {
    "kind": "user",
    "methods": {
      "getAdmin()": {
        "notice": "Getter Functions "
      }
    },
    "notice": "This contract is for creating a sample betting contract",
    "version": 1
  },
  "storageLayout": {
    "storage": [
      {
        "astId": 334,
        "contract": "contracts/BinaryBet.sol:Betting",
        "label": "minimumBet",
        "offset": 0,
        "slot": "0",
        "type": "t_uint256"
      },
      {
        "astId": 336,
        "contract": "contracts/BinaryBet.sol:Betting",
        "label": "totalBetOne",
        "offset": 0,
        "slot": "1",
        "type": "t_uint256"
      },
      {
        "astId": 338,
        "contract": "contracts/BinaryBet.sol:Betting",
        "label": "totalBetTwo",
        "offset": 0,
        "slot": "2",
        "type": "t_uint256"
      },
      {
        "astId": 340,
        "contract": "contracts/BinaryBet.sol:Betting",
        "label": "s_lastTimeStamp",
        "offset": 0,
        "slot": "3",
        "type": "t_uint256"
      },
      {
        "astId": 342,
        "contract": "contracts/BinaryBet.sol:Betting",
        "label": "owner",
        "offset": 0,
        "slot": "4",
        "type": "t_address_payable"
      },
      {
        "astId": 344,
        "contract": "contracts/BinaryBet.sol:Betting",
        "label": "admin",
        "offset": 0,
        "slot": "5",
        "type": "t_address"
      },
      {
        "astId": 346,
        "contract": "contracts/BinaryBet.sol:Betting",
        "label": "gameFinished",
        "offset": 20,
        "slot": "5",
        "type": "t_bool"
      },
      {
        "astId": 356,
        "contract": "contracts/BinaryBet.sol:Betting",
        "label": "playerInfo",
        "offset": 0,
        "slot": "6",
        "type": "t_mapping(t_address,t_struct(Player)351_storage)"
      },
      {
        "astId": 359,
        "contract": "contracts/BinaryBet.sol:Betting",
        "label": "players",
        "offset": 0,
        "slot": "7",
        "type": "t_array(t_address_payable)dyn_storage"
      },
      {
        "astId": 362,
        "contract": "contracts/BinaryBet.sol:Betting",
        "label": "winners",
        "offset": 0,
        "slot": "8",
        "type": "t_array(t_address_payable)dyn_storage"
      }
    ],
    "types": {
      "t_address": {
        "encoding": "inplace",
        "label": "address",
        "numberOfBytes": "20"
      },
      "t_address_payable": {
        "encoding": "inplace",
        "label": "address payable",
        "numberOfBytes": "20"
      },
      "t_array(t_address_payable)dyn_storage": {
        "base": "t_address_payable",
        "encoding": "dynamic_array",
        "label": "address payable[]",
        "numberOfBytes": "32"
      },
      "t_bool": {
        "encoding": "inplace",
        "label": "bool",
        "numberOfBytes": "1"
      },
      "t_mapping(t_address,t_struct(Player)351_storage)": {
        "encoding": "mapping",
        "key": "t_address",
        "label": "mapping(address => struct Betting.Player)",
        "numberOfBytes": "32",
        "value": "t_struct(Player)351_storage"
      },
      "t_struct(Player)351_storage": {
        "encoding": "inplace",
        "label": "struct Betting.Player",
        "members": [
          {
            "astId": 348,
            "contract": "contracts/BinaryBet.sol:Betting",
            "label": "amountBet",
            "offset": 0,
            "slot": "0",
            "type": "t_uint256"
          },
          {
            "astId": 350,
            "contract": "contracts/BinaryBet.sol:Betting",
            "label": "teamSelected",
            "offset": 0,
            "slot": "1",
            "type": "t_uint16"
          }
        ],
        "numberOfBytes": "64"
      },
      "t_uint16": {
        "encoding": "inplace",
        "label": "uint16",
        "numberOfBytes": "2"
      },
      "t_uint256": {
        "encoding": "inplace",
        "label": "uint256",
        "numberOfBytes": "32"
      }
    }
  }
}