{
  "address": "0x5D02Fe32e755Dd3c4AF008bb225a55FA755430eF",
  "abi": [
    {
      "inputs": [
        {
          "internalType": "uint256",
          "name": "interval",
          "type": "uint256"
        },
        {
          "internalType": "uint256",
          "name": "entranceFee",
          "type": "uint256"
        }
      ],
      "stateMutability": "nonpayable",
      "type": "constructor"
    },
    {
      "inputs": [],
      "name": "Betting__BettingNotOpen",
      "type": "error"
    },
    {
      "inputs": [
        {
          "internalType": "uint256",
          "name": "currentBalance",
          "type": "uint256"
        },
        {
          "internalType": "uint256",
          "name": "numPlayers",
          "type": "uint256"
        },
        {
          "internalType": "uint256",
          "name": "bettingState",
          "type": "uint256"
        }
      ],
      "name": "Betting__ExecuteNotNeeded",
      "type": "error"
    },
    {
      "inputs": [],
      "name": "Betting__SendMoreToEnterBetting",
      "type": "error"
    },
    {
      "anonymous": false,
      "inputs": [
        {
          "indexed": true,
          "internalType": "address",
          "name": "player",
          "type": "address"
        }
      ],
      "name": "BettingEnter",
      "type": "event"
    },
    {
      "inputs": [],
      "name": "AmountOne",
      "outputs": [
        {
          "internalType": "uint256",
          "name": "",
          "type": "uint256"
        }
      ],
      "stateMutability": "view",
      "type": "function"
    },
    {
      "inputs": [],
      "name": "AmountTwo",
      "outputs": [
        {
          "internalType": "uint256",
          "name": "",
          "type": "uint256"
        }
      ],
      "stateMutability": "view",
      "type": "function"
    },
    {
      "inputs": [
        {
          "internalType": "uint16",
          "name": "_teamSelected",
          "type": "uint16"
        }
      ],
      "name": "betting",
      "outputs": [],
      "stateMutability": "payable",
      "type": "function"
    },
    {
      "inputs": [],
      "name": "checkExecuteReady",
      "outputs": [
        {
          "internalType": "bool",
          "name": "readyToExecute",
          "type": "bool"
        },
        {
          "internalType": "bytes",
          "name": "",
          "type": "bytes"
        }
      ],
      "stateMutability": "view",
      "type": "function"
    },
    {
      "inputs": [
        {
          "internalType": "address",
          "name": "player",
          "type": "address"
        }
      ],
      "name": "checkPlayerExists",
      "outputs": [
        {
          "internalType": "bool",
          "name": "",
          "type": "bool"
        }
      ],
      "stateMutability": "view",
      "type": "function"
    },
    {
      "inputs": [
        {
          "internalType": "uint16",
          "name": "teamWinner",
          "type": "uint16"
        }
      ],
      "name": "distributePrizes",
      "outputs": [],
      "stateMutability": "nonpayable",
      "type": "function"
    },
    {
      "inputs": [],
      "name": "getAdmin",
      "outputs": [
        {
          "internalType": "address",
          "name": "",
          "type": "address"
        }
      ],
      "stateMutability": "view",
      "type": "function"
    },
    {
      "inputs": [],
      "name": "getBettingState",
      "outputs": [
        {
          "internalType": "enum Betting.BettingState",
          "name": "",
          "type": "uint8"
        }
      ],
      "stateMutability": "view",
      "type": "function"
    },
    {
      "inputs": [],
      "name": "getEntranceFee",
      "outputs": [
        {
          "internalType": "uint256",
          "name": "",
          "type": "uint256"
        }
      ],
      "stateMutability": "view",
      "type": "function"
    },
    {
      "inputs": [],
      "name": "getInterval",
      "outputs": [
        {
          "internalType": "uint256",
          "name": "",
          "type": "uint256"
        }
      ],
      "stateMutability": "view",
      "type": "function"
    },
    {
      "inputs": [],
      "name": "getLastTimeStamp",
      "outputs": [
        {
          "internalType": "uint256",
          "name": "",
          "type": "uint256"
        }
      ],
      "stateMutability": "view",
      "type": "function"
    },
    {
      "inputs": [],
      "name": "getNumberOfPlayers",
      "outputs": [
        {
          "internalType": "uint256",
          "name": "",
          "type": "uint256"
        }
      ],
      "stateMutability": "view",
      "type": "function"
    },
    {
      "inputs": [
        {
          "internalType": "uint256",
          "name": "index",
          "type": "uint256"
        }
      ],
      "name": "getPlayer",
      "outputs": [
        {
          "internalType": "address",
          "name": "",
          "type": "address"
        }
      ],
      "stateMutability": "view",
      "type": "function"
    },
    {
      "inputs": [
        {
          "internalType": "uint16",
          "name": "oraclemsg",
          "type": "uint16"
        }
      ],
      "name": "performExecute",
      "outputs": [],
      "stateMutability": "nonpayable",
      "type": "function"
    },
    {
      "inputs": [
        {
          "internalType": "address",
          "name": "",
          "type": "address"
        }
      ],
      "name": "playerInfo",
      "outputs": [
        {
          "internalType": "uint256",
          "name": "amountBet",
          "type": "uint256"
        },
        {
          "internalType": "uint16",
          "name": "teamSelected",
          "type": "uint16"
        }
      ],
      "stateMutability": "view",
      "type": "function"
    },
    {
      "inputs": [],
      "name": "reopenGame",
      "outputs": [],
      "stateMutability": "nonpayable",
      "type": "function"
    }
  ],
  "transactionHash": "0x513e3eedd459f36b42da0b3c96fedd45b2f87c9cfc7da1047de5d90c7e332ca3",
  "args": [
    "30",
    "10000000000000000"
  ],
  "numDeployments": 2,
  "solcInputHash": "94dc228d860307e3fce80c93c7540493",
  "bytecode": "0x60a06040523480156200001157600080fd5b50604051620017c9380380620017c98339818101604052810190620000379190620000db565b8160808181525050806000819055506000600660006101000a81548160ff021916908360028111156200006f576200006e6200012c565b5b02179055504260038190555033600460006101000a81548173ffffffffffffffffffffffffffffffffffffffff021916908373ffffffffffffffffffffffffffffffffffffffff16021790555050506200017a565b600081519050620000d58162000160565b92915050565b60008060408385031215620000f557620000f46200015b565b5b60006200010585828601620000c4565b92505060206200011885828601620000c4565b9150509250929050565b6000819050919050565b7f4e487b7100000000000000000000000000000000000000000000000000000000600052602160045260246000fd5b600080fd5b6200016b8162000122565b81146200017757600080fd5b50565b60805161162c6200019d600039600081816107a10152610bf2015261162c6000f3fe6080604052600436106100f35760003560e01c8063676f64741161008a578063c1c244e811610059578063c1c244e81461030a578063e55ae4e814610335578063f08846d414610372578063fd6673f51461038e576100f3565b8063676f64741461025f5780636e9960c31461028b5780637904f688146102b657806391ad27b4146102df576100f3565b80634b114691116100c65780634b114691146101b45780635428ec85146101f257806357899342146102095780636573359214610234576100f3565b806309bc33a7146100f85780633ca53bba146101235780634081d9161461014c5780634996d51d14610189575b600080fd5b34801561010457600080fd5b5061010d6103b9565b60405161011a9190611199565b60405180910390f35b34801561012f57600080fd5b5061014a60048036038101906101459190610ff7565b6103c2565b005b34801561015857600080fd5b50610173600480360381019061016e9190610fca565b61052e565b6040516101809190611113565b60405180910390f35b34801561019557600080fd5b5061019e6105dd565b6040516101ab9190611199565b60405180910390f35b3480156101c057600080fd5b506101db60048036038101906101d69190610fca565b6105e7565b6040516101e99291906111b4565b60405180910390f35b3480156101fe57600080fd5b50610207610619565b005b34801561021557600080fd5b5061021e61073d565b60405161022b919061115e565b60405180910390f35b34801561024057600080fd5b50610249610754565b6040516102569190611199565b60405180910390f35b34801561026b57600080fd5b5061027461075e565b60405161028292919061112e565b60405180910390f35b34801561029757600080fd5b506102a0610845565b6040516102ad91906110f8565b60405180910390f35b3480156102c257600080fd5b506102dd60048036038101906102d89190610ff7565b61086f565b005b3480156102eb57600080fd5b506102f4610bee565b6040516103019190611199565b60405180910390f35b34801561031657600080fd5b5061031f610c16565b60405161032c9190611199565b60405180910390f35b34801561034157600080fd5b5061035c60048036038101906103579190611024565b610c20565b60405161036991906110f8565b60405180910390f35b61038c60048036038101906103879190610ff7565b610c68565b005b34801561039a57600080fd5b506103a3610eb6565b6040516103b09190611199565b60405180910390f35b60008054905090565b600460009054906101000a900473ffffffffffffffffffffffffffffffffffffffff1673ffffffffffffffffffffffffffffffffffffffff163373ffffffffffffffffffffffffffffffffffffffff1614610452576040517f08c379a000000000000000000000000000000000000000000000000000000000815260040161044990611179565b60405180910390fd5b600061045c61075e565b509050806104cb5747600580549050600660009054906101000a900460ff16600281111561048d5761048c6114ab565b5b6040517fb8cbb54c0000000000000000000000000000000000000000000000000000000081526004016104c2939291906111dd565b60405180910390fd5b6001600660006101000a81548160ff021916908360028111156104f1576104f06114ab565b5b02179055506104ff8261086f565b6002600660006101000a81548160ff02191690836002811115610525576105246114ab565b5b02179055505050565b600080600090505b6005805490508110156105d2578273ffffffffffffffffffffffffffffffffffffffff166005828154811061056e5761056d6114da565b5b9060005260206000200160009054906101000a900473ffffffffffffffffffffffffffffffffffffffff1673ffffffffffffffffffffffffffffffffffffffff1614156105bf5760019150506105d8565b80806105ca90611404565b915050610536565b50600090505b919050565b6000600154905090565b60076020528060005260406000206000915090508060000154908060010160009054906101000a900461ffff16905082565b600460009054906101000a900473ffffffffffffffffffffffffffffffffffffffff1673ffffffffffffffffffffffffffffffffffffffff163373ffffffffffffffffffffffffffffffffffffffff16146106a9576040517f08c379a00000000000000000000000000000000000000000000000000000000081526004016106a090611179565b60405180910390fd5b6000600660006101000a81548160ff021916908360028111156106cf576106ce6114ab565b5b0217905550600067ffffffffffffffff8111156106ef576106ee611509565b5b60405190808252806020026020018201604052801561071d5781602001602082028036833780820191505090505b5060059080519060200190610733929190610ec3565b5042600381905550565b6000600660009054906101000a900460ff16905090565b6000600254905090565b600060606000600660009054906101000a900460ff166002811115610786576107856114ab565b5b6000600281111561079a576107996114ab565b5b14905060007f0000000000000000000000000000000000000000000000000000000000000000600354426107ce9190611322565b119050600080600580549050119050600080471190508280156107ee5750835b80156107f75750805b80156108005750815b9550856040518060400160405280600381526020017f307830000000000000000000000000000000000000000000000000000000000081525095509550505050509091565b6000600460009054906101000a900473ffffffffffffffffffffffffffffffffffffffff16905090565b606060008060008080600080600090505b60058054905081101561099e57600581815481106108a1576108a06114da565b5b9060005260206000200160009054906101000a900473ffffffffffffffffffffffffffffffffffffffff1691508861ffff16600760008473ffffffffffffffffffffffffffffffffffffffff1673ffffffffffffffffffffffffffffffffffffffff16815260200190815260200160002060010160009054906101000a900461ffff1661ffff16141561098b5781888881518110610942576109416114da565b5b602002602001019073ffffffffffffffffffffffffffffffffffffffff16908173ffffffffffffffffffffffffffffffffffffffff1681525050868061098790611404565b9750505b808061099690611404565b915050610880565b5060018861ffff1614156109bb57600254945060015493506109c6565b600154945060025493505b60005b86811015610b3357600073ffffffffffffffffffffffffffffffffffffffff168882815181106109fc576109fb6114da565b5b602002602001015173ffffffffffffffffffffffffffffffffffffffff1614610b2057878181518110610a3257610a316114da565b5b60200260200101519350600760008573ffffffffffffffffffffffffffffffffffffffff1673ffffffffffffffffffffffffffffffffffffffff168152602001908152602001600020600001549250878181518110610a9457610a936114da565b5b602002602001015173ffffffffffffffffffffffffffffffffffffffff166108fc612710876127108a610ac791906112c8565b610ad19190611297565b612710610ade9190611241565b86610ae991906112c8565b610af39190611297565b9081150290604051600060405180830381858888f19350505050158015610b1e573d6000803e3d6000fd5b505b8080610b2b90611404565b9150506109c9565b506002600660006101000a81548160ff02191690836002811115610b5a57610b596114ab565b5b0217905550600760008273ffffffffffffffffffffffffffffffffffffffff1673ffffffffffffffffffffffffffffffffffffffff1681526020019081526020016000206000808201600090556001820160006101000a81549061ffff0219169055505060056000610bcc9190610f4d565b6000945060009350600060018190555060006002819055505050505050505050565b60007f0000000000000000000000000000000000000000000000000000000000000000905090565b6000600354905090565b600060058281548110610c3657610c356114da565b5b9060005260206000200160009054906101000a900473ffffffffffffffffffffffffffffffffffffffff169050919050565b610c713361052e565b15610c7b57600080fd5b600054341015610cb7576040517f30a16e2e00000000000000000000000000000000000000000000000000000000815260040160405180910390fd5b60006002811115610ccb57610cca6114ab565b5b600660009054906101000a900460ff166002811115610ced57610cec6114ab565b5b14610d24576040517ff3b8fa1b00000000000000000000000000000000000000000000000000000000815260040160405180910390fd5b34600760003373ffffffffffffffffffffffffffffffffffffffff1673ffffffffffffffffffffffffffffffffffffffff1681526020019081526020016000206000018190555080600760003373ffffffffffffffffffffffffffffffffffffffff1673ffffffffffffffffffffffffffffffffffffffff16815260200190815260200160002060010160006101000a81548161ffff021916908361ffff1602179055506005339080600181540180825580915050600190039060005260206000200160009091909190916101000a81548173ffffffffffffffffffffffffffffffffffffffff021916908373ffffffffffffffffffffffffffffffffffffffff16021790555060018161ffff161415610e56573460016000828254610e4a9190611241565b92505081905550610e70565b3460026000828254610e689190611241565b925050819055505b3373ffffffffffffffffffffffffffffffffffffffff167f7f47e4b864ee52d8ca461d379020be7e99ae801a152dde71193bdc651da8a7c060405160405180910390a250565b6000600580549050905090565b828054828255906000526020600020908101928215610f3c579160200282015b82811115610f3b5782518260006101000a81548173ffffffffffffffffffffffffffffffffffffffff021916908373ffffffffffffffffffffffffffffffffffffffff16021790555091602001919060010190610ee3565b5b509050610f499190610f6e565b5090565b5080546000825590600052602060002090810190610f6b9190610f6e565b50565b5b80821115610f87576000816000905550600101610f6f565b5090565b600081359050610f9a816115b1565b92915050565b600081359050610faf816115c8565b92915050565b600081359050610fc4816115df565b92915050565b600060208284031215610fe057610fdf611538565b5b6000610fee84828501610f8b565b91505092915050565b60006020828403121561100d5761100c611538565b5b600061101b84828501610fa0565b91505092915050565b60006020828403121561103a57611039611538565b5b600061104884828501610fb5565b91505092915050565b61105a81611356565b82525050565b61106981611368565b82525050565b600061107a82611214565b611084818561121f565b93506110948185602086016113d1565b61109d8161153d565b840191505092915050565b6110b1816113bf565b82525050565b60006110c4602183611230565b91506110cf8261154e565b604082019050919050565b6110e381611387565b82525050565b6110f2816113b5565b82525050565b600060208201905061110d6000830184611051565b92915050565b60006020820190506111286000830184611060565b92915050565b60006040820190506111436000830185611060565b8181036020830152611155818461106f565b90509392505050565b600060208201905061117360008301846110a8565b92915050565b60006020820190508181036000830152611192816110b7565b9050919050565b60006020820190506111ae60008301846110e9565b92915050565b60006040820190506111c960008301856110e9565b6111d660208301846110da565b9392505050565b60006060820190506111f260008301866110e9565b6111ff60208301856110e9565b61120c60408301846110e9565b949350505050565b600081519050919050565b600082825260208201905092915050565b600082825260208201905092915050565b600061124c826113b5565b9150611257836113b5565b9250827fffffffffffffffffffffffffffffffffffffffffffffffffffffffffffffffff0382111561128c5761128b61144d565b5b828201905092915050565b60006112a2826113b5565b91506112ad836113b5565b9250826112bd576112bc61147c565b5b828204905092915050565b60006112d3826113b5565b91506112de836113b5565b9250817fffffffffffffffffffffffffffffffffffffffffffffffffffffffffffffffff04831182151516156113175761131661144d565b5b828202905092915050565b600061132d826113b5565b9150611338836113b5565b92508282101561134b5761134a61144d565b5b828203905092915050565b600061136182611395565b9050919050565b60008115159050919050565b60008190506113828261159d565b919050565b600061ffff82169050919050565b600073ffffffffffffffffffffffffffffffffffffffff82169050919050565b6000819050919050565b60006113ca82611374565b9050919050565b60005b838110156113ef5780820151818401526020810190506113d4565b838111156113fe576000848401525b50505050565b600061140f826113b5565b91507fffffffffffffffffffffffffffffffffffffffffffffffffffffffffffffffff8214156114425761144161144d565b5b600182019050919050565b7f4e487b7100000000000000000000000000000000000000000000000000000000600052601160045260246000fd5b7f4e487b7100000000000000000000000000000000000000000000000000000000600052601260045260246000fd5b7f4e487b7100000000000000000000000000000000000000000000000000000000600052602160045260246000fd5b7f4e487b7100000000000000000000000000000000000000000000000000000000600052603260045260246000fd5b7f4e487b7100000000000000000000000000000000000000000000000000000000600052604160045260246000fd5b600080fd5b6000601f19601f8301169050919050565b7f4f6e6c792061646d696e2063616e2063616c6c20746869732066756e6374696f60008201527f6e00000000000000000000000000000000000000000000000000000000000000602082015250565b600381106115ae576115ad6114ab565b5b50565b6115ba81611356565b81146115c557600080fd5b50565b6115d181611387565b81146115dc57600080fd5b50565b6115e8816113b5565b81146115f357600080fd5b5056fea2646970667358221220d4840ca8179fd808ee93ab98bee7fdf946abd177e844bac6bc1269395fc7031c64736f6c63430008070033",
  "devdoc": {
    "author": "Yakou Hikoichi",
    "kind": "dev",
    "methods": {
      "checkExecuteReady()": {
        "details": "This is the function whether the execution of betting is ready or not they look for `readyToExecute` to return True. the following should be true for this to return true: 1. The time interval has passed between betting runs. 2. The Game is open. 3. The contract has ETH."
      },
      "performExecute(uint16)": {
        "details": "Once `checkExecuteReady` is returning `true`, this function is called and it kicks off the winner."
      }
    },
    "title": "A sample Betting Contract",
    "version": 1
  },
  "userdoc": {
    "kind": "user",
    "methods": {
      "getAdmin()": {
        "notice": "Getter Functions "
      }
    },
    "notice": "This contract is for creating a sample betting contract",
    "version": 1
  },
  "storageLayout": {
    "storage": [
      {
        "astId": 413,
        "contract": "contracts/BinaryBet.sol:Betting",
        "label": "minimumBet",
        "offset": 0,
        "slot": "0",
        "type": "t_uint256"
      },
      {
        "astId": 415,
        "contract": "contracts/BinaryBet.sol:Betting",
        "label": "totalBetOne",
        "offset": 0,
        "slot": "1",
        "type": "t_uint256"
      },
      {
        "astId": 417,
        "contract": "contracts/BinaryBet.sol:Betting",
        "label": "totalBetTwo",
        "offset": 0,
        "slot": "2",
        "type": "t_uint256"
      },
      {
        "astId": 419,
        "contract": "contracts/BinaryBet.sol:Betting",
        "label": "s_lastTimeStamp",
        "offset": 0,
        "slot": "3",
        "type": "t_uint256"
      },
      {
        "astId": 421,
        "contract": "contracts/BinaryBet.sol:Betting",
        "label": "admin",
        "offset": 0,
        "slot": "4",
        "type": "t_address"
      },
      {
        "astId": 424,
        "contract": "contracts/BinaryBet.sol:Betting",
        "label": "players",
        "offset": 0,
        "slot": "5",
        "type": "t_array(t_address_payable)dyn_storage"
      },
      {
        "astId": 427,
        "contract": "contracts/BinaryBet.sol:Betting",
        "label": "s_bettingState",
        "offset": 0,
        "slot": "6",
        "type": "t_enum(BettingState)409"
      },
      {
        "astId": 437,
        "contract": "contracts/BinaryBet.sol:Betting",
        "label": "playerInfo",
        "offset": 0,
        "slot": "7",
        "type": "t_mapping(t_address,t_struct(Player)432_storage)"
      }
    ],
    "types": {
      "t_address": {
        "encoding": "inplace",
        "label": "address",
        "numberOfBytes": "20"
      },
      "t_address_payable": {
        "encoding": "inplace",
        "label": "address payable",
        "numberOfBytes": "20"
      },
      "t_array(t_address_payable)dyn_storage": {
        "base": "t_address_payable",
        "encoding": "dynamic_array",
        "label": "address payable[]",
        "numberOfBytes": "32"
      },
      "t_enum(BettingState)409": {
        "encoding": "inplace",
        "label": "enum Betting.BettingState",
        "numberOfBytes": "1"
      },
      "t_mapping(t_address,t_struct(Player)432_storage)": {
        "encoding": "mapping",
        "key": "t_address",
        "label": "mapping(address => struct Betting.Player)",
        "numberOfBytes": "32",
        "value": "t_struct(Player)432_storage"
      },
      "t_struct(Player)432_storage": {
        "encoding": "inplace",
        "label": "struct Betting.Player",
        "members": [
          {
            "astId": 429,
            "contract": "contracts/BinaryBet.sol:Betting",
            "label": "amountBet",
            "offset": 0,
            "slot": "0",
            "type": "t_uint256"
          },
          {
            "astId": 431,
            "contract": "contracts/BinaryBet.sol:Betting",
            "label": "teamSelected",
            "offset": 0,
            "slot": "1",
            "type": "t_uint16"
          }
        ],
        "numberOfBytes": "64"
      },
      "t_uint16": {
        "encoding": "inplace",
        "label": "uint16",
        "numberOfBytes": "2"
      },
      "t_uint256": {
        "encoding": "inplace",
        "label": "uint256",
        "numberOfBytes": "32"
      }
    }
  }
}