{
  "address": "0x3203A69CBf7550Cb14660d07A78E9b34638944cB",
  "abi": [
    {
      "inputs": [
        {
          "internalType": "address",
          "name": "vrfCoordinatorV2",
          "type": "address"
        },
        {
          "internalType": "uint64",
          "name": "subscriptionId",
          "type": "uint64"
        },
        {
          "internalType": "bytes32",
          "name": "gasLane",
          "type": "bytes32"
        },
        {
          "internalType": "uint256",
          "name": "interval",
          "type": "uint256"
        },
        {
          "internalType": "uint256",
          "name": "entranceFee",
          "type": "uint256"
        },
        {
          "internalType": "uint32",
          "name": "callbackGasLimit",
          "type": "uint32"
        }
      ],
      "stateMutability": "nonpayable",
      "type": "constructor"
    },
    {
      "inputs": [],
      "name": "Lotto__LottoNotOpen",
      "type": "error"
    },
    {
      "inputs": [],
      "name": "Lotto__SendMoreToEnterLotto",
      "type": "error"
    },
    {
      "inputs": [],
      "name": "Lotto__TransferFailed",
      "type": "error"
    },
    {
      "inputs": [
        {
          "internalType": "uint256",
          "name": "currentBalance",
          "type": "uint256"
        },
        {
          "internalType": "uint256",
          "name": "numPlayers",
          "type": "uint256"
        },
        {
          "internalType": "uint256",
          "name": "lottoState",
          "type": "uint256"
        }
      ],
      "name": "Lotto__UpkeepNotNeeded",
      "type": "error"
    },
    {
      "inputs": [
        {
          "internalType": "address",
          "name": "have",
          "type": "address"
        },
        {
          "internalType": "address",
          "name": "want",
          "type": "address"
        }
      ],
      "name": "OnlyCoordinatorCanFulfill",
      "type": "error"
    },
    {
      "anonymous": false,
      "inputs": [
        {
          "indexed": true,
          "internalType": "address",
          "name": "player",
          "type": "address"
        }
      ],
      "name": "LottoEnter",
      "type": "event"
    },
    {
      "anonymous": false,
      "inputs": [
        {
          "indexed": true,
          "internalType": "uint256",
          "name": "requestId",
          "type": "uint256"
        }
      ],
      "name": "RequestedLottoWinner",
      "type": "event"
    },
    {
      "anonymous": false,
      "inputs": [
        {
          "indexed": true,
          "internalType": "address",
          "name": "player",
          "type": "address"
        }
      ],
      "name": "WinnerPicked",
      "type": "event"
    },
    {
      "inputs": [
        {
          "internalType": "bytes",
          "name": "",
          "type": "bytes"
        }
      ],
      "name": "checkUpkeep",
      "outputs": [
        {
          "internalType": "bool",
          "name": "upkeepNeeded",
          "type": "bool"
        },
        {
          "internalType": "bytes",
          "name": "",
          "type": "bytes"
        }
      ],
      "stateMutability": "view",
      "type": "function"
    },
    {
      "inputs": [],
      "name": "enterLotto",
      "outputs": [],
      "stateMutability": "payable",
      "type": "function"
    },
    {
      "inputs": [],
      "name": "getAdmin",
      "outputs": [
        {
          "internalType": "address",
          "name": "",
          "type": "address"
        }
      ],
      "stateMutability": "view",
      "type": "function"
    },
    {
      "inputs": [],
      "name": "getEntranceFee",
      "outputs": [
        {
          "internalType": "uint256",
          "name": "",
          "type": "uint256"
        }
      ],
      "stateMutability": "view",
      "type": "function"
    },
    {
      "inputs": [],
      "name": "getInterval",
      "outputs": [
        {
          "internalType": "uint256",
          "name": "",
          "type": "uint256"
        }
      ],
      "stateMutability": "view",
      "type": "function"
    },
    {
      "inputs": [],
      "name": "getLastTimeStamp",
      "outputs": [
        {
          "internalType": "uint256",
          "name": "",
          "type": "uint256"
        }
      ],
      "stateMutability": "view",
      "type": "function"
    },
    {
      "inputs": [],
      "name": "getLottoState",
      "outputs": [
        {
          "internalType": "enum Lotto.LottoState",
          "name": "",
          "type": "uint8"
        }
      ],
      "stateMutability": "view",
      "type": "function"
    },
    {
      "inputs": [],
      "name": "getNumWords",
      "outputs": [
        {
          "internalType": "uint256",
          "name": "",
          "type": "uint256"
        }
      ],
      "stateMutability": "pure",
      "type": "function"
    },
    {
      "inputs": [],
      "name": "getNumberOfPlayers",
      "outputs": [
        {
          "internalType": "uint256",
          "name": "",
          "type": "uint256"
        }
      ],
      "stateMutability": "view",
      "type": "function"
    },
    {
      "inputs": [
        {
          "internalType": "uint256",
          "name": "index",
          "type": "uint256"
        }
      ],
      "name": "getPlayer",
      "outputs": [
        {
          "internalType": "address",
          "name": "",
          "type": "address"
        }
      ],
      "stateMutability": "view",
      "type": "function"
    },
    {
      "inputs": [],
      "name": "getRecentWinner",
      "outputs": [
        {
          "internalType": "address",
          "name": "",
          "type": "address"
        }
      ],
      "stateMutability": "view",
      "type": "function"
    },
    {
      "inputs": [],
      "name": "getRequestConfirmations",
      "outputs": [
        {
          "internalType": "uint256",
          "name": "",
          "type": "uint256"
        }
      ],
      "stateMutability": "pure",
      "type": "function"
    },
    {
      "inputs": [
        {
          "internalType": "bytes",
          "name": "",
          "type": "bytes"
        }
      ],
      "name": "performUpkeep",
      "outputs": [],
      "stateMutability": "nonpayable",
      "type": "function"
    },
    {
      "inputs": [
        {
          "internalType": "uint256",
          "name": "requestId",
          "type": "uint256"
        },
        {
          "internalType": "uint256[]",
          "name": "randomWords",
          "type": "uint256[]"
        }
      ],
      "name": "rawFulfillRandomWords",
      "outputs": [],
      "stateMutability": "nonpayable",
      "type": "function"
    },
    {
      "inputs": [],
      "name": "reopenGame",
      "outputs": [],
      "stateMutability": "nonpayable",
      "type": "function"
    }
  ],
  "transactionHash": "0xbd3ddc1bafd678c6dda99c1cb54b62fc9fe5cfe9f1602960f41b69871a8c3cce",
  "args": [
    "0x2ca8e0c643bde4c2e08ab1fa0da3401adad7734d",
    "9237",
    "0x79d3d8832d904592c0bf9818b621522c988bb8b0c05cdc3b15aea1b6e8db0c15",
    "30",
    "10000000000000000",
    "500000"
  ],
  "numDeployments": 2,
  "solcInputHash": "9bd7888160518760289a5668b27483c1",
  "bytecode": "0x6101606040523480156200001257600080fd5b5060405162001b6d38038062001b6d8339818101604052810190620000389190620001ee565b858073ffffffffffffffffffffffffffffffffffffffff1660808173ffffffffffffffffffffffffffffffffffffffff1660601b81525050508573ffffffffffffffffffffffffffffffffffffffff1660a08173ffffffffffffffffffffffffffffffffffffffff1660601b815250508360e081815250508261012081815250508467ffffffffffffffff1660c08167ffffffffffffffff1660c01b815250508161014081815250506000600460006101000a81548160ff021916908360028111156200010a5762000109620002f6565b5b0217905550426000819055508063ffffffff166101008163ffffffff1660e01b8152505033600160006101000a81548173ffffffffffffffffffffffffffffffffffffffff021916908373ffffffffffffffffffffffffffffffffffffffff160217905550505050505050620003ac565b6000815190506200018c816200032a565b92915050565b600081519050620001a38162000344565b92915050565b600081519050620001ba816200035e565b92915050565b600081519050620001d18162000378565b92915050565b600081519050620001e88162000392565b92915050565b60008060008060008060c087890312156200020e576200020d62000325565b5b60006200021e89828a016200017b565b96505060206200023189828a01620001d7565b95505060406200024489828a0162000192565b94505060606200025789828a01620001a9565b93505060806200026a89828a01620001a9565b92505060a06200027d89828a01620001c0565b9150509295509295509295565b60006200029782620002a8565b9050919050565b6000819050919050565b600073ffffffffffffffffffffffffffffffffffffffff82169050919050565b6000819050919050565b600063ffffffff82169050919050565b600067ffffffffffffffff82169050919050565b7f4e487b7100000000000000000000000000000000000000000000000000000000600052602160045260246000fd5b600080fd5b62000335816200028a565b81146200034157600080fd5b50565b6200034f816200029e565b81146200035b57600080fd5b50565b6200036981620002c8565b81146200037557600080fd5b50565b6200038381620002d2565b81146200038f57600080fd5b50565b6200039d81620002e2565b8114620003a957600080fd5b50565b60805160601c60a05160601c60c05160c01c60e0516101005160e01c6101205161014051611745620004286000396000818161036201526109360152600081816108650152610aa701526000610625015260006105e101526000610602015260006105a501526000818161038801526103dc01526117456000f3fe6080604052600436106100e85760003560e01c80635f1b0fd81161008a57806391ad27b41161005957806391ad27b4146102a0578063c1c244e8146102cb578063e55ae4e8146102f6578063fd6673f514610333576100e8565b80635f1b0fd8146102025780636e04ff0d1461022d5780636e9960c31461026b57806390b841ec14610296576100e8565b80634585e33b116100c65780634585e33b1461016c578063473f1ddc1461019557806353a2c19a146101c05780635428ec85146101eb576100e8565b806309bc33a7146100ed5780631fe543e3146101185780632aea97fe14610141575b600080fd5b3480156100f957600080fd5b5061010261035e565b60405161010f91906112eb565b60405180910390f35b34801561012457600080fd5b5061013f600480360381019061013a9190611081565b610386565b005b34801561014d57600080fd5b50610156610446565b60405161016391906112b0565b60405180910390f35b34801561017857600080fd5b50610193600480360381019061018e9190610f91565b61045d565b005b3480156101a157600080fd5b506101aa610718565b6040516101b791906111e9565b60405180910390f35b3480156101cc57600080fd5b506101d5610742565b6040516101e291906112eb565b60405180910390f35b3480156101f757600080fd5b50610200610751565b005b34801561020e57600080fd5b50610217610815565b60405161022491906112eb565b60405180910390f35b34801561023957600080fd5b50610254600480360381019061024f9190610fde565b610822565b60405161026292919061122d565b60405180910390f35b34801561027757600080fd5b5061028061090a565b60405161028d91906111e9565b60405180910390f35b61029e610934565b005b3480156102ac57600080fd5b506102b5610aa3565b6040516102c291906112eb565b60405180910390f35b3480156102d757600080fd5b506102e0610acb565b6040516102ed91906112eb565b60405180910390f35b34801561030257600080fd5b5061031d60048036038101906103189190611027565b610ad4565b60405161032a91906111e9565b60405180910390f35b34801561033f57600080fd5b50610348610b1c565b60405161035591906112eb565b60405180910390f35b60007f0000000000000000000000000000000000000000000000000000000000000000905090565b7f000000000000000000000000000000000000000000000000000000000000000073ffffffffffffffffffffffffffffffffffffffff163373ffffffffffffffffffffffffffffffffffffffff161461043857337f00000000000000000000000000000000000000000000000000000000000000006040517f1cf993f400000000000000000000000000000000000000000000000000000000815260040161042f929190611204565b60405180910390fd5b6104428282610b29565b5050565b6000600460009054906101000a900460ff16905090565b600160009054906101000a900473ffffffffffffffffffffffffffffffffffffffff1673ffffffffffffffffffffffffffffffffffffffff163373ffffffffffffffffffffffffffffffffffffffff16146104ed576040517f08c379a00000000000000000000000000000000000000000000000000000000081526004016104e4906112cb565b60405180910390fd5b600061050760405180602001604052806000815250610822565b509050806105765747600380549050600460009054906101000a900460ff166002811115610538576105376115d6565b5b6040517f42e842cb00000000000000000000000000000000000000000000000000000000815260040161056d93929190611306565b60405180910390fd5b6001600460006101000a81548160ff0219169083600281111561059c5761059b6115d6565b5b021790555060007f000000000000000000000000000000000000000000000000000000000000000073ffffffffffffffffffffffffffffffffffffffff16635d3b1d307f00000000000000000000000000000000000000000000000000000000000000007f000000000000000000000000000000000000000000000000000000000000000060037f000000000000000000000000000000000000000000000000000000000000000060016040518663ffffffff1660e01b815260040161066695949392919061125d565b602060405180830381600087803b15801561068057600080fd5b505af1158015610694573d6000803e3d6000fd5b505050506040513d601f19601f820116820180604052508101906106b89190611054565b9050807ffd88a31c32406b28590b7ce7963258d44afe17df853230d7866b5ce79ba08cd160405160405180910390a26002600460006101000a81548160ff0219169083600281111561070d5761070c6115d6565b5b021790555050505050565b6000600260009054906101000a900473ffffffffffffffffffffffffffffffffffffffff16905090565b6000600163ffffffff16905090565b600160009054906101000a900473ffffffffffffffffffffffffffffffffffffffff1673ffffffffffffffffffffffffffffffffffffffff163373ffffffffffffffffffffffffffffffffffffffff16146107e1576040517f08c379a00000000000000000000000000000000000000000000000000000000081526004016107d8906112cb565b60405180910390fd5b6000600460006101000a81548160ff02191690836002811115610807576108066115d6565b5b021790555042600081905550565b6000600361ffff16905090565b600060606000600460009054906101000a900460ff16600281111561084a576108496115d6565b5b6000600281111561085e5761085d6115d6565b5b14905060007f00000000000000000000000000000000000000000000000000000000000000006000544261089291906113f7565b119050600080600380549050119050600080471190508280156108b25750835b80156108bb5750805b80156108c45750815b9550856040518060400160405280600381526020017f30783000000000000000000000000000000000000000000000000000000000008152509550955050505050915091565b6000600160009054906101000a900473ffffffffffffffffffffffffffffffffffffffff16905090565b7f000000000000000000000000000000000000000000000000000000000000000034101561098e576040517fedb8f12b00000000000000000000000000000000000000000000000000000000815260040160405180910390fd5b600060028111156109a2576109a16115d6565b5b600460009054906101000a900460ff1660028111156109c4576109c36115d6565b5b146109fb576040517ff3716d2f00000000000000000000000000000000000000000000000000000000815260040160405180910390fd5b6003339080600181540180825580915050600190039060005260206000200160009091909190916101000a81548173ffffffffffffffffffffffffffffffffffffffff021916908373ffffffffffffffffffffffffffffffffffffffff1602179055503373ffffffffffffffffffffffffffffffffffffffff167f1dcd09d5d34186d758ca3a0b597a773e80b5b1febddac88410eced5d743cc7f660405160405180910390a2565b60007f0000000000000000000000000000000000000000000000000000000000000000905090565b60008054905090565b600060038281548110610aea57610ae9611605565b5b9060005260206000200160009054906101000a900473ffffffffffffffffffffffffffffffffffffffff169050919050565b6000600380549050905090565b600060038054905082600081518110610b4557610b44611605565b5b6020026020010151610b579190611547565b9050600060038281548110610b6f57610b6e611605565b5b9060005260206000200160009054906101000a900473ffffffffffffffffffffffffffffffffffffffff16905080600260006101000a81548173ffffffffffffffffffffffffffffffffffffffff021916908373ffffffffffffffffffffffffffffffffffffffff160217905550600067ffffffffffffffff811115610bf857610bf7611634565b5b604051908082528060200260200182016040528015610c265781602001602082028036833780820191505090505b5060039080519060200190610c3c929190610d5c565b506000600460006101000a81548160ff02191690836002811115610c6357610c626115d6565b5b02179055504260008190555060008173ffffffffffffffffffffffffffffffffffffffff1647604051610c95906111d4565b60006040518083038185875af1925050503d8060008114610cd2576040519150601f19603f3d011682016040523d82523d6000602084013e610cd7565b606091505b5050905080610d12576040517f0eb4e47f00000000000000000000000000000000000000000000000000000000815260040160405180910390fd5b8173ffffffffffffffffffffffffffffffffffffffff167f5b690ec4a06fe979403046eaeea5b3ce38524683c3001f662c8b5a829632f7df60405160405180910390a25050505050565b828054828255906000526020600020908101928215610dd5579160200282015b82811115610dd45782518260006101000a81548173ffffffffffffffffffffffffffffffffffffffff021916908373ffffffffffffffffffffffffffffffffffffffff16021790555091602001919060010190610d7c565b5b509050610de29190610de6565b5090565b5b80821115610dff576000816000905550600101610de7565b5090565b6000610e16610e1184611362565b61133d565b90508083825260208201905082856020860282011115610e3957610e3861166d565b5b60005b85811015610e695781610e4f8882610f67565b845260208401935060208301925050600181019050610e3c565b5050509392505050565b6000610e86610e818461138e565b61133d565b905082815260208101848484011115610ea257610ea1611672565b5b610ead8482856114d4565b509392505050565b600082601f830112610eca57610ec9611668565b5b8135610eda848260208601610e03565b91505092915050565b60008083601f840112610ef957610ef8611668565b5b8235905067ffffffffffffffff811115610f1657610f15611663565b5b602083019150836001820283011115610f3257610f3161166d565b5b9250929050565b600082601f830112610f4e57610f4d611668565b5b8135610f5e848260208601610e73565b91505092915050565b600081359050610f76816116f8565b92915050565b600081519050610f8b816116f8565b92915050565b60008060208385031215610fa857610fa761167c565b5b600083013567ffffffffffffffff811115610fc657610fc5611677565b5b610fd285828601610ee3565b92509250509250929050565b600060208284031215610ff457610ff361167c565b5b600082013567ffffffffffffffff81111561101257611011611677565b5b61101e84828501610f39565b91505092915050565b60006020828403121561103d5761103c61167c565b5b600061104b84828501610f67565b91505092915050565b60006020828403121561106a5761106961167c565b5b600061107884828501610f7c565b91505092915050565b600080604083850312156110985761109761167c565b5b60006110a685828601610f67565b925050602083013567ffffffffffffffff8111156110c7576110c6611677565b5b6110d385828601610eb5565b9150509250929050565b6110e68161142b565b82525050565b6110f58161143d565b82525050565b61110481611449565b82525050565b6000611115826113bf565b61111f81856113ca565b935061112f8185602086016114e3565b61113881611681565b840191505092915050565b61114c816114c2565b82525050565b600061115f6000836113db565b915061116a82611692565b600082019050919050565b60006111826021836113e6565b915061118d82611695565b604082019050919050565b6111a181611466565b82525050565b6111b081611494565b82525050565b6111bf8161149e565b82525050565b6111ce816114ae565b82525050565b60006111df82611152565b9150819050919050565b60006020820190506111fe60008301846110dd565b92915050565b600060408201905061121960008301856110dd565b61122660208301846110dd565b9392505050565b600060408201905061124260008301856110ec565b8181036020830152611254818461110a565b90509392505050565b600060a08201905061127260008301886110fb565b61127f60208301876111c5565b61128c6040830186611198565b61129960608301856111b6565b6112a660808301846111b6565b9695505050505050565b60006020820190506112c56000830184611143565b92915050565b600060208201905081810360008301526112e481611175565b9050919050565b600060208201905061130060008301846111a7565b92915050565b600060608201905061131b60008301866111a7565b61132860208301856111a7565b61133560408301846111a7565b949350505050565b6000611347611358565b90506113538282611516565b919050565b6000604051905090565b600067ffffffffffffffff82111561137d5761137c611634565b5b602082029050602081019050919050565b600067ffffffffffffffff8211156113a9576113a8611634565b5b6113b282611681565b9050602081019050919050565b600081519050919050565b600082825260208201905092915050565b600081905092915050565b600082825260208201905092915050565b600061140282611494565b915061140d83611494565b9250828210156114205761141f611578565b5b828203905092915050565b600061143682611474565b9050919050565b60008115159050919050565b6000819050919050565b6000819050611461826116e4565b919050565b600061ffff82169050919050565b600073ffffffffffffffffffffffffffffffffffffffff82169050919050565b6000819050919050565b600063ffffffff82169050919050565b600067ffffffffffffffff82169050919050565b60006114cd82611453565b9050919050565b82818337600083830152505050565b60005b838110156115015780820151818401526020810190506114e6565b83811115611510576000848401525b50505050565b61151f82611681565b810181811067ffffffffffffffff8211171561153e5761153d611634565b5b80604052505050565b600061155282611494565b915061155d83611494565b92508261156d5761156c6115a7565b5b828206905092915050565b7f4e487b7100000000000000000000000000000000000000000000000000000000600052601160045260246000fd5b7f4e487b7100000000000000000000000000000000000000000000000000000000600052601260045260246000fd5b7f4e487b7100000000000000000000000000000000000000000000000000000000600052602160045260246000fd5b7f4e487b7100000000000000000000000000000000000000000000000000000000600052603260045260246000fd5b7f4e487b7100000000000000000000000000000000000000000000000000000000600052604160045260246000fd5b600080fd5b600080fd5b600080fd5b600080fd5b600080fd5b600080fd5b6000601f19601f8301169050919050565b50565b7f4f6e6c792061646d696e2063616e2063616c6c20746869732066756e6374696f60008201527f6e00000000000000000000000000000000000000000000000000000000000000602082015250565b600381106116f5576116f46115d6565b5b50565b61170181611494565b811461170c57600080fd5b5056fea2646970667358221220d5d49b06033837bdc4ec17cb97418787b2bd6c0ad05d0df85e837448d5f7f8a564736f6c63430008070033",
  "devdoc": {
    "author": "Patrick Collins",
    "details": "This implements the Chainlink VRF Version 2",
    "kind": "dev",
    "methods": {
      "checkUpkeep(bytes)": {
        "details": "This is the function that the Chainlink Keeper nodes call they look for `upkeepNeeded` to return True. the following should be true for this to return true: 1. The time interval has passed between lotto runs. 2. The lottery is open. 3. The contract has ETH. 4. Implicity, your subscription is funded with LINK."
      },
      "performUpkeep(bytes)": {
        "details": "Once `checkUpkeep` is returning `true`, this function is called and it kicks off a Chainlink VRF call to get a random winner."
      }
    },
    "title": "A sample Lotto Contract",
    "version": 1
  },
  "userdoc": {
    "kind": "user",
    "methods": {
      "getAdmin()": {
        "notice": "Getter Functions "
      }
    },
    "notice": "This contract is for creating a sample lotto contract",
    "version": 1
  },
  "storageLayout": {
    "storage": [
      {
        "astId": 1568,
        "contract": "contracts/Lotto.sol:Lotto",
        "label": "s_lastTimeStamp",
        "offset": 0,
        "slot": "0",
        "type": "t_uint256"
      },
      {
        "astId": 1570,
        "contract": "contracts/Lotto.sol:Lotto",
        "label": "admin",
        "offset": 0,
        "slot": "1",
        "type": "t_address"
      },
      {
        "astId": 1572,
        "contract": "contracts/Lotto.sol:Lotto",
        "label": "s_recentWinner",
        "offset": 0,
        "slot": "2",
        "type": "t_address"
      },
      {
        "astId": 1575,
        "contract": "contracts/Lotto.sol:Lotto",
        "label": "s_players",
        "offset": 0,
        "slot": "3",
        "type": "t_array(t_address_payable)dyn_storage"
      },
      {
        "astId": 1578,
        "contract": "contracts/Lotto.sol:Lotto",
        "label": "s_lottoState",
        "offset": 0,
        "slot": "4",
        "type": "t_enum(LottoState)1547"
      }
    ],
    "types": {
      "t_address": {
        "encoding": "inplace",
        "label": "address",
        "numberOfBytes": "20"
      },
      "t_address_payable": {
        "encoding": "inplace",
        "label": "address payable",
        "numberOfBytes": "20"
      },
      "t_array(t_address_payable)dyn_storage": {
        "base": "t_address_payable",
        "encoding": "dynamic_array",
        "label": "address payable[]",
        "numberOfBytes": "32"
      },
      "t_enum(LottoState)1547": {
        "encoding": "inplace",
        "label": "enum Lotto.LottoState",
        "numberOfBytes": "1"
      },
      "t_uint256": {
        "encoding": "inplace",
        "label": "uint256",
        "numberOfBytes": "32"
      }
    }
  }
}