{
  "_format": "hh-sol-artifact-1",
  "contractName": "Betting",
  "sourceName": "contracts/BinaryBet.sol",
  "abi": [
    {
      "inputs": [
        {
          "internalType": "string",
          "name": "_gameDescription",
          "type": "string"
        },
        {
          "internalType": "string",
          "name": "_option1Name",
          "type": "string"
        },
        {
          "internalType": "string",
          "name": "_option2Name",
          "type": "string"
        },
        {
          "internalType": "string",
          "name": "_option1LeagueName",
          "type": "string"
        },
        {
          "internalType": "string",
          "name": "_option2LeagueName",
          "type": "string"
        },
        {
          "internalType": "uint256",
          "name": "_matchDateTimestamp",
          "type": "uint256"
        },
        {
          "internalType": "uint256",
          "name": "entranceFee",
          "type": "uint256"
        }
      ],
      "stateMutability": "nonpayable",
      "type": "constructor"
    },
    {
      "inputs": [
        {
          "internalType": "uint256",
          "name": "currentBalance",
          "type": "uint256"
        },
        {
          "internalType": "uint256",
          "name": "numPlayers",
          "type": "uint256"
        },
        {
          "internalType": "bool",
          "name": "gameFinished",
          "type": "bool"
        }
      ],
      "name": "Betting__ExecuteNotNeeded",
      "type": "error"
    },
    {
      "anonymous": false,
      "inputs": [
        {
          "indexed": true,
          "internalType": "address",
          "name": "player",
          "type": "address"
        }
      ],
      "name": "BettingEnter",
      "type": "event"
    },
    {
      "inputs": [],
      "name": "AmountOne",
      "outputs": [
        {
          "internalType": "uint256",
          "name": "",
          "type": "uint256"
        }
      ],
      "stateMutability": "view",
      "type": "function"
    },
    {
      "inputs": [],
      "name": "AmountTwo",
      "outputs": [
        {
          "internalType": "uint256",
          "name": "",
          "type": "uint256"
        }
      ],
      "stateMutability": "view",
      "type": "function"
    },
    {
      "inputs": [],
      "name": "betOnOption1",
      "outputs": [],
      "stateMutability": "payable",
      "type": "function"
    },
    {
      "inputs": [],
      "name": "betOnOption2",
      "outputs": [],
      "stateMutability": "payable",
      "type": "function"
    },
    {
      "inputs": [],
      "name": "checkExecuteReady",
      "outputs": [
        {
          "internalType": "bool",
          "name": "readyToExecute",
          "type": "bool"
        },
        {
          "internalType": "bytes",
          "name": "",
          "type": "bytes"
        }
      ],
      "stateMutability": "view",
      "type": "function"
    },
    {
      "inputs": [
        {
          "internalType": "address",
          "name": "player",
          "type": "address"
        }
      ],
      "name": "checkPlayerExists",
      "outputs": [
        {
          "internalType": "bool",
          "name": "",
          "type": "bool"
        }
      ],
      "stateMutability": "view",
      "type": "function"
    },
    {
      "inputs": [],
      "name": "gameDescription",
      "outputs": [
        {
          "internalType": "string",
          "name": "",
          "type": "string"
        }
      ],
      "stateMutability": "view",
      "type": "function"
    },
    {
      "inputs": [],
      "name": "gameFinished",
      "outputs": [
        {
          "internalType": "bool",
          "name": "",
          "type": "bool"
        }
      ],
      "stateMutability": "view",
      "type": "function"
    },
    {
      "inputs": [],
      "name": "getAdmin",
      "outputs": [
        {
          "internalType": "address",
          "name": "",
          "type": "address"
        }
      ],
      "stateMutability": "view",
      "type": "function"
    },
    {
      "inputs": [],
      "name": "getCommissionRatio",
      "outputs": [
        {
          "internalType": "uint256",
          "name": "",
          "type": "uint256"
        }
      ],
      "stateMutability": "view",
      "type": "function"
    },
    {
      "inputs": [],
      "name": "getEntranceFee",
      "outputs": [
        {
          "internalType": "uint256",
          "name": "",
          "type": "uint256"
        }
      ],
      "stateMutability": "view",
      "type": "function"
    },
    {
      "inputs": [],
      "name": "getGameFinished",
      "outputs": [
        {
          "internalType": "bool",
          "name": "",
          "type": "bool"
        }
      ],
      "stateMutability": "view",
      "type": "function"
    },
    {
      "inputs": [],
      "name": "getMatchDateTimestamp",
      "outputs": [
        {
          "internalType": "uint256",
          "name": "",
          "type": "uint256"
        }
      ],
      "stateMutability": "view",
      "type": "function"
    },
    {
      "inputs": [],
      "name": "getNumberOfPlayers",
      "outputs": [
        {
          "internalType": "uint256",
          "name": "",
          "type": "uint256"
        }
      ],
      "stateMutability": "view",
      "type": "function"
    },
    {
      "inputs": [],
      "name": "getOption1LeagueName",
      "outputs": [
        {
          "internalType": "string",
          "name": "",
          "type": "string"
        }
      ],
      "stateMutability": "view",
      "type": "function"
    },
    {
      "inputs": [],
      "name": "getOption1Name",
      "outputs": [
        {
          "internalType": "string",
          "name": "",
          "type": "string"
        }
      ],
      "stateMutability": "view",
      "type": "function"
    },
    {
      "inputs": [],
      "name": "getOption2LeagueName",
      "outputs": [
        {
          "internalType": "string",
          "name": "",
          "type": "string"
        }
      ],
      "stateMutability": "view",
      "type": "function"
    },
    {
      "inputs": [],
      "name": "getOption2Name",
      "outputs": [
        {
          "internalType": "string",
          "name": "",
          "type": "string"
        }
      ],
      "stateMutability": "view",
      "type": "function"
    },
    {
      "inputs": [
        {
          "internalType": "uint256",
          "name": "index",
          "type": "uint256"
        }
      ],
      "name": "getPlayerInfo",
      "outputs": [
        {
          "internalType": "address",
          "name": "",
          "type": "address"
        }
      ],
      "stateMutability": "view",
      "type": "function"
    },
    {
      "inputs": [],
      "name": "getStartTimestamp",
      "outputs": [
        {
          "internalType": "uint256",
          "name": "",
          "type": "uint256"
        }
      ],
      "stateMutability": "view",
      "type": "function"
    },
    {
      "inputs": [
        {
          "internalType": "uint16",
          "name": "oraclemsg",
          "type": "uint16"
        }
      ],
      "name": "performExecute",
      "outputs": [],
      "stateMutability": "nonpayable",
      "type": "function"
    },
    {
      "inputs": [
        {
          "internalType": "address",
          "name": "",
          "type": "address"
        }
      ],
      "name": "playerInfo",
      "outputs": [
        {
          "internalType": "uint256",
          "name": "amountBet",
          "type": "uint256"
        },
        {
          "internalType": "uint16",
          "name": "teamSelected",
          "type": "uint16"
        }
      ],
      "stateMutability": "view",
      "type": "function"
    },
    {
      "inputs": [
        {
          "internalType": "uint256",
          "name": "",
          "type": "uint256"
        }
      ],
      "name": "players",
      "outputs": [
        {
          "internalType": "address payable",
          "name": "",
          "type": "address"
        }
      ],
      "stateMutability": "view",
      "type": "function"
    },
    {
      "inputs": [
        {
          "internalType": "string",
          "name": "_gameDescription",
          "type": "string"
        },
        {
          "internalType": "string",
          "name": "_option1Name",
          "type": "string"
        },
        {
          "internalType": "string",
          "name": "_option1LeagueName",
          "type": "string"
        },
        {
          "internalType": "string",
          "name": "_option2Name",
          "type": "string"
        },
        {
          "internalType": "string",
          "name": "_option2LeagueName",
          "type": "string"
        },
        {
          "internalType": "uint256",
          "name": "_matchDateTimestamp",
          "type": "uint256"
        }
      ],
      "name": "reopenGame",
      "outputs": [],
      "stateMutability": "nonpayable",
      "type": "function"
    }
  ],
  "bytecode": "0x60806040526005600f553480156200001657600080fd5b5060405162002aa138038062002aa183398181016040528101906200003c919062000345565b806000819055506000600660146101000a81548160ff021916908315150217905550426003819055508160048190555033600660006101000a81548173ffffffffffffffffffffffffffffffffffffffff021916908373ffffffffffffffffffffffffffffffffffffffff1602179055508660079081620000be9190620006d4565b508560089081620000d09190620006d4565b508460099081620000e29190620006d4565b5083600a9081620000f49190620006d4565b5082600b9081620001069190620006d4565b50600660009054906101000a900473ffffffffffffffffffffffffffffffffffffffff16600560006101000a81548173ffffffffffffffffffffffffffffffffffffffff021916908373ffffffffffffffffffffffffffffffffffffffff16021790555050505050505050620007bb565b6000604051905090565b600080fd5b600080fd5b600080fd5b600080fd5b6000601f19601f8301169050919050565b7f4e487b7100000000000000000000000000000000000000000000000000000000600052604160045260246000fd5b620001e08262000195565b810181811067ffffffffffffffff82111715620002025762000201620001a6565b5b80604052505050565b60006200021762000177565b9050620002258282620001d5565b919050565b600067ffffffffffffffff821115620002485762000247620001a6565b5b620002538262000195565b9050602081019050919050565b60005b838110156200028057808201518184015260208101905062000263565b60008484015250505050565b6000620002a36200029d846200022a565b6200020b565b905082815260208101848484011115620002c257620002c162000190565b5b620002cf84828562000260565b509392505050565b600082601f830112620002ef57620002ee6200018b565b5b8151620003018482602086016200028c565b91505092915050565b6000819050919050565b6200031f816200030a565b81146200032b57600080fd5b50565b6000815190506200033f8162000314565b92915050565b600080600080600080600060e0888a03121562000367576200036662000181565b5b600088015167ffffffffffffffff81111562000388576200038762000186565b5b620003968a828b01620002d7565b975050602088015167ffffffffffffffff811115620003ba57620003b962000186565b5b620003c88a828b01620002d7565b965050604088015167ffffffffffffffff811115620003ec57620003eb62000186565b5b620003fa8a828b01620002d7565b955050606088015167ffffffffffffffff8111156200041e576200041d62000186565b5b6200042c8a828b01620002d7565b945050608088015167ffffffffffffffff81111562000450576200044f62000186565b5b6200045e8a828b01620002d7565b93505060a0620004718a828b016200032e565b92505060c0620004848a828b016200032e565b91505092959891949750929550565b600081519050919050565b7f4e487b7100000000000000000000000000000000000000000000000000000000600052602260045260246000fd5b60006002820490506001821680620004e657607f821691505b602082108103620004fc57620004fb6200049e565b5b50919050565b60008190508160005260206000209050919050565b60006020601f8301049050919050565b600082821b905092915050565b600060088302620005667fffffffffffffffffffffffffffffffffffffffffffffffffffffffffffffffff8262000527565b62000572868362000527565b95508019841693508086168417925050509392505050565b6000819050919050565b6000620005b5620005af620005a9846200030a565b6200058a565b6200030a565b9050919050565b6000819050919050565b620005d18362000594565b620005e9620005e082620005bc565b84845462000534565b825550505050565b600090565b62000600620005f1565b6200060d818484620005c6565b505050565b5b81811015620006355762000629600082620005f6565b60018101905062000613565b5050565b601f82111562000684576200064e8162000502565b620006598462000517565b8101602085101562000669578190505b62000681620006788562000517565b83018262000612565b50505b505050565b600082821c905092915050565b6000620006a96000198460080262000689565b1980831691505092915050565b6000620006c4838362000696565b9150826002028217905092915050565b620006df8262000493565b67ffffffffffffffff811115620006fb57620006fa620001a6565b5b620007078254620004cd565b6200071482828562000639565b600060209050601f8311600181146200074c576000841562000737578287015190505b620007438582620006b6565b865550620007b3565b601f1984166200075c8662000502565b60005b8281101562000786578489015182556001820191506020850194506020810190506200075f565b86831015620007a65784890151620007a2601f89168262000696565b8355505b6001600288020188555050505b505050505050565b6122d680620007cb6000396000f3fe60806040526004361061014b5760003560e01c806365733592116100b6578063c85398081161006f578063c853980814610457578063ea17532e14610461578063f0f324971461049e578063f71d96cb146104c9578063fd6673f514610506578063fdbe6667146105315761014b565b80636573359214610356578063676f6474146103815780636e9960c3146103ad578063777cd247146103d85780637dc6e841146104015780638b5d691c1461042c5761014b565b80632b74e9bd116101085780632b74e9bd146102315780632f9f65f61461025c5780633ca53bba146102875780634081d916146102b05780634996d51d146102ed5780634b114691146103185761014b565b806309bc33a7146101505780630ca740401461017b5780631385f1a9146101855780631f89f25e146101b057806327f0cbc0146101db5780632aae363014610206575b600080fd5b34801561015c57600080fd5b5061016561055c565b604051610172919061170a565b60405180910390f35b610183610565565b005b34801561019157600080fd5b5061019a610762565b6040516101a791906117b5565b60405180910390f35b3480156101bc57600080fd5b506101c56107f4565b6040516101d2919061170a565b60405180910390f35b3480156101e757600080fd5b506101f06107fe565b6040516101fd91906117f2565b60405180910390f35b34801561021257600080fd5b5061021b610815565b60405161022891906117b5565b60405180910390f35b34801561023d57600080fd5b506102466108a7565b604051610253919061170a565b60405180910390f35b34801561026857600080fd5b506102716108b1565b60405161027e91906117b5565b60405180910390f35b34801561029357600080fd5b506102ae60048036038101906102a9919061185b565b610943565b005b3480156102bc57600080fd5b506102d760048036038101906102d291906118e6565b610a47565b6040516102e491906117f2565b60405180910390f35b3480156102f957600080fd5b50610302610af8565b60405161030f919061170a565b60405180910390f35b34801561032457600080fd5b5061033f600480360381019061033a91906118e6565b610b02565b60405161034d929190611922565b60405180910390f35b34801561036257600080fd5b5061036b610b34565b604051610378919061170a565b60405180910390f35b34801561038d57600080fd5b50610396610b3e565b6040516103a49291906119a0565b60405180910390f35b3480156103b957600080fd5b506103c2610be4565b6040516103cf91906119df565b60405180910390f35b3480156103e457600080fd5b506103ff60048036038101906103fa9190611b5b565b610c0e565b005b34801561040d57600080fd5b50610416610d7f565b60405161042391906117b5565b60405180910390f35b34801561043857600080fd5b50610441610e11565b60405161044e91906117b5565b60405180910390f35b61045f610e9f565b005b34801561046d57600080fd5b5061048860048036038101906104839190611c74565b61109c565b60405161049591906119df565b60405180910390f35b3480156104aa57600080fd5b506104b36110e4565b6040516104c091906117f2565b60405180910390f35b3480156104d557600080fd5b506104f060048036038101906104eb9190611c74565b6110f7565b6040516104fd9190611cc2565b60405180910390f35b34801561051257600080fd5b5061051b611136565b604051610528919061170a565b60405180910390f35b34801561053d57600080fd5b50610546611143565b604051610553919061170a565b60405180910390f35b60008054905090565b61056e33610a47565b1561057857600080fd5b600660149054906101000a900460ff161561059257600080fd5b6000543410156105d7576040517f08c379a00000000000000000000000000000000000000000000000000000000081526004016105ce90611d29565b60405180910390fd5b34600c60003373ffffffffffffffffffffffffffffffffffffffff1673ffffffffffffffffffffffffffffffffffffffff168152602001908152602001600020600001819055506001600c60003373ffffffffffffffffffffffffffffffffffffffff1673ffffffffffffffffffffffffffffffffffffffff16815260200190815260200160002060010160006101000a81548161ffff021916908361ffff160217905550600d339080600181540180825580915050600190039060005260206000200160009091909190916101000a81548173ffffffffffffffffffffffffffffffffffffffff021916908373ffffffffffffffffffffffffffffffffffffffff1602179055506064600f5460646106f09190611d78565b346106fb9190611dac565b6107059190611e1d565b600160008282546107169190611e4e565b925050819055503373ffffffffffffffffffffffffffffffffffffffff167f7f47e4b864ee52d8ca461d379020be7e99ae801a152dde71193bdc651da8a7c060405160405180910390a2565b6060600a805461077190611eb1565b80601f016020809104026020016040519081016040528092919081815260200182805461079d90611eb1565b80156107ea5780601f106107bf576101008083540402835291602001916107ea565b820191906000526020600020905b8154815290600101906020018083116107cd57829003601f168201915b5050505050905090565b6000600354905090565b6000600660149054906101000a900460ff16905090565b60606008805461082490611eb1565b80601f016020809104026020016040519081016040528092919081815260200182805461085090611eb1565b801561089d5780601f106108725761010080835404028352916020019161089d565b820191906000526020600020905b81548152906001019060200180831161088057829003601f168201915b5050505050905090565b6000600454905090565b6060600b80546108c090611eb1565b80601f01602080910402602001604051908101604052809291908181526020018280546108ec90611eb1565b80156109395780601f1061090e57610100808354040283529160200191610939565b820191906000526020600020905b81548152906001019060200180831161091c57829003601f168201915b5050505050905090565b600660009054906101000a900473ffffffffffffffffffffffffffffffffffffffff1673ffffffffffffffffffffffffffffffffffffffff163373ffffffffffffffffffffffffffffffffffffffff16146109d3576040517f08c379a00000000000000000000000000000000000000000000000000000000081526004016109ca90611f54565b60405180910390fd5b60006109dd610b3e565b50905080610a3a5747600d80549050600660149054906101000a900460ff166040517f0f724954000000000000000000000000000000000000000000000000000000008152600401610a3193929190611f74565b60405180910390fd5b610a438261114d565b5050565b600080600d80549050905060005b81811015610aec578373ffffffffffffffffffffffffffffffffffffffff16600d8281548110610a8857610a87611fab565b5b9060005260206000200160009054906101000a900473ffffffffffffffffffffffffffffffffffffffff1673ffffffffffffffffffffffffffffffffffffffff1603610ad957600192505050610af3565b8080610ae490611fda565b915050610a55565b5060009150505b919050565b6000600154905090565b600c6020528060005260406000206000915090508060000154908060010160009054906101000a900461ffff16905082565b6000600254905090565b600060606000801515600660149054906101000a900460ff16151514905060008060045442610b6d9190611d78565b119050600080600d8054905011905060008047119050828015610b8d5750835b8015610b965750805b8015610b9f5750815b9550856040518060400160405280600381526020017f307830000000000000000000000000000000000000000000000000000000000081525095509550505050509091565b6000600660009054906101000a900473ffffffffffffffffffffffffffffffffffffffff16905090565b600660009054906101000a900473ffffffffffffffffffffffffffffffffffffffff1673ffffffffffffffffffffffffffffffffffffffff163373ffffffffffffffffffffffffffffffffffffffff1614610c9e576040517f08c379a0000000000000000000000000000000000000000000000000000000008152600401610c9590611f54565b60405180910390fd5b6000600660146101000a81548160ff0219169083151502179055508560079081610cc891906121ce565b508460089081610cd891906121ce565b5083600a9081610ce891906121ce565b508260099081610cf891906121ce565b5081600b9081610d0891906121ce565b5080600481905550600067ffffffffffffffff811115610d2b57610d2a611a04565b5b604051908082528060200260200182016040528015610d595781602001602082028036833780820191505090505b50600d9080519060200190610d6f929190611629565b5042600381905550505050505050565b606060098054610d8e90611eb1565b80601f0160208091040260200160405190810160405280929190818152602001828054610dba90611eb1565b8015610e075780601f10610ddc57610100808354040283529160200191610e07565b820191906000526020600020905b815481529060010190602001808311610dea57829003601f168201915b5050505050905090565b60078054610e1e90611eb1565b80601f0160208091040260200160405190810160405280929190818152602001828054610e4a90611eb1565b8015610e975780601f10610e6c57610100808354040283529160200191610e97565b820191906000526020600020905b815481529060010190602001808311610e7a57829003601f168201915b505050505081565b610ea833610a47565b15610eb257600080fd5b600660149054906101000a900460ff1615610ecc57600080fd5b600054341015610f11576040517f08c379a0000000000000000000000000000000000000000000000000000000008152600401610f0890611d29565b60405180910390fd5b34600c60003373ffffffffffffffffffffffffffffffffffffffff1673ffffffffffffffffffffffffffffffffffffffff168152602001908152602001600020600001819055506002600c60003373ffffffffffffffffffffffffffffffffffffffff1673ffffffffffffffffffffffffffffffffffffffff16815260200190815260200160002060010160006101000a81548161ffff021916908361ffff160217905550600d339080600181540180825580915050600190039060005260206000200160009091909190916101000a81548173ffffffffffffffffffffffffffffffffffffffff021916908373ffffffffffffffffffffffffffffffffffffffff1602179055506064600f54606461102a9190611d78565b346110359190611dac565b61103f9190611e1d565b600260008282546110509190611e4e565b925050819055503373ffffffffffffffffffffffffffffffffffffffff167f7f47e4b864ee52d8ca461d379020be7e99ae801a152dde71193bdc651da8a7c060405160405180910390a2565b6000600d82815481106110b2576110b1611fab565b5b9060005260206000200160009054906101000a900473ffffffffffffffffffffffffffffffffffffffff169050919050565b600660149054906101000a900460ff1681565b600d818154811061110757600080fd5b906000526020600020016000915054906101000a900473ffffffffffffffffffffffffffffffffffffffff1681565b6000600d80549050905090565b6000600f54905090565b600660009054906101000a900473ffffffffffffffffffffffffffffffffffffffff1673ffffffffffffffffffffffffffffffffffffffff163373ffffffffffffffffffffffffffffffffffffffff16146111dd576040517f08c379a00000000000000000000000000000000000000000000000000000000081526004016111d490611f54565b60405180910390fd5b600080600080600080600090505b600d8054905081101561130f57600d818154811061120c5761120b611fab565b5b9060005260206000200160009054906101000a900473ffffffffffffffffffffffffffffffffffffffff1691508661ffff16600c60008473ffffffffffffffffffffffffffffffffffffffff1673ffffffffffffffffffffffffffffffffffffffff16815260200190815260200160002060010160009054906101000a900461ffff1661ffff16036112fc57600e829080600181540180825580915050600190039060005260206000200160009091909190916101000a81548173ffffffffffffffffffffffffffffffffffffffff021916908373ffffffffffffffffffffffffffffffffffffffff1602179055505b808061130790611fda565b9150506111eb565b5060018661ffff160361132b5760025494506001549350611336565b600154945060025493505b60005b600e805490508110156114a757600e818154811061135a57611359611fab565b5b9060005260206000200160009054906101000a900473ffffffffffffffffffffffffffffffffffffffff169350600c60008573ffffffffffffffffffffffffffffffffffffffff1673ffffffffffffffffffffffffffffffffffffffff168152602001908152602001600020600001549250600061271086612710896113e09190611dac565b6113ea9190611e1d565b6127106113f79190611e4e565b856114029190611dac565b61140c9190611e1d565b9050600e828154811061142257611421611fab565b5b9060005260206000200160009054906101000a900473ffffffffffffffffffffffffffffffffffffffff1673ffffffffffffffffffffffffffffffffffffffff166108fc829081150290604051600060405180830381858888f19350505050158015611492573d6000803e3d6000fd5b5050808061149f90611fda565b915050611339565b50600560009054906101000a900473ffffffffffffffffffffffffffffffffffffffff1673ffffffffffffffffffffffffffffffffffffffff166108fc479081150290604051600060405180830381858888f19350505050158015611510573d6000803e3d6000fd5b506001600660146101000a81548160ff02191690831515021790555060005b600d805490508110156115ec57600c6000600d838154811061155457611553611fab565b5b9060005260206000200160009054906101000a900473ffffffffffffffffffffffffffffffffffffffff1673ffffffffffffffffffffffffffffffffffffffff1673ffffffffffffffffffffffffffffffffffffffff1681526020019081526020016000206000808201600090556001820160006101000a81549061ffff0219169055505080806115e490611fda565b91505061152f565b50600d60006115fb91906116b3565b600e600061160991906116b3565b600094506000935060006001819055506000600281905550505050505050565b8280548282559060005260206000209081019282156116a2579160200282015b828111156116a15782518260006101000a81548173ffffffffffffffffffffffffffffffffffffffff021916908373ffffffffffffffffffffffffffffffffffffffff16021790555091602001919060010190611649565b5b5090506116af91906116d4565b5090565b50805460008255906000526020600020908101906116d191906116d4565b50565b5b808211156116ed5760008160009055506001016116d5565b5090565b6000819050919050565b611704816116f1565b82525050565b600060208201905061171f60008301846116fb565b92915050565b600081519050919050565b600082825260208201905092915050565b60005b8381101561175f578082015181840152602081019050611744565b60008484015250505050565b6000601f19601f8301169050919050565b600061178782611725565b6117918185611730565b93506117a1818560208601611741565b6117aa8161176b565b840191505092915050565b600060208201905081810360008301526117cf818461177c565b905092915050565b60008115159050919050565b6117ec816117d7565b82525050565b600060208201905061180760008301846117e3565b92915050565b6000604051905090565b600080fd5b600080fd5b600061ffff82169050919050565b61183881611821565b811461184357600080fd5b50565b6000813590506118558161182f565b92915050565b60006020828403121561187157611870611817565b5b600061187f84828501611846565b91505092915050565b600073ffffffffffffffffffffffffffffffffffffffff82169050919050565b60006118b382611888565b9050919050565b6118c3816118a8565b81146118ce57600080fd5b50565b6000813590506118e0816118ba565b92915050565b6000602082840312156118fc576118fb611817565b5b600061190a848285016118d1565b91505092915050565b61191c81611821565b82525050565b600060408201905061193760008301856116fb565b6119446020830184611913565b9392505050565b600081519050919050565b600082825260208201905092915050565b60006119728261194b565b61197c8185611956565b935061198c818560208601611741565b6119958161176b565b840191505092915050565b60006040820190506119b560008301856117e3565b81810360208301526119c78184611967565b90509392505050565b6119d9816118a8565b82525050565b60006020820190506119f460008301846119d0565b92915050565b600080fd5b600080fd5b7f4e487b7100000000000000000000000000000000000000000000000000000000600052604160045260246000fd5b611a3c8261176b565b810181811067ffffffffffffffff82111715611a5b57611a5a611a04565b5b80604052505050565b6000611a6e61180d565b9050611a7a8282611a33565b919050565b600067ffffffffffffffff821115611a9a57611a99611a04565b5b611aa38261176b565b9050602081019050919050565b82818337600083830152505050565b6000611ad2611acd84611a7f565b611a64565b905082815260208101848484011115611aee57611aed6119ff565b5b611af9848285611ab0565b509392505050565b600082601f830112611b1657611b156119fa565b5b8135611b26848260208601611abf565b91505092915050565b611b38816116f1565b8114611b4357600080fd5b50565b600081359050611b5581611b2f565b92915050565b60008060008060008060c08789031215611b7857611b77611817565b5b600087013567ffffffffffffffff811115611b9657611b9561181c565b5b611ba289828a01611b01565b965050602087013567ffffffffffffffff811115611bc357611bc261181c565b5b611bcf89828a01611b01565b955050604087013567ffffffffffffffff811115611bf057611bef61181c565b5b611bfc89828a01611b01565b945050606087013567ffffffffffffffff811115611c1d57611c1c61181c565b5b611c2989828a01611b01565b935050608087013567ffffffffffffffff811115611c4a57611c4961181c565b5b611c5689828a01611b01565b92505060a0611c6789828a01611b46565b9150509295509295509295565b600060208284031215611c8a57611c89611817565b5b6000611c9884828501611b46565b91505092915050565b6000611cac82611888565b9050919050565b611cbc81611ca1565b82525050565b6000602082019050611cd76000830184611cb3565b92915050565b7f496e73756666696369656e742062657420616d6f756e74000000000000000000600082015250565b6000611d13601783611730565b9150611d1e82611cdd565b602082019050919050565b60006020820190508181036000830152611d4281611d06565b9050919050565b7f4e487b7100000000000000000000000000000000000000000000000000000000600052601160045260246000fd5b6000611d83826116f1565b9150611d8e836116f1565b9250828203905081811115611da657611da5611d49565b5b92915050565b6000611db7826116f1565b9150611dc2836116f1565b9250828202611dd0816116f1565b91508282048414831517611de757611de6611d49565b5b5092915050565b7f4e487b7100000000000000000000000000000000000000000000000000000000600052601260045260246000fd5b6000611e28826116f1565b9150611e33836116f1565b925082611e4357611e42611dee565b5b828204905092915050565b6000611e59826116f1565b9150611e64836116f1565b9250828201905080821115611e7c57611e7b611d49565b5b92915050565b7f4e487b7100000000000000000000000000000000000000000000000000000000600052602260045260246000fd5b60006002820490506001821680611ec957607f821691505b602082108103611edc57611edb611e82565b5b50919050565b7f4f6e6c792061646d696e2063616e2063616c6c20746869732066756e6374696f60008201527f6e00000000000000000000000000000000000000000000000000000000000000602082015250565b6000611f3e602183611730565b9150611f4982611ee2565b604082019050919050565b60006020820190508181036000830152611f6d81611f31565b9050919050565b6000606082019050611f8960008301866116fb565b611f9660208301856116fb565b611fa360408301846117e3565b949350505050565b7f4e487b7100000000000000000000000000000000000000000000000000000000600052603260045260246000fd5b6000611fe5826116f1565b91507fffffffffffffffffffffffffffffffffffffffffffffffffffffffffffffffff820361201757612016611d49565b5b600182019050919050565b60008190508160005260206000209050919050565b60006020601f8301049050919050565b600082821b905092915050565b6000600883026120847fffffffffffffffffffffffffffffffffffffffffffffffffffffffffffffffff82612047565b61208e8683612047565b95508019841693508086168417925050509392505050565b6000819050919050565b60006120cb6120c66120c1846116f1565b6120a6565b6116f1565b9050919050565b6000819050919050565b6120e5836120b0565b6120f96120f1826120d2565b848454612054565b825550505050565b600090565b61210e612101565b6121198184846120dc565b505050565b5b8181101561213d57612132600082612106565b60018101905061211f565b5050565b601f8211156121825761215381612022565b61215c84612037565b8101602085101561216b578190505b61217f61217785612037565b83018261211e565b50505b505050565b600082821c905092915050565b60006121a560001984600802612187565b1980831691505092915050565b60006121be8383612194565b9150826002028217905092915050565b6121d782611725565b67ffffffffffffffff8111156121f0576121ef611a04565b5b6121fa8254611eb1565b612205828285612141565b600060209050601f8311600181146122385760008415612226578287015190505b61223085826121b2565b865550612298565b601f19841661224686612022565b60005b8281101561226e57848901518255600182019150602085019450602081019050612249565b8683101561228b5784890151612287601f891682612194565b8355505b6001600288020188555050505b50505050505056fea2646970667358221220f510981ff262f5b261e663bfc2749c5973b3e6437debc9a1335a52e877d8a29b64736f6c63430008130033",
  "linkReferences": {},
  "deployedLinkReferences": {}
}