{
  "_format": "hh-sol-artifact-1",
  "contractName": "Betting",
  "sourceName": "contracts/BinaryBet.sol",
  "abi": [
    {
      "inputs": [
        {
          "internalType": "uint256",
          "name": "interval",
          "type": "uint256"
        },
        {
          "internalType": "uint256",
          "name": "entranceFee",
          "type": "uint256"
        }
      ],
      "stateMutability": "nonpayable",
      "type": "constructor"
    },
    {
      "inputs": [
        {
          "internalType": "uint256",
          "name": "currentBalance",
          "type": "uint256"
        },
        {
          "internalType": "uint256",
          "name": "numPlayers",
          "type": "uint256"
        },
        {
          "internalType": "bool",
          "name": "gameFinished",
          "type": "bool"
        }
      ],
      "name": "Betting__ExecuteNotNeeded",
      "type": "error"
    },
    {
      "anonymous": false,
      "inputs": [
        {
          "indexed": true,
          "internalType": "address",
          "name": "player",
          "type": "address"
        }
      ],
      "name": "BettingEnter",
      "type": "event"
    },
    {
      "inputs": [],
      "name": "AmountOne",
      "outputs": [
        {
          "internalType": "uint256",
          "name": "",
          "type": "uint256"
        }
      ],
      "stateMutability": "view",
      "type": "function"
    },
    {
      "inputs": [],
      "name": "AmountTwo",
      "outputs": [
        {
          "internalType": "uint256",
          "name": "",
          "type": "uint256"
        }
      ],
      "stateMutability": "view",
      "type": "function"
    },
    {
      "inputs": [
        {
          "internalType": "uint16",
          "name": "_teamSelected",
          "type": "uint16"
        }
      ],
      "name": "betting",
      "outputs": [],
      "stateMutability": "payable",
      "type": "function"
    },
    {
      "inputs": [],
      "name": "checkExecuteReady",
      "outputs": [
        {
          "internalType": "bool",
          "name": "readyToExecute",
          "type": "bool"
        },
        {
          "internalType": "bytes",
          "name": "",
          "type": "bytes"
        }
      ],
      "stateMutability": "view",
      "type": "function"
    },
    {
      "inputs": [
        {
          "internalType": "address",
          "name": "player",
          "type": "address"
        }
      ],
      "name": "checkPlayerExists",
      "outputs": [
        {
          "internalType": "bool",
          "name": "",
          "type": "bool"
        }
      ],
      "stateMutability": "view",
      "type": "function"
    },
    {
      "inputs": [],
      "name": "gameFinished",
      "outputs": [
        {
          "internalType": "bool",
          "name": "",
          "type": "bool"
        }
      ],
      "stateMutability": "view",
      "type": "function"
    },
    {
      "inputs": [],
      "name": "getAdmin",
      "outputs": [
        {
          "internalType": "address",
          "name": "",
          "type": "address"
        }
      ],
      "stateMutability": "view",
      "type": "function"
    },
    {
      "inputs": [],
      "name": "getEntranceFee",
      "outputs": [
        {
          "internalType": "uint256",
          "name": "",
          "type": "uint256"
        }
      ],
      "stateMutability": "view",
      "type": "function"
    },
    {
      "inputs": [],
      "name": "getGameFinished",
      "outputs": [
        {
          "internalType": "bool",
          "name": "",
          "type": "bool"
        }
      ],
      "stateMutability": "view",
      "type": "function"
    },
    {
      "inputs": [],
      "name": "getInterval",
      "outputs": [
        {
          "internalType": "uint256",
          "name": "",
          "type": "uint256"
        }
      ],
      "stateMutability": "view",
      "type": "function"
    },
    {
      "inputs": [],
      "name": "getLastTimeStamp",
      "outputs": [
        {
          "internalType": "uint256",
          "name": "",
          "type": "uint256"
        }
      ],
      "stateMutability": "view",
      "type": "function"
    },
    {
      "inputs": [],
      "name": "getNumberOfPlayers",
      "outputs": [
        {
          "internalType": "uint256",
          "name": "",
          "type": "uint256"
        }
      ],
      "stateMutability": "view",
      "type": "function"
    },
    {
      "inputs": [
        {
          "internalType": "uint256",
          "name": "index",
          "type": "uint256"
        }
      ],
      "name": "getPlayer",
      "outputs": [
        {
          "internalType": "address",
          "name": "",
          "type": "address"
        }
      ],
      "stateMutability": "view",
      "type": "function"
    },
    {
      "inputs": [],
      "name": "owner",
      "outputs": [
        {
          "internalType": "address payable",
          "name": "",
          "type": "address"
        }
      ],
      "stateMutability": "view",
      "type": "function"
    },
    {
      "inputs": [
        {
          "internalType": "uint16",
          "name": "oraclemsg",
          "type": "uint16"
        }
      ],
      "name": "performExecute",
      "outputs": [],
      "stateMutability": "nonpayable",
      "type": "function"
    },
    {
      "inputs": [
        {
          "internalType": "address",
          "name": "",
          "type": "address"
        }
      ],
      "name": "playerInfo",
      "outputs": [
        {
          "internalType": "uint256",
          "name": "amountBet",
          "type": "uint256"
        },
        {
          "internalType": "uint16",
          "name": "teamSelected",
          "type": "uint16"
        }
      ],
      "stateMutability": "view",
      "type": "function"
    },
    {
      "inputs": [
        {
          "internalType": "uint256",
          "name": "",
          "type": "uint256"
        }
      ],
      "name": "players",
      "outputs": [
        {
          "internalType": "address payable",
          "name": "",
          "type": "address"
        }
      ],
      "stateMutability": "view",
      "type": "function"
    },
    {
      "inputs": [],
      "name": "reopenGame",
      "outputs": [],
      "stateMutability": "nonpayable",
      "type": "function"
    }
  ],
  "bytecode": "0x60a0604052600a6009553480156200001657600080fd5b50604051620019c6380380620019c683398181016040528101906200003c919062000130565b8160808181525050806000819055506000600560146101000a81548160ff0219169083151502179055504260038190555033600560006101000a81548173ffffffffffffffffffffffffffffffffffffffff021916908373ffffffffffffffffffffffffffffffffffffffff160217905550600560009054906101000a900473ffffffffffffffffffffffffffffffffffffffff16600460006101000a81548173ffffffffffffffffffffffffffffffffffffffff021916908373ffffffffffffffffffffffffffffffffffffffff1602179055505050620001a0565b6000815190506200012a8162000186565b92915050565b600080604083850312156200014a576200014962000181565b5b60006200015a8582860162000119565b92505060206200016d8582860162000119565b9150509250929050565b6000819050919050565b600080fd5b620001918162000177565b81146200019d57600080fd5b50565b608051611803620001c36000396000818161078b015261088301526118036000f3fe6080604052600436106101095760003560e01c80636e9960c311610095578063e55ae4e811610064578063e55ae4e81461034d578063f08846d41461038a578063f0f32497146103a6578063f71d96cb146103d1578063fd6673f51461040e57610109565b80636e9960c3146102a15780638da5cb5b146102cc57806391ad27b4146102f7578063c1c244e81461032257610109565b80634996d51d116100dc5780634996d51d146101ca5780634b114691146101f55780635428ec8514610233578063657335921461024a578063676f64741461027557610109565b806309bc33a71461010e57806327f0cbc0146101395780633ca53bba146101645780634081d9161461018d575b600080fd5b34801561011a57600080fd5b50610123610439565b604051610130919061139d565b60405180910390f35b34801561014557600080fd5b5061014e610442565b60405161015b9190611312565b60405180910390f35b34801561017057600080fd5b5061018b600480360381019061018691906111b8565b610459565b005b34801561019957600080fd5b506101b460048036038101906101af919061118b565b61055d565b6040516101c19190611312565b60405180910390f35b3480156101d657600080fd5b506101df61060f565b6040516101ec919061139d565b60405180910390f35b34801561020157600080fd5b5061021c6004803603810190610217919061118b565b610619565b60405161022a9291906113b8565b60405180910390f35b34801561023f57600080fd5b5061024861064b565b005b34801561025657600080fd5b5061025f61075f565b60405161026c919061139d565b60405180910390f35b34801561028157600080fd5b5061028a610769565b60405161029892919061132d565b60405180910390f35b3480156102ad57600080fd5b506102b661082f565b6040516102c391906112dc565b60405180910390f35b3480156102d857600080fd5b506102e1610859565b6040516102ee91906112f7565b60405180910390f35b34801561030357600080fd5b5061030c61087f565b604051610319919061139d565b60405180910390f35b34801561032e57600080fd5b506103376108a7565b604051610344919061139d565b60405180910390f35b34801561035957600080fd5b50610374600480360381019061036f91906111e5565b6108b1565b60405161038191906112dc565b60405180910390f35b6103a4600480360381019061039f91906111b8565b6108f9565b005b3480156103b257600080fd5b506103bb610b47565b6040516103c89190611312565b60405180910390f35b3480156103dd57600080fd5b506103f860048036038101906103f391906111e5565b610b5a565b60405161040591906112f7565b60405180910390f35b34801561041a57600080fd5b50610423610b99565b604051610430919061139d565b60405180910390f35b60008054905090565b6000600560149054906101000a900460ff16905090565b600560009054906101000a900473ffffffffffffffffffffffffffffffffffffffff1673ffffffffffffffffffffffffffffffffffffffff163373ffffffffffffffffffffffffffffffffffffffff16146104e9576040517f08c379a00000000000000000000000000000000000000000000000000000000081526004016104e09061137d565b60405180910390fd5b60006104f3610769565b509050806105505747600780549050600560149054906101000a900460ff166040517f0f724954000000000000000000000000000000000000000000000000000000008152600401610547939291906113e1565b60405180910390fd5b61055982610ba6565b5050565b600080600780549050905060005b81811015610603578373ffffffffffffffffffffffffffffffffffffffff166007828154811061059e5761059d61169c565b5b9060005260206000200160009054906101000a900473ffffffffffffffffffffffffffffffffffffffff1673ffffffffffffffffffffffffffffffffffffffff1614156105f05760019250505061060a565b80806105fb906115f5565b91505061056b565b5060009150505b919050565b6000600154905090565b60066020528060005260406000206000915090508060000154908060010160009054906101000a900461ffff16905082565b600560009054906101000a900473ffffffffffffffffffffffffffffffffffffffff1673ffffffffffffffffffffffffffffffffffffffff163373ffffffffffffffffffffffffffffffffffffffff16146106db576040517f08c379a00000000000000000000000000000000000000000000000000000000081526004016106d29061137d565b60405180910390fd5b6000600560146101000a81548160ff021916908315150217905550600067ffffffffffffffff811115610711576107106116cb565b5b60405190808252806020026020018201604052801561073f5781602001602082028036833780820191505090505b5060079080519060200190610755929190611084565b5042600381905550565b6000600254905090565b600060606000801515600560149054906101000a900460ff16151514905060007f0000000000000000000000000000000000000000000000000000000000000000600354426107b89190611526565b119050600080600780549050119050600080471190508280156107d85750835b80156107e15750805b80156107ea5750815b9550856040518060400160405280600381526020017f307830000000000000000000000000000000000000000000000000000000000081525095509550505050509091565b6000600560009054906101000a900473ffffffffffffffffffffffffffffffffffffffff16905090565b600460009054906101000a900473ffffffffffffffffffffffffffffffffffffffff1681565b60007f0000000000000000000000000000000000000000000000000000000000000000905090565b6000600354905090565b6000600782815481106108c7576108c661169c565b5b9060005260206000200160009054906101000a900473ffffffffffffffffffffffffffffffffffffffff169050919050565b6109023361055d565b1561090c57600080fd5b600560149054906101000a900460ff161561092657600080fd5b60005434101561096b576040517f08c379a00000000000000000000000000000000000000000000000000000000081526004016109629061135d565b60405180910390fd5b34600660003373ffffffffffffffffffffffffffffffffffffffff1673ffffffffffffffffffffffffffffffffffffffff1681526020019081526020016000206000018190555080600660003373ffffffffffffffffffffffffffffffffffffffff1673ffffffffffffffffffffffffffffffffffffffff16815260200190815260200160002060010160006101000a81548161ffff021916908361ffff1602179055506007339080600181540180825580915050600190039060005260206000200160009091909190916101000a81548173ffffffffffffffffffffffffffffffffffffffff021916908373ffffffffffffffffffffffffffffffffffffffff16021790555060018161ffff161415610ac25760646009546064610a909190611526565b34610a9b91906114cc565b610aa5919061149b565b60016000828254610ab69190611445565b92505081905550610b01565b60646009546064610ad39190611526565b34610ade91906114cc565b610ae8919061149b565b60026000828254610af99190611445565b925050819055505b3373ffffffffffffffffffffffffffffffffffffffff167f7f47e4b864ee52d8ca461d379020be7e99ae801a152dde71193bdc651da8a7c060405160405180910390a250565b600560149054906101000a900460ff1681565b60078181548110610b6a57600080fd5b906000526020600020016000915054906101000a900473ffffffffffffffffffffffffffffffffffffffff1681565b6000600780549050905090565b600560009054906101000a900473ffffffffffffffffffffffffffffffffffffffff1673ffffffffffffffffffffffffffffffffffffffff163373ffffffffffffffffffffffffffffffffffffffff1614610c36576040517f08c379a0000000000000000000000000000000000000000000000000000000008152600401610c2d9061137d565b60405180910390fd5b600080600080600080600090505b600780549050811015610d695760078181548110610c6557610c6461169c565b5b9060005260206000200160009054906101000a900473ffffffffffffffffffffffffffffffffffffffff1691508661ffff16600660008473ffffffffffffffffffffffffffffffffffffffff1673ffffffffffffffffffffffffffffffffffffffff16815260200190815260200160002060010160009054906101000a900461ffff1661ffff161415610d56576008829080600181540180825580915050600190039060005260206000200160009091909190916101000a81548173ffffffffffffffffffffffffffffffffffffffff021916908373ffffffffffffffffffffffffffffffffffffffff1602179055505b8080610d61906115f5565b915050610c44565b5060018661ffff161415610d865760025494506001549350610d91565b600154945060025493505b60005b600880549050811015610f025760088181548110610db557610db461169c565b5b9060005260206000200160009054906101000a900473ffffffffffffffffffffffffffffffffffffffff169350600660008573ffffffffffffffffffffffffffffffffffffffff1673ffffffffffffffffffffffffffffffffffffffff16815260200190815260200160002060000154925060006127108661271089610e3b91906114cc565b610e45919061149b565b612710610e529190611445565b85610e5d91906114cc565b610e67919061149b565b905060088281548110610e7d57610e7c61169c565b5b9060005260206000200160009054906101000a900473ffffffffffffffffffffffffffffffffffffffff1673ffffffffffffffffffffffffffffffffffffffff166108fc829081150290604051600060405180830381858888f19350505050158015610eed573d6000803e3d6000fd5b50508080610efa906115f5565b915050610d94565b50600460009054906101000a900473ffffffffffffffffffffffffffffffffffffffff1673ffffffffffffffffffffffffffffffffffffffff166108fc479081150290604051600060405180830381858888f19350505050158015610f6b573d6000803e3d6000fd5b506001600560146101000a81548160ff02191690831515021790555060005b600780549050811015611047576006600060078381548110610faf57610fae61169c565b5b9060005260206000200160009054906101000a900473ffffffffffffffffffffffffffffffffffffffff1673ffffffffffffffffffffffffffffffffffffffff1673ffffffffffffffffffffffffffffffffffffffff1681526020019081526020016000206000808201600090556001820160006101000a81549061ffff02191690555050808061103f906115f5565b915050610f8a565b5060076000611056919061110e565b60086000611064919061110e565b600094506000935060006001819055506000600281905550505050505050565b8280548282559060005260206000209081019282156110fd579160200282015b828111156110fc5782518260006101000a81548173ffffffffffffffffffffffffffffffffffffffff021916908373ffffffffffffffffffffffffffffffffffffffff160217905550916020019190600101906110a4565b5b50905061110a919061112f565b5090565b508054600082559060005260206000209081019061112c919061112f565b50565b5b80821115611148576000816000905550600101611130565b5090565b60008135905061115b81611788565b92915050565b6000813590506111708161179f565b92915050565b600081359050611185816117b6565b92915050565b6000602082840312156111a1576111a06116fa565b5b60006111af8482850161114c565b91505092915050565b6000602082840312156111ce576111cd6116fa565b5b60006111dc84828501611161565b91505092915050565b6000602082840312156111fb576111fa6116fa565b5b600061120984828501611176565b91505092915050565b61121b8161156c565b82525050565b61122a8161155a565b82525050565b6112398161157e565b82525050565b600061124a82611418565b6112548185611423565b93506112648185602086016115c2565b61126d816116ff565b840191505092915050565b6000611285601783611434565b915061129082611710565b602082019050919050565b60006112a8602183611434565b91506112b382611739565b604082019050919050565b6112c78161158a565b82525050565b6112d6816115b8565b82525050565b60006020820190506112f16000830184611221565b92915050565b600060208201905061130c6000830184611212565b92915050565b60006020820190506113276000830184611230565b92915050565b60006040820190506113426000830185611230565b8181036020830152611354818461123f565b90509392505050565b6000602082019050818103600083015261137681611278565b9050919050565b600060208201905081810360008301526113968161129b565b9050919050565b60006020820190506113b260008301846112cd565b92915050565b60006040820190506113cd60008301856112cd565b6113da60208301846112be565b9392505050565b60006060820190506113f660008301866112cd565b61140360208301856112cd565b6114106040830184611230565b949350505050565b600081519050919050565b600082825260208201905092915050565b600082825260208201905092915050565b6000611450826115b8565b915061145b836115b8565b9250827fffffffffffffffffffffffffffffffffffffffffffffffffffffffffffffffff038211156114905761148f61163e565b5b828201905092915050565b60006114a6826115b8565b91506114b1836115b8565b9250826114c1576114c061166d565b5b828204905092915050565b60006114d7826115b8565b91506114e2836115b8565b9250817fffffffffffffffffffffffffffffffffffffffffffffffffffffffffffffffff048311821515161561151b5761151a61163e565b5b828202905092915050565b6000611531826115b8565b915061153c836115b8565b92508282101561154f5761154e61163e565b5b828203905092915050565b600061156582611598565b9050919050565b600061157782611598565b9050919050565b60008115159050919050565b600061ffff82169050919050565b600073ffffffffffffffffffffffffffffffffffffffff82169050919050565b6000819050919050565b60005b838110156115e05780820151818401526020810190506115c5565b838111156115ef576000848401525b50505050565b6000611600826115b8565b91507fffffffffffffffffffffffffffffffffffffffffffffffffffffffffffffffff8214156116335761163261163e565b5b600182019050919050565b7f4e487b7100000000000000000000000000000000000000000000000000000000600052601160045260246000fd5b7f4e487b7100000000000000000000000000000000000000000000000000000000600052601260045260246000fd5b7f4e487b7100000000000000000000000000000000000000000000000000000000600052603260045260246000fd5b7f4e487b7100000000000000000000000000000000000000000000000000000000600052604160045260246000fd5b600080fd5b6000601f19601f8301169050919050565b7f496e73756666696369656e742062657420616d6f756e74000000000000000000600082015250565b7f4f6e6c792061646d696e2063616e2063616c6c20746869732066756e6374696f60008201527f6e00000000000000000000000000000000000000000000000000000000000000602082015250565b6117918161155a565b811461179c57600080fd5b50565b6117a88161158a565b81146117b357600080fd5b50565b6117bf816115b8565b81146117ca57600080fd5b5056fea2646970667358221220d81a1f1e264f9cd0a13b863963bd2cab6fd6141bd64d6835e99641a0fd4c2dae64736f6c63430008070033",
  "linkReferences": {},
  "deployedLinkReferences": {}
}