{
  "_format": "hh-sol-artifact-1",
  "contractName": "Betting",
  "sourceName": "contracts/BinaryBet.sol",
  "abi": [
    {
      "inputs": [
        {
          "internalType": "string",
          "name": "_gameDescription",
          "type": "string"
        },
        {
          "internalType": "string",
          "name": "_option1Name",
          "type": "string"
        },
        {
          "internalType": "string",
          "name": "_option2Name",
          "type": "string"
        },
        {
          "internalType": "string",
          "name": "_option1LeagueName",
          "type": "string"
        },
        {
          "internalType": "string",
          "name": "_option2LeagueName",
          "type": "string"
        },
        {
          "internalType": "uint256",
          "name": "_matchDateTimestamp",
          "type": "uint256"
        },
        {
          "internalType": "uint256",
          "name": "entranceFee",
          "type": "uint256"
        }
      ],
      "stateMutability": "nonpayable",
      "type": "constructor"
    },
    {
      "inputs": [
        {
          "internalType": "uint256",
          "name": "currentBalance",
          "type": "uint256"
        },
        {
          "internalType": "uint256",
          "name": "numPlayers",
          "type": "uint256"
        },
        {
          "internalType": "bool",
          "name": "gameFinished",
          "type": "bool"
        }
      ],
      "name": "Betting__ExecuteNotNeeded",
      "type": "error"
    },
    {
      "anonymous": false,
      "inputs": [
        {
          "indexed": true,
          "internalType": "address",
          "name": "player",
          "type": "address"
        }
      ],
      "name": "BettingEnter",
      "type": "event"
    },
    {
      "inputs": [],
      "name": "AmountOne",
      "outputs": [
        {
          "internalType": "uint256",
          "name": "",
          "type": "uint256"
        }
      ],
      "stateMutability": "view",
      "type": "function"
    },
    {
      "inputs": [],
      "name": "AmountTwo",
      "outputs": [
        {
          "internalType": "uint256",
          "name": "",
          "type": "uint256"
        }
      ],
      "stateMutability": "view",
      "type": "function"
    },
    {
      "inputs": [],
      "name": "betOnOption1",
      "outputs": [],
      "stateMutability": "payable",
      "type": "function"
    },
    {
      "inputs": [],
      "name": "betOnOption2",
      "outputs": [],
      "stateMutability": "payable",
      "type": "function"
    },
    {
      "inputs": [],
      "name": "checkExecuteReady",
      "outputs": [
        {
          "internalType": "bool",
          "name": "readyToExecute",
          "type": "bool"
        },
        {
          "internalType": "bytes",
          "name": "",
          "type": "bytes"
        }
      ],
      "stateMutability": "view",
      "type": "function"
    },
    {
      "inputs": [
        {
          "internalType": "address",
          "name": "player",
          "type": "address"
        }
      ],
      "name": "checkPlayerExists",
      "outputs": [
        {
          "internalType": "bool",
          "name": "",
          "type": "bool"
        }
      ],
      "stateMutability": "view",
      "type": "function"
    },
    {
      "inputs": [],
      "name": "getAdmin",
      "outputs": [
        {
          "internalType": "address",
          "name": "",
          "type": "address"
        }
      ],
      "stateMutability": "view",
      "type": "function"
    },
    {
      "inputs": [],
      "name": "getCommissionRatio",
      "outputs": [
        {
          "internalType": "uint256",
          "name": "",
          "type": "uint256"
        }
      ],
      "stateMutability": "view",
      "type": "function"
    },
    {
      "inputs": [],
      "name": "getEntranceFee",
      "outputs": [
        {
          "internalType": "uint256",
          "name": "",
          "type": "uint256"
        }
      ],
      "stateMutability": "view",
      "type": "function"
    },
    {
      "inputs": [],
      "name": "getGameFinished",
      "outputs": [
        {
          "internalType": "bool",
          "name": "",
          "type": "bool"
        }
      ],
      "stateMutability": "view",
      "type": "function"
    },
    {
      "inputs": [],
      "name": "getMatchDateTimestamp",
      "outputs": [
        {
          "internalType": "uint256",
          "name": "",
          "type": "uint256"
        }
      ],
      "stateMutability": "view",
      "type": "function"
    },
    {
      "inputs": [],
      "name": "getNumberOfPlayers",
      "outputs": [
        {
          "internalType": "uint256",
          "name": "",
          "type": "uint256"
        }
      ],
      "stateMutability": "view",
      "type": "function"
    },
    {
      "inputs": [],
      "name": "getOption1LeagueName",
      "outputs": [
        {
          "internalType": "string",
          "name": "",
          "type": "string"
        }
      ],
      "stateMutability": "view",
      "type": "function"
    },
    {
      "inputs": [],
      "name": "getOption1Name",
      "outputs": [
        {
          "internalType": "string",
          "name": "",
          "type": "string"
        }
      ],
      "stateMutability": "view",
      "type": "function"
    },
    {
      "inputs": [],
      "name": "getOption2LeagueName",
      "outputs": [
        {
          "internalType": "string",
          "name": "",
          "type": "string"
        }
      ],
      "stateMutability": "view",
      "type": "function"
    },
    {
      "inputs": [],
      "name": "getOption2Name",
      "outputs": [
        {
          "internalType": "string",
          "name": "",
          "type": "string"
        }
      ],
      "stateMutability": "view",
      "type": "function"
    },
    {
      "inputs": [
        {
          "internalType": "uint256",
          "name": "index",
          "type": "uint256"
        }
      ],
      "name": "getPlayerInfo",
      "outputs": [
        {
          "internalType": "address",
          "name": "",
          "type": "address"
        }
      ],
      "stateMutability": "view",
      "type": "function"
    },
    {
      "inputs": [],
      "name": "getStartTimestamp",
      "outputs": [
        {
          "internalType": "uint256",
          "name": "",
          "type": "uint256"
        }
      ],
      "stateMutability": "view",
      "type": "function"
    },
    {
      "inputs": [
        {
          "internalType": "uint16",
          "name": "oraclemsg",
          "type": "uint16"
        }
      ],
      "name": "performExecute",
      "outputs": [],
      "stateMutability": "nonpayable",
      "type": "function"
    },
    {
      "inputs": [
        {
          "internalType": "string",
          "name": "_gameDescription",
          "type": "string"
        },
        {
          "internalType": "string",
          "name": "_option1Name",
          "type": "string"
        },
        {
          "internalType": "string",
          "name": "_option1LeagueName",
          "type": "string"
        },
        {
          "internalType": "string",
          "name": "_option2Name",
          "type": "string"
        },
        {
          "internalType": "string",
          "name": "_option2LeagueName",
          "type": "string"
        },
        {
          "internalType": "uint256",
          "name": "_matchDateTimestamp",
          "type": "uint256"
        }
      ],
      "name": "reopenGame",
      "outputs": [],
      "stateMutability": "nonpayable",
      "type": "function"
    }
  ],
  "bytecode": "0x60806040526005600f553480156200001657600080fd5b50604051620029163803806200291683398181016040528101906200003c919062000345565b806000819055506000600660146101000a81548160ff021916908315150217905550426003819055508160048190555033600660006101000a81548173ffffffffffffffffffffffffffffffffffffffff021916908373ffffffffffffffffffffffffffffffffffffffff1602179055508660079081620000be9190620006d4565b508560089081620000d09190620006d4565b508460099081620000e29190620006d4565b5083600a9081620000f49190620006d4565b5082600b9081620001069190620006d4565b50600660009054906101000a900473ffffffffffffffffffffffffffffffffffffffff16600560006101000a81548173ffffffffffffffffffffffffffffffffffffffff021916908373ffffffffffffffffffffffffffffffffffffffff16021790555050505050505050620007bb565b6000604051905090565b600080fd5b600080fd5b600080fd5b600080fd5b6000601f19601f8301169050919050565b7f4e487b7100000000000000000000000000000000000000000000000000000000600052604160045260246000fd5b620001e08262000195565b810181811067ffffffffffffffff82111715620002025762000201620001a6565b5b80604052505050565b60006200021762000177565b9050620002258282620001d5565b919050565b600067ffffffffffffffff821115620002485762000247620001a6565b5b620002538262000195565b9050602081019050919050565b60005b838110156200028057808201518184015260208101905062000263565b60008484015250505050565b6000620002a36200029d846200022a565b6200020b565b905082815260208101848484011115620002c257620002c162000190565b5b620002cf84828562000260565b509392505050565b600082601f830112620002ef57620002ee6200018b565b5b8151620003018482602086016200028c565b91505092915050565b6000819050919050565b6200031f816200030a565b81146200032b57600080fd5b50565b6000815190506200033f8162000314565b92915050565b600080600080600080600060e0888a03121562000367576200036662000181565b5b600088015167ffffffffffffffff81111562000388576200038762000186565b5b620003968a828b01620002d7565b975050602088015167ffffffffffffffff811115620003ba57620003b962000186565b5b620003c88a828b01620002d7565b965050604088015167ffffffffffffffff811115620003ec57620003eb62000186565b5b620003fa8a828b01620002d7565b955050606088015167ffffffffffffffff8111156200041e576200041d62000186565b5b6200042c8a828b01620002d7565b945050608088015167ffffffffffffffff81111562000450576200044f62000186565b5b6200045e8a828b01620002d7565b93505060a0620004718a828b016200032e565b92505060c0620004848a828b016200032e565b91505092959891949750929550565b600081519050919050565b7f4e487b7100000000000000000000000000000000000000000000000000000000600052602260045260246000fd5b60006002820490506001821680620004e657607f821691505b602082108103620004fc57620004fb6200049e565b5b50919050565b60008190508160005260206000209050919050565b60006020601f8301049050919050565b600082821b905092915050565b600060088302620005667fffffffffffffffffffffffffffffffffffffffffffffffffffffffffffffffff8262000527565b62000572868362000527565b95508019841693508086168417925050509392505050565b6000819050919050565b6000620005b5620005af620005a9846200030a565b6200058a565b6200030a565b9050919050565b6000819050919050565b620005d18362000594565b620005e9620005e082620005bc565b84845462000534565b825550505050565b600090565b62000600620005f1565b6200060d818484620005c6565b505050565b5b81811015620006355762000629600082620005f6565b60018101905062000613565b5050565b601f82111562000684576200064e8162000502565b620006598462000517565b8101602085101562000669578190505b62000681620006788562000517565b83018262000612565b50505b505050565b600082821c905092915050565b6000620006a96000198460080262000689565b1980831691505092915050565b6000620006c4838362000696565b9150826002028217905092915050565b620006df8262000493565b67ffffffffffffffff811115620006fb57620006fa620001a6565b5b620007078254620004cd565b6200071482828562000639565b600060209050601f8311600181146200074c576000841562000737578287015190505b620007438582620006b6565b865550620007b3565b601f1984166200075c8662000502565b60005b8281101562000786578489015182556001820191506020850194506020810190506200075f565b86831015620007a65784890151620007a2601f89168262000696565b8355505b6001600288020188555050505b505050505050565b61214b80620007cb6000396000f3fe60806040526004361061011f5760003560e01c80634996d51d116100a05780637dc6e841116100645780637dc6e84114610397578063c8539808146103c2578063ea17532e146103cc578063fd6673f514610409578063fdbe6667146104345761011f565b80634996d51d146102c157806365733592146102ec578063676f6474146103175780636e9960c314610343578063777cd2471461036e5761011f565b80632aae3630116100e75780632aae3630146101da5780632b74e9bd146102055780632f9f65f6146102305780633ca53bba1461025b5780634081d916146102845761011f565b806309bc33a7146101245780630ca740401461014f5780631385f1a9146101595780631f89f25e1461018457806327f0cbc0146101af575b600080fd5b34801561013057600080fd5b5061013961045f565b6040516101469190611587565b60405180910390f35b610157610468565b005b34801561016557600080fd5b5061016e6106af565b60405161017b9190611632565b60405180910390f35b34801561019057600080fd5b50610199610741565b6040516101a69190611587565b60405180910390f35b3480156101bb57600080fd5b506101c461074b565b6040516101d1919061166f565b60405180910390f35b3480156101e657600080fd5b506101ef610762565b6040516101fc9190611632565b60405180910390f35b34801561021157600080fd5b5061021a6107f4565b6040516102279190611587565b60405180910390f35b34801561023c57600080fd5b506102456107fe565b6040516102529190611632565b60405180910390f35b34801561026757600080fd5b50610282600480360381019061027d91906116d8565b610890565b005b34801561029057600080fd5b506102ab60048036038101906102a69190611763565b610994565b6040516102b8919061166f565b60405180910390f35b3480156102cd57600080fd5b506102d6610a45565b6040516102e39190611587565b60405180910390f35b3480156102f857600080fd5b50610301610a4f565b60405161030e9190611587565b60405180910390f35b34801561032357600080fd5b5061032c610a59565b60405161033a9291906117e5565b60405180910390f35b34801561034f57600080fd5b50610358610aff565b6040516103659190611824565b60405180910390f35b34801561037a57600080fd5b50610395600480360381019061039091906119a0565b610b29565b005b3480156103a357600080fd5b506103ac610d87565b6040516103b99190611632565b60405180910390f35b6103ca610e19565b005b3480156103d857600080fd5b506103f360048036038101906103ee9190611ab9565b611060565b6040516104009190611824565b60405180910390f35b34801561041557600080fd5b5061041e6110a8565b60405161042b9190611587565b60405180910390f35b34801561044057600080fd5b506104496110b5565b6040516104569190611587565b60405180910390f35b60008054905090565b60045442106104ac576040517f08c379a00000000000000000000000000000000000000000000000000000000081526004016104a390611b32565b60405180910390fd5b600660149054906101000a900460ff16156104c657600080fd5b60005434101561050b576040517f08c379a000000000000000000000000000000000000000000000000000000000815260040161050290611b9e565b60405180910390fd5b61051433610994565b1561051e57600080fd5b60006064600f5460646105319190611bed565b3461053c9190611c21565b6105469190611c92565b905080600c60003373ffffffffffffffffffffffffffffffffffffffff1673ffffffffffffffffffffffffffffffffffffffff168152602001908152602001600020600001819055506001600c60003373ffffffffffffffffffffffffffffffffffffffff1673ffffffffffffffffffffffffffffffffffffffff16815260200190815260200160002060010160006101000a81548161ffff021916908361ffff160217905550600d339080600181540180825580915050600190039060005260206000200160009091909190916101000a81548173ffffffffffffffffffffffffffffffffffffffff021916908373ffffffffffffffffffffffffffffffffffffffff16021790555080600160008282546106629190611cc3565b925050819055503373ffffffffffffffffffffffffffffffffffffffff167f7f47e4b864ee52d8ca461d379020be7e99ae801a152dde71193bdc651da8a7c060405160405180910390a250565b6060600a80546106be90611d26565b80601f01602080910402602001604051908101604052809291908181526020018280546106ea90611d26565b80156107375780601f1061070c57610100808354040283529160200191610737565b820191906000526020600020905b81548152906001019060200180831161071a57829003601f168201915b5050505050905090565b6000600354905090565b6000600660149054906101000a900460ff16905090565b60606008805461077190611d26565b80601f016020809104026020016040519081016040528092919081815260200182805461079d90611d26565b80156107ea5780601f106107bf576101008083540402835291602001916107ea565b820191906000526020600020905b8154815290600101906020018083116107cd57829003601f168201915b5050505050905090565b6000600454905090565b6060600b805461080d90611d26565b80601f016020809104026020016040519081016040528092919081815260200182805461083990611d26565b80156108865780601f1061085b57610100808354040283529160200191610886565b820191906000526020600020905b81548152906001019060200180831161086957829003601f168201915b5050505050905090565b600660009054906101000a900473ffffffffffffffffffffffffffffffffffffffff1673ffffffffffffffffffffffffffffffffffffffff163373ffffffffffffffffffffffffffffffffffffffff1614610920576040517f08c379a000000000000000000000000000000000000000000000000000000000815260040161091790611dc9565b60405180910390fd5b600061092a610a59565b509050806109875747600d80549050600660149054906101000a900460ff166040517f0f72495400000000000000000000000000000000000000000000000000000000815260040161097e93929190611de9565b60405180910390fd5b610990826110bf565b5050565b600080600d80549050905060005b81811015610a39578373ffffffffffffffffffffffffffffffffffffffff16600d82815481106109d5576109d4611e20565b5b9060005260206000200160009054906101000a900473ffffffffffffffffffffffffffffffffffffffff1673ffffffffffffffffffffffffffffffffffffffff1603610a2657600192505050610a40565b8080610a3190611e4f565b9150506109a2565b5060009150505b919050565b6000600154905090565b6000600254905090565b600060606000801515600660149054906101000a900460ff16151514905060008060045442610a889190611bed565b119050600080600d8054905011905060008047119050828015610aa85750835b8015610ab15750805b8015610aba5750815b9550856040518060400160405280600381526020017f307830000000000000000000000000000000000000000000000000000000000081525095509550505050509091565b6000600660009054906101000a900473ffffffffffffffffffffffffffffffffffffffff16905090565b600660009054906101000a900473ffffffffffffffffffffffffffffffffffffffff1673ffffffffffffffffffffffffffffffffffffffff163373ffffffffffffffffffffffffffffffffffffffff1614610bb9576040517f08c379a0000000000000000000000000000000000000000000000000000000008152600401610bb090611dc9565b60405180910390fd5b60005b600d80549050811015610c7957600c6000600d8381548110610be157610be0611e20565b5b9060005260206000200160009054906101000a900473ffffffffffffffffffffffffffffffffffffffff1673ffffffffffffffffffffffffffffffffffffffff1673ffffffffffffffffffffffffffffffffffffffff1681526020019081526020016000206000808201600090556001820160006101000a81549061ffff021916905550508080610c7190611e4f565b915050610bbc565b50600d6000610c8891906114a6565b600e6000610c9691906114a6565b600060018190555060006002819055506000600660146101000a81548160ff0219169083151502179055508560079081610cd09190612043565b508460089081610ce09190612043565b5083600a9081610cf09190612043565b508260099081610d009190612043565b5081600b9081610d109190612043565b5080600481905550600067ffffffffffffffff811115610d3357610d32611849565b5b604051908082528060200260200182016040528015610d615781602001602082028036833780820191505090505b50600d9080519060200190610d779291906114c7565b5042600381905550505050505050565b606060098054610d9690611d26565b80601f0160208091040260200160405190810160405280929190818152602001828054610dc290611d26565b8015610e0f5780601f10610de457610100808354040283529160200191610e0f565b820191906000526020600020905b815481529060010190602001808311610df257829003601f168201915b5050505050905090565b6004544210610e5d576040517f08c379a0000000000000000000000000000000000000000000000000000000008152600401610e5490611b32565b60405180910390fd5b600660149054906101000a900460ff1615610e7757600080fd5b600054341015610ebc576040517f08c379a0000000000000000000000000000000000000000000000000000000008152600401610eb390611b9e565b60405180910390fd5b610ec533610994565b15610ecf57600080fd5b60006064600f546064610ee29190611bed565b34610eed9190611c21565b610ef79190611c92565b905080600c60003373ffffffffffffffffffffffffffffffffffffffff1673ffffffffffffffffffffffffffffffffffffffff168152602001908152602001600020600001819055506002600c60003373ffffffffffffffffffffffffffffffffffffffff1673ffffffffffffffffffffffffffffffffffffffff16815260200190815260200160002060010160006101000a81548161ffff021916908361ffff160217905550600d339080600181540180825580915050600190039060005260206000200160009091909190916101000a81548173ffffffffffffffffffffffffffffffffffffffff021916908373ffffffffffffffffffffffffffffffffffffffff16021790555080600160008282546110139190611cc3565b925050819055503373ffffffffffffffffffffffffffffffffffffffff167f7f47e4b864ee52d8ca461d379020be7e99ae801a152dde71193bdc651da8a7c060405160405180910390a250565b6000600d828154811061107657611075611e20565b5b9060005260206000200160009054906101000a900473ffffffffffffffffffffffffffffffffffffffff169050919050565b6000600d80549050905090565b6000600f54905090565b600660009054906101000a900473ffffffffffffffffffffffffffffffffffffffff1673ffffffffffffffffffffffffffffffffffffffff163373ffffffffffffffffffffffffffffffffffffffff161461114f576040517f08c379a000000000000000000000000000000000000000000000000000000000815260040161114690611dc9565b60405180910390fd5b600080600080600080600090505b600d8054905081101561128157600d818154811061117e5761117d611e20565b5b9060005260206000200160009054906101000a900473ffffffffffffffffffffffffffffffffffffffff1691508661ffff16600c60008473ffffffffffffffffffffffffffffffffffffffff1673ffffffffffffffffffffffffffffffffffffffff16815260200190815260200160002060010160009054906101000a900461ffff1661ffff160361126e57600e829080600181540180825580915050600190039060005260206000200160009091909190916101000a81548173ffffffffffffffffffffffffffffffffffffffff021916908373ffffffffffffffffffffffffffffffffffffffff1602179055505b808061127990611e4f565b91505061115d565b5060018661ffff160361129d57600254945060015493506112a8565b600154945060025493505b60005b600e8054905081101561141957600e81815481106112cc576112cb611e20565b5b9060005260206000200160009054906101000a900473ffffffffffffffffffffffffffffffffffffffff169350600c60008573ffffffffffffffffffffffffffffffffffffffff1673ffffffffffffffffffffffffffffffffffffffff168152602001908152602001600020600001549250600061271086612710896113529190611c21565b61135c9190611c92565b6127106113699190611cc3565b856113749190611c21565b61137e9190611c92565b9050600e828154811061139457611393611e20565b5b9060005260206000200160009054906101000a900473ffffffffffffffffffffffffffffffffffffffff1673ffffffffffffffffffffffffffffffffffffffff166108fc829081150290604051600060405180830381858888f19350505050158015611404573d6000803e3d6000fd5b5050808061141190611e4f565b9150506112ab565b50600560009054906101000a900473ffffffffffffffffffffffffffffffffffffffff1673ffffffffffffffffffffffffffffffffffffffff166108fc479081150290604051600060405180830381858888f19350505050158015611482573d6000803e3d6000fd5b506001600660146101000a81548160ff021916908315150217905550505050505050565b50805460008255906000526020600020908101906114c49190611551565b50565b828054828255906000526020600020908101928215611540579160200282015b8281111561153f5782518260006101000a81548173ffffffffffffffffffffffffffffffffffffffff021916908373ffffffffffffffffffffffffffffffffffffffff160217905550916020019190600101906114e7565b5b50905061154d9190611551565b5090565b5b8082111561156a576000816000905550600101611552565b5090565b6000819050919050565b6115818161156e565b82525050565b600060208201905061159c6000830184611578565b92915050565b600081519050919050565b600082825260208201905092915050565b60005b838110156115dc5780820151818401526020810190506115c1565b60008484015250505050565b6000601f19601f8301169050919050565b6000611604826115a2565b61160e81856115ad565b935061161e8185602086016115be565b611627816115e8565b840191505092915050565b6000602082019050818103600083015261164c81846115f9565b905092915050565b60008115159050919050565b61166981611654565b82525050565b60006020820190506116846000830184611660565b92915050565b6000604051905090565b600080fd5b600080fd5b600061ffff82169050919050565b6116b58161169e565b81146116c057600080fd5b50565b6000813590506116d2816116ac565b92915050565b6000602082840312156116ee576116ed611694565b5b60006116fc848285016116c3565b91505092915050565b600073ffffffffffffffffffffffffffffffffffffffff82169050919050565b600061173082611705565b9050919050565b61174081611725565b811461174b57600080fd5b50565b60008135905061175d81611737565b92915050565b60006020828403121561177957611778611694565b5b60006117878482850161174e565b91505092915050565b600081519050919050565b600082825260208201905092915050565b60006117b782611790565b6117c1818561179b565b93506117d18185602086016115be565b6117da816115e8565b840191505092915050565b60006040820190506117fa6000830185611660565b818103602083015261180c81846117ac565b90509392505050565b61181e81611725565b82525050565b60006020820190506118396000830184611815565b92915050565b600080fd5b600080fd5b7f4e487b7100000000000000000000000000000000000000000000000000000000600052604160045260246000fd5b611881826115e8565b810181811067ffffffffffffffff821117156118a05761189f611849565b5b80604052505050565b60006118b361168a565b90506118bf8282611878565b919050565b600067ffffffffffffffff8211156118df576118de611849565b5b6118e8826115e8565b9050602081019050919050565b82818337600083830152505050565b6000611917611912846118c4565b6118a9565b90508281526020810184848401111561193357611932611844565b5b61193e8482856118f5565b509392505050565b600082601f83011261195b5761195a61183f565b5b813561196b848260208601611904565b91505092915050565b61197d8161156e565b811461198857600080fd5b50565b60008135905061199a81611974565b92915050565b60008060008060008060c087890312156119bd576119bc611694565b5b600087013567ffffffffffffffff8111156119db576119da611699565b5b6119e789828a01611946565b965050602087013567ffffffffffffffff811115611a0857611a07611699565b5b611a1489828a01611946565b955050604087013567ffffffffffffffff811115611a3557611a34611699565b5b611a4189828a01611946565b945050606087013567ffffffffffffffff811115611a6257611a61611699565b5b611a6e89828a01611946565b935050608087013567ffffffffffffffff811115611a8f57611a8e611699565b5b611a9b89828a01611946565b92505060a0611aac89828a0161198b565b9150509295509295509295565b600060208284031215611acf57611ace611694565b5b6000611add8482850161198b565b91505092915050565b7f54686520646561646c696e652068617320706173736564000000000000000000600082015250565b6000611b1c6017836115ad565b9150611b2782611ae6565b602082019050919050565b60006020820190508181036000830152611b4b81611b0f565b9050919050565b7f496e73756666696369656e742062657420616d6f756e74000000000000000000600082015250565b6000611b886017836115ad565b9150611b9382611b52565b602082019050919050565b60006020820190508181036000830152611bb781611b7b565b9050919050565b7f4e487b7100000000000000000000000000000000000000000000000000000000600052601160045260246000fd5b6000611bf88261156e565b9150611c038361156e565b9250828203905081811115611c1b57611c1a611bbe565b5b92915050565b6000611c2c8261156e565b9150611c378361156e565b9250828202611c458161156e565b91508282048414831517611c5c57611c5b611bbe565b5b5092915050565b7f4e487b7100000000000000000000000000000000000000000000000000000000600052601260045260246000fd5b6000611c9d8261156e565b9150611ca88361156e565b925082611cb857611cb7611c63565b5b828204905092915050565b6000611cce8261156e565b9150611cd98361156e565b9250828201905080821115611cf157611cf0611bbe565b5b92915050565b7f4e487b7100000000000000000000000000000000000000000000000000000000600052602260045260246000fd5b60006002820490506001821680611d3e57607f821691505b602082108103611d5157611d50611cf7565b5b50919050565b7f4f6e6c792061646d696e2063616e2063616c6c20746869732066756e6374696f60008201527f6e00000000000000000000000000000000000000000000000000000000000000602082015250565b6000611db36021836115ad565b9150611dbe82611d57565b604082019050919050565b60006020820190508181036000830152611de281611da6565b9050919050565b6000606082019050611dfe6000830186611578565b611e0b6020830185611578565b611e186040830184611660565b949350505050565b7f4e487b7100000000000000000000000000000000000000000000000000000000600052603260045260246000fd5b6000611e5a8261156e565b91507fffffffffffffffffffffffffffffffffffffffffffffffffffffffffffffffff8203611e8c57611e8b611bbe565b5b600182019050919050565b60008190508160005260206000209050919050565b60006020601f8301049050919050565b600082821b905092915050565b600060088302611ef97fffffffffffffffffffffffffffffffffffffffffffffffffffffffffffffffff82611ebc565b611f038683611ebc565b95508019841693508086168417925050509392505050565b6000819050919050565b6000611f40611f3b611f368461156e565b611f1b565b61156e565b9050919050565b6000819050919050565b611f5a83611f25565b611f6e611f6682611f47565b848454611ec9565b825550505050565b600090565b611f83611f76565b611f8e818484611f51565b505050565b5b81811015611fb257611fa7600082611f7b565b600181019050611f94565b5050565b601f821115611ff757611fc881611e97565b611fd184611eac565b81016020851015611fe0578190505b611ff4611fec85611eac565b830182611f93565b50505b505050565b600082821c905092915050565b600061201a60001984600802611ffc565b1980831691505092915050565b60006120338383612009565b9150826002028217905092915050565b61204c826115a2565b67ffffffffffffffff81111561206557612064611849565b5b61206f8254611d26565b61207a828285611fb6565b600060209050601f8311600181146120ad576000841561209b578287015190505b6120a58582612027565b86555061210d565b601f1984166120bb86611e97565b60005b828110156120e3578489015182556001820191506020850194506020810190506120be565b8683101561210057848901516120fc601f891682612009565b8355505b6001600288020188555050505b50505050505056fea264697066735822122024c26397e8fc81e52b67e0333450ecfa603228531fc8acf75f76a31d5751775964736f6c63430008110033",
  "linkReferences": {},
  "deployedLinkReferences": {}
}