{
  "_format": "hh-sol-artifact-1",
  "contractName": "Betting",
  "sourceName": "contracts/BinaryBet.sol",
  "abi": [
    {
      "inputs": [
        {
          "internalType": "string",
          "name": "_gameDescription",
          "type": "string"
        },
        {
          "internalType": "string",
          "name": "_option1Name",
          "type": "string"
        },
        {
          "internalType": "string",
          "name": "_option2Name",
          "type": "string"
        },
        {
          "internalType": "string",
          "name": "_option1LeagueName",
          "type": "string"
        },
        {
          "internalType": "string",
          "name": "_option2LeagueName",
          "type": "string"
        },
        {
          "internalType": "uint256",
          "name": "_matchDateTimestamp",
          "type": "uint256"
        },
        {
          "internalType": "uint256",
          "name": "entranceFee",
          "type": "uint256"
        }
      ],
      "stateMutability": "nonpayable",
      "type": "constructor"
    },
    {
      "inputs": [
        {
          "internalType": "uint256",
          "name": "currentBalance",
          "type": "uint256"
        },
        {
          "internalType": "uint256",
          "name": "numPlayers",
          "type": "uint256"
        },
        {
          "internalType": "bool",
          "name": "gameFinished",
          "type": "bool"
        }
      ],
      "name": "Betting__ExecuteNotNeeded",
      "type": "error"
    },
    {
      "anonymous": false,
      "inputs": [
        {
          "indexed": true,
          "internalType": "address",
          "name": "player",
          "type": "address"
        }
      ],
      "name": "BettingEnter",
      "type": "event"
    },
    {
      "inputs": [],
      "name": "AmountOne",
      "outputs": [
        {
          "internalType": "uint256",
          "name": "",
          "type": "uint256"
        }
      ],
      "stateMutability": "view",
      "type": "function"
    },
    {
      "inputs": [],
      "name": "AmountTwo",
      "outputs": [
        {
          "internalType": "uint256",
          "name": "",
          "type": "uint256"
        }
      ],
      "stateMutability": "view",
      "type": "function"
    },
    {
      "inputs": [],
      "name": "betOnOption1",
      "outputs": [],
      "stateMutability": "payable",
      "type": "function"
    },
    {
      "inputs": [],
      "name": "betOnOption2",
      "outputs": [],
      "stateMutability": "payable",
      "type": "function"
    },
    {
      "inputs": [],
      "name": "checkExecuteReady",
      "outputs": [
        {
          "internalType": "bool",
          "name": "readyToExecute",
          "type": "bool"
        },
        {
          "internalType": "bytes",
          "name": "",
          "type": "bytes"
        }
      ],
      "stateMutability": "view",
      "type": "function"
    },
    {
      "inputs": [
        {
          "internalType": "address",
          "name": "player",
          "type": "address"
        }
      ],
      "name": "checkPlayerExists",
      "outputs": [
        {
          "internalType": "bool",
          "name": "",
          "type": "bool"
        }
      ],
      "stateMutability": "view",
      "type": "function"
    },
    {
      "inputs": [],
      "name": "gameDescription",
      "outputs": [
        {
          "internalType": "string",
          "name": "",
          "type": "string"
        }
      ],
      "stateMutability": "view",
      "type": "function"
    },
    {
      "inputs": [],
      "name": "gameFinished",
      "outputs": [
        {
          "internalType": "bool",
          "name": "",
          "type": "bool"
        }
      ],
      "stateMutability": "view",
      "type": "function"
    },
    {
      "inputs": [],
      "name": "getAdmin",
      "outputs": [
        {
          "internalType": "address",
          "name": "",
          "type": "address"
        }
      ],
      "stateMutability": "view",
      "type": "function"
    },
    {
      "inputs": [],
      "name": "getCommissionRatio",
      "outputs": [
        {
          "internalType": "uint256",
          "name": "",
          "type": "uint256"
        }
      ],
      "stateMutability": "view",
      "type": "function"
    },
    {
      "inputs": [],
      "name": "getEntranceFee",
      "outputs": [
        {
          "internalType": "uint256",
          "name": "",
          "type": "uint256"
        }
      ],
      "stateMutability": "view",
      "type": "function"
    },
    {
      "inputs": [],
      "name": "getGameFinished",
      "outputs": [
        {
          "internalType": "bool",
          "name": "",
          "type": "bool"
        }
      ],
      "stateMutability": "view",
      "type": "function"
    },
    {
      "inputs": [],
      "name": "getMatchDateTimestamp",
      "outputs": [
        {
          "internalType": "uint256",
          "name": "",
          "type": "uint256"
        }
      ],
      "stateMutability": "view",
      "type": "function"
    },
    {
      "inputs": [],
      "name": "getNumberOfPlayers",
      "outputs": [
        {
          "internalType": "uint256",
          "name": "",
          "type": "uint256"
        }
      ],
      "stateMutability": "view",
      "type": "function"
    },
    {
      "inputs": [],
      "name": "getOption1LeagueName",
      "outputs": [
        {
          "internalType": "string",
          "name": "",
          "type": "string"
        }
      ],
      "stateMutability": "view",
      "type": "function"
    },
    {
      "inputs": [],
      "name": "getOption1Name",
      "outputs": [
        {
          "internalType": "string",
          "name": "",
          "type": "string"
        }
      ],
      "stateMutability": "view",
      "type": "function"
    },
    {
      "inputs": [],
      "name": "getOption2LeagueName",
      "outputs": [
        {
          "internalType": "string",
          "name": "",
          "type": "string"
        }
      ],
      "stateMutability": "view",
      "type": "function"
    },
    {
      "inputs": [],
      "name": "getOption2Name",
      "outputs": [
        {
          "internalType": "string",
          "name": "",
          "type": "string"
        }
      ],
      "stateMutability": "view",
      "type": "function"
    },
    {
      "inputs": [
        {
          "internalType": "uint256",
          "name": "index",
          "type": "uint256"
        }
      ],
      "name": "getPlayerInfo",
      "outputs": [
        {
          "internalType": "address",
          "name": "",
          "type": "address"
        }
      ],
      "stateMutability": "view",
      "type": "function"
    },
    {
      "inputs": [],
      "name": "getStartTimestamp",
      "outputs": [
        {
          "internalType": "uint256",
          "name": "",
          "type": "uint256"
        }
      ],
      "stateMutability": "view",
      "type": "function"
    },
    {
      "inputs": [],
      "name": "option1LeagueName",
      "outputs": [
        {
          "internalType": "string",
          "name": "",
          "type": "string"
        }
      ],
      "stateMutability": "view",
      "type": "function"
    },
    {
      "inputs": [],
      "name": "option1Name",
      "outputs": [
        {
          "internalType": "string",
          "name": "",
          "type": "string"
        }
      ],
      "stateMutability": "view",
      "type": "function"
    },
    {
      "inputs": [],
      "name": "option2LeagueName",
      "outputs": [
        {
          "internalType": "string",
          "name": "",
          "type": "string"
        }
      ],
      "stateMutability": "view",
      "type": "function"
    },
    {
      "inputs": [],
      "name": "option2Name",
      "outputs": [
        {
          "internalType": "string",
          "name": "",
          "type": "string"
        }
      ],
      "stateMutability": "view",
      "type": "function"
    },
    {
      "inputs": [],
      "name": "owner",
      "outputs": [
        {
          "internalType": "address payable",
          "name": "",
          "type": "address"
        }
      ],
      "stateMutability": "view",
      "type": "function"
    },
    {
      "inputs": [
        {
          "internalType": "uint16",
          "name": "oraclemsg",
          "type": "uint16"
        }
      ],
      "name": "performExecute",
      "outputs": [],
      "stateMutability": "nonpayable",
      "type": "function"
    },
    {
      "inputs": [
        {
          "internalType": "address",
          "name": "",
          "type": "address"
        }
      ],
      "name": "playerInfo",
      "outputs": [
        {
          "internalType": "uint256",
          "name": "amountBet",
          "type": "uint256"
        },
        {
          "internalType": "uint16",
          "name": "teamSelected",
          "type": "uint16"
        }
      ],
      "stateMutability": "view",
      "type": "function"
    },
    {
      "inputs": [
        {
          "internalType": "uint256",
          "name": "",
          "type": "uint256"
        }
      ],
      "name": "players",
      "outputs": [
        {
          "internalType": "address payable",
          "name": "",
          "type": "address"
        }
      ],
      "stateMutability": "view",
      "type": "function"
    },
    {
      "inputs": [
        {
          "internalType": "string",
          "name": "_gameDescription",
          "type": "string"
        },
        {
          "internalType": "string",
          "name": "_option1Name",
          "type": "string"
        },
        {
          "internalType": "string",
          "name": "_option2Name",
          "type": "string"
        },
        {
          "internalType": "uint256",
          "name": "_matchDateTimestamp",
          "type": "uint256"
        }
      ],
      "name": "reopenGame",
      "outputs": [],
      "stateMutability": "nonpayable",
      "type": "function"
    }
  ],
  "bytecode": "0x60806040526005600f553480156200001657600080fd5b5060405162002a4c38038062002a4c83398181016040528101906200003c9190620002df565b806000819055506000600660146101000a81548160ff021916908315150217905550426003819055508160048190555033600660006101000a81548173ffffffffffffffffffffffffffffffffffffffff021916908373ffffffffffffffffffffffffffffffffffffffff1602179055508660079080519060200190620000c59291906200019a565b508560089080519060200190620000de9291906200019a565b508460099080519060200190620000f79291906200019a565b5083600a9080519060200190620001109291906200019a565b5082600b9080519060200190620001299291906200019a565b50600660009054906101000a900473ffffffffffffffffffffffffffffffffffffffff16600560006101000a81548173ffffffffffffffffffffffffffffffffffffffff021916908373ffffffffffffffffffffffffffffffffffffffff16021790555050505050505050620005d5565b828054620001a890620004cc565b90600052602060002090601f016020900481019282620001cc576000855562000218565b82601f10620001e757805160ff191683800117855562000218565b8280016001018555821562000218579182015b8281111562000217578251825591602001919060010190620001fa565b5b5090506200022791906200022b565b5090565b5b80821115620002465760008160009055506001016200022c565b5090565b6000620002616200025b8462000456565b6200042d565b90508281526020810184848401111562000280576200027f6200059b565b5b6200028d84828562000496565b509392505050565b600082601f830112620002ad57620002ac62000596565b5b8151620002bf8482602086016200024a565b91505092915050565b600081519050620002d981620005bb565b92915050565b600080600080600080600060e0888a031215620003015762000300620005a5565b5b600088015167ffffffffffffffff811115620003225762000321620005a0565b5b620003308a828b0162000295565b975050602088015167ffffffffffffffff811115620003545762000353620005a0565b5b620003628a828b0162000295565b965050604088015167ffffffffffffffff811115620003865762000385620005a0565b5b620003948a828b0162000295565b955050606088015167ffffffffffffffff811115620003b857620003b7620005a0565b5b620003c68a828b0162000295565b945050608088015167ffffffffffffffff811115620003ea57620003e9620005a0565b5b620003f88a828b0162000295565b93505060a06200040b8a828b01620002c8565b92505060c06200041e8a828b01620002c8565b91505092959891949750929550565b6000620004396200044c565b905062000447828262000502565b919050565b6000604051905090565b600067ffffffffffffffff82111562000474576200047362000567565b5b6200047f82620005aa565b9050602081019050919050565b6000819050919050565b60005b83811015620004b657808201518184015260208101905062000499565b83811115620004c6576000848401525b50505050565b60006002820490506001821680620004e557607f821691505b60208210811415620004fc57620004fb62000538565b5b50919050565b6200050d82620005aa565b810181811067ffffffffffffffff821117156200052f576200052e62000567565b5b80604052505050565b7f4e487b7100000000000000000000000000000000000000000000000000000000600052602260045260246000fd5b7f4e487b7100000000000000000000000000000000000000000000000000000000600052604160045260246000fd5b600080fd5b600080fd5b600080fd5b600080fd5b6000601f19601f8301169050919050565b620005c6816200048c565b8114620005d257600080fd5b50565b61246780620005e56000396000f3fe6080604052600436106101c25760003560e01c806365733592116100f7578063c853980811610095578063f71d96cb11610064578063f71d96cb146105ec578063fd6673f514610629578063fdbe666714610654578063fec04cc71461067f576101c2565b8063c853980814610551578063d4dbdc321461055b578063ea17532e14610584578063f0f32497146105c1576101c2565b80637dc6e841116100d15780637dc6e841146104a55780638b5d691c146104d05780638da5cb5b146104fb578063a4ab4a1914610526576101c2565b80636573359214610423578063676f64741461044e5780636e9960c31461047a576101c2565b80632b74e9bd116101645780634081d9161161013e5780634081d916146103525780634996d51d1461038f5780634b114691146103ba5780635bb68fe8146103f8576101c2565b80632b74e9bd146102d35780632f9f65f6146102fe5780633ca53bba14610329576101c2565b80631385f1a9116101a05780631385f1a9146102275780631f89f25e1461025257806327f0cbc01461027d5780632aae3630146102a8576101c2565b80630632cf6d146101c757806309bc33a7146101f25780630ca740401461021d575b600080fd5b3480156101d357600080fd5b506101dc6106aa565b6040516101e99190611e8e565b60405180910390f35b3480156101fe57600080fd5b50610207610738565b6040516102149190611ef0565b60405180910390f35b610225610741565b005b34801561023357600080fd5b5061023c61093e565b6040516102499190611e8e565b60405180910390f35b34801561025e57600080fd5b506102676109d0565b6040516102749190611ef0565b60405180910390f35b34801561028957600080fd5b506102926109da565b60405161029f9190611e43565b60405180910390f35b3480156102b457600080fd5b506102bd6109f1565b6040516102ca9190611e8e565b60405180910390f35b3480156102df57600080fd5b506102e8610a83565b6040516102f59190611ef0565b60405180910390f35b34801561030a57600080fd5b50610313610a8d565b6040516103209190611e8e565b60405180910390f35b34801561033557600080fd5b50610350600480360381019061034b9190611cb0565b610b1f565b005b34801561035e57600080fd5b5061037960048036038101906103749190611bc8565b610c23565b6040516103869190611e43565b60405180910390f35b34801561039b57600080fd5b506103a4610cd5565b6040516103b19190611ef0565b60405180910390f35b3480156103c657600080fd5b506103e160048036038101906103dc9190611bc8565b610cdf565b6040516103ef929190611f0b565b60405180910390f35b34801561040457600080fd5b5061040d610d11565b60405161041a9190611e8e565b60405180910390f35b34801561042f57600080fd5b50610438610d9f565b6040516104459190611ef0565b60405180910390f35b34801561045a57600080fd5b50610463610da9565b604051610471929190611e5e565b60405180910390f35b34801561048657600080fd5b5061048f610e4f565b60405161049c9190611e0d565b60405180910390f35b3480156104b157600080fd5b506104ba610e79565b6040516104c79190611e8e565b60405180910390f35b3480156104dc57600080fd5b506104e5610f0b565b6040516104f29190611e8e565b60405180910390f35b34801561050757600080fd5b50610510610f99565b60405161051d9190611e28565b60405180910390f35b34801561053257600080fd5b5061053b610fbf565b6040516105489190611e8e565b60405180910390f35b61055961104d565b005b34801561056757600080fd5b50610582600480360381019061057d9190611bf5565b61124a565b005b34801561059057600080fd5b506105ab60048036038101906105a69190611cdd565b6113ae565b6040516105b89190611e0d565b60405180910390f35b3480156105cd57600080fd5b506105d66113f6565b6040516105e39190611e43565b60405180910390f35b3480156105f857600080fd5b50610613600480360381019061060e9190611cdd565b611409565b6040516106209190611e28565b60405180910390f35b34801561063557600080fd5b5061063e611448565b60405161064b9190611ef0565b60405180910390f35b34801561066057600080fd5b50610669611455565b6040516106769190611ef0565b60405180910390f35b34801561068b57600080fd5b5061069461145f565b6040516106a19190611e8e565b60405180910390f35b600880546106b7906121b8565b80601f01602080910402602001604051908101604052809291908181526020018280546106e3906121b8565b80156107305780601f1061070557610100808354040283529160200191610730565b820191906000526020600020905b81548152906001019060200180831161071357829003601f168201915b505050505081565b60008054905090565b61074a33610c23565b1561075457600080fd5b600660149054906101000a900460ff161561076e57600080fd5b6000543410156107b3576040517f08c379a00000000000000000000000000000000000000000000000000000000081526004016107aa90611eb0565b60405180910390fd5b34600c60003373ffffffffffffffffffffffffffffffffffffffff1673ffffffffffffffffffffffffffffffffffffffff168152602001908152602001600020600001819055506001600c60003373ffffffffffffffffffffffffffffffffffffffff1673ffffffffffffffffffffffffffffffffffffffff16815260200190815260200160002060010160006101000a81548161ffff021916908361ffff160217905550600d339080600181540180825580915050600190039060005260206000200160009091909190916101000a81548173ffffffffffffffffffffffffffffffffffffffff021916908373ffffffffffffffffffffffffffffffffffffffff1602179055506064600f5460646108cc91906120da565b346108d79190612080565b6108e1919061204f565b600160008282546108f29190611ff9565b925050819055503373ffffffffffffffffffffffffffffffffffffffff167f7f47e4b864ee52d8ca461d379020be7e99ae801a152dde71193bdc651da8a7c060405160405180910390a2565b6060600a805461094d906121b8565b80601f0160208091040260200160405190810160405280929190818152602001828054610979906121b8565b80156109c65780601f1061099b576101008083540402835291602001916109c6565b820191906000526020600020905b8154815290600101906020018083116109a957829003601f168201915b5050505050905090565b6000600354905090565b6000600660149054906101000a900460ff16905090565b606060088054610a00906121b8565b80601f0160208091040260200160405190810160405280929190818152602001828054610a2c906121b8565b8015610a795780601f10610a4e57610100808354040283529160200191610a79565b820191906000526020600020905b815481529060010190602001808311610a5c57829003601f168201915b5050505050905090565b6000600454905090565b6060600b8054610a9c906121b8565b80601f0160208091040260200160405190810160405280929190818152602001828054610ac8906121b8565b8015610b155780601f10610aea57610100808354040283529160200191610b15565b820191906000526020600020905b815481529060010190602001808311610af857829003601f168201915b5050505050905090565b600660009054906101000a900473ffffffffffffffffffffffffffffffffffffffff1673ffffffffffffffffffffffffffffffffffffffff163373ffffffffffffffffffffffffffffffffffffffff1614610baf576040517f08c379a0000000000000000000000000000000000000000000000000000000008152600401610ba690611ed0565b60405180910390fd5b6000610bb9610da9565b50905080610c165747600d80549050600660149054906101000a900460ff166040517f0f724954000000000000000000000000000000000000000000000000000000008152600401610c0d93929190611f34565b60405180910390fd5b610c1f826114ed565b5050565b600080600d80549050905060005b81811015610cc9578373ffffffffffffffffffffffffffffffffffffffff16600d8281548110610c6457610c636122f1565b5b9060005260206000200160009054906101000a900473ffffffffffffffffffffffffffffffffffffffff1673ffffffffffffffffffffffffffffffffffffffff161415610cb657600192505050610cd0565b8080610cc19061221b565b915050610c31565b5060009150505b919050565b6000600154905090565b600c6020528060005260406000206000915090508060000154908060010160009054906101000a900461ffff16905082565b60098054610d1e906121b8565b80601f0160208091040260200160405190810160405280929190818152602001828054610d4a906121b8565b8015610d975780601f10610d6c57610100808354040283529160200191610d97565b820191906000526020600020905b815481529060010190602001808311610d7a57829003601f168201915b505050505081565b6000600254905090565b600060606000801515600660149054906101000a900460ff16151514905060008060045442610dd891906120da565b119050600080600d8054905011905060008047119050828015610df85750835b8015610e015750805b8015610e0a5750815b9550856040518060400160405280600381526020017f307830000000000000000000000000000000000000000000000000000000000081525095509550505050509091565b6000600660009054906101000a900473ffffffffffffffffffffffffffffffffffffffff16905090565b606060098054610e88906121b8565b80601f0160208091040260200160405190810160405280929190818152602001828054610eb4906121b8565b8015610f015780601f10610ed657610100808354040283529160200191610f01565b820191906000526020600020905b815481529060010190602001808311610ee457829003601f168201915b5050505050905090565b60078054610f18906121b8565b80601f0160208091040260200160405190810160405280929190818152602001828054610f44906121b8565b8015610f915780601f10610f6657610100808354040283529160200191610f91565b820191906000526020600020905b815481529060010190602001808311610f7457829003601f168201915b505050505081565b600560009054906101000a900473ffffffffffffffffffffffffffffffffffffffff1681565b600b8054610fcc906121b8565b80601f0160208091040260200160405190810160405280929190818152602001828054610ff8906121b8565b80156110455780601f1061101a57610100808354040283529160200191611045565b820191906000526020600020905b81548152906001019060200180831161102857829003601f168201915b505050505081565b61105633610c23565b1561106057600080fd5b600660149054906101000a900460ff161561107a57600080fd5b6000543410156110bf576040517f08c379a00000000000000000000000000000000000000000000000000000000081526004016110b690611eb0565b60405180910390fd5b34600c60003373ffffffffffffffffffffffffffffffffffffffff1673ffffffffffffffffffffffffffffffffffffffff168152602001908152602001600020600001819055506002600c60003373ffffffffffffffffffffffffffffffffffffffff1673ffffffffffffffffffffffffffffffffffffffff16815260200190815260200160002060010160006101000a81548161ffff021916908361ffff160217905550600d339080600181540180825580915050600190039060005260206000200160009091909190916101000a81548173ffffffffffffffffffffffffffffffffffffffff021916908373ffffffffffffffffffffffffffffffffffffffff1602179055506064600f5460646111d891906120da565b346111e39190612080565b6111ed919061204f565b600260008282546111fe9190611ff9565b925050819055503373ffffffffffffffffffffffffffffffffffffffff167f7f47e4b864ee52d8ca461d379020be7e99ae801a152dde71193bdc651da8a7c060405160405180910390a2565b600660009054906101000a900473ffffffffffffffffffffffffffffffffffffffff1673ffffffffffffffffffffffffffffffffffffffff163373ffffffffffffffffffffffffffffffffffffffff16146112da576040517f08c379a00000000000000000000000000000000000000000000000000000000081526004016112d190611ed0565b60405180910390fd5b6000600660146101000a81548160ff021916908315150217905550836007908051906020019061130b9291906119cb565b5082600890805190602001906113229291906119cb565b5081600990805190602001906113399291906119cb565b5080600481905550600067ffffffffffffffff81111561135c5761135b612320565b5b60405190808252806020026020018201604052801561138a5781602001602082028036833780820191505090505b50600d90805190602001906113a0929190611a51565b504260038190555050505050565b6000600d82815481106113c4576113c36122f1565b5b9060005260206000200160009054906101000a900473ffffffffffffffffffffffffffffffffffffffff169050919050565b600660149054906101000a900460ff1681565b600d818154811061141957600080fd5b906000526020600020016000915054906101000a900473ffffffffffffffffffffffffffffffffffffffff1681565b6000600d80549050905090565b6000600f54905090565b600a805461146c906121b8565b80601f0160208091040260200160405190810160405280929190818152602001828054611498906121b8565b80156114e55780601f106114ba576101008083540402835291602001916114e5565b820191906000526020600020905b8154815290600101906020018083116114c857829003601f168201915b505050505081565b600660009054906101000a900473ffffffffffffffffffffffffffffffffffffffff1673ffffffffffffffffffffffffffffffffffffffff163373ffffffffffffffffffffffffffffffffffffffff161461157d576040517f08c379a000000000000000000000000000000000000000000000000000000000815260040161157490611ed0565b60405180910390fd5b600080600080600080600090505b600d805490508110156116b057600d81815481106115ac576115ab6122f1565b5b9060005260206000200160009054906101000a900473ffffffffffffffffffffffffffffffffffffffff1691508661ffff16600c60008473ffffffffffffffffffffffffffffffffffffffff1673ffffffffffffffffffffffffffffffffffffffff16815260200190815260200160002060010160009054906101000a900461ffff1661ffff16141561169d57600e829080600181540180825580915050600190039060005260206000200160009091909190916101000a81548173ffffffffffffffffffffffffffffffffffffffff021916908373ffffffffffffffffffffffffffffffffffffffff1602179055505b80806116a89061221b565b91505061158b565b5060018661ffff1614156116cd57600254945060015493506116d8565b600154945060025493505b60005b600e8054905081101561184957600e81815481106116fc576116fb6122f1565b5b9060005260206000200160009054906101000a900473ffffffffffffffffffffffffffffffffffffffff169350600c60008573ffffffffffffffffffffffffffffffffffffffff1673ffffffffffffffffffffffffffffffffffffffff168152602001908152602001600020600001549250600061271086612710896117829190612080565b61178c919061204f565b6127106117999190611ff9565b856117a49190612080565b6117ae919061204f565b9050600e82815481106117c4576117c36122f1565b5b9060005260206000200160009054906101000a900473ffffffffffffffffffffffffffffffffffffffff1673ffffffffffffffffffffffffffffffffffffffff166108fc829081150290604051600060405180830381858888f19350505050158015611834573d6000803e3d6000fd5b505080806118419061221b565b9150506116db565b50600560009054906101000a900473ffffffffffffffffffffffffffffffffffffffff1673ffffffffffffffffffffffffffffffffffffffff166108fc479081150290604051600060405180830381858888f193505050501580156118b2573d6000803e3d6000fd5b506001600660146101000a81548160ff02191690831515021790555060005b600d8054905081101561198e57600c6000600d83815481106118f6576118f56122f1565b5b9060005260206000200160009054906101000a900473ffffffffffffffffffffffffffffffffffffffff1673ffffffffffffffffffffffffffffffffffffffff1673ffffffffffffffffffffffffffffffffffffffff1681526020019081526020016000206000808201600090556001820160006101000a81549061ffff0219169055505080806119869061221b565b9150506118d1565b50600d600061199d9190611adb565b600e60006119ab9190611adb565b600094506000935060006001819055506000600281905550505050505050565b8280546119d7906121b8565b90600052602060002090601f0160209004810192826119f95760008555611a40565b82601f10611a1257805160ff1916838001178555611a40565b82800160010185558215611a40579182015b82811115611a3f578251825591602001919060010190611a24565b5b509050611a4d9190611afc565b5090565b828054828255906000526020600020908101928215611aca579160200282015b82811115611ac95782518260006101000a81548173ffffffffffffffffffffffffffffffffffffffff021916908373ffffffffffffffffffffffffffffffffffffffff16021790555091602001919060010190611a71565b5b509050611ad79190611afc565b5090565b5080546000825590600052602060002090810190611af99190611afc565b50565b5b80821115611b15576000816000905550600101611afd565b5090565b6000611b2c611b2784611f90565b611f6b565b905082815260208101848484011115611b4857611b47612354565b5b611b53848285612176565b509392505050565b600081359050611b6a816123ec565b92915050565b600082601f830112611b8557611b8461234f565b5b8135611b95848260208601611b19565b91505092915050565b600081359050611bad81612403565b92915050565b600081359050611bc28161241a565b92915050565b600060208284031215611bde57611bdd61235e565b5b6000611bec84828501611b5b565b91505092915050565b60008060008060808587031215611c0f57611c0e61235e565b5b600085013567ffffffffffffffff811115611c2d57611c2c612359565b5b611c3987828801611b70565b945050602085013567ffffffffffffffff811115611c5a57611c59612359565b5b611c6687828801611b70565b935050604085013567ffffffffffffffff811115611c8757611c86612359565b5b611c9387828801611b70565b9250506060611ca487828801611bb3565b91505092959194509250565b600060208284031215611cc657611cc561235e565b5b6000611cd484828501611b9e565b91505092915050565b600060208284031215611cf357611cf261235e565b5b6000611d0184828501611bb3565b91505092915050565b611d1381612120565b82525050565b611d228161210e565b82525050565b611d3181612132565b82525050565b6000611d4282611fc1565b611d4c8185611fd7565b9350611d5c818560208601612185565b611d6581612363565b840191505092915050565b6000611d7b82611fcc565b611d858185611fe8565b9350611d95818560208601612185565b611d9e81612363565b840191505092915050565b6000611db6601783611fe8565b9150611dc182612374565b602082019050919050565b6000611dd9602183611fe8565b9150611de48261239d565b604082019050919050565b611df88161213e565b82525050565b611e078161216c565b82525050565b6000602082019050611e226000830184611d19565b92915050565b6000602082019050611e3d6000830184611d0a565b92915050565b6000602082019050611e586000830184611d28565b92915050565b6000604082019050611e736000830185611d28565b8181036020830152611e858184611d37565b90509392505050565b60006020820190508181036000830152611ea88184611d70565b905092915050565b60006020820190508181036000830152611ec981611da9565b9050919050565b60006020820190508181036000830152611ee981611dcc565b9050919050565b6000602082019050611f056000830184611dfe565b92915050565b6000604082019050611f206000830185611dfe565b611f2d6020830184611def565b9392505050565b6000606082019050611f496000830186611dfe565b611f566020830185611dfe565b611f636040830184611d28565b949350505050565b6000611f75611f86565b9050611f8182826121ea565b919050565b6000604051905090565b600067ffffffffffffffff821115611fab57611faa612320565b5b611fb482612363565b9050602081019050919050565b600081519050919050565b600081519050919050565b600082825260208201905092915050565b600082825260208201905092915050565b60006120048261216c565b915061200f8361216c565b9250827fffffffffffffffffffffffffffffffffffffffffffffffffffffffffffffffff0382111561204457612043612264565b5b828201905092915050565b600061205a8261216c565b91506120658361216c565b92508261207557612074612293565b5b828204905092915050565b600061208b8261216c565b91506120968361216c565b9250817fffffffffffffffffffffffffffffffffffffffffffffffffffffffffffffffff04831182151516156120cf576120ce612264565b5b828202905092915050565b60006120e58261216c565b91506120f08361216c565b92508282101561210357612102612264565b5b828203905092915050565b60006121198261214c565b9050919050565b600061212b8261214c565b9050919050565b60008115159050919050565b600061ffff82169050919050565b600073ffffffffffffffffffffffffffffffffffffffff82169050919050565b6000819050919050565b82818337600083830152505050565b60005b838110156121a3578082015181840152602081019050612188565b838111156121b2576000848401525b50505050565b600060028204905060018216806121d057607f821691505b602082108114156121e4576121e36122c2565b5b50919050565b6121f382612363565b810181811067ffffffffffffffff8211171561221257612211612320565b5b80604052505050565b60006122268261216c565b91507fffffffffffffffffffffffffffffffffffffffffffffffffffffffffffffffff82141561225957612258612264565b5b600182019050919050565b7f4e487b7100000000000000000000000000000000000000000000000000000000600052601160045260246000fd5b7f4e487b7100000000000000000000000000000000000000000000000000000000600052601260045260246000fd5b7f4e487b7100000000000000000000000000000000000000000000000000000000600052602260045260246000fd5b7f4e487b7100000000000000000000000000000000000000000000000000000000600052603260045260246000fd5b7f4e487b7100000000000000000000000000000000000000000000000000000000600052604160045260246000fd5b600080fd5b600080fd5b600080fd5b600080fd5b6000601f19601f8301169050919050565b7f496e73756666696369656e742062657420616d6f756e74000000000000000000600082015250565b7f4f6e6c792061646d696e2063616e2063616c6c20746869732066756e6374696f60008201527f6e00000000000000000000000000000000000000000000000000000000000000602082015250565b6123f58161210e565b811461240057600080fd5b50565b61240c8161213e565b811461241757600080fd5b50565b6124238161216c565b811461242e57600080fd5b5056fea2646970667358221220d7c98b7ae0ed2bf5505f332e796da24205379608c972407012d6847ad918ba8264736f6c63430008070033",
  "linkReferences": {},
  "deployedLinkReferences": {}
}