{
  "_format": "hh-sol-artifact-1",
  "contractName": "Betting",
  "sourceName": "contracts/BinaryBet.sol",
  "abi": [
    {
      "inputs": [
        {
          "internalType": "uint256",
          "name": "interval",
          "type": "uint256"
        },
        {
          "internalType": "uint256",
          "name": "entranceFee",
          "type": "uint256"
        },
        {
          "internalType": "uint32",
          "name": "callbackGasLimit",
          "type": "uint32"
        }
      ],
      "stateMutability": "nonpayable",
      "type": "constructor"
    },
    {
      "inputs": [],
      "name": "Betting__BettingNotOpen",
      "type": "error"
    },
    {
      "inputs": [
        {
          "internalType": "uint256",
          "name": "currentBalance",
          "type": "uint256"
        },
        {
          "internalType": "uint256",
          "name": "numPlayers",
          "type": "uint256"
        },
        {
          "internalType": "uint256",
          "name": "bettingState",
          "type": "uint256"
        }
      ],
      "name": "Betting__ExecuteNotNeeded",
      "type": "error"
    },
    {
      "inputs": [],
      "name": "Betting__SendMoreToEnterBetting",
      "type": "error"
    },
    {
      "anonymous": false,
      "inputs": [
        {
          "indexed": true,
          "internalType": "address",
          "name": "player",
          "type": "address"
        }
      ],
      "name": "BettingEnter",
      "type": "event"
    },
    {
      "inputs": [],
      "name": "AmountOne",
      "outputs": [
        {
          "internalType": "uint256",
          "name": "",
          "type": "uint256"
        }
      ],
      "stateMutability": "view",
      "type": "function"
    },
    {
      "inputs": [],
      "name": "AmountTwo",
      "outputs": [
        {
          "internalType": "uint256",
          "name": "",
          "type": "uint256"
        }
      ],
      "stateMutability": "view",
      "type": "function"
    },
    {
      "inputs": [
        {
          "internalType": "uint16",
          "name": "_teamSelected",
          "type": "uint16"
        }
      ],
      "name": "betting",
      "outputs": [],
      "stateMutability": "payable",
      "type": "function"
    },
    {
      "inputs": [],
      "name": "checkExecuteReady",
      "outputs": [
        {
          "internalType": "bool",
          "name": "readyToExecute",
          "type": "bool"
        },
        {
          "internalType": "bytes",
          "name": "",
          "type": "bytes"
        }
      ],
      "stateMutability": "view",
      "type": "function"
    },
    {
      "inputs": [
        {
          "internalType": "address",
          "name": "player",
          "type": "address"
        }
      ],
      "name": "checkPlayerExists",
      "outputs": [
        {
          "internalType": "bool",
          "name": "",
          "type": "bool"
        }
      ],
      "stateMutability": "view",
      "type": "function"
    },
    {
      "inputs": [
        {
          "internalType": "uint16",
          "name": "teamWinner",
          "type": "uint16"
        }
      ],
      "name": "distributePrizes",
      "outputs": [],
      "stateMutability": "nonpayable",
      "type": "function"
    },
    {
      "inputs": [],
      "name": "getAdmin",
      "outputs": [
        {
          "internalType": "address",
          "name": "",
          "type": "address"
        }
      ],
      "stateMutability": "view",
      "type": "function"
    },
    {
      "inputs": [],
      "name": "getBettingState",
      "outputs": [
        {
          "internalType": "enum Betting.BettingState",
          "name": "",
          "type": "uint8"
        }
      ],
      "stateMutability": "view",
      "type": "function"
    },
    {
      "inputs": [],
      "name": "getEntranceFee",
      "outputs": [
        {
          "internalType": "uint256",
          "name": "",
          "type": "uint256"
        }
      ],
      "stateMutability": "view",
      "type": "function"
    },
    {
      "inputs": [],
      "name": "getInterval",
      "outputs": [
        {
          "internalType": "uint256",
          "name": "",
          "type": "uint256"
        }
      ],
      "stateMutability": "view",
      "type": "function"
    },
    {
      "inputs": [],
      "name": "getLastTimeStamp",
      "outputs": [
        {
          "internalType": "uint256",
          "name": "",
          "type": "uint256"
        }
      ],
      "stateMutability": "view",
      "type": "function"
    },
    {
      "inputs": [],
      "name": "getNumberOfPlayers",
      "outputs": [
        {
          "internalType": "uint256",
          "name": "",
          "type": "uint256"
        }
      ],
      "stateMutability": "view",
      "type": "function"
    },
    {
      "inputs": [
        {
          "internalType": "uint256",
          "name": "index",
          "type": "uint256"
        }
      ],
      "name": "getPlayer",
      "outputs": [
        {
          "internalType": "address",
          "name": "",
          "type": "address"
        }
      ],
      "stateMutability": "view",
      "type": "function"
    },
    {
      "inputs": [
        {
          "internalType": "uint16",
          "name": "oraclemsg",
          "type": "uint16"
        }
      ],
      "name": "performExecute",
      "outputs": [],
      "stateMutability": "nonpayable",
      "type": "function"
    },
    {
      "inputs": [
        {
          "internalType": "address",
          "name": "",
          "type": "address"
        }
      ],
      "name": "playerInfo",
      "outputs": [
        {
          "internalType": "uint256",
          "name": "amountBet",
          "type": "uint256"
        },
        {
          "internalType": "uint16",
          "name": "teamSelected",
          "type": "uint16"
        }
      ],
      "stateMutability": "view",
      "type": "function"
    },
    {
      "inputs": [],
      "name": "reopenGame",
      "outputs": [],
      "stateMutability": "nonpayable",
      "type": "function"
    }
  ],
  "bytecode": "0x60c06040523480156200001157600080fd5b50604051620018a4380380620018a483398181016040528101906200003791906200010a565b8260808181525050816000819055506000600660006101000a81548160ff021916908360028111156200006f576200006e62000180565b5b0217905550426003819055508063ffffffff1660a08163ffffffff1660e01b8152505033600460006101000a81548173ffffffffffffffffffffffffffffffffffffffff021916908373ffffffffffffffffffffffffffffffffffffffff160217905550505050620001e8565b600081519050620000ed81620001b4565b92915050565b6000815190506200010481620001ce565b92915050565b600080600060608486031215620001265762000125620001af565b5b60006200013686828701620000dc565b93505060206200014986828701620000dc565b92505060406200015c86828701620000f3565b9150509250925092565b6000819050919050565b600063ffffffff82169050919050565b7f4e487b7100000000000000000000000000000000000000000000000000000000600052602160045260246000fd5b600080fd5b620001bf8162000166565b8114620001cb57600080fd5b50565b620001d98162000170565b8114620001e557600080fd5b50565b60805160a05160e01c61168f6200021560003960005050600081816108040152610c55015261168f6000f3fe6080604052600436106100f35760003560e01c8063676f64741161008a578063c1c244e811610059578063c1c244e81461030a578063e55ae4e814610335578063f08846d414610372578063fd6673f51461038e576100f3565b8063676f64741461025f5780636e9960c31461028b5780637904f688146102b657806391ad27b4146102df576100f3565b80634b114691116100c65780634b114691146101b45780635428ec85146101f257806357899342146102095780636573359214610234576100f3565b806309bc33a7146100f85780633ca53bba146101235780634081d9161461014c5780634996d51d14610189575b600080fd5b34801561010457600080fd5b5061010d6103b9565b60405161011a91906111fc565b60405180910390f35b34801561012f57600080fd5b5061014a6004803603810190610145919061105a565b6103c2565b005b34801561015857600080fd5b50610173600480360381019061016e919061102d565b61058e565b6040516101809190611176565b60405180910390f35b34801561019557600080fd5b5061019e610640565b6040516101ab91906111fc565b60405180910390f35b3480156101c057600080fd5b506101db60048036038101906101d6919061102d565b61064a565b6040516101e9929190611217565b60405180910390f35b3480156101fe57600080fd5b5061020761067c565b005b34801561021557600080fd5b5061021e6107a0565b60405161022b91906111c1565b60405180910390f35b34801561024057600080fd5b506102496107b7565b60405161025691906111fc565b60405180910390f35b34801561026b57600080fd5b506102746107c1565b604051610282929190611191565b60405180910390f35b34801561029757600080fd5b506102a06108a8565b6040516102ad919061115b565b60405180910390f35b3480156102c257600080fd5b506102dd60048036038101906102d8919061105a565b6108d2565b005b3480156102eb57600080fd5b506102f4610c51565b60405161030191906111fc565b60405180910390f35b34801561031657600080fd5b5061031f610c79565b60405161032c91906111fc565b60405180910390f35b34801561034157600080fd5b5061035c60048036038101906103579190611087565b610c83565b604051610369919061115b565b60405180910390f35b61038c6004803603810190610387919061105a565b610ccb565b005b34801561039a57600080fd5b506103a3610f19565b6040516103b091906111fc565b60405180910390f35b60008054905090565b600460009054906101000a900473ffffffffffffffffffffffffffffffffffffffff1673ffffffffffffffffffffffffffffffffffffffff163373ffffffffffffffffffffffffffffffffffffffff1614610452576040517f08c379a0000000000000000000000000000000000000000000000000000000008152600401610449906111dc565b60405180910390fd5b600061045c6107c1565b509050806104cb5747600580549050600660009054906101000a900460ff16600281111561048d5761048c61150e565b5b6040517fb8cbb54c0000000000000000000000000000000000000000000000000000000081526004016104c293929190611240565b60405180910390fd5b6001600660006101000a81548160ff021916908360028111156104f1576104f061150e565b5b02179055506104ff826108d2565b600067ffffffffffffffff81111561051a5761051961156c565b5b6040519080825280602002602001820160405280156105485781602001602082028036833780820191505090505b506005908051906020019061055e929190610f26565b506002600660006101000a81548160ff021916908360028111156105855761058461150e565b5b02179055505050565b600080600580549050905060005b81811015610634578373ffffffffffffffffffffffffffffffffffffffff16600582815481106105cf576105ce61153d565b5b9060005260206000200160009054906101000a900473ffffffffffffffffffffffffffffffffffffffff1673ffffffffffffffffffffffffffffffffffffffff1614156106215760019250505061063b565b808061062c90611467565b91505061059c565b5060009150505b919050565b6000600154905090565b60076020528060005260406000206000915090508060000154908060010160009054906101000a900461ffff16905082565b600460009054906101000a900473ffffffffffffffffffffffffffffffffffffffff1673ffffffffffffffffffffffffffffffffffffffff163373ffffffffffffffffffffffffffffffffffffffff161461070c576040517f08c379a0000000000000000000000000000000000000000000000000000000008152600401610703906111dc565b60405180910390fd5b6000600660006101000a81548160ff021916908360028111156107325761073161150e565b5b0217905550600067ffffffffffffffff8111156107525761075161156c565b5b6040519080825280602002602001820160405280156107805781602001602082028036833780820191505090505b5060059080519060200190610796929190610f26565b5042600381905550565b6000600660009054906101000a900460ff16905090565b6000600254905090565b600060606000600660009054906101000a900460ff1660028111156107e9576107e861150e565b5b600060028111156107fd576107fc61150e565b5b14905060007f0000000000000000000000000000000000000000000000000000000000000000600354426108319190611385565b119050600080600580549050119050600080471190508280156108515750835b801561085a5750805b80156108635750815b9550856040518060400160405280600381526020017f307830000000000000000000000000000000000000000000000000000000000081525095509550505050509091565b6000600460009054906101000a900473ffffffffffffffffffffffffffffffffffffffff16905090565b606060008060008080600080600090505b600580549050811015610a0157600581815481106109045761090361153d565b5b9060005260206000200160009054906101000a900473ffffffffffffffffffffffffffffffffffffffff1691508861ffff16600760008473ffffffffffffffffffffffffffffffffffffffff1673ffffffffffffffffffffffffffffffffffffffff16815260200190815260200160002060010160009054906101000a900461ffff1661ffff1614156109ee57818888815181106109a5576109a461153d565b5b602002602001019073ffffffffffffffffffffffffffffffffffffffff16908173ffffffffffffffffffffffffffffffffffffffff168152505086806109ea90611467565b9750505b80806109f990611467565b9150506108e3565b5060018861ffff161415610a1e5760025494506001549350610a29565b600154945060025493505b60005b86811015610b9657600073ffffffffffffffffffffffffffffffffffffffff16888281518110610a5f57610a5e61153d565b5b602002602001015173ffffffffffffffffffffffffffffffffffffffff1614610b8357878181518110610a9557610a9461153d565b5b60200260200101519350600760008573ffffffffffffffffffffffffffffffffffffffff1673ffffffffffffffffffffffffffffffffffffffff168152602001908152602001600020600001549250878181518110610af757610af661153d565b5b602002602001015173ffffffffffffffffffffffffffffffffffffffff166108fc612710876127108a610b2a919061132b565b610b3491906112fa565b612710610b4191906112a4565b86610b4c919061132b565b610b5691906112fa565b9081150290604051600060405180830381858888f19350505050158015610b81573d6000803e3d6000fd5b505b8080610b8e90611467565b915050610a2c565b506002600660006101000a81548160ff02191690836002811115610bbd57610bbc61150e565b5b0217905550600760008273ffffffffffffffffffffffffffffffffffffffff1673ffffffffffffffffffffffffffffffffffffffff1681526020019081526020016000206000808201600090556001820160006101000a81549061ffff0219169055505060056000610c2f9190610fb0565b6000945060009350600060018190555060006002819055505050505050505050565b60007f0000000000000000000000000000000000000000000000000000000000000000905090565b6000600354905090565b600060058281548110610c9957610c9861153d565b5b9060005260206000200160009054906101000a900473ffffffffffffffffffffffffffffffffffffffff169050919050565b610cd43361058e565b15610cde57600080fd5b600054341015610d1a576040517f30a16e2e00000000000000000000000000000000000000000000000000000000815260040160405180910390fd5b60006002811115610d2e57610d2d61150e565b5b600660009054906101000a900460ff166002811115610d5057610d4f61150e565b5b14610d87576040517ff3b8fa1b00000000000000000000000000000000000000000000000000000000815260040160405180910390fd5b34600760003373ffffffffffffffffffffffffffffffffffffffff1673ffffffffffffffffffffffffffffffffffffffff1681526020019081526020016000206000018190555080600760003373ffffffffffffffffffffffffffffffffffffffff1673ffffffffffffffffffffffffffffffffffffffff16815260200190815260200160002060010160006101000a81548161ffff021916908361ffff1602179055506005339080600181540180825580915050600190039060005260206000200160009091909190916101000a81548173ffffffffffffffffffffffffffffffffffffffff021916908373ffffffffffffffffffffffffffffffffffffffff16021790555060018161ffff161415610eb9573460016000828254610ead91906112a4565b92505081905550610ed3565b3460026000828254610ecb91906112a4565b925050819055505b3373ffffffffffffffffffffffffffffffffffffffff167f7f47e4b864ee52d8ca461d379020be7e99ae801a152dde71193bdc651da8a7c060405160405180910390a250565b6000600580549050905090565b828054828255906000526020600020908101928215610f9f579160200282015b82811115610f9e5782518260006101000a81548173ffffffffffffffffffffffffffffffffffffffff021916908373ffffffffffffffffffffffffffffffffffffffff16021790555091602001919060010190610f46565b5b509050610fac9190610fd1565b5090565b5080546000825590600052602060002090810190610fce9190610fd1565b50565b5b80821115610fea576000816000905550600101610fd2565b5090565b600081359050610ffd81611614565b92915050565b6000813590506110128161162b565b92915050565b60008135905061102781611642565b92915050565b6000602082840312156110435761104261159b565b5b600061105184828501610fee565b91505092915050565b6000602082840312156110705761106f61159b565b5b600061107e84828501611003565b91505092915050565b60006020828403121561109d5761109c61159b565b5b60006110ab84828501611018565b91505092915050565b6110bd816113b9565b82525050565b6110cc816113cb565b82525050565b60006110dd82611277565b6110e78185611282565b93506110f7818560208601611434565b611100816115a0565b840191505092915050565b61111481611422565b82525050565b6000611127602183611293565b9150611132826115b1565b604082019050919050565b611146816113ea565b82525050565b61115581611418565b82525050565b600060208201905061117060008301846110b4565b92915050565b600060208201905061118b60008301846110c3565b92915050565b60006040820190506111a660008301856110c3565b81810360208301526111b881846110d2565b90509392505050565b60006020820190506111d6600083018461110b565b92915050565b600060208201905081810360008301526111f58161111a565b9050919050565b6000602082019050611211600083018461114c565b92915050565b600060408201905061122c600083018561114c565b611239602083018461113d565b9392505050565b6000606082019050611255600083018661114c565b611262602083018561114c565b61126f604083018461114c565b949350505050565b600081519050919050565b600082825260208201905092915050565b600082825260208201905092915050565b60006112af82611418565b91506112ba83611418565b9250827fffffffffffffffffffffffffffffffffffffffffffffffffffffffffffffffff038211156112ef576112ee6114b0565b5b828201905092915050565b600061130582611418565b915061131083611418565b9250826113205761131f6114df565b5b828204905092915050565b600061133682611418565b915061134183611418565b9250817fffffffffffffffffffffffffffffffffffffffffffffffffffffffffffffffff048311821515161561137a576113796114b0565b5b828202905092915050565b600061139082611418565b915061139b83611418565b9250828210156113ae576113ad6114b0565b5b828203905092915050565b60006113c4826113f8565b9050919050565b60008115159050919050565b60008190506113e582611600565b919050565b600061ffff82169050919050565b600073ffffffffffffffffffffffffffffffffffffffff82169050919050565b6000819050919050565b600061142d826113d7565b9050919050565b60005b83811015611452578082015181840152602081019050611437565b83811115611461576000848401525b50505050565b600061147282611418565b91507fffffffffffffffffffffffffffffffffffffffffffffffffffffffffffffffff8214156114a5576114a46114b0565b5b600182019050919050565b7f4e487b7100000000000000000000000000000000000000000000000000000000600052601160045260246000fd5b7f4e487b7100000000000000000000000000000000000000000000000000000000600052601260045260246000fd5b7f4e487b7100000000000000000000000000000000000000000000000000000000600052602160045260246000fd5b7f4e487b7100000000000000000000000000000000000000000000000000000000600052603260045260246000fd5b7f4e487b7100000000000000000000000000000000000000000000000000000000600052604160045260246000fd5b600080fd5b6000601f19601f8301169050919050565b7f4f6e6c792061646d696e2063616e2063616c6c20746869732066756e6374696f60008201527f6e00000000000000000000000000000000000000000000000000000000000000602082015250565b600381106116115761161061150e565b5b50565b61161d816113b9565b811461162857600080fd5b50565b611634816113ea565b811461163f57600080fd5b50565b61164b81611418565b811461165657600080fd5b5056fea2646970667358221220d14153fbd28ab022041830d9d6651763520faeb109bc0331fb60e93144b0b95164736f6c63430008070033",
  "linkReferences": {},
  "deployedLinkReferences": {}
}