{
  "_format": "hh-sol-artifact-1",
  "contractName": "Betting",
  "sourceName": "contracts/BinaryBet.sol",
  "abi": [
    {
      "inputs": [
        {
          "internalType": "string",
          "name": "_gameDescription",
          "type": "string"
        },
        {
          "internalType": "string",
          "name": "_option1Name",
          "type": "string"
        },
        {
          "internalType": "string",
          "name": "_option2Name",
          "type": "string"
        },
        {
          "internalType": "string",
          "name": "_option1LeagueName",
          "type": "string"
        },
        {
          "internalType": "string",
          "name": "_option2LeagueName",
          "type": "string"
        },
        {
          "internalType": "uint256",
          "name": "_matchDateTimestamp",
          "type": "uint256"
        },
        {
          "internalType": "uint256",
          "name": "entranceFee",
          "type": "uint256"
        }
      ],
      "stateMutability": "nonpayable",
      "type": "constructor"
    },
    {
      "inputs": [
        {
          "internalType": "uint256",
          "name": "currentBalance",
          "type": "uint256"
        },
        {
          "internalType": "uint256",
          "name": "numPlayers",
          "type": "uint256"
        },
        {
          "internalType": "bool",
          "name": "gameFinished",
          "type": "bool"
        }
      ],
      "name": "Betting__ExecuteNotNeeded",
      "type": "error"
    },
    {
      "anonymous": false,
      "inputs": [
        {
          "indexed": true,
          "internalType": "address",
          "name": "player",
          "type": "address"
        }
      ],
      "name": "BettingEnter",
      "type": "event"
    },
    {
      "inputs": [],
      "name": "AmountOne",
      "outputs": [
        {
          "internalType": "uint256",
          "name": "",
          "type": "uint256"
        }
      ],
      "stateMutability": "view",
      "type": "function"
    },
    {
      "inputs": [],
      "name": "AmountTwo",
      "outputs": [
        {
          "internalType": "uint256",
          "name": "",
          "type": "uint256"
        }
      ],
      "stateMutability": "view",
      "type": "function"
    },
    {
      "inputs": [],
      "name": "betOnOption1",
      "outputs": [],
      "stateMutability": "payable",
      "type": "function"
    },
    {
      "inputs": [],
      "name": "betOnOption2",
      "outputs": [],
      "stateMutability": "payable",
      "type": "function"
    },
    {
      "inputs": [],
      "name": "checkExecuteReady",
      "outputs": [
        {
          "internalType": "bool",
          "name": "readyToExecute",
          "type": "bool"
        },
        {
          "internalType": "bytes",
          "name": "",
          "type": "bytes"
        }
      ],
      "stateMutability": "view",
      "type": "function"
    },
    {
      "inputs": [
        {
          "internalType": "address",
          "name": "player",
          "type": "address"
        }
      ],
      "name": "checkPlayerExists",
      "outputs": [
        {
          "internalType": "bool",
          "name": "",
          "type": "bool"
        }
      ],
      "stateMutability": "view",
      "type": "function"
    },
    {
      "inputs": [],
      "name": "gameDescription",
      "outputs": [
        {
          "internalType": "string",
          "name": "",
          "type": "string"
        }
      ],
      "stateMutability": "view",
      "type": "function"
    },
    {
      "inputs": [],
      "name": "gameFinished",
      "outputs": [
        {
          "internalType": "bool",
          "name": "",
          "type": "bool"
        }
      ],
      "stateMutability": "view",
      "type": "function"
    },
    {
      "inputs": [],
      "name": "getAdmin",
      "outputs": [
        {
          "internalType": "address",
          "name": "",
          "type": "address"
        }
      ],
      "stateMutability": "view",
      "type": "function"
    },
    {
      "inputs": [],
      "name": "getCommissionRatio",
      "outputs": [
        {
          "internalType": "uint256",
          "name": "",
          "type": "uint256"
        }
      ],
      "stateMutability": "view",
      "type": "function"
    },
    {
      "inputs": [],
      "name": "getEntranceFee",
      "outputs": [
        {
          "internalType": "uint256",
          "name": "",
          "type": "uint256"
        }
      ],
      "stateMutability": "view",
      "type": "function"
    },
    {
      "inputs": [],
      "name": "getGameFinished",
      "outputs": [
        {
          "internalType": "bool",
          "name": "",
          "type": "bool"
        }
      ],
      "stateMutability": "view",
      "type": "function"
    },
    {
      "inputs": [],
      "name": "getMatchDateTimestamp",
      "outputs": [
        {
          "internalType": "uint256",
          "name": "",
          "type": "uint256"
        }
      ],
      "stateMutability": "view",
      "type": "function"
    },
    {
      "inputs": [],
      "name": "getNumberOfPlayers",
      "outputs": [
        {
          "internalType": "uint256",
          "name": "",
          "type": "uint256"
        }
      ],
      "stateMutability": "view",
      "type": "function"
    },
    {
      "inputs": [],
      "name": "getOption1LeagueName",
      "outputs": [
        {
          "internalType": "string",
          "name": "",
          "type": "string"
        }
      ],
      "stateMutability": "view",
      "type": "function"
    },
    {
      "inputs": [],
      "name": "getOption1Name",
      "outputs": [
        {
          "internalType": "string",
          "name": "",
          "type": "string"
        }
      ],
      "stateMutability": "view",
      "type": "function"
    },
    {
      "inputs": [],
      "name": "getOption2LeagueName",
      "outputs": [
        {
          "internalType": "string",
          "name": "",
          "type": "string"
        }
      ],
      "stateMutability": "view",
      "type": "function"
    },
    {
      "inputs": [],
      "name": "getOption2Name",
      "outputs": [
        {
          "internalType": "string",
          "name": "",
          "type": "string"
        }
      ],
      "stateMutability": "view",
      "type": "function"
    },
    {
      "inputs": [
        {
          "internalType": "uint256",
          "name": "index",
          "type": "uint256"
        }
      ],
      "name": "getPlayerInfo",
      "outputs": [
        {
          "internalType": "address",
          "name": "",
          "type": "address"
        }
      ],
      "stateMutability": "view",
      "type": "function"
    },
    {
      "inputs": [],
      "name": "getStartTimestamp",
      "outputs": [
        {
          "internalType": "uint256",
          "name": "",
          "type": "uint256"
        }
      ],
      "stateMutability": "view",
      "type": "function"
    },
    {
      "inputs": [
        {
          "internalType": "uint16",
          "name": "oraclemsg",
          "type": "uint16"
        }
      ],
      "name": "performExecute",
      "outputs": [],
      "stateMutability": "nonpayable",
      "type": "function"
    },
    {
      "inputs": [
        {
          "internalType": "address",
          "name": "",
          "type": "address"
        }
      ],
      "name": "playerInfo",
      "outputs": [
        {
          "internalType": "uint256",
          "name": "amountBet",
          "type": "uint256"
        },
        {
          "internalType": "uint16",
          "name": "teamSelected",
          "type": "uint16"
        }
      ],
      "stateMutability": "view",
      "type": "function"
    },
    {
      "inputs": [
        {
          "internalType": "uint256",
          "name": "",
          "type": "uint256"
        }
      ],
      "name": "players",
      "outputs": [
        {
          "internalType": "address payable",
          "name": "",
          "type": "address"
        }
      ],
      "stateMutability": "view",
      "type": "function"
    },
    {
      "inputs": [
        {
          "internalType": "string",
          "name": "_gameDescription",
          "type": "string"
        },
        {
          "internalType": "string",
          "name": "_option1Name",
          "type": "string"
        },
        {
          "internalType": "string",
          "name": "_option1LeagueName",
          "type": "string"
        },
        {
          "internalType": "string",
          "name": "_option2Name",
          "type": "string"
        },
        {
          "internalType": "string",
          "name": "_option2LeagueName",
          "type": "string"
        },
        {
          "internalType": "uint256",
          "name": "_matchDateTimestamp",
          "type": "uint256"
        }
      ],
      "name": "reopenGame",
      "outputs": [],
      "stateMutability": "nonpayable",
      "type": "function"
    }
  ],
  "bytecode": "0x60806040526005600f553480156200001657600080fd5b506040516200272e3803806200272e83398181016040528101906200003c9190620002df565b806000819055506000600660146101000a81548160ff021916908315150217905550426003819055508160048190555033600660006101000a81548173ffffffffffffffffffffffffffffffffffffffff021916908373ffffffffffffffffffffffffffffffffffffffff1602179055508660079080519060200190620000c59291906200019a565b508560089080519060200190620000de9291906200019a565b508460099080519060200190620000f79291906200019a565b5083600a9080519060200190620001109291906200019a565b5082600b9080519060200190620001299291906200019a565b50600660009054906101000a900473ffffffffffffffffffffffffffffffffffffffff16600560006101000a81548173ffffffffffffffffffffffffffffffffffffffff021916908373ffffffffffffffffffffffffffffffffffffffff16021790555050505050505050620005d5565b828054620001a890620004cc565b90600052602060002090601f016020900481019282620001cc576000855562000218565b82601f10620001e757805160ff191683800117855562000218565b8280016001018555821562000218579182015b8281111562000217578251825591602001919060010190620001fa565b5b5090506200022791906200022b565b5090565b5b80821115620002465760008160009055506001016200022c565b5090565b6000620002616200025b8462000456565b6200042d565b90508281526020810184848401111562000280576200027f6200059b565b5b6200028d84828562000496565b509392505050565b600082601f830112620002ad57620002ac62000596565b5b8151620002bf8482602086016200024a565b91505092915050565b600081519050620002d981620005bb565b92915050565b600080600080600080600060e0888a031215620003015762000300620005a5565b5b600088015167ffffffffffffffff811115620003225762000321620005a0565b5b620003308a828b0162000295565b975050602088015167ffffffffffffffff811115620003545762000353620005a0565b5b620003628a828b0162000295565b965050604088015167ffffffffffffffff811115620003865762000385620005a0565b5b620003948a828b0162000295565b955050606088015167ffffffffffffffff811115620003b857620003b7620005a0565b5b620003c68a828b0162000295565b945050608088015167ffffffffffffffff811115620003ea57620003e9620005a0565b5b620003f88a828b0162000295565b93505060a06200040b8a828b01620002c8565b92505060c06200041e8a828b01620002c8565b91505092959891949750929550565b6000620004396200044c565b905062000447828262000502565b919050565b6000604051905090565b600067ffffffffffffffff82111562000474576200047362000567565b5b6200047f82620005aa565b9050602081019050919050565b6000819050919050565b60005b83811015620004b657808201518184015260208101905062000499565b83811115620004c6576000848401525b50505050565b60006002820490506001821680620004e557607f821691505b60208210811415620004fc57620004fb62000538565b5b50919050565b6200050d82620005aa565b810181811067ffffffffffffffff821117156200052f576200052e62000567565b5b80604052505050565b7f4e487b7100000000000000000000000000000000000000000000000000000000600052602260045260246000fd5b7f4e487b7100000000000000000000000000000000000000000000000000000000600052604160045260246000fd5b600080fd5b600080fd5b600080fd5b600080fd5b6000601f19601f8301169050919050565b620005c6816200048c565b8114620005d257600080fd5b50565b61214980620005e56000396000f3fe60806040526004361061014b5760003560e01c806365733592116100b6578063c85398081161006f578063c853980814610457578063ea17532e14610461578063f0f324971461049e578063f71d96cb146104c9578063fd6673f514610506578063fdbe6667146105315761014b565b80636573359214610356578063676f6474146103815780636e9960c3146103ad578063777cd247146103d85780637dc6e841146104015780638b5d691c1461042c5761014b565b80632b74e9bd116101085780632b74e9bd146102315780632f9f65f61461025c5780633ca53bba146102875780634081d916146102b05780634996d51d146102ed5780634b114691146103185761014b565b806309bc33a7146101505780630ca740401461017b5780631385f1a9146101855780631f89f25e146101b057806327f0cbc0146101db5780632aae363014610206575b600080fd5b34801561015c57600080fd5b5061016561055c565b6040516101729190611bd2565b60405180910390f35b610183610565565b005b34801561019157600080fd5b5061019a610762565b6040516101a79190611b70565b60405180910390f35b3480156101bc57600080fd5b506101c56107f4565b6040516101d29190611bd2565b60405180910390f35b3480156101e757600080fd5b506101f06107fe565b6040516101fd9190611b25565b60405180910390f35b34801561021257600080fd5b5061021b610815565b6040516102289190611b70565b60405180910390f35b34801561023d57600080fd5b506102466108a7565b6040516102539190611bd2565b60405180910390f35b34801561026857600080fd5b506102716108b1565b60405161027e9190611b70565b60405180910390f35b34801561029357600080fd5b506102ae60048036038101906102a99190611992565b610943565b005b3480156102bc57600080fd5b506102d760048036038101906102d2919061184c565b610a47565b6040516102e49190611b25565b60405180910390f35b3480156102f957600080fd5b50610302610af9565b60405161030f9190611bd2565b60405180910390f35b34801561032457600080fd5b5061033f600480360381019061033a919061184c565b610b03565b60405161034d929190611bed565b60405180910390f35b34801561036257600080fd5b5061036b610b35565b6040516103789190611bd2565b60405180910390f35b34801561038d57600080fd5b50610396610b3f565b6040516103a4929190611b40565b60405180910390f35b3480156103b957600080fd5b506103c2610be5565b6040516103cf9190611aef565b60405180910390f35b3480156103e457600080fd5b506103ff60048036038101906103fa9190611879565b610c0f565b005b34801561040d57600080fd5b50610416610da3565b6040516104239190611b70565b60405180910390f35b34801561043857600080fd5b50610441610e35565b60405161044e9190611b70565b60405180910390f35b61045f610ec3565b005b34801561046d57600080fd5b50610488600480360381019061048391906119bf565b6110c0565b6040516104959190611aef565b60405180910390f35b3480156104aa57600080fd5b506104b3611108565b6040516104c09190611b25565b60405180910390f35b3480156104d557600080fd5b506104f060048036038101906104eb91906119bf565b61111b565b6040516104fd9190611b0a565b60405180910390f35b34801561051257600080fd5b5061051b61115a565b6040516105289190611bd2565b60405180910390f35b34801561053d57600080fd5b50610546611167565b6040516105539190611bd2565b60405180910390f35b60008054905090565b61056e33610a47565b1561057857600080fd5b600660149054906101000a900460ff161561059257600080fd5b6000543410156105d7576040517f08c379a00000000000000000000000000000000000000000000000000000000081526004016105ce90611b92565b60405180910390fd5b34600c60003373ffffffffffffffffffffffffffffffffffffffff1673ffffffffffffffffffffffffffffffffffffffff168152602001908152602001600020600001819055506001600c60003373ffffffffffffffffffffffffffffffffffffffff1673ffffffffffffffffffffffffffffffffffffffff16815260200190815260200160002060010160006101000a81548161ffff021916908361ffff160217905550600d339080600181540180825580915050600190039060005260206000200160009091909190916101000a81548173ffffffffffffffffffffffffffffffffffffffff021916908373ffffffffffffffffffffffffffffffffffffffff1602179055506064600f5460646106f09190611dbc565b346106fb9190611d62565b6107059190611d31565b600160008282546107169190611cdb565b925050819055503373ffffffffffffffffffffffffffffffffffffffff167f7f47e4b864ee52d8ca461d379020be7e99ae801a152dde71193bdc651da8a7c060405160405180910390a2565b6060600a805461077190611e9a565b80601f016020809104026020016040519081016040528092919081815260200182805461079d90611e9a565b80156107ea5780601f106107bf576101008083540402835291602001916107ea565b820191906000526020600020905b8154815290600101906020018083116107cd57829003601f168201915b5050505050905090565b6000600354905090565b6000600660149054906101000a900460ff16905090565b60606008805461082490611e9a565b80601f016020809104026020016040519081016040528092919081815260200182805461085090611e9a565b801561089d5780601f106108725761010080835404028352916020019161089d565b820191906000526020600020905b81548152906001019060200180831161088057829003601f168201915b5050505050905090565b6000600454905090565b6060600b80546108c090611e9a565b80601f01602080910402602001604051908101604052809291908181526020018280546108ec90611e9a565b80156109395780601f1061090e57610100808354040283529160200191610939565b820191906000526020600020905b81548152906001019060200180831161091c57829003601f168201915b5050505050905090565b600660009054906101000a900473ffffffffffffffffffffffffffffffffffffffff1673ffffffffffffffffffffffffffffffffffffffff163373ffffffffffffffffffffffffffffffffffffffff16146109d3576040517f08c379a00000000000000000000000000000000000000000000000000000000081526004016109ca90611bb2565b60405180910390fd5b60006109dd610b3f565b50905080610a3a5747600d80549050600660149054906101000a900460ff166040517f0f724954000000000000000000000000000000000000000000000000000000008152600401610a3193929190611c16565b60405180910390fd5b610a4382611171565b5050565b600080600d80549050905060005b81811015610aed578373ffffffffffffffffffffffffffffffffffffffff16600d8281548110610a8857610a87611fd3565b5b9060005260206000200160009054906101000a900473ffffffffffffffffffffffffffffffffffffffff1673ffffffffffffffffffffffffffffffffffffffff161415610ada57600192505050610af4565b8080610ae590611efd565b915050610a55565b5060009150505b919050565b6000600154905090565b600c6020528060005260406000206000915090508060000154908060010160009054906101000a900461ffff16905082565b6000600254905090565b600060606000801515600660149054906101000a900460ff16151514905060008060045442610b6e9190611dbc565b119050600080600d8054905011905060008047119050828015610b8e5750835b8015610b975750805b8015610ba05750815b9550856040518060400160405280600381526020017f307830000000000000000000000000000000000000000000000000000000000081525095509550505050509091565b6000600660009054906101000a900473ffffffffffffffffffffffffffffffffffffffff16905090565b600660009054906101000a900473ffffffffffffffffffffffffffffffffffffffff1673ffffffffffffffffffffffffffffffffffffffff163373ffffffffffffffffffffffffffffffffffffffff1614610c9f576040517f08c379a0000000000000000000000000000000000000000000000000000000008152600401610c9690611bb2565b60405180910390fd5b6000600660146101000a81548160ff0219169083151502179055508560079080519060200190610cd092919061164f565b508460089080519060200190610ce792919061164f565b5083600a9080519060200190610cfe92919061164f565b508260099080519060200190610d1592919061164f565b5081600b9080519060200190610d2c92919061164f565b5080600481905550600067ffffffffffffffff811115610d4f57610d4e612002565b5b604051908082528060200260200182016040528015610d7d5781602001602082028036833780820191505090505b50600d9080519060200190610d939291906116d5565b5042600381905550505050505050565b606060098054610db290611e9a565b80601f0160208091040260200160405190810160405280929190818152602001828054610dde90611e9a565b8015610e2b5780601f10610e0057610100808354040283529160200191610e2b565b820191906000526020600020905b815481529060010190602001808311610e0e57829003601f168201915b5050505050905090565b60078054610e4290611e9a565b80601f0160208091040260200160405190810160405280929190818152602001828054610e6e90611e9a565b8015610ebb5780601f10610e9057610100808354040283529160200191610ebb565b820191906000526020600020905b815481529060010190602001808311610e9e57829003601f168201915b505050505081565b610ecc33610a47565b15610ed657600080fd5b600660149054906101000a900460ff1615610ef057600080fd5b600054341015610f35576040517f08c379a0000000000000000000000000000000000000000000000000000000008152600401610f2c90611b92565b60405180910390fd5b34600c60003373ffffffffffffffffffffffffffffffffffffffff1673ffffffffffffffffffffffffffffffffffffffff168152602001908152602001600020600001819055506002600c60003373ffffffffffffffffffffffffffffffffffffffff1673ffffffffffffffffffffffffffffffffffffffff16815260200190815260200160002060010160006101000a81548161ffff021916908361ffff160217905550600d339080600181540180825580915050600190039060005260206000200160009091909190916101000a81548173ffffffffffffffffffffffffffffffffffffffff021916908373ffffffffffffffffffffffffffffffffffffffff1602179055506064600f54606461104e9190611dbc565b346110599190611d62565b6110639190611d31565b600260008282546110749190611cdb565b925050819055503373ffffffffffffffffffffffffffffffffffffffff167f7f47e4b864ee52d8ca461d379020be7e99ae801a152dde71193bdc651da8a7c060405160405180910390a2565b6000600d82815481106110d6576110d5611fd3565b5b9060005260206000200160009054906101000a900473ffffffffffffffffffffffffffffffffffffffff169050919050565b600660149054906101000a900460ff1681565b600d818154811061112b57600080fd5b906000526020600020016000915054906101000a900473ffffffffffffffffffffffffffffffffffffffff1681565b6000600d80549050905090565b6000600f54905090565b600660009054906101000a900473ffffffffffffffffffffffffffffffffffffffff1673ffffffffffffffffffffffffffffffffffffffff163373ffffffffffffffffffffffffffffffffffffffff1614611201576040517f08c379a00000000000000000000000000000000000000000000000000000000081526004016111f890611bb2565b60405180910390fd5b600080600080600080600090505b600d8054905081101561133457600d81815481106112305761122f611fd3565b5b9060005260206000200160009054906101000a900473ffffffffffffffffffffffffffffffffffffffff1691508661ffff16600c60008473ffffffffffffffffffffffffffffffffffffffff1673ffffffffffffffffffffffffffffffffffffffff16815260200190815260200160002060010160009054906101000a900461ffff1661ffff16141561132157600e829080600181540180825580915050600190039060005260206000200160009091909190916101000a81548173ffffffffffffffffffffffffffffffffffffffff021916908373ffffffffffffffffffffffffffffffffffffffff1602179055505b808061132c90611efd565b91505061120f565b5060018661ffff161415611351576002549450600154935061135c565b600154945060025493505b60005b600e805490508110156114cd57600e81815481106113805761137f611fd3565b5b9060005260206000200160009054906101000a900473ffffffffffffffffffffffffffffffffffffffff169350600c60008573ffffffffffffffffffffffffffffffffffffffff1673ffffffffffffffffffffffffffffffffffffffff168152602001908152602001600020600001549250600061271086612710896114069190611d62565b6114109190611d31565b61271061141d9190611cdb565b856114289190611d62565b6114329190611d31565b9050600e828154811061144857611447611fd3565b5b9060005260206000200160009054906101000a900473ffffffffffffffffffffffffffffffffffffffff1673ffffffffffffffffffffffffffffffffffffffff166108fc829081150290604051600060405180830381858888f193505050501580156114b8573d6000803e3d6000fd5b505080806114c590611efd565b91505061135f565b50600560009054906101000a900473ffffffffffffffffffffffffffffffffffffffff1673ffffffffffffffffffffffffffffffffffffffff166108fc479081150290604051600060405180830381858888f19350505050158015611536573d6000803e3d6000fd5b506001600660146101000a81548160ff02191690831515021790555060005b600d8054905081101561161257600c6000600d838154811061157a57611579611fd3565b5b9060005260206000200160009054906101000a900473ffffffffffffffffffffffffffffffffffffffff1673ffffffffffffffffffffffffffffffffffffffff1673ffffffffffffffffffffffffffffffffffffffff1681526020019081526020016000206000808201600090556001820160006101000a81549061ffff02191690555050808061160a90611efd565b915050611555565b50600d6000611621919061175f565b600e600061162f919061175f565b600094506000935060006001819055506000600281905550505050505050565b82805461165b90611e9a565b90600052602060002090601f01602090048101928261167d57600085556116c4565b82601f1061169657805160ff19168380011785556116c4565b828001600101855582156116c4579182015b828111156116c35782518255916020019190600101906116a8565b5b5090506116d19190611780565b5090565b82805482825590600052602060002090810192821561174e579160200282015b8281111561174d5782518260006101000a81548173ffffffffffffffffffffffffffffffffffffffff021916908373ffffffffffffffffffffffffffffffffffffffff160217905550916020019190600101906116f5565b5b50905061175b9190611780565b5090565b508054600082559060005260206000209081019061177d9190611780565b50565b5b80821115611799576000816000905550600101611781565b5090565b60006117b06117ab84611c72565b611c4d565b9050828152602081018484840111156117cc576117cb612036565b5b6117d7848285611e58565b509392505050565b6000813590506117ee816120ce565b92915050565b600082601f83011261180957611808612031565b5b813561181984826020860161179d565b91505092915050565b600081359050611831816120e5565b92915050565b600081359050611846816120fc565b92915050565b60006020828403121561186257611861612040565b5b6000611870848285016117df565b91505092915050565b60008060008060008060c0878903121561189657611895612040565b5b600087013567ffffffffffffffff8111156118b4576118b361203b565b5b6118c089828a016117f4565b965050602087013567ffffffffffffffff8111156118e1576118e061203b565b5b6118ed89828a016117f4565b955050604087013567ffffffffffffffff81111561190e5761190d61203b565b5b61191a89828a016117f4565b945050606087013567ffffffffffffffff81111561193b5761193a61203b565b5b61194789828a016117f4565b935050608087013567ffffffffffffffff8111156119685761196761203b565b5b61197489828a016117f4565b92505060a061198589828a01611837565b9150509295509295509295565b6000602082840312156119a8576119a7612040565b5b60006119b684828501611822565b91505092915050565b6000602082840312156119d5576119d4612040565b5b60006119e384828501611837565b91505092915050565b6119f581611e02565b82525050565b611a0481611df0565b82525050565b611a1381611e14565b82525050565b6000611a2482611ca3565b611a2e8185611cb9565b9350611a3e818560208601611e67565b611a4781612045565b840191505092915050565b6000611a5d82611cae565b611a678185611cca565b9350611a77818560208601611e67565b611a8081612045565b840191505092915050565b6000611a98601783611cca565b9150611aa382612056565b602082019050919050565b6000611abb602183611cca565b9150611ac68261207f565b604082019050919050565b611ada81611e20565b82525050565b611ae981611e4e565b82525050565b6000602082019050611b0460008301846119fb565b92915050565b6000602082019050611b1f60008301846119ec565b92915050565b6000602082019050611b3a6000830184611a0a565b92915050565b6000604082019050611b556000830185611a0a565b8181036020830152611b678184611a19565b90509392505050565b60006020820190508181036000830152611b8a8184611a52565b905092915050565b60006020820190508181036000830152611bab81611a8b565b9050919050565b60006020820190508181036000830152611bcb81611aae565b9050919050565b6000602082019050611be76000830184611ae0565b92915050565b6000604082019050611c026000830185611ae0565b611c0f6020830184611ad1565b9392505050565b6000606082019050611c2b6000830186611ae0565b611c386020830185611ae0565b611c456040830184611a0a565b949350505050565b6000611c57611c68565b9050611c638282611ecc565b919050565b6000604051905090565b600067ffffffffffffffff821115611c8d57611c8c612002565b5b611c9682612045565b9050602081019050919050565b600081519050919050565b600081519050919050565b600082825260208201905092915050565b600082825260208201905092915050565b6000611ce682611e4e565b9150611cf183611e4e565b9250827fffffffffffffffffffffffffffffffffffffffffffffffffffffffffffffffff03821115611d2657611d25611f46565b5b828201905092915050565b6000611d3c82611e4e565b9150611d4783611e4e565b925082611d5757611d56611f75565b5b828204905092915050565b6000611d6d82611e4e565b9150611d7883611e4e565b9250817fffffffffffffffffffffffffffffffffffffffffffffffffffffffffffffffff0483118215151615611db157611db0611f46565b5b828202905092915050565b6000611dc782611e4e565b9150611dd283611e4e565b925082821015611de557611de4611f46565b5b828203905092915050565b6000611dfb82611e2e565b9050919050565b6000611e0d82611e2e565b9050919050565b60008115159050919050565b600061ffff82169050919050565b600073ffffffffffffffffffffffffffffffffffffffff82169050919050565b6000819050919050565b82818337600083830152505050565b60005b83811015611e85578082015181840152602081019050611e6a565b83811115611e94576000848401525b50505050565b60006002820490506001821680611eb257607f821691505b60208210811415611ec657611ec5611fa4565b5b50919050565b611ed582612045565b810181811067ffffffffffffffff82111715611ef457611ef3612002565b5b80604052505050565b6000611f0882611e4e565b91507fffffffffffffffffffffffffffffffffffffffffffffffffffffffffffffffff821415611f3b57611f3a611f46565b5b600182019050919050565b7f4e487b7100000000000000000000000000000000000000000000000000000000600052601160045260246000fd5b7f4e487b7100000000000000000000000000000000000000000000000000000000600052601260045260246000fd5b7f4e487b7100000000000000000000000000000000000000000000000000000000600052602260045260246000fd5b7f4e487b7100000000000000000000000000000000000000000000000000000000600052603260045260246000fd5b7f4e487b7100000000000000000000000000000000000000000000000000000000600052604160045260246000fd5b600080fd5b600080fd5b600080fd5b600080fd5b6000601f19601f8301169050919050565b7f496e73756666696369656e742062657420616d6f756e74000000000000000000600082015250565b7f4f6e6c792061646d696e2063616e2063616c6c20746869732066756e6374696f60008201527f6e00000000000000000000000000000000000000000000000000000000000000602082015250565b6120d781611df0565b81146120e257600080fd5b50565b6120ee81611e20565b81146120f957600080fd5b50565b61210581611e4e565b811461211057600080fd5b5056fea2646970667358221220a5b8f6dba28bcdc5f44afe51803f074c56ddacfd193bab71b1118cabb02c1d9864736f6c63430008070033",
  "linkReferences": {},
  "deployedLinkReferences": {}
}