{
  "_format": "hh-sol-artifact-1",
  "contractName": "Betting",
  "sourceName": "contracts/BinaryBet.sol",
  "abi": [
    {
      "inputs": [
        {
          "internalType": "string",
          "name": "_gameDescription",
          "type": "string"
        },
        {
          "internalType": "string",
          "name": "_option1Name",
          "type": "string"
        },
        {
          "internalType": "string",
          "name": "_option2Name",
          "type": "string"
        },
        {
          "internalType": "string",
          "name": "_option1LeagueName",
          "type": "string"
        },
        {
          "internalType": "string",
          "name": "_option2LeagueName",
          "type": "string"
        },
        {
          "internalType": "uint256",
          "name": "_matchDateTimestamp",
          "type": "uint256"
        },
        {
          "internalType": "uint256",
          "name": "entranceFee",
          "type": "uint256"
        }
      ],
      "stateMutability": "nonpayable",
      "type": "constructor"
    },
    {
      "inputs": [
        {
          "internalType": "uint256",
          "name": "currentBalance",
          "type": "uint256"
        },
        {
          "internalType": "uint256",
          "name": "numPlayers",
          "type": "uint256"
        },
        {
          "internalType": "bool",
          "name": "gameFinished",
          "type": "bool"
        }
      ],
      "name": "Betting__ExecuteNotNeeded",
      "type": "error"
    },
    {
      "anonymous": false,
      "inputs": [
        {
          "indexed": true,
          "internalType": "address",
          "name": "player",
          "type": "address"
        }
      ],
      "name": "BettingEnter",
      "type": "event"
    },
    {
      "inputs": [],
      "name": "AmountOne",
      "outputs": [
        {
          "internalType": "uint256",
          "name": "",
          "type": "uint256"
        }
      ],
      "stateMutability": "view",
      "type": "function"
    },
    {
      "inputs": [],
      "name": "AmountTwo",
      "outputs": [
        {
          "internalType": "uint256",
          "name": "",
          "type": "uint256"
        }
      ],
      "stateMutability": "view",
      "type": "function"
    },
    {
      "inputs": [],
      "name": "betOnOption1",
      "outputs": [],
      "stateMutability": "payable",
      "type": "function"
    },
    {
      "inputs": [],
      "name": "betOnOption2",
      "outputs": [],
      "stateMutability": "payable",
      "type": "function"
    },
    {
      "inputs": [],
      "name": "checkExecuteReady",
      "outputs": [
        {
          "internalType": "bool",
          "name": "readyToExecute",
          "type": "bool"
        },
        {
          "internalType": "bytes",
          "name": "",
          "type": "bytes"
        }
      ],
      "stateMutability": "view",
      "type": "function"
    },
    {
      "inputs": [
        {
          "internalType": "address",
          "name": "player",
          "type": "address"
        }
      ],
      "name": "checkPlayerExists",
      "outputs": [
        {
          "internalType": "bool",
          "name": "",
          "type": "bool"
        }
      ],
      "stateMutability": "view",
      "type": "function"
    },
    {
      "inputs": [],
      "name": "gameDescription",
      "outputs": [
        {
          "internalType": "string",
          "name": "",
          "type": "string"
        }
      ],
      "stateMutability": "view",
      "type": "function"
    },
    {
      "inputs": [],
      "name": "getAdmin",
      "outputs": [
        {
          "internalType": "address",
          "name": "",
          "type": "address"
        }
      ],
      "stateMutability": "view",
      "type": "function"
    },
    {
      "inputs": [],
      "name": "getCommissionRatio",
      "outputs": [
        {
          "internalType": "uint256",
          "name": "",
          "type": "uint256"
        }
      ],
      "stateMutability": "view",
      "type": "function"
    },
    {
      "inputs": [],
      "name": "getEntranceFee",
      "outputs": [
        {
          "internalType": "uint256",
          "name": "",
          "type": "uint256"
        }
      ],
      "stateMutability": "view",
      "type": "function"
    },
    {
      "inputs": [],
      "name": "getGameFinished",
      "outputs": [
        {
          "internalType": "bool",
          "name": "",
          "type": "bool"
        }
      ],
      "stateMutability": "view",
      "type": "function"
    },
    {
      "inputs": [],
      "name": "getMatchDateTimestamp",
      "outputs": [
        {
          "internalType": "uint256",
          "name": "",
          "type": "uint256"
        }
      ],
      "stateMutability": "view",
      "type": "function"
    },
    {
      "inputs": [],
      "name": "getNumberOfPlayers",
      "outputs": [
        {
          "internalType": "uint256",
          "name": "",
          "type": "uint256"
        }
      ],
      "stateMutability": "view",
      "type": "function"
    },
    {
      "inputs": [],
      "name": "getOption1LeagueName",
      "outputs": [
        {
          "internalType": "string",
          "name": "",
          "type": "string"
        }
      ],
      "stateMutability": "view",
      "type": "function"
    },
    {
      "inputs": [],
      "name": "getOption1Name",
      "outputs": [
        {
          "internalType": "string",
          "name": "",
          "type": "string"
        }
      ],
      "stateMutability": "view",
      "type": "function"
    },
    {
      "inputs": [],
      "name": "getOption2LeagueName",
      "outputs": [
        {
          "internalType": "string",
          "name": "",
          "type": "string"
        }
      ],
      "stateMutability": "view",
      "type": "function"
    },
    {
      "inputs": [],
      "name": "getOption2Name",
      "outputs": [
        {
          "internalType": "string",
          "name": "",
          "type": "string"
        }
      ],
      "stateMutability": "view",
      "type": "function"
    },
    {
      "inputs": [
        {
          "internalType": "uint256",
          "name": "index",
          "type": "uint256"
        }
      ],
      "name": "getPlayerInfo",
      "outputs": [
        {
          "internalType": "address",
          "name": "",
          "type": "address"
        }
      ],
      "stateMutability": "view",
      "type": "function"
    },
    {
      "inputs": [],
      "name": "getStartTimestamp",
      "outputs": [
        {
          "internalType": "uint256",
          "name": "",
          "type": "uint256"
        }
      ],
      "stateMutability": "view",
      "type": "function"
    },
    {
      "inputs": [
        {
          "internalType": "uint16",
          "name": "oraclemsg",
          "type": "uint16"
        }
      ],
      "name": "performExecute",
      "outputs": [],
      "stateMutability": "nonpayable",
      "type": "function"
    },
    {
      "inputs": [
        {
          "internalType": "address",
          "name": "",
          "type": "address"
        }
      ],
      "name": "playerInfo",
      "outputs": [
        {
          "internalType": "uint256",
          "name": "amountBet",
          "type": "uint256"
        },
        {
          "internalType": "uint16",
          "name": "teamSelected",
          "type": "uint16"
        }
      ],
      "stateMutability": "view",
      "type": "function"
    },
    {
      "inputs": [
        {
          "internalType": "uint256",
          "name": "",
          "type": "uint256"
        }
      ],
      "name": "players",
      "outputs": [
        {
          "internalType": "address payable",
          "name": "",
          "type": "address"
        }
      ],
      "stateMutability": "view",
      "type": "function"
    },
    {
      "inputs": [
        {
          "internalType": "string",
          "name": "_gameDescription",
          "type": "string"
        },
        {
          "internalType": "string",
          "name": "_option1Name",
          "type": "string"
        },
        {
          "internalType": "string",
          "name": "_option1LeagueName",
          "type": "string"
        },
        {
          "internalType": "string",
          "name": "_option2Name",
          "type": "string"
        },
        {
          "internalType": "string",
          "name": "_option2LeagueName",
          "type": "string"
        },
        {
          "internalType": "uint256",
          "name": "_matchDateTimestamp",
          "type": "uint256"
        }
      ],
      "name": "reopenGame",
      "outputs": [],
      "stateMutability": "nonpayable",
      "type": "function"
    }
  ],
  "bytecode": "0x60806040526005600f553480156200001657600080fd5b5060405162002a5838038062002a5883398181016040528101906200003c919062000345565b806000819055506000600660146101000a81548160ff021916908315150217905550426003819055508160048190555033600660006101000a81548173ffffffffffffffffffffffffffffffffffffffff021916908373ffffffffffffffffffffffffffffffffffffffff1602179055508660079081620000be9190620006d4565b508560089081620000d09190620006d4565b508460099081620000e29190620006d4565b5083600a9081620000f49190620006d4565b5082600b9081620001069190620006d4565b50600660009054906101000a900473ffffffffffffffffffffffffffffffffffffffff16600560006101000a81548173ffffffffffffffffffffffffffffffffffffffff021916908373ffffffffffffffffffffffffffffffffffffffff16021790555050505050505050620007bb565b6000604051905090565b600080fd5b600080fd5b600080fd5b600080fd5b6000601f19601f8301169050919050565b7f4e487b7100000000000000000000000000000000000000000000000000000000600052604160045260246000fd5b620001e08262000195565b810181811067ffffffffffffffff82111715620002025762000201620001a6565b5b80604052505050565b60006200021762000177565b9050620002258282620001d5565b919050565b600067ffffffffffffffff821115620002485762000247620001a6565b5b620002538262000195565b9050602081019050919050565b60005b838110156200028057808201518184015260208101905062000263565b60008484015250505050565b6000620002a36200029d846200022a565b6200020b565b905082815260208101848484011115620002c257620002c162000190565b5b620002cf84828562000260565b509392505050565b600082601f830112620002ef57620002ee6200018b565b5b8151620003018482602086016200028c565b91505092915050565b6000819050919050565b6200031f816200030a565b81146200032b57600080fd5b50565b6000815190506200033f8162000314565b92915050565b600080600080600080600060e0888a03121562000367576200036662000181565b5b600088015167ffffffffffffffff81111562000388576200038762000186565b5b620003968a828b01620002d7565b975050602088015167ffffffffffffffff811115620003ba57620003b962000186565b5b620003c88a828b01620002d7565b965050604088015167ffffffffffffffff811115620003ec57620003eb62000186565b5b620003fa8a828b01620002d7565b955050606088015167ffffffffffffffff8111156200041e576200041d62000186565b5b6200042c8a828b01620002d7565b945050608088015167ffffffffffffffff81111562000450576200044f62000186565b5b6200045e8a828b01620002d7565b93505060a0620004718a828b016200032e565b92505060c0620004848a828b016200032e565b91505092959891949750929550565b600081519050919050565b7f4e487b7100000000000000000000000000000000000000000000000000000000600052602260045260246000fd5b60006002820490506001821680620004e657607f821691505b602082108103620004fc57620004fb6200049e565b5b50919050565b60008190508160005260206000209050919050565b60006020601f8301049050919050565b600082821b905092915050565b600060088302620005667fffffffffffffffffffffffffffffffffffffffffffffffffffffffffffffffff8262000527565b62000572868362000527565b95508019841693508086168417925050509392505050565b6000819050919050565b6000620005b5620005af620005a9846200030a565b6200058a565b6200030a565b9050919050565b6000819050919050565b620005d18362000594565b620005e9620005e082620005bc565b84845462000534565b825550505050565b600090565b62000600620005f1565b6200060d818484620005c6565b505050565b5b81811015620006355762000629600082620005f6565b60018101905062000613565b5050565b601f82111562000684576200064e8162000502565b620006598462000517565b8101602085101562000669578190505b62000681620006788562000517565b83018262000612565b50505b505050565b600082821c905092915050565b6000620006a96000198460080262000689565b1980831691505092915050565b6000620006c4838362000696565b9150826002028217905092915050565b620006df8262000493565b67ffffffffffffffff811115620006fb57620006fa620001a6565b5b620007078254620004cd565b6200071482828562000639565b600060209050601f8311600181146200074c576000841562000737578287015190505b620007438582620006b6565b865550620007b3565b601f1984166200075c8662000502565b60005b8281101562000786578489015182556001820191506020850194506020810190506200075f565b86831015620007a65784890151620007a2601f89168262000696565b8355505b6001600288020188555050505b505050505050565b61228d80620007cb6000396000f3fe6080604052600436106101405760003560e01c80634b114691116100b65780638b5d691c1161006f5780638b5d691c14610421578063c85398081461044c578063ea17532e14610456578063f71d96cb14610493578063fd6673f5146104d0578063fdbe6667146104fb57610140565b80634b1146911461030d578063657335921461034b578063676f6474146103765780636e9960c3146103a2578063777cd247146103cd5780637dc6e841146103f657610140565b80632aae3630116101085780632aae3630146101fb5780632b74e9bd146102265780632f9f65f6146102515780633ca53bba1461027c5780634081d916146102a55780634996d51d146102e257610140565b806309bc33a7146101455780630ca74040146101705780631385f1a91461017a5780631f89f25e146101a557806327f0cbc0146101d0575b600080fd5b34801561015157600080fd5b5061015a610526565b60405161016791906116c1565b60405180910390f35b61017861052f565b005b34801561018657600080fd5b5061018f61072c565b60405161019c919061176c565b60405180910390f35b3480156101b157600080fd5b506101ba6107be565b6040516101c791906116c1565b60405180910390f35b3480156101dc57600080fd5b506101e56107c8565b6040516101f291906117a9565b60405180910390f35b34801561020757600080fd5b506102106107df565b60405161021d919061176c565b60405180910390f35b34801561023257600080fd5b5061023b610871565b60405161024891906116c1565b60405180910390f35b34801561025d57600080fd5b5061026661087b565b604051610273919061176c565b60405180910390f35b34801561028857600080fd5b506102a3600480360381019061029e9190611812565b61090d565b005b3480156102b157600080fd5b506102cc60048036038101906102c7919061189d565b610a11565b6040516102d991906117a9565b60405180910390f35b3480156102ee57600080fd5b506102f7610ac2565b60405161030491906116c1565b60405180910390f35b34801561031957600080fd5b50610334600480360381019061032f919061189d565b610acc565b6040516103429291906118d9565b60405180910390f35b34801561035757600080fd5b50610360610afe565b60405161036d91906116c1565b60405180910390f35b34801561038257600080fd5b5061038b610b08565b604051610399929190611957565b60405180910390f35b3480156103ae57600080fd5b506103b7610bae565b6040516103c49190611996565b60405180910390f35b3480156103d957600080fd5b506103f460048036038101906103ef9190611b12565b610bd8565b005b34801561040257600080fd5b5061040b610d49565b604051610418919061176c565b60405180910390f35b34801561042d57600080fd5b50610436610ddb565b604051610443919061176c565b60405180910390f35b610454610e69565b005b34801561046257600080fd5b5061047d60048036038101906104789190611c2b565b611066565b60405161048a9190611996565b60405180910390f35b34801561049f57600080fd5b506104ba60048036038101906104b59190611c2b565b6110ae565b6040516104c79190611c79565b60405180910390f35b3480156104dc57600080fd5b506104e56110ed565b6040516104f291906116c1565b60405180910390f35b34801561050757600080fd5b506105106110fa565b60405161051d91906116c1565b60405180910390f35b60008054905090565b61053833610a11565b1561054257600080fd5b600660149054906101000a900460ff161561055c57600080fd5b6000543410156105a1576040517f08c379a000000000000000000000000000000000000000000000000000000000815260040161059890611ce0565b60405180910390fd5b34600c60003373ffffffffffffffffffffffffffffffffffffffff1673ffffffffffffffffffffffffffffffffffffffff168152602001908152602001600020600001819055506001600c60003373ffffffffffffffffffffffffffffffffffffffff1673ffffffffffffffffffffffffffffffffffffffff16815260200190815260200160002060010160006101000a81548161ffff021916908361ffff160217905550600d339080600181540180825580915050600190039060005260206000200160009091909190916101000a81548173ffffffffffffffffffffffffffffffffffffffff021916908373ffffffffffffffffffffffffffffffffffffffff1602179055506064600f5460646106ba9190611d2f565b346106c59190611d63565b6106cf9190611dd4565b600160008282546106e09190611e05565b925050819055503373ffffffffffffffffffffffffffffffffffffffff167f7f47e4b864ee52d8ca461d379020be7e99ae801a152dde71193bdc651da8a7c060405160405180910390a2565b6060600a805461073b90611e68565b80601f016020809104026020016040519081016040528092919081815260200182805461076790611e68565b80156107b45780601f10610789576101008083540402835291602001916107b4565b820191906000526020600020905b81548152906001019060200180831161079757829003601f168201915b5050505050905090565b6000600354905090565b6000600660149054906101000a900460ff16905090565b6060600880546107ee90611e68565b80601f016020809104026020016040519081016040528092919081815260200182805461081a90611e68565b80156108675780601f1061083c57610100808354040283529160200191610867565b820191906000526020600020905b81548152906001019060200180831161084a57829003601f168201915b5050505050905090565b6000600454905090565b6060600b805461088a90611e68565b80601f01602080910402602001604051908101604052809291908181526020018280546108b690611e68565b80156109035780601f106108d857610100808354040283529160200191610903565b820191906000526020600020905b8154815290600101906020018083116108e657829003601f168201915b5050505050905090565b600660009054906101000a900473ffffffffffffffffffffffffffffffffffffffff1673ffffffffffffffffffffffffffffffffffffffff163373ffffffffffffffffffffffffffffffffffffffff161461099d576040517f08c379a000000000000000000000000000000000000000000000000000000000815260040161099490611f0b565b60405180910390fd5b60006109a7610b08565b50905080610a045747600d80549050600660149054906101000a900460ff166040517f0f7249540000000000000000000000000000000000000000000000000000000081526004016109fb93929190611f2b565b60405180910390fd5b610a0d82611104565b5050565b600080600d80549050905060005b81811015610ab6578373ffffffffffffffffffffffffffffffffffffffff16600d8281548110610a5257610a51611f62565b5b9060005260206000200160009054906101000a900473ffffffffffffffffffffffffffffffffffffffff1673ffffffffffffffffffffffffffffffffffffffff1603610aa357600192505050610abd565b8080610aae90611f91565b915050610a1f565b5060009150505b919050565b6000600154905090565b600c6020528060005260406000206000915090508060000154908060010160009054906101000a900461ffff16905082565b6000600254905090565b600060606000801515600660149054906101000a900460ff16151514905060008060045442610b379190611d2f565b119050600080600d8054905011905060008047119050828015610b575750835b8015610b605750805b8015610b695750815b9550856040518060400160405280600381526020017f307830000000000000000000000000000000000000000000000000000000000081525095509550505050509091565b6000600660009054906101000a900473ffffffffffffffffffffffffffffffffffffffff16905090565b600660009054906101000a900473ffffffffffffffffffffffffffffffffffffffff1673ffffffffffffffffffffffffffffffffffffffff163373ffffffffffffffffffffffffffffffffffffffff1614610c68576040517f08c379a0000000000000000000000000000000000000000000000000000000008152600401610c5f90611f0b565b60405180910390fd5b6000600660146101000a81548160ff0219169083151502179055508560079081610c929190612185565b508460089081610ca29190612185565b5083600a9081610cb29190612185565b508260099081610cc29190612185565b5081600b9081610cd29190612185565b5080600481905550600067ffffffffffffffff811115610cf557610cf46119bb565b5b604051908082528060200260200182016040528015610d235781602001602082028036833780820191505090505b50600d9080519060200190610d399291906115e0565b5042600381905550505050505050565b606060098054610d5890611e68565b80601f0160208091040260200160405190810160405280929190818152602001828054610d8490611e68565b8015610dd15780601f10610da657610100808354040283529160200191610dd1565b820191906000526020600020905b815481529060010190602001808311610db457829003601f168201915b5050505050905090565b60078054610de890611e68565b80601f0160208091040260200160405190810160405280929190818152602001828054610e1490611e68565b8015610e615780601f10610e3657610100808354040283529160200191610e61565b820191906000526020600020905b815481529060010190602001808311610e4457829003601f168201915b505050505081565b610e7233610a11565b15610e7c57600080fd5b600660149054906101000a900460ff1615610e9657600080fd5b600054341015610edb576040517f08c379a0000000000000000000000000000000000000000000000000000000008152600401610ed290611ce0565b60405180910390fd5b34600c60003373ffffffffffffffffffffffffffffffffffffffff1673ffffffffffffffffffffffffffffffffffffffff168152602001908152602001600020600001819055506002600c60003373ffffffffffffffffffffffffffffffffffffffff1673ffffffffffffffffffffffffffffffffffffffff16815260200190815260200160002060010160006101000a81548161ffff021916908361ffff160217905550600d339080600181540180825580915050600190039060005260206000200160009091909190916101000a81548173ffffffffffffffffffffffffffffffffffffffff021916908373ffffffffffffffffffffffffffffffffffffffff1602179055506064600f546064610ff49190611d2f565b34610fff9190611d63565b6110099190611dd4565b6002600082825461101a9190611e05565b925050819055503373ffffffffffffffffffffffffffffffffffffffff167f7f47e4b864ee52d8ca461d379020be7e99ae801a152dde71193bdc651da8a7c060405160405180910390a2565b6000600d828154811061107c5761107b611f62565b5b9060005260206000200160009054906101000a900473ffffffffffffffffffffffffffffffffffffffff169050919050565b600d81815481106110be57600080fd5b906000526020600020016000915054906101000a900473ffffffffffffffffffffffffffffffffffffffff1681565b6000600d80549050905090565b6000600f54905090565b600660009054906101000a900473ffffffffffffffffffffffffffffffffffffffff1673ffffffffffffffffffffffffffffffffffffffff163373ffffffffffffffffffffffffffffffffffffffff1614611194576040517f08c379a000000000000000000000000000000000000000000000000000000000815260040161118b90611f0b565b60405180910390fd5b600080600080600080600090505b600d805490508110156112c657600d81815481106111c3576111c2611f62565b5b9060005260206000200160009054906101000a900473ffffffffffffffffffffffffffffffffffffffff1691508661ffff16600c60008473ffffffffffffffffffffffffffffffffffffffff1673ffffffffffffffffffffffffffffffffffffffff16815260200190815260200160002060010160009054906101000a900461ffff1661ffff16036112b357600e829080600181540180825580915050600190039060005260206000200160009091909190916101000a81548173ffffffffffffffffffffffffffffffffffffffff021916908373ffffffffffffffffffffffffffffffffffffffff1602179055505b80806112be90611f91565b9150506111a2565b5060018661ffff16036112e257600254945060015493506112ed565b600154945060025493505b60005b600e8054905081101561145e57600e818154811061131157611310611f62565b5b9060005260206000200160009054906101000a900473ffffffffffffffffffffffffffffffffffffffff169350600c60008573ffffffffffffffffffffffffffffffffffffffff1673ffffffffffffffffffffffffffffffffffffffff168152602001908152602001600020600001549250600061271086612710896113979190611d63565b6113a19190611dd4565b6127106113ae9190611e05565b856113b99190611d63565b6113c39190611dd4565b9050600e82815481106113d9576113d8611f62565b5b9060005260206000200160009054906101000a900473ffffffffffffffffffffffffffffffffffffffff1673ffffffffffffffffffffffffffffffffffffffff166108fc829081150290604051600060405180830381858888f19350505050158015611449573d6000803e3d6000fd5b5050808061145690611f91565b9150506112f0565b50600560009054906101000a900473ffffffffffffffffffffffffffffffffffffffff1673ffffffffffffffffffffffffffffffffffffffff166108fc479081150290604051600060405180830381858888f193505050501580156114c7573d6000803e3d6000fd5b506001600660146101000a81548160ff02191690831515021790555060005b600d805490508110156115a357600c6000600d838154811061150b5761150a611f62565b5b9060005260206000200160009054906101000a900473ffffffffffffffffffffffffffffffffffffffff1673ffffffffffffffffffffffffffffffffffffffff1673ffffffffffffffffffffffffffffffffffffffff1681526020019081526020016000206000808201600090556001820160006101000a81549061ffff02191690555050808061159b90611f91565b9150506114e6565b50600d60006115b2919061166a565b600e60006115c0919061166a565b600094506000935060006001819055506000600281905550505050505050565b828054828255906000526020600020908101928215611659579160200282015b828111156116585782518260006101000a81548173ffffffffffffffffffffffffffffffffffffffff021916908373ffffffffffffffffffffffffffffffffffffffff16021790555091602001919060010190611600565b5b509050611666919061168b565b5090565b5080546000825590600052602060002090810190611688919061168b565b50565b5b808211156116a457600081600090555060010161168c565b5090565b6000819050919050565b6116bb816116a8565b82525050565b60006020820190506116d660008301846116b2565b92915050565b600081519050919050565b600082825260208201905092915050565b60005b838110156117165780820151818401526020810190506116fb565b60008484015250505050565b6000601f19601f8301169050919050565b600061173e826116dc565b61174881856116e7565b93506117588185602086016116f8565b61176181611722565b840191505092915050565b600060208201905081810360008301526117868184611733565b905092915050565b60008115159050919050565b6117a38161178e565b82525050565b60006020820190506117be600083018461179a565b92915050565b6000604051905090565b600080fd5b600080fd5b600061ffff82169050919050565b6117ef816117d8565b81146117fa57600080fd5b50565b60008135905061180c816117e6565b92915050565b600060208284031215611828576118276117ce565b5b6000611836848285016117fd565b91505092915050565b600073ffffffffffffffffffffffffffffffffffffffff82169050919050565b600061186a8261183f565b9050919050565b61187a8161185f565b811461188557600080fd5b50565b60008135905061189781611871565b92915050565b6000602082840312156118b3576118b26117ce565b5b60006118c184828501611888565b91505092915050565b6118d3816117d8565b82525050565b60006040820190506118ee60008301856116b2565b6118fb60208301846118ca565b9392505050565b600081519050919050565b600082825260208201905092915050565b600061192982611902565b611933818561190d565b93506119438185602086016116f8565b61194c81611722565b840191505092915050565b600060408201905061196c600083018561179a565b818103602083015261197e818461191e565b90509392505050565b6119908161185f565b82525050565b60006020820190506119ab6000830184611987565b92915050565b600080fd5b600080fd5b7f4e487b7100000000000000000000000000000000000000000000000000000000600052604160045260246000fd5b6119f382611722565b810181811067ffffffffffffffff82111715611a1257611a116119bb565b5b80604052505050565b6000611a256117c4565b9050611a3182826119ea565b919050565b600067ffffffffffffffff821115611a5157611a506119bb565b5b611a5a82611722565b9050602081019050919050565b82818337600083830152505050565b6000611a89611a8484611a36565b611a1b565b905082815260208101848484011115611aa557611aa46119b6565b5b611ab0848285611a67565b509392505050565b600082601f830112611acd57611acc6119b1565b5b8135611add848260208601611a76565b91505092915050565b611aef816116a8565b8114611afa57600080fd5b50565b600081359050611b0c81611ae6565b92915050565b60008060008060008060c08789031215611b2f57611b2e6117ce565b5b600087013567ffffffffffffffff811115611b4d57611b4c6117d3565b5b611b5989828a01611ab8565b965050602087013567ffffffffffffffff811115611b7a57611b796117d3565b5b611b8689828a01611ab8565b955050604087013567ffffffffffffffff811115611ba757611ba66117d3565b5b611bb389828a01611ab8565b945050606087013567ffffffffffffffff811115611bd457611bd36117d3565b5b611be089828a01611ab8565b935050608087013567ffffffffffffffff811115611c0157611c006117d3565b5b611c0d89828a01611ab8565b92505060a0611c1e89828a01611afd565b9150509295509295509295565b600060208284031215611c4157611c406117ce565b5b6000611c4f84828501611afd565b91505092915050565b6000611c638261183f565b9050919050565b611c7381611c58565b82525050565b6000602082019050611c8e6000830184611c6a565b92915050565b7f496e73756666696369656e742062657420616d6f756e74000000000000000000600082015250565b6000611cca6017836116e7565b9150611cd582611c94565b602082019050919050565b60006020820190508181036000830152611cf981611cbd565b9050919050565b7f4e487b7100000000000000000000000000000000000000000000000000000000600052601160045260246000fd5b6000611d3a826116a8565b9150611d45836116a8565b9250828203905081811115611d5d57611d5c611d00565b5b92915050565b6000611d6e826116a8565b9150611d79836116a8565b9250828202611d87816116a8565b91508282048414831517611d9e57611d9d611d00565b5b5092915050565b7f4e487b7100000000000000000000000000000000000000000000000000000000600052601260045260246000fd5b6000611ddf826116a8565b9150611dea836116a8565b925082611dfa57611df9611da5565b5b828204905092915050565b6000611e10826116a8565b9150611e1b836116a8565b9250828201905080821115611e3357611e32611d00565b5b92915050565b7f4e487b7100000000000000000000000000000000000000000000000000000000600052602260045260246000fd5b60006002820490506001821680611e8057607f821691505b602082108103611e9357611e92611e39565b5b50919050565b7f4f6e6c792061646d696e2063616e2063616c6c20746869732066756e6374696f60008201527f6e00000000000000000000000000000000000000000000000000000000000000602082015250565b6000611ef56021836116e7565b9150611f0082611e99565b604082019050919050565b60006020820190508181036000830152611f2481611ee8565b9050919050565b6000606082019050611f4060008301866116b2565b611f4d60208301856116b2565b611f5a604083018461179a565b949350505050565b7f4e487b7100000000000000000000000000000000000000000000000000000000600052603260045260246000fd5b6000611f9c826116a8565b91507fffffffffffffffffffffffffffffffffffffffffffffffffffffffffffffffff8203611fce57611fcd611d00565b5b600182019050919050565b60008190508160005260206000209050919050565b60006020601f8301049050919050565b600082821b905092915050565b60006008830261203b7fffffffffffffffffffffffffffffffffffffffffffffffffffffffffffffffff82611ffe565b6120458683611ffe565b95508019841693508086168417925050509392505050565b6000819050919050565b600061208261207d612078846116a8565b61205d565b6116a8565b9050919050565b6000819050919050565b61209c83612067565b6120b06120a882612089565b84845461200b565b825550505050565b600090565b6120c56120b8565b6120d0818484612093565b505050565b5b818110156120f4576120e96000826120bd565b6001810190506120d6565b5050565b601f8211156121395761210a81611fd9565b61211384611fee565b81016020851015612122578190505b61213661212e85611fee565b8301826120d5565b50505b505050565b600082821c905092915050565b600061215c6000198460080261213e565b1980831691505092915050565b6000612175838361214b565b9150826002028217905092915050565b61218e826116dc565b67ffffffffffffffff8111156121a7576121a66119bb565b5b6121b18254611e68565b6121bc8282856120f8565b600060209050601f8311600181146121ef57600084156121dd578287015190505b6121e78582612169565b86555061224f565b601f1984166121fd86611fd9565b60005b8281101561222557848901518255600182019150602085019450602081019050612200565b86831015612242578489015161223e601f89168261214b565b8355505b6001600288020188555050505b50505050505056fea26469706673582212206f8ac136ca87a86655f7f4c6dba16acb238011cabb93368bab69313baee1e5be64736f6c63430008110033",
  "linkReferences": {},
  "deployedLinkReferences": {}
}