{
  "_format": "hh-sol-artifact-1",
  "contractName": "Betting",
  "sourceName": "contracts/BinaryBet.sol",
  "abi": [
    {
      "inputs": [
        {
          "internalType": "string",
          "name": "_gameDescription",
          "type": "string"
        },
        {
          "internalType": "string",
          "name": "_option1Name",
          "type": "string"
        },
        {
          "internalType": "string",
          "name": "_option2Name",
          "type": "string"
        },
        {
          "internalType": "string",
          "name": "_option1LeagueName",
          "type": "string"
        },
        {
          "internalType": "string",
          "name": "_option2LeagueName",
          "type": "string"
        },
        {
          "internalType": "uint256",
          "name": "_matchDateTimestamp",
          "type": "uint256"
        },
        {
          "internalType": "uint256",
          "name": "entranceFee",
          "type": "uint256"
        }
      ],
      "stateMutability": "nonpayable",
      "type": "constructor"
    },
    {
      "inputs": [
        {
          "internalType": "uint256",
          "name": "currentBalance",
          "type": "uint256"
        },
        {
          "internalType": "uint256",
          "name": "numPlayers",
          "type": "uint256"
        },
        {
          "internalType": "bool",
          "name": "gameFinished",
          "type": "bool"
        }
      ],
      "name": "Betting__ExecuteNotNeeded",
      "type": "error"
    },
    {
      "anonymous": false,
      "inputs": [
        {
          "indexed": true,
          "internalType": "address",
          "name": "player",
          "type": "address"
        }
      ],
      "name": "BettingEnter",
      "type": "event"
    },
    {
      "inputs": [],
      "name": "AmountOne",
      "outputs": [
        {
          "internalType": "uint256",
          "name": "",
          "type": "uint256"
        }
      ],
      "stateMutability": "view",
      "type": "function"
    },
    {
      "inputs": [],
      "name": "AmountTwo",
      "outputs": [
        {
          "internalType": "uint256",
          "name": "",
          "type": "uint256"
        }
      ],
      "stateMutability": "view",
      "type": "function"
    },
    {
      "inputs": [],
      "name": "betOnOption1",
      "outputs": [],
      "stateMutability": "payable",
      "type": "function"
    },
    {
      "inputs": [],
      "name": "betOnOption2",
      "outputs": [],
      "stateMutability": "payable",
      "type": "function"
    },
    {
      "inputs": [],
      "name": "checkExecuteReady",
      "outputs": [
        {
          "internalType": "bool",
          "name": "readyToExecute",
          "type": "bool"
        },
        {
          "internalType": "bytes",
          "name": "",
          "type": "bytes"
        }
      ],
      "stateMutability": "view",
      "type": "function"
    },
    {
      "inputs": [
        {
          "internalType": "address",
          "name": "player",
          "type": "address"
        }
      ],
      "name": "checkPlayerExists",
      "outputs": [
        {
          "internalType": "bool",
          "name": "",
          "type": "bool"
        }
      ],
      "stateMutability": "view",
      "type": "function"
    },
    {
      "inputs": [],
      "name": "gameDescription",
      "outputs": [
        {
          "internalType": "string",
          "name": "",
          "type": "string"
        }
      ],
      "stateMutability": "view",
      "type": "function"
    },
    {
      "inputs": [],
      "name": "gameFinished",
      "outputs": [
        {
          "internalType": "bool",
          "name": "",
          "type": "bool"
        }
      ],
      "stateMutability": "view",
      "type": "function"
    },
    {
      "inputs": [],
      "name": "getAdmin",
      "outputs": [
        {
          "internalType": "address",
          "name": "",
          "type": "address"
        }
      ],
      "stateMutability": "view",
      "type": "function"
    },
    {
      "inputs": [],
      "name": "getEntranceFee",
      "outputs": [
        {
          "internalType": "uint256",
          "name": "",
          "type": "uint256"
        }
      ],
      "stateMutability": "view",
      "type": "function"
    },
    {
      "inputs": [],
      "name": "getGameFinished",
      "outputs": [
        {
          "internalType": "bool",
          "name": "",
          "type": "bool"
        }
      ],
      "stateMutability": "view",
      "type": "function"
    },
    {
      "inputs": [],
      "name": "getMatchDateTimestamp",
      "outputs": [
        {
          "internalType": "uint256",
          "name": "",
          "type": "uint256"
        }
      ],
      "stateMutability": "view",
      "type": "function"
    },
    {
      "inputs": [],
      "name": "getNumberOfPlayers",
      "outputs": [
        {
          "internalType": "uint256",
          "name": "",
          "type": "uint256"
        }
      ],
      "stateMutability": "view",
      "type": "function"
    },
    {
      "inputs": [],
      "name": "getOption1LeagueName",
      "outputs": [
        {
          "internalType": "string",
          "name": "",
          "type": "string"
        }
      ],
      "stateMutability": "view",
      "type": "function"
    },
    {
      "inputs": [],
      "name": "getOption1Name",
      "outputs": [
        {
          "internalType": "string",
          "name": "",
          "type": "string"
        }
      ],
      "stateMutability": "view",
      "type": "function"
    },
    {
      "inputs": [],
      "name": "getOption2LeagueName",
      "outputs": [
        {
          "internalType": "string",
          "name": "",
          "type": "string"
        }
      ],
      "stateMutability": "view",
      "type": "function"
    },
    {
      "inputs": [],
      "name": "getOption2Name",
      "outputs": [
        {
          "internalType": "string",
          "name": "",
          "type": "string"
        }
      ],
      "stateMutability": "view",
      "type": "function"
    },
    {
      "inputs": [
        {
          "internalType": "uint256",
          "name": "index",
          "type": "uint256"
        }
      ],
      "name": "getPlayerInfo",
      "outputs": [
        {
          "internalType": "address",
          "name": "",
          "type": "address"
        }
      ],
      "stateMutability": "view",
      "type": "function"
    },
    {
      "inputs": [],
      "name": "getStartTimestamp",
      "outputs": [
        {
          "internalType": "uint256",
          "name": "",
          "type": "uint256"
        }
      ],
      "stateMutability": "view",
      "type": "function"
    },
    {
      "inputs": [],
      "name": "option1LeagueName",
      "outputs": [
        {
          "internalType": "string",
          "name": "",
          "type": "string"
        }
      ],
      "stateMutability": "view",
      "type": "function"
    },
    {
      "inputs": [],
      "name": "option1Name",
      "outputs": [
        {
          "internalType": "string",
          "name": "",
          "type": "string"
        }
      ],
      "stateMutability": "view",
      "type": "function"
    },
    {
      "inputs": [],
      "name": "option2LeagueName",
      "outputs": [
        {
          "internalType": "string",
          "name": "",
          "type": "string"
        }
      ],
      "stateMutability": "view",
      "type": "function"
    },
    {
      "inputs": [],
      "name": "option2Name",
      "outputs": [
        {
          "internalType": "string",
          "name": "",
          "type": "string"
        }
      ],
      "stateMutability": "view",
      "type": "function"
    },
    {
      "inputs": [],
      "name": "owner",
      "outputs": [
        {
          "internalType": "address payable",
          "name": "",
          "type": "address"
        }
      ],
      "stateMutability": "view",
      "type": "function"
    },
    {
      "inputs": [
        {
          "internalType": "uint16",
          "name": "oraclemsg",
          "type": "uint16"
        }
      ],
      "name": "performExecute",
      "outputs": [],
      "stateMutability": "nonpayable",
      "type": "function"
    },
    {
      "inputs": [
        {
          "internalType": "address",
          "name": "",
          "type": "address"
        }
      ],
      "name": "playerInfo",
      "outputs": [
        {
          "internalType": "uint256",
          "name": "amountBet",
          "type": "uint256"
        },
        {
          "internalType": "uint16",
          "name": "teamSelected",
          "type": "uint16"
        }
      ],
      "stateMutability": "view",
      "type": "function"
    },
    {
      "inputs": [
        {
          "internalType": "uint256",
          "name": "",
          "type": "uint256"
        }
      ],
      "name": "players",
      "outputs": [
        {
          "internalType": "address payable",
          "name": "",
          "type": "address"
        }
      ],
      "stateMutability": "view",
      "type": "function"
    },
    {
      "inputs": [
        {
          "internalType": "string",
          "name": "_gameDescription",
          "type": "string"
        },
        {
          "internalType": "string",
          "name": "_option1Name",
          "type": "string"
        },
        {
          "internalType": "string",
          "name": "_option2Name",
          "type": "string"
        },
        {
          "internalType": "uint256",
          "name": "_matchDateTimestamp",
          "type": "uint256"
        }
      ],
      "name": "reopenGame",
      "outputs": [],
      "stateMutability": "nonpayable",
      "type": "function"
    }
  ],
  "bytecode": "0x6080604052600a600f553480156200001657600080fd5b5060405162002a0c38038062002a0c83398181016040528101906200003c9190620002df565b806000819055506000600660146101000a81548160ff021916908315150217905550426003819055508160048190555033600660006101000a81548173ffffffffffffffffffffffffffffffffffffffff021916908373ffffffffffffffffffffffffffffffffffffffff1602179055508660079080519060200190620000c59291906200019a565b508560089080519060200190620000de9291906200019a565b508460099080519060200190620000f79291906200019a565b5083600a9080519060200190620001109291906200019a565b5082600b9080519060200190620001299291906200019a565b50600660009054906101000a900473ffffffffffffffffffffffffffffffffffffffff16600560006101000a81548173ffffffffffffffffffffffffffffffffffffffff021916908373ffffffffffffffffffffffffffffffffffffffff16021790555050505050505050620005d5565b828054620001a890620004cc565b90600052602060002090601f016020900481019282620001cc576000855562000218565b82601f10620001e757805160ff191683800117855562000218565b8280016001018555821562000218579182015b8281111562000217578251825591602001919060010190620001fa565b5b5090506200022791906200022b565b5090565b5b80821115620002465760008160009055506001016200022c565b5090565b6000620002616200025b8462000456565b6200042d565b90508281526020810184848401111562000280576200027f6200059b565b5b6200028d84828562000496565b509392505050565b600082601f830112620002ad57620002ac62000596565b5b8151620002bf8482602086016200024a565b91505092915050565b600081519050620002d981620005bb565b92915050565b600080600080600080600060e0888a031215620003015762000300620005a5565b5b600088015167ffffffffffffffff811115620003225762000321620005a0565b5b620003308a828b0162000295565b975050602088015167ffffffffffffffff811115620003545762000353620005a0565b5b620003628a828b0162000295565b965050604088015167ffffffffffffffff811115620003865762000385620005a0565b5b620003948a828b0162000295565b955050606088015167ffffffffffffffff811115620003b857620003b7620005a0565b5b620003c68a828b0162000295565b945050608088015167ffffffffffffffff811115620003ea57620003e9620005a0565b5b620003f88a828b0162000295565b93505060a06200040b8a828b01620002c8565b92505060c06200041e8a828b01620002c8565b91505092959891949750929550565b6000620004396200044c565b905062000447828262000502565b919050565b6000604051905090565b600067ffffffffffffffff82111562000474576200047362000567565b5b6200047f82620005aa565b9050602081019050919050565b6000819050919050565b60005b83811015620004b657808201518184015260208101905062000499565b83811115620004c6576000848401525b50505050565b60006002820490506001821680620004e557607f821691505b60208210811415620004fc57620004fb62000538565b5b50919050565b6200050d82620005aa565b810181811067ffffffffffffffff821117156200052f576200052e62000567565b5b80604052505050565b7f4e487b7100000000000000000000000000000000000000000000000000000000600052602260045260246000fd5b7f4e487b7100000000000000000000000000000000000000000000000000000000600052604160045260246000fd5b600080fd5b600080fd5b600080fd5b600080fd5b6000601f19601f8301169050919050565b620005c6816200048c565b8114620005d257600080fd5b50565b61242780620005e56000396000f3fe6080604052600436106101b75760003560e01c806365733592116100ec578063c85398081161008a578063f0f3249711610064578063f0f32497146105b6578063f71d96cb146105e1578063fd6673f51461061e578063fec04cc714610649576101b7565b8063c853980814610546578063d4dbdc3214610550578063ea17532e14610579576101b7565b80637dc6e841116100c65780637dc6e8411461049a5780638b5d691c146104c55780638da5cb5b146104f0578063a4ab4a191461051b576101b7565b80636573359214610418578063676f6474146104435780636e9960c31461046f576101b7565b80632b74e9bd116101595780634081d916116101335780634081d916146103475780634996d51d146103845780634b114691146103af5780635bb68fe8146103ed576101b7565b80632b74e9bd146102c85780632f9f65f6146102f35780633ca53bba1461031e576101b7565b80631385f1a9116101955780631385f1a91461021c5780631f89f25e1461024757806327f0cbc0146102725780632aae36301461029d576101b7565b80630632cf6d146101bc57806309bc33a7146101e75780630ca7404014610212575b600080fd5b3480156101c857600080fd5b506101d1610674565b6040516101de9190611e4e565b60405180910390f35b3480156101f357600080fd5b506101fc610702565b6040516102099190611eb0565b60405180910390f35b61021a61070b565b005b34801561022857600080fd5b50610231610908565b60405161023e9190611e4e565b60405180910390f35b34801561025357600080fd5b5061025c61099a565b6040516102699190611eb0565b60405180910390f35b34801561027e57600080fd5b506102876109a4565b6040516102949190611e03565b60405180910390f35b3480156102a957600080fd5b506102b26109bb565b6040516102bf9190611e4e565b60405180910390f35b3480156102d457600080fd5b506102dd610a4d565b6040516102ea9190611eb0565b60405180910390f35b3480156102ff57600080fd5b50610308610a57565b6040516103159190611e4e565b60405180910390f35b34801561032a57600080fd5b5061034560048036038101906103409190611c70565b610ae9565b005b34801561035357600080fd5b5061036e60048036038101906103699190611b88565b610bed565b60405161037b9190611e03565b60405180910390f35b34801561039057600080fd5b50610399610c9f565b6040516103a69190611eb0565b60405180910390f35b3480156103bb57600080fd5b506103d660048036038101906103d19190611b88565b610ca9565b6040516103e4929190611ecb565b60405180910390f35b3480156103f957600080fd5b50610402610cdb565b60405161040f9190611e4e565b60405180910390f35b34801561042457600080fd5b5061042d610d69565b60405161043a9190611eb0565b60405180910390f35b34801561044f57600080fd5b50610458610d73565b604051610466929190611e1e565b60405180910390f35b34801561047b57600080fd5b50610484610e19565b6040516104919190611dcd565b60405180910390f35b3480156104a657600080fd5b506104af610e43565b6040516104bc9190611e4e565b60405180910390f35b3480156104d157600080fd5b506104da610ed5565b6040516104e79190611e4e565b60405180910390f35b3480156104fc57600080fd5b50610505610f63565b6040516105129190611de8565b60405180910390f35b34801561052757600080fd5b50610530610f89565b60405161053d9190611e4e565b60405180910390f35b61054e611017565b005b34801561055c57600080fd5b5061057760048036038101906105729190611bb5565b611214565b005b34801561058557600080fd5b506105a0600480360381019061059b9190611c9d565b611378565b6040516105ad9190611dcd565b60405180910390f35b3480156105c257600080fd5b506105cb6113c0565b6040516105d89190611e03565b60405180910390f35b3480156105ed57600080fd5b5061060860048036038101906106039190611c9d565b6113d3565b6040516106159190611de8565b60405180910390f35b34801561062a57600080fd5b50610633611412565b6040516106409190611eb0565b60405180910390f35b34801561065557600080fd5b5061065e61141f565b60405161066b9190611e4e565b60405180910390f35b6008805461068190612178565b80601f01602080910402602001604051908101604052809291908181526020018280546106ad90612178565b80156106fa5780601f106106cf576101008083540402835291602001916106fa565b820191906000526020600020905b8154815290600101906020018083116106dd57829003601f168201915b505050505081565b60008054905090565b61071433610bed565b1561071e57600080fd5b600660149054906101000a900460ff161561073857600080fd5b60005434101561077d576040517f08c379a000000000000000000000000000000000000000000000000000000000815260040161077490611e70565b60405180910390fd5b34600c60003373ffffffffffffffffffffffffffffffffffffffff1673ffffffffffffffffffffffffffffffffffffffff168152602001908152602001600020600001819055506001600c60003373ffffffffffffffffffffffffffffffffffffffff1673ffffffffffffffffffffffffffffffffffffffff16815260200190815260200160002060010160006101000a81548161ffff021916908361ffff160217905550600d339080600181540180825580915050600190039060005260206000200160009091909190916101000a81548173ffffffffffffffffffffffffffffffffffffffff021916908373ffffffffffffffffffffffffffffffffffffffff1602179055506064600f546064610896919061209a565b346108a19190612040565b6108ab919061200f565b600160008282546108bc9190611fb9565b925050819055503373ffffffffffffffffffffffffffffffffffffffff167f7f47e4b864ee52d8ca461d379020be7e99ae801a152dde71193bdc651da8a7c060405160405180910390a2565b6060600a805461091790612178565b80601f016020809104026020016040519081016040528092919081815260200182805461094390612178565b80156109905780601f1061096557610100808354040283529160200191610990565b820191906000526020600020905b81548152906001019060200180831161097357829003601f168201915b5050505050905090565b6000600354905090565b6000600660149054906101000a900460ff16905090565b6060600880546109ca90612178565b80601f01602080910402602001604051908101604052809291908181526020018280546109f690612178565b8015610a435780601f10610a1857610100808354040283529160200191610a43565b820191906000526020600020905b815481529060010190602001808311610a2657829003601f168201915b5050505050905090565b6000600454905090565b6060600b8054610a6690612178565b80601f0160208091040260200160405190810160405280929190818152602001828054610a9290612178565b8015610adf5780601f10610ab457610100808354040283529160200191610adf565b820191906000526020600020905b815481529060010190602001808311610ac257829003601f168201915b5050505050905090565b600660009054906101000a900473ffffffffffffffffffffffffffffffffffffffff1673ffffffffffffffffffffffffffffffffffffffff163373ffffffffffffffffffffffffffffffffffffffff1614610b79576040517f08c379a0000000000000000000000000000000000000000000000000000000008152600401610b7090611e90565b60405180910390fd5b6000610b83610d73565b50905080610be05747600d80549050600660149054906101000a900460ff166040517f0f724954000000000000000000000000000000000000000000000000000000008152600401610bd793929190611ef4565b60405180910390fd5b610be9826114ad565b5050565b600080600d80549050905060005b81811015610c93578373ffffffffffffffffffffffffffffffffffffffff16600d8281548110610c2e57610c2d6122b1565b5b9060005260206000200160009054906101000a900473ffffffffffffffffffffffffffffffffffffffff1673ffffffffffffffffffffffffffffffffffffffff161415610c8057600192505050610c9a565b8080610c8b906121db565b915050610bfb565b5060009150505b919050565b6000600154905090565b600c6020528060005260406000206000915090508060000154908060010160009054906101000a900461ffff16905082565b60098054610ce890612178565b80601f0160208091040260200160405190810160405280929190818152602001828054610d1490612178565b8015610d615780601f10610d3657610100808354040283529160200191610d61565b820191906000526020600020905b815481529060010190602001808311610d4457829003601f168201915b505050505081565b6000600254905090565b600060606000801515600660149054906101000a900460ff16151514905060008060045442610da2919061209a565b119050600080600d8054905011905060008047119050828015610dc25750835b8015610dcb5750805b8015610dd45750815b9550856040518060400160405280600381526020017f307830000000000000000000000000000000000000000000000000000000000081525095509550505050509091565b6000600660009054906101000a900473ffffffffffffffffffffffffffffffffffffffff16905090565b606060098054610e5290612178565b80601f0160208091040260200160405190810160405280929190818152602001828054610e7e90612178565b8015610ecb5780601f10610ea057610100808354040283529160200191610ecb565b820191906000526020600020905b815481529060010190602001808311610eae57829003601f168201915b5050505050905090565b60078054610ee290612178565b80601f0160208091040260200160405190810160405280929190818152602001828054610f0e90612178565b8015610f5b5780601f10610f3057610100808354040283529160200191610f5b565b820191906000526020600020905b815481529060010190602001808311610f3e57829003601f168201915b505050505081565b600560009054906101000a900473ffffffffffffffffffffffffffffffffffffffff1681565b600b8054610f9690612178565b80601f0160208091040260200160405190810160405280929190818152602001828054610fc290612178565b801561100f5780601f10610fe45761010080835404028352916020019161100f565b820191906000526020600020905b815481529060010190602001808311610ff257829003601f168201915b505050505081565b61102033610bed565b1561102a57600080fd5b600660149054906101000a900460ff161561104457600080fd5b600054341015611089576040517f08c379a000000000000000000000000000000000000000000000000000000000815260040161108090611e70565b60405180910390fd5b34600c60003373ffffffffffffffffffffffffffffffffffffffff1673ffffffffffffffffffffffffffffffffffffffff168152602001908152602001600020600001819055506002600c60003373ffffffffffffffffffffffffffffffffffffffff1673ffffffffffffffffffffffffffffffffffffffff16815260200190815260200160002060010160006101000a81548161ffff021916908361ffff160217905550600d339080600181540180825580915050600190039060005260206000200160009091909190916101000a81548173ffffffffffffffffffffffffffffffffffffffff021916908373ffffffffffffffffffffffffffffffffffffffff1602179055506064600f5460646111a2919061209a565b346111ad9190612040565b6111b7919061200f565b600260008282546111c89190611fb9565b925050819055503373ffffffffffffffffffffffffffffffffffffffff167f7f47e4b864ee52d8ca461d379020be7e99ae801a152dde71193bdc651da8a7c060405160405180910390a2565b600660009054906101000a900473ffffffffffffffffffffffffffffffffffffffff1673ffffffffffffffffffffffffffffffffffffffff163373ffffffffffffffffffffffffffffffffffffffff16146112a4576040517f08c379a000000000000000000000000000000000000000000000000000000000815260040161129b90611e90565b60405180910390fd5b6000600660146101000a81548160ff02191690831515021790555083600790805190602001906112d592919061198b565b5082600890805190602001906112ec92919061198b565b50816009908051906020019061130392919061198b565b5080600481905550600067ffffffffffffffff811115611326576113256122e0565b5b6040519080825280602002602001820160405280156113545781602001602082028036833780820191505090505b50600d908051906020019061136a929190611a11565b504260038190555050505050565b6000600d828154811061138e5761138d6122b1565b5b9060005260206000200160009054906101000a900473ffffffffffffffffffffffffffffffffffffffff169050919050565b600660149054906101000a900460ff1681565b600d81815481106113e357600080fd5b906000526020600020016000915054906101000a900473ffffffffffffffffffffffffffffffffffffffff1681565b6000600d80549050905090565b600a805461142c90612178565b80601f016020809104026020016040519081016040528092919081815260200182805461145890612178565b80156114a55780601f1061147a576101008083540402835291602001916114a5565b820191906000526020600020905b81548152906001019060200180831161148857829003601f168201915b505050505081565b600660009054906101000a900473ffffffffffffffffffffffffffffffffffffffff1673ffffffffffffffffffffffffffffffffffffffff163373ffffffffffffffffffffffffffffffffffffffff161461153d576040517f08c379a000000000000000000000000000000000000000000000000000000000815260040161153490611e90565b60405180910390fd5b600080600080600080600090505b600d8054905081101561167057600d818154811061156c5761156b6122b1565b5b9060005260206000200160009054906101000a900473ffffffffffffffffffffffffffffffffffffffff1691508661ffff16600c60008473ffffffffffffffffffffffffffffffffffffffff1673ffffffffffffffffffffffffffffffffffffffff16815260200190815260200160002060010160009054906101000a900461ffff1661ffff16141561165d57600e829080600181540180825580915050600190039060005260206000200160009091909190916101000a81548173ffffffffffffffffffffffffffffffffffffffff021916908373ffffffffffffffffffffffffffffffffffffffff1602179055505b8080611668906121db565b91505061154b565b5060018661ffff16141561168d5760025494506001549350611698565b600154945060025493505b60005b600e8054905081101561180957600e81815481106116bc576116bb6122b1565b5b9060005260206000200160009054906101000a900473ffffffffffffffffffffffffffffffffffffffff169350600c60008573ffffffffffffffffffffffffffffffffffffffff1673ffffffffffffffffffffffffffffffffffffffff168152602001908152602001600020600001549250600061271086612710896117429190612040565b61174c919061200f565b6127106117599190611fb9565b856117649190612040565b61176e919061200f565b9050600e8281548110611784576117836122b1565b5b9060005260206000200160009054906101000a900473ffffffffffffffffffffffffffffffffffffffff1673ffffffffffffffffffffffffffffffffffffffff166108fc829081150290604051600060405180830381858888f193505050501580156117f4573d6000803e3d6000fd5b50508080611801906121db565b91505061169b565b50600560009054906101000a900473ffffffffffffffffffffffffffffffffffffffff1673ffffffffffffffffffffffffffffffffffffffff166108fc479081150290604051600060405180830381858888f19350505050158015611872573d6000803e3d6000fd5b506001600660146101000a81548160ff02191690831515021790555060005b600d8054905081101561194e57600c6000600d83815481106118b6576118b56122b1565b5b9060005260206000200160009054906101000a900473ffffffffffffffffffffffffffffffffffffffff1673ffffffffffffffffffffffffffffffffffffffff1673ffffffffffffffffffffffffffffffffffffffff1681526020019081526020016000206000808201600090556001820160006101000a81549061ffff021916905550508080611946906121db565b915050611891565b50600d600061195d9190611a9b565b600e600061196b9190611a9b565b600094506000935060006001819055506000600281905550505050505050565b82805461199790612178565b90600052602060002090601f0160209004810192826119b95760008555611a00565b82601f106119d257805160ff1916838001178555611a00565b82800160010185558215611a00579182015b828111156119ff5782518255916020019190600101906119e4565b5b509050611a0d9190611abc565b5090565b828054828255906000526020600020908101928215611a8a579160200282015b82811115611a895782518260006101000a81548173ffffffffffffffffffffffffffffffffffffffff021916908373ffffffffffffffffffffffffffffffffffffffff16021790555091602001919060010190611a31565b5b509050611a979190611abc565b5090565b5080546000825590600052602060002090810190611ab99190611abc565b50565b5b80821115611ad5576000816000905550600101611abd565b5090565b6000611aec611ae784611f50565b611f2b565b905082815260208101848484011115611b0857611b07612314565b5b611b13848285612136565b509392505050565b600081359050611b2a816123ac565b92915050565b600082601f830112611b4557611b4461230f565b5b8135611b55848260208601611ad9565b91505092915050565b600081359050611b6d816123c3565b92915050565b600081359050611b82816123da565b92915050565b600060208284031215611b9e57611b9d61231e565b5b6000611bac84828501611b1b565b91505092915050565b60008060008060808587031215611bcf57611bce61231e565b5b600085013567ffffffffffffffff811115611bed57611bec612319565b5b611bf987828801611b30565b945050602085013567ffffffffffffffff811115611c1a57611c19612319565b5b611c2687828801611b30565b935050604085013567ffffffffffffffff811115611c4757611c46612319565b5b611c5387828801611b30565b9250506060611c6487828801611b73565b91505092959194509250565b600060208284031215611c8657611c8561231e565b5b6000611c9484828501611b5e565b91505092915050565b600060208284031215611cb357611cb261231e565b5b6000611cc184828501611b73565b91505092915050565b611cd3816120e0565b82525050565b611ce2816120ce565b82525050565b611cf1816120f2565b82525050565b6000611d0282611f81565b611d0c8185611f97565b9350611d1c818560208601612145565b611d2581612323565b840191505092915050565b6000611d3b82611f8c565b611d458185611fa8565b9350611d55818560208601612145565b611d5e81612323565b840191505092915050565b6000611d76601783611fa8565b9150611d8182612334565b602082019050919050565b6000611d99602183611fa8565b9150611da48261235d565b604082019050919050565b611db8816120fe565b82525050565b611dc78161212c565b82525050565b6000602082019050611de26000830184611cd9565b92915050565b6000602082019050611dfd6000830184611cca565b92915050565b6000602082019050611e186000830184611ce8565b92915050565b6000604082019050611e336000830185611ce8565b8181036020830152611e458184611cf7565b90509392505050565b60006020820190508181036000830152611e688184611d30565b905092915050565b60006020820190508181036000830152611e8981611d69565b9050919050565b60006020820190508181036000830152611ea981611d8c565b9050919050565b6000602082019050611ec56000830184611dbe565b92915050565b6000604082019050611ee06000830185611dbe565b611eed6020830184611daf565b9392505050565b6000606082019050611f096000830186611dbe565b611f166020830185611dbe565b611f236040830184611ce8565b949350505050565b6000611f35611f46565b9050611f4182826121aa565b919050565b6000604051905090565b600067ffffffffffffffff821115611f6b57611f6a6122e0565b5b611f7482612323565b9050602081019050919050565b600081519050919050565b600081519050919050565b600082825260208201905092915050565b600082825260208201905092915050565b6000611fc48261212c565b9150611fcf8361212c565b9250827fffffffffffffffffffffffffffffffffffffffffffffffffffffffffffffffff0382111561200457612003612224565b5b828201905092915050565b600061201a8261212c565b91506120258361212c565b92508261203557612034612253565b5b828204905092915050565b600061204b8261212c565b91506120568361212c565b9250817fffffffffffffffffffffffffffffffffffffffffffffffffffffffffffffffff048311821515161561208f5761208e612224565b5b828202905092915050565b60006120a58261212c565b91506120b08361212c565b9250828210156120c3576120c2612224565b5b828203905092915050565b60006120d98261210c565b9050919050565b60006120eb8261210c565b9050919050565b60008115159050919050565b600061ffff82169050919050565b600073ffffffffffffffffffffffffffffffffffffffff82169050919050565b6000819050919050565b82818337600083830152505050565b60005b83811015612163578082015181840152602081019050612148565b83811115612172576000848401525b50505050565b6000600282049050600182168061219057607f821691505b602082108114156121a4576121a3612282565b5b50919050565b6121b382612323565b810181811067ffffffffffffffff821117156121d2576121d16122e0565b5b80604052505050565b60006121e68261212c565b91507fffffffffffffffffffffffffffffffffffffffffffffffffffffffffffffffff82141561221957612218612224565b5b600182019050919050565b7f4e487b7100000000000000000000000000000000000000000000000000000000600052601160045260246000fd5b7f4e487b7100000000000000000000000000000000000000000000000000000000600052601260045260246000fd5b7f4e487b7100000000000000000000000000000000000000000000000000000000600052602260045260246000fd5b7f4e487b7100000000000000000000000000000000000000000000000000000000600052603260045260246000fd5b7f4e487b7100000000000000000000000000000000000000000000000000000000600052604160045260246000fd5b600080fd5b600080fd5b600080fd5b600080fd5b6000601f19601f8301169050919050565b7f496e73756666696369656e742062657420616d6f756e74000000000000000000600082015250565b7f4f6e6c792061646d696e2063616e2063616c6c20746869732066756e6374696f60008201527f6e00000000000000000000000000000000000000000000000000000000000000602082015250565b6123b5816120ce565b81146123c057600080fd5b50565b6123cc816120fe565b81146123d757600080fd5b50565b6123e38161212c565b81146123ee57600080fd5b5056fea26469706673582212201dce9497d2d483f4fc09a32a6f88fe1770be41fb125815a2723cfa0236e821f464736f6c63430008070033",
  "linkReferences": {},
  "deployedLinkReferences": {}
}