{
  "_format": "hh-sol-artifact-1",
  "contractName": "Betting",
  "sourceName": "contracts/BinaryBet.sol",
  "abi": [
    {
      "inputs": [
        {
          "internalType": "string",
          "name": "_option1Name",
          "type": "string"
        },
        {
          "internalType": "string",
          "name": "_option2Name",
          "type": "string"
        },
        {
          "internalType": "uint256",
          "name": "interval",
          "type": "uint256"
        },
        {
          "internalType": "uint256",
          "name": "entranceFee",
          "type": "uint256"
        }
      ],
      "stateMutability": "nonpayable",
      "type": "constructor"
    },
    {
      "inputs": [
        {
          "internalType": "uint256",
          "name": "currentBalance",
          "type": "uint256"
        },
        {
          "internalType": "uint256",
          "name": "numPlayers",
          "type": "uint256"
        },
        {
          "internalType": "bool",
          "name": "gameFinished",
          "type": "bool"
        }
      ],
      "name": "Betting__ExecuteNotNeeded",
      "type": "error"
    },
    {
      "anonymous": false,
      "inputs": [
        {
          "indexed": true,
          "internalType": "address",
          "name": "player",
          "type": "address"
        }
      ],
      "name": "BettingEnter",
      "type": "event"
    },
    {
      "inputs": [],
      "name": "AmountOne",
      "outputs": [
        {
          "internalType": "uint256",
          "name": "",
          "type": "uint256"
        }
      ],
      "stateMutability": "view",
      "type": "function"
    },
    {
      "inputs": [],
      "name": "AmountTwo",
      "outputs": [
        {
          "internalType": "uint256",
          "name": "",
          "type": "uint256"
        }
      ],
      "stateMutability": "view",
      "type": "function"
    },
    {
      "inputs": [],
      "name": "betOnOption1",
      "outputs": [],
      "stateMutability": "payable",
      "type": "function"
    },
    {
      "inputs": [],
      "name": "betOnOption2",
      "outputs": [],
      "stateMutability": "payable",
      "type": "function"
    },
    {
      "inputs": [],
      "name": "checkExecuteReady",
      "outputs": [
        {
          "internalType": "bool",
          "name": "readyToExecute",
          "type": "bool"
        },
        {
          "internalType": "bytes",
          "name": "",
          "type": "bytes"
        }
      ],
      "stateMutability": "view",
      "type": "function"
    },
    {
      "inputs": [
        {
          "internalType": "address",
          "name": "player",
          "type": "address"
        }
      ],
      "name": "checkPlayerExists",
      "outputs": [
        {
          "internalType": "bool",
          "name": "",
          "type": "bool"
        }
      ],
      "stateMutability": "view",
      "type": "function"
    },
    {
      "inputs": [],
      "name": "gameFinished",
      "outputs": [
        {
          "internalType": "bool",
          "name": "",
          "type": "bool"
        }
      ],
      "stateMutability": "view",
      "type": "function"
    },
    {
      "inputs": [],
      "name": "getAdmin",
      "outputs": [
        {
          "internalType": "address",
          "name": "",
          "type": "address"
        }
      ],
      "stateMutability": "view",
      "type": "function"
    },
    {
      "inputs": [],
      "name": "getDueDate",
      "outputs": [
        {
          "internalType": "uint256",
          "name": "",
          "type": "uint256"
        }
      ],
      "stateMutability": "view",
      "type": "function"
    },
    {
      "inputs": [],
      "name": "getEntranceFee",
      "outputs": [
        {
          "internalType": "uint256",
          "name": "",
          "type": "uint256"
        }
      ],
      "stateMutability": "view",
      "type": "function"
    },
    {
      "inputs": [],
      "name": "getGameFinished",
      "outputs": [
        {
          "internalType": "bool",
          "name": "",
          "type": "bool"
        }
      ],
      "stateMutability": "view",
      "type": "function"
    },
    {
      "inputs": [],
      "name": "getLastTimeStamp",
      "outputs": [
        {
          "internalType": "uint256",
          "name": "",
          "type": "uint256"
        }
      ],
      "stateMutability": "view",
      "type": "function"
    },
    {
      "inputs": [],
      "name": "getNumberOfPlayers",
      "outputs": [
        {
          "internalType": "uint256",
          "name": "",
          "type": "uint256"
        }
      ],
      "stateMutability": "view",
      "type": "function"
    },
    {
      "inputs": [],
      "name": "getOption1Name",
      "outputs": [
        {
          "internalType": "string",
          "name": "",
          "type": "string"
        }
      ],
      "stateMutability": "view",
      "type": "function"
    },
    {
      "inputs": [],
      "name": "getOption2Name",
      "outputs": [
        {
          "internalType": "string",
          "name": "",
          "type": "string"
        }
      ],
      "stateMutability": "view",
      "type": "function"
    },
    {
      "inputs": [
        {
          "internalType": "uint256",
          "name": "index",
          "type": "uint256"
        }
      ],
      "name": "getPlayer",
      "outputs": [
        {
          "internalType": "address",
          "name": "",
          "type": "address"
        }
      ],
      "stateMutability": "view",
      "type": "function"
    },
    {
      "inputs": [],
      "name": "option1Name",
      "outputs": [
        {
          "internalType": "string",
          "name": "",
          "type": "string"
        }
      ],
      "stateMutability": "view",
      "type": "function"
    },
    {
      "inputs": [],
      "name": "option2Name",
      "outputs": [
        {
          "internalType": "string",
          "name": "",
          "type": "string"
        }
      ],
      "stateMutability": "view",
      "type": "function"
    },
    {
      "inputs": [],
      "name": "owner",
      "outputs": [
        {
          "internalType": "address payable",
          "name": "",
          "type": "address"
        }
      ],
      "stateMutability": "view",
      "type": "function"
    },
    {
      "inputs": [
        {
          "internalType": "uint16",
          "name": "oraclemsg",
          "type": "uint16"
        }
      ],
      "name": "performExecute",
      "outputs": [],
      "stateMutability": "nonpayable",
      "type": "function"
    },
    {
      "inputs": [
        {
          "internalType": "address",
          "name": "",
          "type": "address"
        }
      ],
      "name": "playerInfo",
      "outputs": [
        {
          "internalType": "uint256",
          "name": "amountBet",
          "type": "uint256"
        },
        {
          "internalType": "uint16",
          "name": "teamSelected",
          "type": "uint16"
        }
      ],
      "stateMutability": "view",
      "type": "function"
    },
    {
      "inputs": [
        {
          "internalType": "uint256",
          "name": "",
          "type": "uint256"
        }
      ],
      "name": "players",
      "outputs": [
        {
          "internalType": "address payable",
          "name": "",
          "type": "address"
        }
      ],
      "stateMutability": "view",
      "type": "function"
    },
    {
      "inputs": [
        {
          "internalType": "string",
          "name": "_option1Name",
          "type": "string"
        },
        {
          "internalType": "string",
          "name": "_option2Name",
          "type": "string"
        }
      ],
      "name": "reopenGame",
      "outputs": [],
      "stateMutability": "nonpayable",
      "type": "function"
    }
  ],
  "bytecode": "0x60a0604052600a600b553480156200001657600080fd5b50604051620024ce380380620024ce83398181016040528101906200003c919062000292565b8160808181525050806000819055506000600560146101000a81548160ff0219169083151502179055504260038190555033600560006101000a81548173ffffffffffffffffffffffffffffffffffffffff021916908373ffffffffffffffffffffffffffffffffffffffff1602179055508360069080519060200190620000c69291906200014d565b508260079080519060200190620000df9291906200014d565b50600560009054906101000a900473ffffffffffffffffffffffffffffffffffffffff16600460006101000a81548173ffffffffffffffffffffffffffffffffffffffff021916908373ffffffffffffffffffffffffffffffffffffffff16021790555050505050620004ea565b8280546200015b90620003e1565b90600052602060002090601f0160209004810192826200017f5760008555620001cb565b82601f106200019a57805160ff1916838001178555620001cb565b82800160010185558215620001cb579182015b82811115620001ca578251825591602001919060010190620001ad565b5b509050620001da9190620001de565b5090565b5b80821115620001f9576000816000905550600101620001df565b5090565b6000620002146200020e846200036b565b62000342565b905082815260208101848484011115620002335762000232620004b0565b5b62000240848285620003ab565b509392505050565b600082601f83011262000260576200025f620004ab565b5b815162000272848260208601620001fd565b91505092915050565b6000815190506200028c81620004d0565b92915050565b60008060008060808587031215620002af57620002ae620004ba565b5b600085015167ffffffffffffffff811115620002d057620002cf620004b5565b5b620002de8782880162000248565b945050602085015167ffffffffffffffff811115620003025762000301620004b5565b5b620003108782880162000248565b935050604062000323878288016200027b565b925050606062000336878288016200027b565b91505092959194509250565b60006200034e62000361565b90506200035c828262000417565b919050565b6000604051905090565b600067ffffffffffffffff8211156200038957620003886200047c565b5b6200039482620004bf565b9050602081019050919050565b6000819050919050565b60005b83811015620003cb578082015181840152602081019050620003ae565b83811115620003db576000848401525b50505050565b60006002820490506001821680620003fa57607f821691505b602082108114156200041157620004106200044d565b5b50919050565b6200042282620004bf565b810181811067ffffffffffffffff821117156200044457620004436200047c565b5b80604052505050565b7f4e487b7100000000000000000000000000000000000000000000000000000000600052602260045260246000fd5b7f4e487b7100000000000000000000000000000000000000000000000000000000600052604160045260246000fd5b600080fd5b600080fd5b600080fd5b600080fd5b6000601f19601f8301169050919050565b620004db81620003a1565b8114620004e757600080fd5b50565b608051611fc8620005066000396000610b0f0152611fc86000f3fe6080604052600436106101405760003560e01c8063676f6474116100b6578063d57a44d11161006f578063d57a44d114610402578063de30c3b81461042b578063e55ae4e814610456578063f0f3249714610493578063f71d96cb146104be578063fd6673f5146104fb57610140565b8063676f6474146103205780636e9960c31461034c5780637dc6e841146103775780638da5cb5b146103a2578063c1c244e8146103cd578063c8539808146103f857610140565b80633ca53bba116101085780633ca53bba146101fb5780634081d916146102245780634996d51d146102615780634b1146911461028c5780635bb68fe8146102ca57806365733592146102f557610140565b80630632cf6d1461014557806309bc33a7146101705780630ca740401461019b57806327f0cbc0146101a55780632aae3630146101d0575b600080fd5b34801561015157600080fd5b5061015a610526565b60405161016791906119ef565b60405180910390f35b34801561017c57600080fd5b506101856105b4565b6040516101929190611a51565b60405180910390f35b6101a36105bd565b005b3480156101b157600080fd5b506101ba6107ba565b6040516101c791906119a4565b60405180910390f35b3480156101dc57600080fd5b506101e56107d1565b6040516101f291906119ef565b60405180910390f35b34801561020757600080fd5b50610222600480360381019061021d9190611811565b610863565b005b34801561023057600080fd5b5061024b6004803603810190610246919061176c565b610967565b60405161025891906119a4565b60405180910390f35b34801561026d57600080fd5b50610276610a19565b6040516102839190611a51565b60405180910390f35b34801561029857600080fd5b506102b360048036038101906102ae919061176c565b610a23565b6040516102c1929190611a6c565b60405180910390f35b3480156102d657600080fd5b506102df610a55565b6040516102ec91906119ef565b60405180910390f35b34801561030157600080fd5b5061030a610ae3565b6040516103179190611a51565b60405180910390f35b34801561032c57600080fd5b50610335610aed565b6040516103439291906119bf565b60405180910390f35b34801561035857600080fd5b50610361610bb3565b60405161036e919061196e565b60405180910390f35b34801561038357600080fd5b5061038c610bdd565b60405161039991906119ef565b60405180910390f35b3480156103ae57600080fd5b506103b7610c6f565b6040516103c49190611989565b60405180910390f35b3480156103d957600080fd5b506103e2610c95565b6040516103ef9190611a51565b60405180910390f35b610400610c9f565b005b34801561040e57600080fd5b5061042960048036038101906104249190611799565b610e9c565b005b34801561043757600080fd5b50610440610fe0565b60405161044d9190611a51565b60405180910390f35b34801561046257600080fd5b5061047d6004803603810190610478919061183e565b610fea565b60405161048a919061196e565b60405180910390f35b34801561049f57600080fd5b506104a8611032565b6040516104b591906119a4565b60405180910390f35b3480156104ca57600080fd5b506104e560048036038101906104e0919061183e565b611045565b6040516104f29190611989565b60405180910390f35b34801561050757600080fd5b50610510611084565b60405161051d9190611a51565b60405180910390f35b6006805461053390611d19565b80601f016020809104026020016040519081016040528092919081815260200182805461055f90611d19565b80156105ac5780601f10610581576101008083540402835291602001916105ac565b820191906000526020600020905b81548152906001019060200180831161058f57829003601f168201915b505050505081565b60008054905090565b6105c633610967565b156105d057600080fd5b600560149054906101000a900460ff16156105ea57600080fd5b60005434101561062f576040517f08c379a000000000000000000000000000000000000000000000000000000000815260040161062690611a11565b60405180910390fd5b34600860003373ffffffffffffffffffffffffffffffffffffffff1673ffffffffffffffffffffffffffffffffffffffff168152602001908152602001600020600001819055506001600860003373ffffffffffffffffffffffffffffffffffffffff1673ffffffffffffffffffffffffffffffffffffffff16815260200190815260200160002060010160006101000a81548161ffff021916908361ffff1602179055506009339080600181540180825580915050600190039060005260206000200160009091909190916101000a81548173ffffffffffffffffffffffffffffffffffffffff021916908373ffffffffffffffffffffffffffffffffffffffff1602179055506064600b5460646107489190611c3b565b346107539190611be1565b61075d9190611bb0565b6001600082825461076e9190611b5a565b925050819055503373ffffffffffffffffffffffffffffffffffffffff167f7f47e4b864ee52d8ca461d379020be7e99ae801a152dde71193bdc651da8a7c060405160405180910390a2565b6000600560149054906101000a900460ff16905090565b6060600680546107e090611d19565b80601f016020809104026020016040519081016040528092919081815260200182805461080c90611d19565b80156108595780601f1061082e57610100808354040283529160200191610859565b820191906000526020600020905b81548152906001019060200180831161083c57829003601f168201915b5050505050905090565b600560009054906101000a900473ffffffffffffffffffffffffffffffffffffffff1673ffffffffffffffffffffffffffffffffffffffff163373ffffffffffffffffffffffffffffffffffffffff16146108f3576040517f08c379a00000000000000000000000000000000000000000000000000000000081526004016108ea90611a31565b60405180910390fd5b60006108fd610aed565b5090508061095a5747600980549050600560149054906101000a900460ff166040517f0f72495400000000000000000000000000000000000000000000000000000000815260040161095193929190611a95565b60405180910390fd5b61096382611091565b5050565b600080600980549050905060005b81811015610a0d578373ffffffffffffffffffffffffffffffffffffffff16600982815481106109a8576109a7611e52565b5b9060005260206000200160009054906101000a900473ffffffffffffffffffffffffffffffffffffffff1673ffffffffffffffffffffffffffffffffffffffff1614156109fa57600192505050610a14565b8080610a0590611d7c565b915050610975565b5060009150505b919050565b6000600154905090565b60086020528060005260406000206000915090508060000154908060010160009054906101000a900461ffff16905082565b60078054610a6290611d19565b80601f0160208091040260200160405190810160405280929190818152602001828054610a8e90611d19565b8015610adb5780601f10610ab057610100808354040283529160200191610adb565b820191906000526020600020905b815481529060010190602001808311610abe57829003601f168201915b505050505081565b6000600254905090565b600060606000801515600560149054906101000a900460ff16151514905060007f000000000000000000000000000000000000000000000000000000000000000060035442610b3c9190611c3b565b11905060008060098054905011905060008047119050828015610b5c5750835b8015610b655750805b8015610b6e5750815b9550856040518060400160405280600381526020017f307830000000000000000000000000000000000000000000000000000000000081525095509550505050509091565b6000600560009054906101000a900473ffffffffffffffffffffffffffffffffffffffff16905090565b606060078054610bec90611d19565b80601f0160208091040260200160405190810160405280929190818152602001828054610c1890611d19565b8015610c655780601f10610c3a57610100808354040283529160200191610c65565b820191906000526020600020905b815481529060010190602001808311610c4857829003601f168201915b5050505050905090565b600460009054906101000a900473ffffffffffffffffffffffffffffffffffffffff1681565b6000600354905090565b610ca833610967565b15610cb257600080fd5b600560149054906101000a900460ff1615610ccc57600080fd5b600054341015610d11576040517f08c379a0000000000000000000000000000000000000000000000000000000008152600401610d0890611a11565b60405180910390fd5b34600860003373ffffffffffffffffffffffffffffffffffffffff1673ffffffffffffffffffffffffffffffffffffffff168152602001908152602001600020600001819055506002600860003373ffffffffffffffffffffffffffffffffffffffff1673ffffffffffffffffffffffffffffffffffffffff16815260200190815260200160002060010160006101000a81548161ffff021916908361ffff1602179055506009339080600181540180825580915050600190039060005260206000200160009091909190916101000a81548173ffffffffffffffffffffffffffffffffffffffff021916908373ffffffffffffffffffffffffffffffffffffffff1602179055506064600b546064610e2a9190611c3b565b34610e359190611be1565b610e3f9190611bb0565b60026000828254610e509190611b5a565b925050819055503373ffffffffffffffffffffffffffffffffffffffff167f7f47e4b864ee52d8ca461d379020be7e99ae801a152dde71193bdc651da8a7c060405160405180910390a2565b600560009054906101000a900473ffffffffffffffffffffffffffffffffffffffff1673ffffffffffffffffffffffffffffffffffffffff163373ffffffffffffffffffffffffffffffffffffffff1614610f2c576040517f08c379a0000000000000000000000000000000000000000000000000000000008152600401610f2390611a31565b60405180910390fd5b6000600560146101000a81548160ff0219169083151502179055508160069080519060200190610f5d92919061156f565b508060079080519060200190610f7492919061156f565b50600067ffffffffffffffff811115610f9057610f8f611e81565b5b604051908082528060200260200182016040528015610fbe5781602001602082028036833780820191505090505b5060099080519060200190610fd49291906115f5565b50426003819055505050565b6000600354905090565b60006009828154811061100057610fff611e52565b5b9060005260206000200160009054906101000a900473ffffffffffffffffffffffffffffffffffffffff169050919050565b600560149054906101000a900460ff1681565b6009818154811061105557600080fd5b906000526020600020016000915054906101000a900473ffffffffffffffffffffffffffffffffffffffff1681565b6000600980549050905090565b600560009054906101000a900473ffffffffffffffffffffffffffffffffffffffff1673ffffffffffffffffffffffffffffffffffffffff163373ffffffffffffffffffffffffffffffffffffffff1614611121576040517f08c379a000000000000000000000000000000000000000000000000000000000815260040161111890611a31565b60405180910390fd5b600080600080600080600090505b60098054905081101561125457600981815481106111505761114f611e52565b5b9060005260206000200160009054906101000a900473ffffffffffffffffffffffffffffffffffffffff1691508661ffff16600860008473ffffffffffffffffffffffffffffffffffffffff1673ffffffffffffffffffffffffffffffffffffffff16815260200190815260200160002060010160009054906101000a900461ffff1661ffff16141561124157600a829080600181540180825580915050600190039060005260206000200160009091909190916101000a81548173ffffffffffffffffffffffffffffffffffffffff021916908373ffffffffffffffffffffffffffffffffffffffff1602179055505b808061124c90611d7c565b91505061112f565b5060018661ffff161415611271576002549450600154935061127c565b600154945060025493505b60005b600a805490508110156113ed57600a81815481106112a05761129f611e52565b5b9060005260206000200160009054906101000a900473ffffffffffffffffffffffffffffffffffffffff169350600860008573ffffffffffffffffffffffffffffffffffffffff1673ffffffffffffffffffffffffffffffffffffffff168152602001908152602001600020600001549250600061271086612710896113269190611be1565b6113309190611bb0565b61271061133d9190611b5a565b856113489190611be1565b6113529190611bb0565b9050600a828154811061136857611367611e52565b5b9060005260206000200160009054906101000a900473ffffffffffffffffffffffffffffffffffffffff1673ffffffffffffffffffffffffffffffffffffffff166108fc829081150290604051600060405180830381858888f193505050501580156113d8573d6000803e3d6000fd5b505080806113e590611d7c565b91505061127f565b50600460009054906101000a900473ffffffffffffffffffffffffffffffffffffffff1673ffffffffffffffffffffffffffffffffffffffff166108fc479081150290604051600060405180830381858888f19350505050158015611456573d6000803e3d6000fd5b506001600560146101000a81548160ff02191690831515021790555060005b60098054905081101561153257600860006009838154811061149a57611499611e52565b5b9060005260206000200160009054906101000a900473ffffffffffffffffffffffffffffffffffffffff1673ffffffffffffffffffffffffffffffffffffffff1673ffffffffffffffffffffffffffffffffffffffff1681526020019081526020016000206000808201600090556001820160006101000a81549061ffff02191690555050808061152a90611d7c565b915050611475565b5060096000611541919061167f565b600a600061154f919061167f565b600094506000935060006001819055506000600281905550505050505050565b82805461157b90611d19565b90600052602060002090601f01602090048101928261159d57600085556115e4565b82601f106115b657805160ff19168380011785556115e4565b828001600101855582156115e4579182015b828111156115e35782518255916020019190600101906115c8565b5b5090506115f191906116a0565b5090565b82805482825590600052602060002090810192821561166e579160200282015b8281111561166d5782518260006101000a81548173ffffffffffffffffffffffffffffffffffffffff021916908373ffffffffffffffffffffffffffffffffffffffff16021790555091602001919060010190611615565b5b50905061167b91906116a0565b5090565b508054600082559060005260206000209081019061169d91906116a0565b50565b5b808211156116b95760008160009055506001016116a1565b5090565b60006116d06116cb84611af1565b611acc565b9050828152602081018484840111156116ec576116eb611eb5565b5b6116f7848285611cd7565b509392505050565b60008135905061170e81611f4d565b92915050565b600082601f83011261172957611728611eb0565b5b81356117398482602086016116bd565b91505092915050565b60008135905061175181611f64565b92915050565b60008135905061176681611f7b565b92915050565b60006020828403121561178257611781611ebf565b5b6000611790848285016116ff565b91505092915050565b600080604083850312156117b0576117af611ebf565b5b600083013567ffffffffffffffff8111156117ce576117cd611eba565b5b6117da85828601611714565b925050602083013567ffffffffffffffff8111156117fb576117fa611eba565b5b61180785828601611714565b9150509250929050565b60006020828403121561182757611826611ebf565b5b600061183584828501611742565b91505092915050565b60006020828403121561185457611853611ebf565b5b600061186284828501611757565b91505092915050565b61187481611c81565b82525050565b61188381611c6f565b82525050565b61189281611c93565b82525050565b60006118a382611b22565b6118ad8185611b38565b93506118bd818560208601611ce6565b6118c681611ec4565b840191505092915050565b60006118dc82611b2d565b6118e68185611b49565b93506118f6818560208601611ce6565b6118ff81611ec4565b840191505092915050565b6000611917601783611b49565b915061192282611ed5565b602082019050919050565b600061193a602183611b49565b915061194582611efe565b604082019050919050565b61195981611c9f565b82525050565b61196881611ccd565b82525050565b6000602082019050611983600083018461187a565b92915050565b600060208201905061199e600083018461186b565b92915050565b60006020820190506119b96000830184611889565b92915050565b60006040820190506119d46000830185611889565b81810360208301526119e68184611898565b90509392505050565b60006020820190508181036000830152611a0981846118d1565b905092915050565b60006020820190508181036000830152611a2a8161190a565b9050919050565b60006020820190508181036000830152611a4a8161192d565b9050919050565b6000602082019050611a66600083018461195f565b92915050565b6000604082019050611a81600083018561195f565b611a8e6020830184611950565b9392505050565b6000606082019050611aaa600083018661195f565b611ab7602083018561195f565b611ac46040830184611889565b949350505050565b6000611ad6611ae7565b9050611ae28282611d4b565b919050565b6000604051905090565b600067ffffffffffffffff821115611b0c57611b0b611e81565b5b611b1582611ec4565b9050602081019050919050565b600081519050919050565b600081519050919050565b600082825260208201905092915050565b600082825260208201905092915050565b6000611b6582611ccd565b9150611b7083611ccd565b9250827fffffffffffffffffffffffffffffffffffffffffffffffffffffffffffffffff03821115611ba557611ba4611dc5565b5b828201905092915050565b6000611bbb82611ccd565b9150611bc683611ccd565b925082611bd657611bd5611df4565b5b828204905092915050565b6000611bec82611ccd565b9150611bf783611ccd565b9250817fffffffffffffffffffffffffffffffffffffffffffffffffffffffffffffffff0483118215151615611c3057611c2f611dc5565b5b828202905092915050565b6000611c4682611ccd565b9150611c5183611ccd565b925082821015611c6457611c63611dc5565b5b828203905092915050565b6000611c7a82611cad565b9050919050565b6000611c8c82611cad565b9050919050565b60008115159050919050565b600061ffff82169050919050565b600073ffffffffffffffffffffffffffffffffffffffff82169050919050565b6000819050919050565b82818337600083830152505050565b60005b83811015611d04578082015181840152602081019050611ce9565b83811115611d13576000848401525b50505050565b60006002820490506001821680611d3157607f821691505b60208210811415611d4557611d44611e23565b5b50919050565b611d5482611ec4565b810181811067ffffffffffffffff82111715611d7357611d72611e81565b5b80604052505050565b6000611d8782611ccd565b91507fffffffffffffffffffffffffffffffffffffffffffffffffffffffffffffffff821415611dba57611db9611dc5565b5b600182019050919050565b7f4e487b7100000000000000000000000000000000000000000000000000000000600052601160045260246000fd5b7f4e487b7100000000000000000000000000000000000000000000000000000000600052601260045260246000fd5b7f4e487b7100000000000000000000000000000000000000000000000000000000600052602260045260246000fd5b7f4e487b7100000000000000000000000000000000000000000000000000000000600052603260045260246000fd5b7f4e487b7100000000000000000000000000000000000000000000000000000000600052604160045260246000fd5b600080fd5b600080fd5b600080fd5b600080fd5b6000601f19601f8301169050919050565b7f496e73756666696369656e742062657420616d6f756e74000000000000000000600082015250565b7f4f6e6c792061646d696e2063616e2063616c6c20746869732066756e6374696f60008201527f6e00000000000000000000000000000000000000000000000000000000000000602082015250565b611f5681611c6f565b8114611f6157600080fd5b50565b611f6d81611c9f565b8114611f7857600080fd5b50565b611f8481611ccd565b8114611f8f57600080fd5b5056fea2646970667358221220eadd171bbfa51dea266bd3a124b4e393521dbb52d7bd7e37cbbf8b2909b4078464736f6c63430008070033",
  "linkReferences": {},
  "deployedLinkReferences": {}
}